:20000000004000201DF7000001C9011001C9011001C9011001C9011001C9011001C901104A
:1C00200001C9011001C9011001C9011001C9011001C9011001C901103FC9011089
:20003C002DE9F04FDC4CE088ADF1140D11F084FCDBA595E80C0009F0C3F9DBA696E80C00B6
:20005C0008F0EBF902F012FAD9A20CCA09F0B8F9D9A20CCA06F09BFC0FF0D6F9208140F62C
:20007C00B8306081E08811F067FC95E80C0009F0A7F9D3A20CCA08F0D0F902F0F7F9D2A24B
:20009C000CCA09F09DF9D2A20CCA06F080FC0FF0BBF9A081E08811F04FFC95E80C0009F019
:2000BC008FF996E80C0008F0B8F902F0DFF9E1A797E80C0009F084F9E0A20CCA06F067FC65
:2000DC000FF0A2F9A070E08811F036FC95E80C0009F076F996E80C0008F09FF902F0C6F903
:2000FC00D8A20CCA09F06CF997E80C0006F04FFC0FF08AF96778D54D394605EB4102A1890B
:20011C00A2F88610D24A4FFA80F8B4F808A0B4F80AB094F9029084F803804800178010F0FF
:20013C0063FADA490DF084F8D9490CF047F810F023FAD8A20CCA09F043F90BF07DF80FF03C
:20015C0063F97E0005F1EC04AB19A3F8A80005F1CA0222F806B0A4F1880124F806A0BC4C42
:20017C00019102F12201029105F1640101F8079004F1BE00049005F1750909F8078001F108
:20019C001108B3F8A80011F019FA10F0F5F9C3A20CCA8A46834609F013F90FF035F909F1D5
:2001BC003309ADF80000BFA2CDF80C900CCA5146584609F005F98246A86B894610F0DCF9FF
:2001DC000B4602464946504609F0FAF80FF01CF976196F1D863604210222387033464FF4C2
:2001FC00F0400FF0C9F84FF4F040052102226B460FF0C2F8AC896879B44907F1810B0870BD
:20021C00102C40F00282286CDDF80890DDF810A0AF4E1127401CC5F810010024286439F80C
:20023C00021B3AF8020B484310F02DFE9FA20CCA09F0C6F80FF030FB16F8011B7F1E00FBD6
:20025C000144ECD1204611F0B9F99A490BF0B6FF994C21460CF0ECFF98490BF0AFFF10F017
:20027C008BF90AF0E9FF0FF017FB9949039A11278146002011F8013B32F8026B7F1E06FBD3
:20029C000300F7D111F09AF921460CF0D1FF8C490BF094FF10F070F90AF0CEFF0FF0FCFA28
:2002BC000746A86C4844A864696CC91969642B6DEA6C1B185218C5F814313846C5F81821A4
:2002DC0011F07CF97F490BF079FF7F490CF0B0FF10F052F90AF0B0FF0FF096F8C2B22A724D
:2002FC00002085F82C210146019A1256461CF0B25218102811B2F7DBC81001EB1071081115
:20031C0010F0C1FD0AF098FF0FF07EF841B26429D9BF0024201C1920002485F82D11A87154
:20033C002146A5F82A412046029A32F811204E1CF1B280181029F7DB11F040F9D3490CF0D3
:20035C0077FF10F019F90AF077FF0FF0A5FAE863A5F828010EF0C8FF85F82F010EF0BAFCB4
:20037C005A4E85F82E01BFB34FF47A7000FB09F011F024F98146384611F020F90146484628
:20039C000BF01CFF10F024FB4FF6FF71814228BF80B223D202E0C046E82000201CE0C04674
:2003BC00182D4454FB2109400000000000806640000000000070B740000000000094E1409D
:2003DC000000000000004E400000000000E075400000000000C077404FF6FF70A5F82401F1
:2003FC000EF0BCFDA5F826010EF09EFCC5F81C010CF094FBAF890146C5F82011381C29D0AF
:20041C002246204618F90010401CC0B2891887420AB2F7DCF7B192FBF7F010F034FD0AF0C3
:20043C000BFF0EF0F1FF41B27E29B4BF201C2020E87110E000000000000034400000000062
:20045C0000002E400000000000003E40580F0020640F0020214685F830112746002F39D1AF
:20047C005946088C039B0880188C98F910101880049A88F80010108C029B1080188C019AE4
:20049C00188092F91000107031E0C046DB0F49400000704252B81E85EB512440CDCCCCCCD3
:2004BC00CCCC0C403BDF4F8D976EA23F2D431CEBE2361A3F00803B450000964300006145F9
:2004DC000060EA4600A08C450000B443142D00204C21002008F807400198C4557B002BF883
:2004FC0003400399CC52049AD4520298C4527F1C112FB3DB95F82F11287995F82A217170DF
:20051C00401C2871B5F82871727195F82E01EF6305F58876052104223346A87041F6110076
:20053C000EF02AFF4FF4F0400221012206F11D030EF022FF4FF4F0400621042206F10803C7
:20055C000EF01AFF4FF4F04007210422331D0EF013FF05F592734FF4F0400B2102220EF087
:20057C000BFF05F593734FF4F040082102220EF003FF4FF4F0400921042206F10C030EF0CE
:20059C00FBFE4FF4F0400A21042206F110030EF0F3FE4FF4F0400C21012206F120030EF0AE
:2005BC00EBFEA879192804D0E879202808BFEB1D00D0AB1D4FF4F040032101220EF0DCFE5E
:2005DC0006F1180341F60F00012102220EF0D4FE06F11E0341F60F00214601220EF0CCFEE1
:2005FC0006F11F0341F60F00042101220EF0C4FEE878A97820B90529BCBF0120E87001DB20
:20061C00012802D10829C8BFEC7028790A282DDBEA89D5F81031286B9100C5F83431401CB0
:20063C0001EBC201C5F838014919194FC1F83C01E989D5F81821880000EBC1004019C0F87C
:20065C004021E989D5F81421880000EBC1004019C0F84421286B0024401C87428CBF28634D
:20067C002C630EF0E1F9AC642C716C6409480146C0880F46401CC8807878401CC0B21128AA
:20069C00A8BF012005B04870BDE8F08F0000803D80D3D8FFE82000202DE9F04F0446B4487B
:2006BC000D461646ADF5FE7D5B1E011DADF1600D9095F21E8F94D1F800C0929316F1140F80
:2006DC00CDF854C24FF01801CDF850C292FBF1F19391BCBF002193910C466246A6EB0416FC
:2006FC001946A6EBC406183E8D18A4EB0104969612D406466D1CE8465036002C44BFBEA06D
:20071C0003C803D456F8240010F0BDFB6D1EA8E8030004F10104F0D19598002828D405467C
:20073C000DF5A07B00266D1C929FB3A090E80003002F17D4DDF83CA206EBC7007F1C0DEBBA
:20075C000004BAE8030094E80C0008F039FE0B4602464946404606F01AF9083C894680468D
:20077C007F1EEED16D1EABE8000306F10806DBD19598919048E0B9F1000F42DD9199DDF8E2
:20079C0048C2939A7A4F0DEBC1030CEB0100CB4603F5A473C4008A188C93083407EB820034
:2007BC0000F1500A61440DEBC1065AF8040F10F06AFB083686E803008FA003C8929F8D90AD
:2007DC00002F8E9115D4DDF83C820DEB04057F1CB8E8030095E80C0008F0F2FD0B460246EB
:2007FC008E998D9806F0D3F8083D8E917F1E8D90EED18C9ABBF1010B03C204F108048C9231
:20081C00D3D1919848449190C5000DEB050404F5A07494E80003002828DD083C07460DF530
:20083C00F07BBDA20CCA4946404608F0C9FD0EF0EBFD10F028FBBAA20CCA8A46064608F0DA
:20085C00BFFD0B4602464946404606F09BF80EF0DBFD4BF8040B94E803005346324606F0DB
:20087C0096F8083C894680467F1EDAD1969F494640463A4609F030FEABA20CCA8846814604
:20089C0008F09EFD08F012FFA9A20CCA08F098FD0B4602464146484606F074F8884681464D
:2008BC000EF0B2FD8D9010F0EEFA0B4602464146484606F067F80FF2882A89468046002FF0
:2008DC0014DC391C0BD09CA20CCA49460CF0F1F984BF00208E9071D802208E9020E0919820
:2008FC000DEB8000D0F8DC01C01516E091983C460DEB800303F5F0738D9F53F8040CC4F137
:20091C001802C4F1170440FA02F101FA02F2801A43F8040C7A188D92204100288E904DDD4E
:20093C009198002400280EDD77A951F8047F24B93FB1C7F18077012402E06FF07F42D71BBA
:20095C000F60401EF1D1969F8D98002F00F101008D901ADD7F1E0DD07F1E16D191980DEB3E
:20097C00800101F5F07151F8040C6FF39F500AE0A03B010091980DEB800101F5F07151F8D1
:20099C00040C6FF3DF5041F8040C8E98022815D19AE803004B46424605F0F4FF8946804600
:2009BC0064B19AE80300969A09F096FD0B4602464946404605F0E6FF894680460EA20CCA22
:2009DC00494640460CF032F93FD0969F40467A4209F082FD8046919851A20CCA0DEB80048D
:2009FC0040460CF066F9894604F5F07484BF8B46464624D804E0C046000000000000000048
:200A1C0045A20CCA404608F0DBFC0EF0FDFC10F03AFA43A20CCA8B46064608F0D1FC0B468F
:200A3C0002464946404605F0ADFF0EF0EDFC1837083544F8040B91989697401C919059466C
:200A5C0030460EF0E1FC206039E0919895990026401E81420CDC919F95980DEB870101F537
:200A7C00EE713F1A51F804097F1E40EA0606F9D176B995984FF001090DEB800000F5EE703F
:200A9C00016800297FF477AE001F09F10109F7E79199969F0DEB8100083D183F00F5F07046
:200ABC00491E9697001F919106E09199183F083D001F9697491E919101680029F5D09AE8EB
:200ADC0003003A4609F008FD82469198894600281ED407460DEBC7040DEB870804F5A074FB
:200AFC0008F5F0787F1C58F8040910F0CCF94B46524608F065FC08A284E803000CCA4946B8
:200B1C00504608F05DFC083C894682467F1EEAD1919C002C50D417E0000000000000703E7D
:200B3C000000000000007041000000000000C03F0000000000002040000000000000E03F6A
:200B5C00000000000000F03FA5EBC40528A8E70005EB0008949E3DA090E8000C002ECDF8BC
:200B7C0030A221D4DFF8EC90DDF844A2354600266D1C09F11009AAEB040AB24514DBF200CC
:200B9C0002EB090003C850ABD219D2180CCA08F017FC02468C980B46594605F0F8FE761CEE
:200BBC008B466D1E8C90E8D1DDF830A2641EA7F10807A8E8000CCDD5919F24A090E80C0062
:200BDC00002F10D40DEBC7047F1CA03494E80003194610464B46424605F0D9FE083C7F1EBA
:200BFC0002460B46F2D18E9900290CBF191C83F00041DDF840C2104628AF8CE8030097E87F
:200C1C00030005F0BFFE024691980B4600280DDD0DF1A80A0746BAE8000310464B4642461E
:200C3C0005F0B5FE7F1E02460B46F4D18E9909B183F0004390988D9F08307FB080E80C002F
:200C5C0018B007F00700BDE8F08FC0460000000000000000A03B01002DE9F84FC04CA1782A
:200C7C00FF2904BF002010F0FFFFA07811F074FA044604F1680504F190062968086810B1CF
:200C9C000021E1830CE0A87B002804BFA97E002906D13078002801BF207F0128608CE083EB
:200CBC002189E08B4118491C6181204600F06CF901281EBFAB480178012904D1218900206D
:200CDC00491CE08361814FF6FF77A87E01280DD1AA8B6189208900F05BF938B121896089DE
:200CFC004A1C93B298421BD0A88B0FE03078012816D172886189208900F04AF980B12189F3
:200D1C0060894A1C93B298420AD0708892B2904206D03818608180B200F03EF93F18E78340
:200D3C0004F5967999F8040020B120890021401CE183608104F12E07A87E012811D12189B9
:200D5C00A88B4B1C9BB298420BD1608100F024F98046B988288C01FB080820460CF062FD64
:200D7C0001E0B7F80480B4F81EC022687E4ED2F80CE00CF1010000FB08F340F6C41000FBB4
:200D9C0003F18E44C2F80CE03668DFF8E0E13678BEF80080764AB609032E11D1D67BF607D1
:200DBC0048BF4FF000080BD408F101081FFA88F6012E12BF668AB9F8066006F2DC5600E040
:200DDC00668A5E434FF4C87AB6FBFAF6761C6661AEF80080A3614FF0180894F806A084F8B0
:200DFC0020C008FB0AFADFF88CC1DCF800E023680EF1080656F80AB0C3F810B094F806A0CB
:200E1C0008FB0AFACDF800A0D3F80CB0D4F814A0ABEB0A0ADDF800B046F80BA094F806A0F9
:200E3C0008FB0AFA56F80A609E600EF10C06A37908FB03F30EF10C0EF65C06F0F00646F026
:200E5C0002060EF803604FF0000ADCF800E0A6790EF1020308FB06F623F806A0464BA67975
:200E7C001B68760103F1140AD4F814B05AF806A00AEB4B0A03F1140B4BF806A0AD7E022D22
:200E9C000BD1A5796D0103F1140697F800B056F805A000FB0BAA46F805A0BD88D27BA77949
:200EBC00D60736D508FB07F70EF10802D659A6F5A86A0EF1080646F807A0A77908FB07F735
:200EDC00D2592768511A3961BA6003F11402A1794901575807F5F667575003F11401A279DC
:200EFC0052018958C9F800106843244AA179156B03EB41162968401AA0F51670F061204919
:200F1C00A07903EB40100B78012B14D10121C17214E003F114027F01D1592A464243A1F542
:200F3C00E661A2F516729142DED30821204600F037F8012011E0916A4A78C272A179DCF80C
:200F5C00000008FB01F281182268516007200D49087020460CF0E6F90020BDE8F28F00BF70
:200F7C00684E0020784F0020084F00208C2D00205C4D0020804E0020844E00203C4501001D
:200F9C00734F00206F4F0020DFF800F035440110DFF800F069860010DFF800F09186001070
:200FBC00DFF800F0A98500100C4B70B5DA68824212D985001A680A4CAE5C241FA2192032EC
:200FDC0021B9A419FF2084F8200000E0107058684259914218BF415170BDC046E043010055
:040FFC00CC1D0020E8
:20100000B412000018100000F5EA0000FDB301106DC00110FDAE011099B5011000000000E9
:08102000000000002D0000009B
:20102800B01200003C100000B1C00110A9BF011067C0011069B80110000000000000000035
:041048003000000074
:20104C00B012000060100000BDC00110CDB30110D9BD01106DB3011000000000000000005B
:04106C00310000004F
:20107000000000001822002004000000000000000000000020000000E8C9011030000000F0
:2010900028100000202200200400000000000000000000000C000000D8CA011018000000CB
:2010B0004C1000002822002004000000000000000000000024000000F0CA0110180000004F
:2010D00000000000302200200400000000000000000000001000000018CA01102C0000005B
:2010F0000010000040220020040000000000000000000000200000006CCA011024000000BF
:20111000FFFFFFFF482200200400000000000000000000002800000090CA0110240000007E
:20113000FFFFFFFF502200200400000000000000000000001400000008CB011018000000FD
:20115000FFFFFFFF5822002004000000000000000000000058000000B4C9011034000000CB
:20117000FFFFFFFF602200200400000000000000000000001000000020CB01101800000099
:20119000FFFFFFFF682200200400000000000000000000001C000000B4CA011024000000C6
:2011B000FFFFFFFF702200200400000000000000000000003800000044CA011028000000EE
:2011D000FFFFFFFF782200200400000000000000000000005400000078C901103C00000063
:0811F000010000003045010080
:0411F80001000000F2
:0411FC0000000E00E1
:0412000000000F00DB
:0412040032000000B4
:0412080001000000E1
:04120C003421002069
:0412100000020000D8
:0412140000000000D6
:0412180001C90110F7
:04121C0000000000CE
:0412200000000000CA
:0412240008000000BE
:0412280000002200A0
:04122C007C1E002004
:0412300000000000BA
:0412340000000000B6
:0412380008000000AA
:04123C008C200020E2
:0412400000000000AA
:0412440000000000A6
:04124800080000009A
:04124C00000000009E
:04125000000000009A
:041254000000000096
:041258000000000092
:04125C00010000008D
:04126000441F002007
:041264000600000080
:041268000100000081
:04126C00301D002011
:04127000000000007A
:041274000000000076
:041278000002000070
:04127C00000000006E
:02128000290043
:02128200010069
:02128400250043
:02128600300036
:02128800310033
:02128A002D0035
:02128C0001005F
:01128E00015E
:0812900003000000A844010066
:0812980000000000000000004E
:0412A0000000010049
:0412A4000000030043
:0412A80013C401105A
:0412AC006D200100B0
:0412B000B812000070
:0412B400B81200006C
:0412B8000000000032
:0412BC00EC21002001
:0412C0007322010094
:0412C4002000000006
:0412C800F4430100EA
:0412CC00604201007B
:0412D00029C101101F
:0412D400E32801000A
:0412D800E528010004
:0412DC00A1C7011095
:0412E000A3C701108F
:0412E4000000000006
:0412E8009D3F010025
:0412EC0004400100B9
:0412F0001C4001009D
:0412F400EC3F0100CA
:0212F8000200F2
:0212FA000900E9
:0212FC000100EF
:0212FE000000EE
:0113000001EB
:0413040001220100C1
:041308003D0601009D
:04130C004516010081
:04131000210A0100AD
:041314007506010059
:041318006DF4000070
:04131C003DC50000CB
:04132000EB240100B9
:0413240075E600006A
:0413280015C70110D4
:04132C0025C70110C0
:201330002DE9F04FD64C211D2046ADF19C0D0DF0CBFD04F120050021284611F01DFED14E92
:2013500010201F220623A560314605F085FE5020ADF820000025ADF81E504FF47A7A8DF8C6
:201370002F500221ADF824500DF11E02ADF826A04FF44870ADF8220040F2063003F0F2F911
:201390004FF44270132104F13D0203F0EBF940F20730112104F12C0203F0E4F94FF4447084
:2013B00001210DF12F0203F0DDF940F21130022108AA03F0D7F940F2123002210DF122023F
:2013D00003F0D0F940F21330022109AA03F0CAF94FF4457002210DF1260203F0C3F904F15B
:2013F00050002A461523A8490090102005F034FE314610200622A02305F02EFE31461020B3
:201410000722A02305F028FE314610200122782305F022FE314610200822A02305F01CFE98
:20143000314610200922A02305F016FE0CAC01208DF8325029468DF8300003468DF83100FB
:201450004FF480628DF83410904D00941F4610208DF83370294605F0FFFD0DF13100294662
:20147000009040F202423B46102005F0F5FD0DF13200294640F203423B460090102005F072
:20149000EBFD0DF13300294640F206423B460090102005F0E1FD0DA829464FF483623B4659
:2014B0000090102005F0D8FD794910204FF0FF3205F0D2FD1020774B00907749774A0193D5
:2014D000092305F0C9FD76494FF0FF32102005F0C3FD744D2878800011F0C0F90146724865
:2014F00004464161002900F098804FF6FF700EF041F82878800011F0B1F90146A161002997
:2015100000F08B804FF6FF700EF034F82878800011F0A4F90146E16100297ED04FF6FF7070
:201530000EF028F82878800011F098F901462162002972D04FF6FF700EF01CF828788000B0
:2015500011F08CF901466162002966D04FF6FF700EF010F82878800011F080F90146A162EE
:2015700000295AD04FF6FF700EF004F82878800011F074F90146216300294ED04FF6FF7006
:201590000DF0F8FF2878800011F068F90146A163002942D04FF6FF700DF0ECFF2878800083
:2015B00011F05CF90146E163002936D04FF6FF700DF0E0FF2878800011F050F90146616405
:2015D00059B34FF6FF700DF0D5FF2878800011F045F90146E16401B34FF6FF700DF0CAFF51
:2015F0002878800011F03AF901462165A9B14FF6FF700DF0BFFF2878800011F02FF9014661
:20161000616551B14FF6FF700DF0B4FF274B04F15800352110220FF05DFD2878800011F0CD
:201630001DF904F1580201468A480F920029C16055D04FF6FF700DF09DFF2878800011F09E
:201650000DF9014683480029016148D04FF6FF700DF090FF2878800011F000F901467D4859
:20167000002941613BD04FF6FF700DF083FF2878800011F0F3F801467648816179B317E03B
:20169000D0080020B50801005DCE0000955300004915010090440100E51001005C170020B4
:2016B00035180100694F002008020020003D01004FF6FF700DF05EFF2878800011F0CEF897
:2016D00001466448C16151B14FF6FF700DF052FF6048614B1521102220300FF0FBFC28783F
:2016F000800011F0BBF85B4A014620325B4822920029C16047D04FF6FF700DF03BFF287825
:20171000800011F0ABF801465448002901613AD04FF6FF700DF02EFF2878800011F09EF888
:2017300001464E48416171B34FF6FF700DF022FF2878800011F092F801464848816111B3FC
:201750004FF6FF700DF016FF2878800011F086F801464248C161B1B14FF6FF700DF00AFF05
:201770002878800011F07AF801463C48416251B14FF6FF700DF0FEFE3848394B1921102239
:2017900028300FF0A7FC37490846344E4F78007806F128011C91CFB93E49324A0C31516268
:2017B0000FF0A6FB2F4F024600203E463D462E49009007F14800019006F15800029005F1DD
:2017D00020000390BB78102005F046FC314A27491020183205F040FC2E4800780FF088FBA6
:2017F00023490246102005F037FC2A4800780FF07FFB20490246102005F02EFC1E491020D3
:2018100005F02AFC1D4D0120287009F01FFE1C49002007F03FFB1B490020FFF7CBFB00204E
:201830000DF020FD02200E9028700EF01FF9174E154A174806F10801116006F1140101600F
:2018500006F1200010F036FD0120377886F8280027BB21E080120020B8420100A00D00205B
:20187000203E0100B00500203BF90000C51A01005188011031810110C5AB00108B22002016
:2018900000000303E1CF000004200020E41C0020202D0020D00800200FF084FF0320E24EE4
:2018B000287006F11407384610F074FBDFF87C93D9F8000006F134084FF4FA713B464246E0
:2018D000BAFBF0F080B24143491ED948716011F04FFBE44A06F10801D1607168306011F040
:2018F00043FB002124220823404611F039FB4FF000084346C6F84C807768A6F844300420DE
:20191000B764D94E287006F1140B584610F042FBD9F8000006F1340751465B463A46BAFB7C
:20193000F0F080B24143491ED048716011F020FBCC4930602422082306F108000861384699
:20195000414611F00DFB4046C6F84C807168A6F844003068B16411F007FB7168306810F0FB
:20197000AFFF0520C24E287006F1140B584610F011FBD9F8000006F1340740F2DC51BAFB05
:20199000F0F05B463A4680B24143491EB948716011F0EEFAB84930602422082306F108005D
:2019B00008604146384611F0DBFA06202870C6F84880B748C6F84C804746A6F84470AF4E2B
:2019D00010F0E8FAD9F80000B14B06F134074FF49671BAFBF0F03A4680B24143491EA848AA
:2019F000716011F0C5FAA74A06F1080130600823116138464146242211F0B2FA4046C6F8EC
:201A10004C807168A6F844003068B16411F0ACFA7168306810F054FF07209B4E287006F178
:201A3000140B584610F0B6FAD9F8000006F134074FF49651BAFBF0F05B463A4680B2414390
:201A5000491E9248716011F093FA8E4930602422082306F1080048614146384611F080FAD6
:201A70004046C6F84C807168A6F844003068B16411F07AFA7168306810F022FF0820287017
:201A90008448E54E10F086FAD9F80000814B06F130076421BAFBF0F03A4680B24143491E35
:201AB000DE48716011F064FADD4930602422082306F1080008624146384611F051FA404659
:201AD000C6F848807168A6F840003068716411F04BFA3068716810F0F3FE0920D14E2870C4
:201AF00006F11007384610F055FAD9F80000BAFBF0F006F130093B4647F2305A80B24A465F
:201B10000AFB00F1491EC848716011F031FAC74930602422082306F10800086041464846BE
:201B300011F01EFA0A272F70C6F84480C6F848804046A6F840000DF039FFB949BC4E06F108
:201B50000C004862301D10F0C5FD0B202870012030720DF02BFFB249B64E06F10C00886217
:201B7000301D10F0B7FD012030720C2028700DF0FDFFB14E3B4906F10800486106F118009A
:201B900010F054F90D23404636492B700A4608704346414611621046C3614FF00109C6F84C
:201BB0001C90E44D86F82E104A4672764B4633764FF4E1313163424686F82D200323AB704D
:201BD000DF49DA4ADA4BB2628420736205F10C02226105F110068E600EF067FF214A114650
:201BF00050602831842209F0F9FF08200EF05DFF1C4B064640463071FF229E613846727158
:201C10000EF053FF17494969306008688047154800690068804705F11C061A481149077843
:201C30008E6097B906E0C046DC1900202C450100992801000646306904210068A9708047CF
:201C5000706900688047484630700520BA49A870404630F010071FD0420834BF0E9A042247
:201C70001BE0C046EC170020341A0020EFD600008C1A00209D28010068210020E41A0020AA
:201C9000A1280100E82000203C1B0020A5280100F81A0020FC1B00204A460A70401C491CC9
:201CB0001128D6DBA54E4FF41673C6F888310722C6F890210827C6F838710621C6F884114C
:201CD0004FF4A070C6F834016423C6F84C31C6F83C81C6F84081C6F844819622C6F8502188
:201CF000C827C6F858714FF44871C6F8A0110823C6F89C310322C6F860214FF49677C6F8CB
:201D10006471C6F848914FF42F70C6F894010AF1640AC6F83CA0DDF83880C6F85481FA23D2
:201D3000C6F85C310422C6F86C214FF4C877C6F870714FF4E171C6F874114FF4AF73C6F8BB
:201D500068314FF4FA72C6F87C2140F22627C6F8807107F16400C6F88C010523C6F878316C
:201D70006430C6F8980140F25230C6F8A4010CF061FE0F2786F82D71002286F82C21F36C58
:201D9000C6F81831306DC6F81401B18FA6F828111346A6F82A310DF0ADFA86F82F010CF005
:201DB0009FFF86F82E014FF6FF7BA6F824B10DF0DBF8A6F826010CF0BDFFC6F81C010AF074
:201DD000B3FEC6F82001707886F830710FF0DAF9BEA30020A6F8860093E8030009F032FA42
:201DF0000DF018FBA6F8A80086F86470324686F87570B178F378DFF8DC92A6F8ECA040F617
:201E1000B830A6F8CA00B44F054E0BB9052915DB012B15D018E0C046EC1B0020A928010022
:201E3000941C0020401C0020AD280100442D0020042100201C210020081E00200123D37090
:201E50000829C4BF0021D17042F6E941012331834FF0490A33704FF4F0720621708340F2FC
:201E7000523CA970082386F807A006F14000B28306F1300121F802CB5B1E20F802CBF9D1B9
:201E900005F11800F062306A01210068B1718047706A00688047B06A0068804705F1140663
:201EB000C9F80C600920A87010F05AFB2870012831D1BE4E3188F8684FF00009ADF810105A
:201ED00042460DF1350340688DF8359004A98446CDF800905046E047012878711BD17188C2
:201EF000F868ADF82A1040688DF8369042460DF136034946CDF8009006468DF82B1050465B
:201F10000DF12A01B04778710120F8704E463E7142F6E063FB802F78B948012F477111D075
:201F3000A7B9012700210E970DE0C04693E300002D8A0000202000204C210020580F0020AF
:201F5000A00D0020414641700E998170A71C04F14803B6490E9704F10D0611930027C77023
:201F7000897B109604F12C0369700D22159304F13407149704F140011291631C189304F100
:201F90000B06AA70E71D139604F109011797B74B1691E71C611D03F120021A97DFF8E4A25E
:201FB000DFF8E492DFF8E482DFF8E4B21991B94E1B9219461F460A1D1D92FA1CB64F1E9257
:201FD0009A1C1F924A1C20923B46FA1C21929A1C239206F11001A960002606717A1C2492C3
:201FF0001A1D2592AB48406800214FF040424FF0FF3310F0B1FF071CF4D0002006900DF1AA
:202010002E0106AA07A80EF037FD00286ED1BDF81CC00126BCF1100F63D19E489DF82E1018
:20203000007888425DD1069D28884FF6FF71814257D02B78913B29D01F3B52D1687816282B
:2020500018BF002205D130460FF06CF9B64832460560904843699AB163B94FF6FD70B9494D
:20207000B94A00900023102004F0F6FF89494B69C2B22AB9874843F002030026436130E0C3
:2020900029790835284610F063FF2AE06B780E3B02D09B1E22D024E0A88842F2030181429F
:2020B0001FD1A9680D78E5B9491C04A80A684968026004AD41602878B94904AA00F0FD00C7
:2020D0002870102004F0C8FF0BE0C046000000000000000060210020F81F002008200CF080
:2020F000EFFA069810B10EB110F07AFBF80FFFF479AF6848806810F027FF00287FF472AFB8
:2021100064488568284610F01BFF854208BF002502D085680EF0DCFA002DEAD05D4928880B
:202130004969401E00F09381C01E00F08C81001F00F07A81083800F05781103840F08A810B
:202150006868427806788778C17841F60F0306EB0226001DF61A00F00581B61E00F0AA803C
:2021700045F6EF72B61A40F06E810C2F00F26B81DFE807F0947E72685E52483C32281E1144
:2021900007C0012940F05F8100780E990870CDF80080206D8BE0022940F0558100881099F8
:2021B0000880CDF80080606D81E0C0469C3B0100042940F04881006811990860CDF8008051
:2021D000E06C74E0042940F03E81006812990860CDF80080606C6AE0022940F034810088C5
:2021F00013990880CDF80080E06B60E0042940F02A81006814990860CDF80080A06B56E0C0
:20221000CC200020042940F01E81006815990860CDF80080206B4AE0022940F014810088B6
:2022300016990880CDF80080A06A40E0B0050020022940F00881008817990880CDF800802A
:20225000606A34E0012940F0FE80007818990870CDF80080206A2AE0012940F0F4800078F8
:2022700021460870CDF80080E06920E0A00D0020022940F0E880008819990880CDF800804A
:20229000A06914E0C5A00000D9940000DD67000040E20100D008002080120020022940F0F3
:2022B000D28000881A990880CDF8008060690F9A352396E0002F49D07F1E37D07F1E27D0F4
:2022D0007F1E1AD07F1E0DD07F1E40F0BC80042940F0B98000681B9908606648CDF80090C7
:2022F000406A3CE0022940F0AE8000881D9908806048CDF80090C06931E0012940F0A38005
:2023100000781E9908705B48CDF80090806926E0012940F0988000781F9908705548CDF8A3
:20233000009040691BE0C046642D0020012940F08A800078209908704E48CDF80090006941
:202350000DE0C0463DE90000251E010001297AD1017848480170CDF800904649C0681C9A5F
:2023700019233EE0002F31D07F1E25D07F1E19D07F1E0BD07F1E66D1012964D100782199CE
:2023900008703748CDF800A0C06928E001295AD10078239908703248CDF800A080691EE0D9
:2023B00095B4001001294ED10078249908702C48CDF800A0406912E0022944D100882599C4
:2023D00008802748CDF800A0006908E001293AD1017823480170CDF800A02149C068229A03
:2023F000152309F0CBFF2EE088082CD31D4807684FB37888397908373A4610F09DFD074607
:20241000162F03D0042F01D00EF08CFF16484669CFB936F00206466115D1144A14494FF6B7
:20243000FD70012300900BE040F252300AA9443806F0C6F9BDF828200849CDF800B0002302
:20245000102004F009FE68680EF042F902E0A8780CF0ACF828460EF03BF94AE6ED0A0100CE
:2024700080120020642D0020D0080020251E01003DE90000A00D00202DE9F04F0746C84808
:2024900021F000440E460FF2D82BADF15C0DA04213DDC448A04203DD38460CF0BBFF48B1AB
:2024B000002000909BE80C003146384605F0C4F90E46074631463846A1E2BB48A04205DC47
:2024D00038460B46024604F063FA98E2B748B146AFA50FF2C42AA04280F2C880B448A04257
:2024F00051DCB448A04200F36F81B34AC1F30A502315000502AEA3F21648251A3C46022709
:20251000AD18294620460CF085FF0EF0C2FC0B460246294620460CC604F03AFA92A20CCA63
:2025300006F054FF04460D467F1EEAD106A880E830000325044694E803009BE80C000AF08D
:202550007BFB1DD002A808A942462B46FEF7AAF8B9F1000F014606D408A890E800030AAF5F
:2025700097E80C001CE208A890E800030AAF97E80C00494289F0004983F0004310460EE20A
:20259000083C6D1ED7E78D48A04238DA8C48A04200F01A81B9F1000F75A277A416DC0CCAE1
:2025B000384604F0FAF994E80C000D46064604F0F4F9894680464B4642462946304604F017
:2025D000E7F994E80C0004F0E8F915E00CCA384604F0DEF994E80C000D46064604F0D8F9AE
:2025F000894680464B4642462946304604F0D0F994E80C0004F0CCF902460B46D8E171482F
:20261000A04200F0E180B9F1000F5DA25EA416DC0CCA384604F0C1F994E80C000D460646A2
:2026300004F0BBF9894680464B4642462946304604F0AEF994E80C0004F0AFF98CE00CCA4E
:20265000384604F0A5F994E80C000D46064604F09FF9894680464B4642462946304604F020
:2026700097F994E80C0004F093F95AE0D449C4F31300814200F0A880D248A04236DAB9F100
:20269000000FD4A2D5A417DC0CCA4946384604F084F994E80C000D46064604F07EF980468D
:2026B0008946424630464B46294604F071F994E80C0004F072F916E00CCA4946384604F02B
:2026D00067F994E80C000D46064604F061F980468946424630464B46294604F059F994E8C0
:2026F0000C0004F055F902460B467BE1B9F1000F1ADC95E80C004946384604F04EF99AE885
:202710000C000C46054604F048F980468946424628464B46214604F03BF99AE80C0004F09E
:202730003CF902460B4664E195E80C004946384604F02EF99AE80C000C46054604F028F985
:2027500080468946424628464B46214604F020F99AE80C0004F01CF902460B4634E1C0468E
:202770000000000000000000000000000000704100004054FB2119403163621A61B4F03D3D
:202790000000307F7CD91240CA9493A7910EE93D00004054FB21F93F3163621A61B4D03D5C
:2027B000FC21E93F0000503E0000F07F7A6A0F403C461C40FB21394100006041BCFD154071
:2027D000FB2119407CD912408EA20CCA4946384606F0FCFD0FF2342898E80C0004F0DDF819
:2027F00098E80C0004F0D4F80D9181460C9088460CF010FE0E9095E80C004146484606F072
:20281000E5FD0B4602463146384604F0C1F815909AE80C008B464146484606F0D7FD139005
:202830001598139A14910B46594604F0B1F880460D984B4689460146184695E80C0006F00D
:20285000C5FD0B4602463146384604F0A1F810910F900D990C989AE80C0006F0B7FD0B4678
:20287000024610990F9804F093F824154800A4EB5050102840F387800D990C9865A20CCAE8
:2028900006F0A4FD8A46054610990F9853462A4604F07EF88B4615900D990C985FA20CCA1C
:2028B00006F094FD0E460746159A10990F985B4604F06EF853462A4604F06AF80B460246EE
:2028D0003146384604F064F8139014911598149B139A594604F05CF8804689461598109980
:2028F000119002460F98CDF848B05B4604F050F853462A4604F04CF80B46024631463846CF
:2029100004F046F8024611980B46594604F040F84800A4EB5054322C35DB0D9C0C9D41A24A
:202930000CCA2146284606F051FD82461598894659464B46524604F02BF880463BA2CDF80D
:2029500054800CCA8B462846214606F03FFD0C460546129911985B46424604F019F84B4635
:20297000524604F015F80B4602462146284604F00FF80B461493024613925946404604F047
:2029900007F889468046159859464B46424603F0FFFF149B139A03F0FBFF0B460E990246B4
:2029B00011F0030104D0491E0ED0491E1AD020E0012000904946404604F03EFF1FE0C0469C
:2029D000FB2109007CD902404946404605F098F815E0C04600004054FB2109403163621A8D
:2029F00061B4E03D012000904946404604F024FF03E04946404605F083F881F0004117B0D7
:202A1000BDE8F08F83C8C96D305FE43F00000000000038430000601A61B4D03D7370032E24
:202A30008A19A33B0000002E8A19A33BC14920259A837B392DE9F04FD34C04F11C0120464A
:202A5000ADF1340D0CF040FA002604F1A80A4FF6FF7066700121608250460DF05FFCD048F0
:202A700002210DF05BFCCF4804210DF057FC04F14808042010223146A07040460AF01FFC86
:202A900004F158091022484631460AF018FC04F120073E6004F10A052E7007206072DFF85F
:202AB00010B3E67102222672594610200346CDF8008004F0D1FA102003225946CDF80090CB
:202AD000034604F0C9FA0422102059460097134604F0C2FA4FF0080A4FF003094FF0010B6A
:202AF00005F12E00079005F17D00089005F12200099005F15E000A9028350B9519E0607893
:202B1000B4F84050B4F84230B4F84420B4F8461006280ED1ADF80A50ADF80C30ADF80E2079
:202B30009F48ADF810100FF0BBFE584602A90AF03FF8E069B44A31464FF0FF3310F00CFA72
:202B5000071CF6D0059606A80DF11A0105AA0DF093FF002840F0BE81BDF818102078102997
:202B700040F0B4819DF81A10884240F0AF81059D29884FF6FF728A4200F09D812B78A23B94
:202B900000F080812E3B40F0A181A978B046002900F03C81891E00F00D81491E012940F2A4
:202BB000D780891E00F09B80491E72D0491E5FD0083900F05781891E40F05A8194F83E1028
:202BD000A8880529ADF808004AD075488DF812B00FF066FE94F83E00012820D004281ED05C
:202BF00003280DD002280BD00598C188ADF80A100189ADF80C104189ADF80E1081892BE026
:202C1000B4F84210B4F84000ADF80C10B4F84450ADF80A00B4F84610ADF80E501CE0B4F85D
:202C30004000E9888842D8BF081CADF80A002989B4F842008842D8BF081CADF80C006989D7
:202C5000B4F844008842D8BF081CADF80E00A989B4F84600884200DC0846ADF8100001E08E
:202C70008DF81260A749102002AA04F0F5F9FFE04C480FF015FE6B78002B40F0F980E888F3
:202C9000A0822889E0826889208345480FF062FBEEE0AA88B249102004F0DEF90798414656
:202CB00006220AF00CFBA682E6822683A87920733B480FF0F5FD3B480FF0F2FDD8464FF6A6
:202CD000FF70237960823BB9A879082814BF042005206070E670CBE084F80190C8E06B782D
:202CF0007BBB291D0A6807980260898881800623637068896082E889A082288AE082688A5B
:202D100094F83E102083E8780129E07218BF02290BD1994910201F2204F09EF94FF47A7160
:202D300080B241431E480DF015FB68890423009090490193EA7810202D1D2B4604F08CF97F
:202D500099E06878312840F08A80E67004202CE06B78002B40F08380A878218A62780328E0
:202D700014D0E078257921B9012814BF2671E67005E0054303D081480DF0ECFA6278072AEF
:202D9000E4D1062011E0C046B0050020062A0BD0E578002D08BF84F801906CD0022004E0D1
:202DB0007C060020A00600200720607063E0C0468B1A01006B78002B51D1EB78617893B9FD
:202DD00002291DD007291BD0062902D12079012816D1032914D069480FF0BCFA80B95846B8
:202DF0000FF0F0FA0CE00EF083F80246A07960490090089843460190102004F02DF96870FF
:202E10006D78002D2BD133E0070000806B7833BB5B485649009002221020034604F01CF9B1
:202E300058484A46514900901020034604F014F9ED1C296809980160A9888180207884F8CC
:202E500001B00EF055F802465B460A9D6079484900901020019504F0FFF8C0B258B184F834
:202E700001A008E0AA8840491020052304F0F4F8B8F1010F2AD1656A45B3296831B36078FE
:202E9000884723E06879132820D12889012808D1607B022805D13E480FF002FD0DF036FE00
:202EB00014E035491020052204F0D6F881B238480DF050FA0AE06888C00B07D3324804225E
:202ED0002A4900901346102004F0C6F8059808B10FF086FC2579E07879082ED355EA000313
:202EF0002BD0204600787DB9E279217A8DF808200B9D8DF809102B680DF10A010B60AA8891
:202F10008A8003E0051601108DF80890627A8DF81020A17A8DF811100DF0EAFF1149024691
:202F300002AB102004F098F838B1656A84F801A01DB1296809B150468847B80803D31349DB
:202F5000304609F035FEF808FFF4F3AD607B401E3FF4D5AD401E7FF4ECAD0DF0D7FDE8E536
:202F700089EE000059440110C1170110D195000009450110AD9800009D1E010058060020EF
:202F9000F805002008060020D0050020EE050020A00600202DE9F04F0F46CD4C0168E16299
:202FB00041688068ADF11C0DE060C548A1608047C448E16A0160A168DFF810A34160E1685F
:202FD000DFF804938160CE49002FA346C1606FD03D68E8788DF80C0028798DF80D0003A88F
:202FF0000FF0A6FFA86808B1C6490160E86808B1C5490160C54C287820706878BE68607055
:20301000A878B268A0703178A2607368E1702E696360EA6926627968E2620868E0606869A4
:203030006062A8697B68A062286A9E68206395F8240084F834001EB900200EF01BFE00E05E
:2030500066617868C06818B900200EF013FE00E0A0617868006918B900200EF00BFE00E08F
:20307000E0617868406818B900200EF003FE00E0206128692062F86881680E6806B9D24E75
:20309000D0494FF001084E60C66881F8018036B900200EF0EFFD4D462E68F86801E04D46F3
:2030B0002E6000685446FB68A0615868E06107E000200EF0DFFD4D462E684FF0010854461F
:2030D000361DC7493668621C04F114035020B04710B1286880688047DBF808008047C24E3C
:2030F000002781463B46BF487770694620610422337038460DF06AF80098B0F5801F0CD0D5
:2031100020B90EF055F806F05DF808E00CF016F90FF05AF80420708001E00EF049F838463A
:20313000BA4EA0602B68B760986980477060AF4880F800803946418014200FF053F9FF2167
:203150001422A0620FF0B4FBE01CFF2102220FF0AFFB14200FF046F9A54F386038680021D1
:2031700014220FF0A5FB002000F052F940460CF0CBFEA0480188FF2906D102210180782216
:20319000001D00210FF094FB03200FF0CDFE04200FF0C6FE05200FF0BFFE06200FF0B8FEC3
:2031B00007200BF031FA944E0820307006F124000FF0AAFE0BF012FC06F1360A05200A21B6
:2031D00052460EF05AFC38B10020C0F10901401C0AF8011B0A28F8DB3078102107F03EFCA6
:2031F0002B68864909200DF10E025E68087001AB10200021B047A06AE1690A260A309DF8A1
:203210000E20761E00F8012BF9D1891EE161DBF80C104846884704F120002B68626A0590B0
:2032300040461E69DFF8D88104F120034146B04710B1286880688047B8460EF0AFF85FEABF
:20325000000903D008F090FB4FF0FF39002643E00298216910F8062CA0F10C07032A03D13C
:20327000002939D0884737E0A16A9DF810C00A223046491E11F8013F9C4506D0521E00F14C
:203290000100F7D14FF0FF0A01E05FFA80FA2868BAF1FF0F00F108001CD038790DF01EF966
:2032B000B979012904D0022904BF0299887001E002990870029950460EF024FB0CE0C04619
:2032D00041490010F8440020AC220020A41F002018160020006880472868C36904A902AA85
:2032F0000DF10F0098470028B2D0D8F800007700C35B6BB9761CF6B20A2EF8DB2BE0C04649
:20331000902F01008D1001006D1E0100441E00200A2E20DADBF808008047D8F8001000225B
:2033300031F807A0CA53DBF80C108847354850F8262026705146304690470646FF20207052
:20335000DBF808008047D8F800107A5A16437E52DBF80C1088470EF021F80746B9451AD0D4
:2033700007B9294FE069B84238BF071CDBF80800804781462868016A206A8847626A28688F
:203390001F49059B521C6262C6683846B047DBF80C1048468847A768296860691431AFB9DE
:2033B000D8F800000A270026835B33B10969606988472968D8F8000014317F1E06F10206C8
:2033D000F2D107E0002200206F140100096988472968143109684FF0FF3088472DE7C0468E
:2033F000B5150100CD1E0100902200208C220020842D0020981800200C110020962D0020A5
:2034100025050100E84101008EC2F528242D00202DE9F84FDFF8BC13DFF8BC23DFF8BC53CA
:2034300008700821002010600D23DFF8B40340F23732017043808280DFF8A8030560AC7EAB
:20345000DFF8A4030470FF2CE97E417008BFFF292A7F82706B7FC370AE7F0671ED7F4571BA
:2034700015D1FF2A08BFFF2B11D1FF2E08BFFF2D0DD1DFF878130A7802704B7843708A788E
:203490008270CB78C3700A79027149794171DFF860130278DFF85C83DFF85C93DFF85C7364
:2034B0000A70FF2543784B7082788A70C378CB7002790A714079487188F8005088F8015075
:2034D00088F8025088F8035088F8045088F805500020CB490880D9F83440CA49607808702A
:2034F0002278C9493A70A0780870A2681079C74A411E1170E078C649C64A0870E0681060AB
:2035100008B90EF0B7FB2069C34E306008B90EF0B1FB3068DFF804A301688847326852F863
:20353000041F50468847BE48BE49CAF82000CAF824106069BC49086008B90EF09BFBA0697A
:20355000BA49086008B90EF095FBE069B849086008B90EF08FFBDFF8DCB2B74C9BF80400A7
:203570000EF040FF0028206075D09BF80500B34E0EF038FF002830606DD09BF80600DFF8DE
:20359000C0A20EF02FFF0028CAF8000063D09BF807000EF027FFAB49002808605BD0397852
:2035B0009BF80000891C484380B20EF01BFFA649002888604FD03878002862D0BBF8021001
:2035D000484380B20EF00EFFA04A0028506042D038780EF007FF9E49002808603BD0387859
:2035F00040000EF0FFFE9B490028086033D03878182148430EF0F6FE974A106058B3387897
:2036100040010EF0EFFE9549086020B3387800010EF0E8FE92490860E8B1387800010EF035
:20363000E1FE90490860B0B13878302148430EF0D9FE8D4A106070B18C48397800784843A8
:203650000EF0D0FE8A4A106028B138780EF0CAFE8849086018B9BDE8F14F06F0A7B84FF078
:20367000000B09E00EF086FE0021418081600180022303710BF1010B39785FFA8BF0884290
:20369000F0D32268694F0120107121680D732068457321688D732068C57321680D740021B6
:2036B0002068457400202268D172A0222168487103212068C28001720720226850720021D3
:2036D000206881722821206801224182C2760020216848770022206880F85E2001212268BC
:2036F00011770120216881F85D0001223068027131680D733068457331688D733068C573B2
:2037100031680D7400213068457400203268D172002231684871306882724FF420703168A4
:20373000C88008818A7401213368D974DAF800201573DAF800104D73DAF800209573DAF8B8
:203750000010CD73DAF8002015740022DAF800104D740121DAF80030DA720023DAF8002044
:203770001171DAF800104B71DAF80010C88008818B720520DAF800209374DAF800103E4AE1
:20379000C874106880473968054608688047396851F8042F00209047D9F80C101C4B0A8881
:2037B0001878364902430A802846354A136898470C2134480FF0A4FB40460FF09DFB0FF071
:2037D00097FBBDE8F44F034800784FF4005107F045B900BF6E4F0020044F0020B63F0050BF
:2037F000604E0020084F00202C4E0020E81200503C4E0020344E00203C4501007B4F0020D8
:203810000C4F00206D4F00206B4F0020724F00206C4F0020F04E0020F44E00207C4B002004
:20383000F523010015240100F84E0020FC4E0020682D0020E0210020104F0020144F00207D
:20385000184F00201C4F0020302D0020684E0020004F00206C2D0020804E0020844E0020EB
:20387000884E00208C4E0020904E0020CC220020702D0020742D002020160020544F0020A5
:2038900024160020F84D00202DE9F84F0C46E00788B00BD50EF07EFD28B100218160B3485C
:2038B000006800B1804784F001005CE1A0070FD5002100230691059104910393029101911A
:2038D000009101223C200FF00FFB84F002004AE11D256007A64EA74F40F18A800021079197
:2038F0008B46A5488178FF2904BF00200EF0C2F9386890F8A0000EF035FC80463868C07AA6
:2039100098F82691022818BF032808F5907A06D106F10D000FF0E4FA08B906F1070B514604
:2039300048460FF0D9FA88B33868807A002818BF012804D1314650460FF0CAFA04E05246F9
:20395000494630460FF0C0FAFF2834D005FB00F906EB090506225146E81D0EF0DFFA16F8CD
:203970000900396840F00209E81D07900622887E00F0010088F8260105F1010A386800F15E
:20399000140108F590700EF0C9FA14E0514648460FF096FA78B15246494630460FF094FA49
:2039B000FF2808D006F10D01454348190FF098FA08B949F0020908F12C004B4601780691AE
:2039D0004289120905920122B8F822100491C0880799029140080390CDF804B0CDF800A08C
:2039F000002098F806100FF07FFA84F00400BAE020060FD5002100230691059104910393C1
:203A100002910191009101223B200FF06DFA84F08000A8E0E0044BD5F11D06F10D000FF06B
:203A30004BFA3868017A012918BF042931D1C17A02291EBF0329817E01292AD1817E00F163
:203A5000140230460FF040FAFF2811D04543354405F10D000FF044FA50B9E91D05F10D0036
:203A70000FF02AFA38680622E91D14300EF056FA3868C07A022818BF03280AD106F10D00CE
:203A90000FF02EFA28B938680622F11D0C300EF045FA3A4842683A4800784FF480510BF08A
:203AB000DFFE10B18E2009F0D1FA84F480505AE0A00505D50EF018FD324901200860FEE7E9
:203AD000600504D506F039FC84F480604BE0600405D5812009F0BAFA84F4804043E0A1045E
:203AF00040D5294D286810B100200EF0C3F8274E4FF0FF3028600FF0DBF93168244D51F870
:203B1000202F684690472349234B486A8A6A009001920293C86A0268086A0392ADF8100031
:203B30000A6B1178002904BF5068002805D19068002804BFD068002806D0297050686860A3
:203B50009168A960D068E86029463568134A2E6813486B46B0471349086003F0E1FC84F4C5
:203B7000005000E0002009B0BDE8F08F204F0020AC450020104F0020684E0020784E00202D
:203B90006E4F0020FC002043044F0020F04E002068450020441E0020952301002C4D002067
:203BB000282C0020EC4E0020BB482DE9F84F0025BA4CB849056094F8E200002800F06581CA
:203BD000012800F02F81B64E02283CD0032840F05C8151F8250CD4F8B8100029A0F5C060AE
:203BF000C4F8D400B8BF49420028B8BF4042814226DA4FF08057D7F8A4014568B4F8BC00A0
:203C100030214FF47F42082300903046A847D7F8A4014568B4F8C00004214FF4F8021223FB
:203C300000903046A847D7F8A401B4F8D070456820214FF440620A2330460097A8470125FD
:203C500084F8D8501CE151F8258C0EF04DFC2F4600B901273946934F38680028FCD0B14630
:203C7000012609F10409D9F82CA03E6009B10EF041FCCAF30720C4F8BC000EF035FCAA465B
:203C900000B9B2463B68002BFCD0D9F800B0BAF1000F3E6001D00EF02DFCCBF38440C4F8BA
:203CB000C0000EF021FCAA4600B9B2463B68002BFCD0D9F81C90BAF1000F3E6001D00EF03A
:203CD00019FCC9F38120C4F8D000B8F5C061C4F8B81000F09C8094F8D80068B9C4F8D41053
:203CF000D4F8C000C4F8C800D4F8BC70C4F8C470D4F8D030C4F8CC30D4F8D400D4F8BC30E0
:203D1000002854BF02226FF0010204F1C8010F6800EB40008018421000EB927207EBA20005
:203D30000860D4F8C810C4F8C43000291CDD1E293CDDD4F8CC0030B93429B4BF15391E2157
:203D5000C4F8C81025E02A29BABFD4F8C8000B381E20C4F8C800D4F8C4003F28B4BF401C8F
:203D70003F20C4F8C4001FE0D4F8CC00032812D011F10B0FC6BFD4F8C8000B30301CC4F838
:203D9000C800D4F8C4000028C4BF401E051CC4F8C450032508E011F1150FC6BFD4F8C80072
:203DB0001530301CC4F8C800C4F8CC504FF08057D7F8A401B4F8C43030214FF47F424568DA
:203DD000374800930823A847D7F8A40104214FF400321123456832480096A847B4F8C860E5
:203DF000D7F8A40104214FF4F802122345682C480096A847D7F8A40120214FF440620A233B
:203E1000B4F8CC60456826480096A84701E084F8D85040F2FF50404502D8801C40452FD293
:203E3000082030E051F8251C1F4F4BF2F5204843060A3868C0F3814001280CD11B48006870
:203E5000006880470BF0CAFF0EF05AFB3111C010484306EBE03694F8E50030B9144800684A
:203E700020F07F403618760801E084F8E5501148310C0660012741600F4D8760287808B99C
:203E90000B2000E0052084F8E40003F0B9F9BDE8F88FC0462D400C402C500C4004150020F1
:203EB00000A00C4000800C40B43F0050EC010010102009403C600C40AD4301002DE9F84F4B
:203ED000B34D696884B0019121B905B0BDE8F04F0EF0EABF0978DFF8BC82AF4EDFF8BC9269
:203EF000DFF8BCA201291CBF0229042946F2A81741F64C5B05D0402918BF802900F0968087
:203F10003CE10EF099FB0028FAD00198007804F019FE0090446814B900200DF0ABFE9AF873
:203F3000010000285CD000F043F90EF01BF902900168009801914F6809F030FE022825D0BC
:203F500000990A78012ADBD196490A68137A19F80310317018B90EF0A3FF5844A060206926
:203F7000C17E01F0EF01C1762069C17E41F08001C1762069C17E01F0F00141F00201C17614
:203F90002269B96888484118D1614BE001980178802911D10820854930700A78012A03D02C
:203FB0009AF80100022801DB38690CE0D8F828003A690178D1720DE07C49072030700A7879
:203FD0003869012A02D10121C17203E0D8F828104A78C2720298817901988AF80210C8E093
:203FF000009800288CD00199009A0078914205D101281CBF00200DF03DFE15E0012840F096
:20401000BD80684801680A7A19F8020030700EF047FF3918A0680EF03FFF18B90EF040FF1C
:204030005844A0600120A8700098A2E09AF8010000287AD000F0BCF80EF094F8044620687C
:20405000029047689AF802000EF08CF803900EF0F9FA10F0070F3DD0A87804F073FD01903D
:20407000416801980091029909F098FD022831D001990A78012A2AD14A490A68137A19F824
:204090000310317028B90EF00BFF83440098C0F808B000980069C17E01F0EF01C1760098B4
:2040B0000069C17E41F08001C17600980069C17E01F0F00141F00201C176009AB9683A4895
:2040D00041181069C16101210198A97051E000200DF0D0FD0398A04225D0029833490278EB
:2040F000802A12D1082030700978012903D09AF80100022803DB38690121C17210E0D8F88C
:2041100028003A690178D1720AE0072030700978386901290EBF0122D8F828104A78C2721D
:20413000A0798AF80200029823E00EF08BFA10F0070F29D0A87804F005FD04462078D4F8DF
:204150000480012820D117490868027A19F8021031700EF0A5FE3918D8F808000EF09CFE3F
:2041700020B90EF09DFE5844C8F808000120A870204605B0BDE8F04F06F08EBD05B0BDE886
:20419000F04F00200DF076BD05B0BDE8F08F00BF302D00203C4501006F4F0020289A011038
:2041B000684E0020104F0020F0D8FFFF734F00202DE9FE4FB24C617811B900200DF05AFD7A
:2041D0000EF06EFE4FF00008074607F6C417C246AC4DDFF8B49228E050460DF0C3FF064632
:2041F0007079F0B12968B07901F80800394608F101005FFA80F830460EF04AFE3068017853
:20421000402902BF06F182000178012902BF41887289914205D1B169C088411830460BF0EE
:2042300063FF0AF101005FFA80FA99F800008245D2DB6178884505D000200DF01BFD8220E6
:204250000EF022FE6078012840F0F180002701E07F1CFFB299F80000874280F2E28038468E
:204270000DF080FF064670790028F1D02968B0790A7890421CBF00200DF0FCFCB079FDE090
:20429000286810F809000DF06DFF00684268DAF808109068814204BF3E4609F1010900F012
:2042B000D480D6E0286890F800B001224FF4C0710FE0636803F5AD76835C01FB03F901FBDD
:2042D0000BFE36F809C036F80E60B44538BF9B46521CFBB29A42ECDB4FF6FF700EF0D0FD24
:2042F000064658460DF03EFF68490068D0F804A00868D94630F8192060684FF4C07300F1E6
:204310000E0103FB09F3C85AB2EBD00F52D2720840F6C4104243009200275D4A0190029234
:2043300017E058460DF01EFF01680A78802A03D1DAF81030009A5A610978402908D1029990
:2043500080790A6802EB4011009800F5A060C8617F1C47452EDA2868C05D8345F8D001463B
:204370004FF4C073594363685A1803F5AD73D289595A53088B4202D2521A9045E8DA0DF0BC
:20439000F1FE01684A68019B9168DAF808207008A1F6C41103FB00200EF07EFD0028C0D041
:2043B0003A48006830F81910491C20F81910286810F807B0296808780DF0D4FE002600684F
:2043D00047684FF4C079464551DA2868805D0DF0C9FE0068296842688B5D606809FB03F36E
:2043F000034403F18201087830B15889B1F802C0401C80B2604508DA887B01280ED1588941
:20441000098A401C80B2884208DB6EB3B968906801F5C241A8310EF03FFD28B3761CF6B263
:20443000D1E700200DF026FC82200EF02DFD617828680EF021FD286800780DF093FE00266A
:204450000068D0F804A04FF00109771CC145FFF617AFF6B2002E1CBFF8B200287FF422AF14
:20447000286890F800B037E7296811F806B007490A6800205B4622F813005846BDE8FE8F76
:20449000684E0020004F00207B4F00206C2D0020844E00202DE9FC47DFF8C4A20F460546FC
:2044B000F80B80F00A81A74EDFF88C82B80F80F0BC80B80880F0B0803809C0F031819C48BA
:2044D0000178090980F0A380007830F07F0040F09E80684607F098FA012803D10098002855
:2044F00000F0958093480078002840F0908001240025E8B20DF0FAFD48B1837A3BB184723C
:2045100090F9090004FA00F0C0B20BF0EBFE6D1C032DEED345464FF0030905F1AC0085F846
:2045300010900EF087F9854A0021884610681160834952F8080C05F1340042F8088C4246FC
:204550000EF088F93068006B8047AA68A969801A000BC0F1FF328A422CBF01444FF0FF31EC
:20457000A961287F20B1E868A969B1EBC02F20D97548006810F0010018D074480068000A87
:2045900014D3734840F60901018041464180427B64F303024273027B61F3030202734160A6
:2045B0000DF0B8FE418811F4406FFBD02C774146A9616849086820F0020040F4007008607D
:2045D000654A42F8049C41F23006966014605023936014604FF4CA6696601460022042F85C
:2045F0000C4C44460C600CF0DBF8112006F0F6FA287818B9686838300EF038F9687F18B1EF
:204610006C7705200CF0CCF8544868612C7409F059FE27F0080783E005F0B6F94046743016
:20463000006808B927F002077AE00EF00BF934468146606D0068014604208847C8B1287CF8
:20465000B8B14046083006689EB12068EC68006B8047801BE860010BE960A14202D2091947
:204670004908E96040F6C41088422CBFB1F5FA7FE86048460EF0FCFB0BF018FE90B1A86984
:204690006FF4807100224FF0007304462846A04740466C300068002808BF47F0020701D0B9
:2046B00009F010FE686900214FF0806304460A462846A04727F0005732E00EF0C3F8514610
:2046D0000E684EB306F1280106C90A234FF0E0450B40154008BF002B1ED106F1280191E8B9
:2046F000300006F1280393E8060006F12803AA43A14383E806000EF0BBFBB16871B1002D57
:2047100008BF002C0AD03069B6F93C10B2682B4616462246B04701E00EF0AAFB27F480477C
:2047300027B15046394650300EF0A8F8BDE8FC878E2D002071240020D82200201410044024
:2047500029E000008C0100104021084000000440EC2C0020000004600C4104405DA7000085
:20477000582300202DE9FC41A0F2013714468846022F40F234819C4E9D499E4A3F1F0F2FDD
:2047900004D9143F4CD0BF1E1CD011E0DFE817F0D000CA000E01FB00C200BA002701B0003D
:2047B000A800100010009E0090008100740066002D2880F21481B8F1020F40F010818949EF
:2047D000238808E1B8F1010F40F00981F078012800F00581324620781179107189B9002836
:2047F00000F0FD805078012800F0B680042800F0B380062800F0B080052800F0AD80BDE899
:20481000FC812078002840F0EA805078032800F0B080072800F0AD80052840F0E080A8E00D
:20483000B8F1010F40F0DB802078012840F0D78006F1F0000DF08EFD002840F0D08034464B
:20485000002004F13E0108F0B3F9002840F0C78004F1CC000EF024F8BDE8FC81B8F1020FFA
:2048700040F0BD8020880A28C0F2B980B0F5486F00F3B5800E4619E0B8F1020F40F0AF800C
:204890002088B0F5FA7F80F2AA800E463080BDE8FC81B8F1020F40F0A28020880628C0F2EC
:2048B0009E80B0F5486F00F39A801646B61CEDE7B8F1020F40F0938020880628C0F28F80CB
:2048D000B0F5486F00F38B801646DFE7B8F1010F40F085802078062880F28180464E0EE0A3
:2048F000B8F1010F7BD12078042878DA0A3606E0B8F1010F73D12078082870DA0936307079
:20491000BDE8FC81B8F1010F69D12078042866DA0836F4E7B8F1010F61D1207804285EDC6C
:20493000F61DECE7B8F1020F59D120881036ADE7B8F1010F53D13079012850D0324620783C
:20495000D178D07069B9002849D05078012803D0042818BF052842D101200DF033FDBDE861
:20497000FC81207800283AD15078022818BF052835D110780CF0BCFA1C490246102002F0DA
:204990006BFBBDE8FC8106F1870500211F22284608F095FC21464246284607F01FF94446AD
:2049B0003078B4710CF0A4FA002311E006F1680500211F22284608F082FC21464246284665
:2049D00007F00CF94446307874710CF091FA012300940A4901950246102002F03DFBBDE845
:2049F000FC81C046B5080100B005002099450110F4050020F0050020EE0500200945011002
:204A10002DE9FC418E488F4A04788F488F4B90490D2C6FD8DFE814F012010E000E000E00F6
:204A30000E000A010A018E000A01C900C900E700E700EE00106041F204478648864DB0F824
:204A500002C08649BC451FBFB0F81AE0BE45B0F83280B8454FF4A0561ED181480068D0F8B9
:204A700000C09CF8040003280CF1080E0BD1DEF80E0000281CBFBEF81800002803D01F8065
:204A9000784911608AE0022C1CBF1E800D46156000208CF8040081E0BCF1000FA3F800C0DB
:204AB00041D0BCF1010743D0B7F1010C3BD040F2FE37BCEB07071ED0A7F1040CBCF1010FDE
:204AD00020D94FF47F77BCEB070C1DD04FF44067BCEB07070FD0BF1E012F0CD93F1F0AD045
:204AF0007B1E012B0ED940F2F937DB1B012B1AD91B1F09D09AE0022C01D115604EE01E80B5
:204B10000D46FAE7584DF8E7584B1C68257A012D05D141F20243438043834386F0E746809C
:204B300046834686ECE700200DF0A4F8832081E08F207FE04E498978FF290CD010601820EE
:204B50004C4C41432068851C40F204466C5A1C80A41B012C484B71D94FF47F76A41B0FD083
:204B70004FF44066A41B032C84BF641F012C0BD9A41E012C62D940F2FD36A41B08D103E06D
:204B9000801C41F201444452136005F0D1F805E000200DF06FF885200EF076F9BDE8FC41CD
:204BB00036480078012105F059BF40F204424888188090421CBF41F2084290423ED041F69F
:204BD0000402904211D12E4C2E482F4B00680025CDE9004502222D4C256855F8086FB04734
:204BF0002B4908802AE04888188000200DF042F885201FE04888188002280DD940F204424C
:204C1000801A1BD040F6FC72801A05D0083815D04FF47F72801AE8D1887B801CC2B2B52A4E
:204C3000A8BF662088730020488007E000200DF021F88420BDE8F6410EF026B9BDE8F38101
:204C50006F4F0020204F002015280100504F0020CC4C0020204A0020B1540110615A011036
:204C7000F44B002059550110755B0110104F0020684E0020804E0020313901106E4F00208A
:204C900002000080EC4E00204D080100F04E0020424F00202DE9F04F8246DAF80070DAF892
:204CB00004600C465FEA0208ADF11C0D14BF00214FF0FF31DFF8409248460DF0C0FA00289B
:204CD00018BF0B2040F0158100258F488C4905708A48FC6052460DF0BDFD317B27200DF049
:204CF000BBFDB8F1010F07D0657002200BF086FF06200BF083FF01E00120607020780128AF
:204D100040F2AA80801E012868D9801E012833D9801E012800F2DE800DF094FD83464FF09F
:204D3000805000F5EE77D0F8DC01A378466A009321782846062908BF0120019001200290D4
:204D5000A068228AE1686368B047814658460EF08FF8B9F1000F40F0BF80B8F1000F02D0E8
:204D70000DF0A0F802E050460BF0B6FD002800F0A3803868806A2AE00DF064FD83464FF033
:204D9000805000F5EE77D0F8DC01012306680093A168A27860682478AC46042C08BF9C46BD
:204DB0006346B047814658460EF062F8B9F1000F40F09280B8F1000F02D00DF073F802E0B7
:204DD00050460BF089FD002876D03868406880474C49C1F8B0510D6081467DE00DF032FD23
:204DF00083464FF0805000F5EE77D0F8DC01E38A86690093E0680190208B0290A07803901C
:204E1000207D04900121059122782846022A08BF081CE1786268A368B047814658460EF0F2
:204E300027F8B9F1000F57D1B8F1000F02D00DF039F802E050460BF04FFD00283CD0386817
:204E5000006A80475FEA000946D1E078A168E28A236907F077FFBFE70DF0F4FC83464FF047
:204E7000805000F5EE76D0F8DC01E38AC7680093E0680190208B0290A0780390207D294658
:204E9000049001200590257805B9014608466268A368E178B847814658460DF0E9FFB9F1A7
:204EB000000F19D1B8F1000F02D00CF0FBFF02E050460BF011FD08B914201AE030684069B8
:204ED00080475FEA000907D1306802692169E078904781E74FF0FF39B8F1010F05D0022086
:204EF0000BF05EFC06200BF05BFC03480DF0BEFC484607B0BDE8F08F88190020C0190020B0
:204F10004512010050450240942D00202DE9F04385B011F8017B0446082F04F1FD0004F106
:204F3000FC0804F1760504F5A076844A844BDFF8149213D0092F21D00F2F2FD0112F01BF7B
:204F5000287801286878102840F0D5800A78327648787076012184F83D11EBE00025521CC1
:204F70004E5D5F5D3E434E55575D3E4046556D1C082DF5DB204608F0DBFD74E00024571C1A
:204F90000D5D1E5D35430D553A5D15400555641C082CF5DB022088F80000CBE098F801009A
:204FB000820704D410F0110F57D01A2266E008784A7800EB02203080CA78887800EB022069
:204FD00070804A79087900EB0220B080CA79887900EB0220F080087A30724A7A887A02EBB8
:204FF00000227281C87A0A7B00EB0220B0818A7B487B00EB0220F0810A7CC87B00EB02206B
:2050100030828A7C487C00EB022070820A7DC87C00EB0220B082487D897D00EB0120F082B2
:20503000494801788A0658BF1A2212D504F5A670049071890391307A029021890191F0886B
:205050000090B38872883188204608F00FFBE0B11E2298F80100410710D40F2088F8150008
:2050700020460DF001FF002864D199F8000005B0BDE8F0434FF4804105F0F0BC204605B082
:20509000BDE8F0430F210DF0EBBE7088A882B188E9820221F0882883297400206882A18E70
:2050B000A88AC91DE981618EB0EB510F02BFE88AA18E884202BF288BE18EB0EB111F18D0B2
:2050D0002878012804BF68780F2805D0687918B10F21A972FE2127E0FC2120460DF0BCFEF3
:2050F000F0880090B38872883188A0790DF0B0FE20E0102118E0491E20460DF0A5FE032F1E
:2051100018D1A878042818BF0D2813D16E78142E18BF0E2E0ED12F7820460DF091FE012F77
:2051300006BFAE72FD213146204605B0BDE8F0430DF092BE05B0BDE8F08300BFEC4D0020C0
:20515000542D00206E4F0020144E002010B50B7884074CBF43F0020303F0FD0304064CBF21
:2051700043F0800303F07F0304074CBF43F0080303F0F70384064CBF43F0200303F0DF03F3
:2051900010F0AA0F0B7003D0107840F00C0003E018B9107800F0F300107010BD2DE9F84377
:2051B0000D4600272878022814461E4667D1696808784978DDF8208000EB012080B25FEA97
:2051D00008021CBFB0F5285F0B205BD14FF42851401A08D0401E21D0401E2FD0401E25D06A
:2051F000401E31D04BE0DDF82490E8680DF062FB80B2A0EB08024A45BCBFA0EB08001FFA65
:2052100080F909EB0800162806DAA6F800904A46E86800EB08010DE00D2732E0E8680088DE
:20523000022131802070000A60702AE0062030800622E96820460CF071FE22E00120308023
:20525000E9680A7822701CE0E868B0B1082131800288227003881B0A63704188A17042880F
:20527000120AE270818821718288120A6271C188A171C088000AE07103E0308001E03780F3
:2052900001273846BDE8F2832DE9F0470F46814638780024022890461D466DD17868089EDA
:2052B00001784078DFF8D8A001EB002189B24FF42852891A06D0491E29D0491E4ED0491E94
:2052D00039D059E0F8680DF0F5FA80B2B04204D3A919162903DB0D244FE007244DE0FB683B
:2052F0002A46414698190CF019FEAD19F868ADB2C5F11602002140190DF0DAFADAF8000073
:2053100000281CBF0268002A37D0002123E08EBB022DE0D198F8000098F80110FA6800EB14
:2053300001201080DAF8000000281CBF0268002A23D001210FE0EEB9062DCCD1F868062240
:2053500041460CF0EBFDDAF8000000281CBF0268002A12D00321484690470EE056B9012DD3
:20537000B9D198F80000002813BF0128F9680870802402E00B2400E001242046BDE8F087CB
:205390007C2D00207CB5894D144602460026A2F58062182A1AD8DFE812F0FF00F900F20005
:2053B000EA00E300D800D100CC001900C100BA00B300AA009F00190019007E006D00660088
:2053D00052004A003D0035002B0023002D2880F2818002297ED121880BF064FA0646E3E00E
:2053F000012940F0E080002C00F0DD801135A3E0102940F0D880002C00F0D58005F1500029
:20541000102210E0012940F0CE80002C00F0CB80AD1D91E0262940F0C680002C00F0C380EC
:2054300028462622603021460CF078FDBCE0012940F0B980002C00F0B6806D1D7CE060294E
:2054500000D13CB9012940F0AE80002C00F0AB800D3571E005F18600214660220CF05EFD58
:2054700001206873A0E0012940F09D8020780DF0E3FC99E0012940F096802078022800F317
:2054900092800C3528702078022814BF301C01200DF0CEFC88E0072940F08580611C684650
:2054B00006220CF011FC20786946324605F01AFE04460A2C0EDA0DF0B7FC38B9204603F07D
:2054D0004DF80BF07FFF09F089FA6DE02C350120285569E0022667E0012964D1A87B217863
:2054F0000028A97360D1207801285DD1EBE7012959D12178072956DB102954DC0B353CE053
:20551000012950D121780A294DDA093535E0012949D12178022946DA08352EE0002942D13B
:205530000DF082FC10B90CF08EFDCAE701210F3523E0012937D10A3521781EE0012932D141
:20555000217802292FDAED1D17E010292BD14035102014F8011B401E05F8011BF9D123E027
:20557000012920D1217802291DDA2D1D05E0012919D12178042916DCED1C297014E001298A
:2055900011D1217802290EDAAD1CF6E702290AD120881435288007E0012904D1217802297E
:2055B000D8BF6D1CE9DD182630467CBD0C1100202DE9FE4F05467B48002400680094C00971
:2055D00005D37948007810B920200BF0D3F9012D40F0E280DFF80092D9F8DC00012840F0AB
:2055F000D8800220C9F8DC000CF0E4FB01200BF0C1F95FEA000805D00120C9F8DC000CF0F3
:20561000E5FBCBE00DF036F9A34602906748684DC0F800B0A86A016801208847012804D113
:20563000584608F0F1FA012000906248624FC0F800B0386811200CF075FF00B1012410201E
:205650000CF070FF08B144F002040F200CF06AFF08B144F004040B200CF064FF20B1286868
:20567000564E016B308888470A200CF05BFF20B12868534E016B30888847524801260660E7
:205690002868816944F0200088474F4806600CF043FF00F001010191400814D2286A8168F5
:2056B0004A4888478246BAF1040FF7D0BAF1010F04D1286A426845480321904744490868DB
:2056D00020F003000860584600F088F82B683868986B8047019801280CD0BAF1010F04D106
:2056F000286A42683948314690473949086840F0030008602F4806602868416920468847B6
:205710000B200CF00FFF20B128682C4BC16A188888470A200CF006FF20B12868284BC16AA8
:2057300018888847274806600322C9F8DC20264BC3F800B02868416B204688470128F9D1F3
:20575000386804200BF016F90446184806603868144800688009FBD30098012802D1304696
:2057700008F052FA0CF0C6FE08200BF003F907460298C9F8DC600DF053FB1648008807F0EA
:20579000E7FF0CF023FB57EA040018BF4FF0FF3804E06FF0040801E06FF001084046BDE8A4
:2057B000FE8FC04614100940EC1500200C400940B8010010000222432C200940CC3F010052
:2057D000C83F010028200860800104430040034024220840A8430100041500202DE9F84FA6
:2057F000DFF804B20746ABF13500DFF8F0810068800880F0E28075480068006880477E49C9
:205810000831D1F8009000254FEA29715FEA995201F101010AD2C0F13E0210F10A0F4FEAA6
:20583000E202D8BF08229142B8BF111C684BD3F87C21C2F30462162AA8BF203A1B68C3F3CC
:205850000443162BA8BF203B9A465218162A05DA12F10A0FB8BF6FF0090200E015225D4BC9
:205870005D4E02F01F0141F4F8511980316811F0030F18BF0125C90828BF45F002050FB1E7
:2058900045F00405434693F90710411A052904DA9979A94208BF99886FD0DFF844E10F28D0
:2058B000A0F10F0829DB08EB0011A1F1F0084FEA28210091072984BF07210091062988BFE9
:2058D00006215EF821600424774604EB81043C594FEA950CA41BEE0804F0FF0124BFC4F3AF
:2058F000072631446F08AE0824BFC4F3074631446E0828BF01EB146104E000214FEA950CD0
:205910006F080091009C5EF824E05FEA5C060EF0FF0424BFCEF3072634447E0824BFCEF35A
:20593000074634446E0828BF04EB1E64009E89B2A8EB06267143803104EB1124AAEB02010B
:205950000029D8BF0121342209F0FF074A4391B24FF6FF727943B1FBF4F18A4238BF111C3D
:20597000802889B2998005DA10F1800FB8BF6FF07F0000E07F20D8719D711A4800681F296F
:2059900018604FF0000008D340F2FF128A4206D24908401C8A42FBD301E01F219980134F9B
:2059B0000F39090940EAC10047EA0001CBF8FB1F0026CBF8FF6FBDE8F88F0D490D4F4346C5
:2059D00008200F609B1D1870BDE8F88FEC0100103C1100506E620840242208405C2D0020CB
:2059F0009C130050082009403500094000E7A48030100940FDFDA400AC3F00502DE9F04FE7
:205A1000044675488A46016894461F46BAF1000FADF13C0D4DD0BCF1000F4AD09AF80020B1
:205A300001209040014244D0BCF80000B0F5C15F32D1DCF81430DCF818206848DCF81C10BE
:205A50004FF0030E0DF128080B93DFF894B10C9200680D91C0F3036958F8046FCEB10021D8
:205A7000351F05200B4655F8042FB2F1FF3F10D0934506D0401E01F1040103F10103F2D14D
:205A900007E0052B05DA705820F4702040EA09407050BEF1010EDFD1C4F804A0C4F808C00F
:205AB0000CF0D0FE4F4D8046287820B140460DF0DFF900208DE002F01BFF4B49086840F011
:205AD0000200086007A80CF02DFC002605F1D00007AA464909960AF0BDF9454905F5827083
:205AF00007AA0AF0B7F907A80CF0D4FBFF2105F1340007AB3F4A089119210AF0D7F83E4A18
:205B100005F150001A2107AB0AF0D0F83B49324605F18800134609F037F93949324605F194
:205B3000AC00134609F030F9364A05F12000042133460BF0A7FB0E2005F07AFA05F174005C
:205B50000CF0ACFA05F16C000CF0A8FA2E74072085F898012E77AE616E770523AE602B4971
:205B7000EB602A786961501C2870274B1E7040460DF07EF9B1464FB92548B0E88C10694611
:205B9000A1E88C100DC86F4681E80D0038682060398A6182012060747B6813B940F6C41359
:205BB0000646E3601B48A06126746061F86800B1A061B86800B160615822494604F12000C5
:205BD00007F07DFB04F1380049460BF02BFA20466C600FB0BDE8F08FD42108405413005061
:205BF0000200F844D8220020002009400D1E010091A6000029E000008DDE00009517010050
:205C1000A51B0100B1F000008E2D00205DA7000018430100EBAB00002DE9F04F05468048D9
:205C3000066800680F461C469246C4F399018900ADF12C0D0A010021803207F040FBDFF857
:205C5000C891A9F1880002466E48016830469047A3088046610801979F1C21F00101F819B4
:205C7000009506EB80000390091DCDF808A07818434506EB800206EB870B3844049206EBD7
:205C900080000690C4F39C004FEA800000F1080007EB400000EB070206EB82020A9224F08E
:205CB000030202F1080200EB020506EB85053A44059506EB82050A4407953A4406EB8202F8
:205CD000089206EB80020992084406EB800A384406EB800518BF6FF0010040F08F8009F1E3
:205CF0006800024641463046904700233CB10199264611F8010B761E40EA0303F9D1002B2C
:205D100008BF01207AD000263CB10299234611F8010B5B1E40EA0606F9D1002E08BF022085
:205D30006CD001995846C84703980299C847009881680498C8473548049A59468146284670
:205D5000C847012803D14FEA88042E590EB1032054E0BE0028460021324607F0B0FA0399C3
:205D7000049A2846C847012801D12F590FB1042044E0274F274C069859463A46A047079841
:205D900003993A46A0470699089827460A46B84709980899069AB8470A9806991E4C224601
:205DB000B84728460021282207F089FA1B4809990A9A81462846C847203428462246014623
:205DD000C847079950460A46B84705980021324607F075FA5FFA88F45046002C0CBF0122FE
:205DF0005FFA88F200216B5C445CA34218BF052004D1491C521EC9B2F5D100200BB0BDE8EC
:205E1000F08FC0468C4F0020B9DB0010C9DE0010D81F0020F9E00010C0400100C9E60010D7
:205E3000884F00202DE9F0410446804DA178A869ADF1180D891F00F0F280C91E00F0DD80D2
:205E5000491E5FD0491E48D0C91E3CD0481E40F0E980287A697AB8B96878002831D0A08804
:205E70000CF0DAFF071C00F0DD80A07A40080FD3787968B1E168890A0AD2B91D01AA05F051
:205E900031F90A2804D10321A0880CF0C1FFC9E0287B022802D1A07A0009F4D3A08879796C
:205EB00004F1080201F074FAA869002800F0BA804368002B00F0B68000210A46A08898479D
:205ED000B0E00521E0E7002800F0AC804368002B00F0A88062780221F0E70CF063FA0028AE
:205EF00000F0A080A86950B1076847B1206900906189227B637BE01C3C46A04792E06089CB
:205F10000121C2E767784FF00008002F66D1A179490863D3EF69002F60D101A841460E2261
:205F30000CF0C6FCA0880CF077FF071C7AD0606940B97879B91D06228DF80A0001A80BF0A8
:205F5000EDFF19E06669307C062206F111018DF80A0001A80BF0E2FF07F10C00B91D06228A
:205F70000BF0DCFFB81D062206F111010BF0D6FF307C40F002007871A079C00839BF387914
:205F900000F0FD00387940F002003871A079000939BF387900F0DF00387940F02000387134
:205FB000A1799DF81120C1F3800010438DF81100080905D39DF8110040F008008DF8110077
:205FD00001A8214600F028FA28B92878022104F045FD404627E0A8694FF0150810B343684D
:205FF00003B3A088627801219847B8F1000F19D0A86943680321424660E7E078211D0022D0
:2060100005F070F80A280DDA410001EB800004F10C0225300421C0B203F0D2FA02E0A08895
:2060300008F02AFF012006B0BDE8F0810C1100202DE9FE4F0E468246307AC10693461F46D7
:206050004FF000090CD558460CF0DEFE030000F0E8800A223146504698475FEA00094DD1AE
:2060700030780C9D0D9CDDF8388002281AD170680178407801EB002189B24FF42052891ACB
:20609000012910D9891E3AD0491E14D0FD397AD0491E00F08180491E6DD0491E73D0491E54
:2060B00000F09580ABE0002C2AD1F068017829800278416887E0002C22D101202880F168D4
:2060D0000A783A7000217089401C80B20CF098FE298860B10278921C51182980418979709B
:2060F0004289120ABA7041680278F81C6CE0091D298004220021781C0CF0DAFB93E0002CE2
:2061100066D1F0680688042129803E70320A7A700DF1020130460CF073FE040021D0D4F80B
:206130000C80BDF802204FF6FF766B4631460CF063FE40B9237862683C4802210CF058FE56
:2061500008B9ADF8006098F8000002280BD1D8F804100222381D0BF0E1FE2888801C2880A8
:2061700001E0ADF80060BDF80000B870BDF80010090AF97057E0002C2AD1F0680168504656
:206190000CF080F802E01CBBF0680088022129803870000A787046E0F0680CF08BFB80B24A
:2061B000A042B8BF4FF007093DDB844208BF002205D008EB04028242B4BF4246021B2A800C
:2061D00092B2F068011938460BF0A8FE2BE014B14FF00B0927E0F0680721298002783A7063
:2061F00043787B704188B9704288120AFA7001793971C2887A71C088000AB87113E0584642
:206210000CF0F2FD5FEA00090BD00F980290CDF8048000942B463A4631465046C84781466C
:2062300001E04FF00E094846BDE8FE8F4C4101002DE9F04F0746880FADF1140DC0F0D480CD
:206250006B4E301D006841688D68CC68486800B18047B046674E002D08BF002C0BD0306888
:206270000028FCD00020306005B1A84704B1A04761480AF07FFE0024A6F11C015F4ACC615B
:206290005F480A6040F60A0CA0F800C04480017B64F303010173A646C0F804E0417B4FF0A7
:2062B000010A6AF303014173BA687B7C54801188B146A1F60201C9B141F21E05491B15D07E
:2062D00041F6E675491B012920D8517E012B64F38201517606D0118B21F47C7141F43471AC
:2062F000118313E0118B64F30911F9E7517C012B64F38201517405D0118A21F47C7141F4DB
:20631000347102E0118A64F309111182D7F808B07C7461465D4600E035466E6816B13288D4
:206330009142F9D168606A7B64F303026A73D8F86C603EB1F2681288CB1F93421BD0891FF9
:20635000914218D03E8CC6B1C7F824E007F120014C8097F82C2064F3030287F82C2097F8F8
:206370002D206AF3030287F82D204160417B64F30301417301E0C8F808402248036882687E
:206390000192C168406B0093102220F0784040F0805003901C480291694605F01FFCD9F8DF
:2063B00000000028FBD01948C8F8140098F81D00C9F8004078B916480068006801465046BB
:2063D000884701280DD0687B6AF303006873114FC8F8147005E009F0A9FB0028FBD00CF0A5
:2063F00041FA58460BF096FF05B0BDE8F08FC046D82200201C1004400100070601010E0499
:20641000EC2C00204C13005018000021A5440000E00100108DE800002DE9F04F754CDFF810
:20643000D0A1E56988468146ADF1140D002D52D1B9F1000F00F09A80B8F1000F00F0968068
:206450000AF064FA06460A2E267426DAD8F81470002F41D0700010216A4600EB860023300D
:20647000C0B20BF00AFBB0B91020ADF1010111F8012FFF2A02D1401EF9D10CE0504600780A
:2064900038B999F80600494600F001000CF0A8FC01E00120A074E5691DE004F1E60B0A27CC
:2064B00000265846FF2106220BF052FC88B97F1E0BF10E0B06F10106F3D1607C002804BFFB
:2064D0000A20207452D094F83660304602F046F8E569267400E0267C0A2E47DA002D35D10E
:2064F00070000E214A4600EB86002030C0B203F067F8207C08F020FE6846FF2110220CF02A
:20651000D7F9207C10216A467030C0B203F058F8217C0E220801A0EB410000194946E63069
:206530000BF0FCFCD8F814206AB15046007840B9107C02F11101002300F001000CF04CFC49
:2065500001E00120A074C4F81C804CE0AA68002A3ED12A69002A2FD16A690ABBEA683AB9AC
:20657000A07B08B10AF0ECF909F058F901203BE07000102100EB86002430C0B203F020F8EF
:20659000E769217CFA68480000EB8100103225300421C0B203F014F8E1690020C86022E027
:2065B0007000102100EB86002330C0B203F008F8E1690020486116E070001C2100EB8600DA
:2065D0002230C0B202F0FCFFE169002008610AE070001C2100EB86002130C0B202F0F0FF7B
:2065F000E16900208860002005B0BDE8F08FC0465A4F00200C1100202DE9FE4F714C606A4A
:20661000406801466846884720792279BDF80010401C04EB4202C0B208281186B9BF207134
:206630004FF0000A4FF0000A84F804A0A06A4068014604F1080088476179208904EB41011F
:20665000A1F840006079401CC0B20828B4BF607184F805A0FF23082720461D462E3030F875
:20667000022F018A7F1E1A44294493B28DB2F6D141F27071D810ED109942D8BF94F8018023
:2066900002DD01276770B84640F6C411814202DA01276770B846A1F19602824206DB40F266
:2066B0005233834203DDA382184601E01046A08240F2EE23AB4202DD02276770B846A942CC
:2066D00002DA02276770B846AA4205DB6433AB4203DDE3821D4601E01546E582A0F2523021
:2066F0000F2190FBF1F086B22682678AB4F80AB0B4F80C90012F12D158460BF023F9019016
:20671000029148460AF0C5FB2CA20CCA02F05EFE02460B460198029906F0D1FA1DD90FB950
:20673000062E15DA58460AF0B4FB01908B4648460AF0AFFB21A20CCA02F048FE0246019899
:206750000B46594606F078FA12D2062E0ADB0FE001276782A4F80CB00AE0B9F1000F05D103
:20677000062E03DAA4F812A0574601E0012767820F20A5F25231B8F1000F91FBF0F081B27B
:2067900061810BD1012F09D0E0792822484300B2C0EB801090FBF2F0E08101E0A4F80EA00E
