:2000000000400020B1D8000001C9011001C9011001C9011001C9011001C9011001C90110D5
:1C00200001C9011001C9011001C9011001C9011001C9011001C901103FC9011089
:20003C002DE9F04FD84C211D2046ADF1840D0DF097F804F120050021284600F0ABFFD34E68
:20005C0010201F220623A560314605F0C3FE5020ADF818000025ADF816504FF47A7A8DF89F
:20007C002B500221ADF81C500DF11602ADF81EA04FF44870ADF81A0040F2063003F02AFB02
:20009C004FF44270182104F1570203F023FB40F20730162104F1410203F01CFB4FF44470DE
:2000BC0001210DF12B0203F015FB40F21130022106AA03F00FFB40F2123002210DF11A02E0
:2000DC0003F008FB40F21330022107AA03F002FB4FF4457002210DF11E0203F0FBFA04F1BF
:2000FC002C002A461523AA490090102005F072FE314610200622A02305F06CFE3146102060
:20011C000722A02305F066FE314610200822A02305F060FE314610200922A02305F05AFEB5
:20013C000BAE01208DF82E5029468DF82C0003468DF82D004FF480628DF83010954D009649
:20015C001F4610208DF82F70294605F043FE0DF12D002946009040F202423B46102005F0DF
:20017C0039FE0DF12E00294640F203423B460090102005F02FFE0DF12F00294640F20642A1
:20019C003B460090102005F025FE0CA829464FF483623B460090102005F01CFE7E49102058
:2001BC004FF0FF3205F016FE10207C4B00907C497C4A0193132305F00DFE7B494FF0FF329A
:2001DC00102005F007FE794D2878800010F025FB01467748A34604464161002900F08B80D4
:2001FC004FF6FF700DF0CEFA2878800010F015FB0146A16100297ED04FF6FF700DF0C2FA0D
:20021C002878800010F009FB0146E161002972D04FF6FF700DF0B6FA2878800010F0FDFA32
:20023C0001462162002966D04FF6FF700DF0AAFA2878800010F0F1FA0146616200295AD0BC
:20025C004FF6FF700DF09EFA2878800010F0E5FA0146A16200294ED04FF6FF700DF092FA6C
:20027C002878800010F0D9FA01462163002942D04FF6FF700DF086FA2878800010F0CDFA51
:20029C000146A163002936D04FF6FF700DF07AFA2878800010F0C1FA0146E16359B34FF6EC
:2002BC00FF700DF06FFA2878800010F0B6FA0146616401B34FF6FF700DF064FA287880008E
:2002DC0010F0ABFA0146E164A9B14FF6FF700DF059FA2878800010F0A0FA0146216551B1EA
:2002FC004FF6FF700DF04EFA324B04F15400352110220EF017FF2878800010F08EFA04F1EA
:20031C00540201462C480E92816011B34FF6FF700DF038FA2878800010F07FFA014626483A
:20033C00C160B1B14FF6FF700DF02CFA2878800010F073FA01462048016151B14FF6FF70F3
:20035C000DF020FA1C481D4B0B21102214300EF0E9FE2878800010F060FA174A01461432AF
:20037C0033481F920029816059D04FF6FF700DF009FA2878800010F050FA01462C48002900
:20039C00C1604CD01CE0C046AC05002019E90000FDB10000094300007DF500008C21010015
:2003BC0041F10000FC0E002029F80000694F002008020020581A0100F0160020EC200100FC
:2003DC004FF6FF700DF0DEF92878800010F025FA01461748016111B34FF6FF700DF0D2F9F2
:2003FC002878800010F019FA014611484161B1B14FF6FF700DF0C6F92878800010F00DFA73
:20041C0001460B48C16151B14FF6FF700DF0BAF90748084B1521102220300EF083FE064D72
:20043C0003496F78287820311A91EFB906E0C046A0110020F41B0100F00800200BF10C013B
:20045C0029620EF067FD05F1440702460020009005F15406019705F11C030296C549039321
:20047C00AB78102005F0B6FCC3490BF11802102005F0B0FC9BF800000EF04CFDBF49024649
:20049C00102005F0A7FC9BF800000EF043FDBC490246102005F09EFCBA49102005F09AFCDD
:2004BC0009F098F9B849002007F070F8B74900200DF0DAFC00200DF023F8B54D05F11407D8
:2004DC0038460FF06DFDB34E306805F134084FF4FA713B464246BAFBF0F080B24143491EE5
:2004FC00AD48696000F05AFDDE4B05F1080228606968DA6000F056FD0021242208234046C4
:20051C0000F054FD4FF00008D74FA5F844806868C5F84C8007F11409A86448460FF040FD6C
:20053C00306807F1340540F2DC514B462A46BAFBF0F080B24143491ECC48796000F02EFDBC
:20055C00CB4938602422082307F10800C8602846414600F02BFDC7F84880A7F84480C54D31
:20057C00C7F84C8005F1140948460FF019FD30684FF49671BAFBF0F080B24143491E6960C1
:20059C00BD48C54A4B4600F009FDBC4F286005F108007860C04841462422082300F006FD48
:2005BC00A5F844806968C5F84C802868A96400F0F9FC6968286810F05EF9B14D05F1140919
:2005DC0048460FF0EDFC3068B44A42F22831BAFBF0F04B4680B24143491EAA48696000F078
:2005FC00DDFC2860AD4805F1080124220823B960414600F0DBFCA5F844806968C5F84C80F7
:20061C002868A96400F0CEFC6968286810F033F99D4D05F1100948460FF0C2FC306805F108
:20063C0030076421BAFBF0F04B463A4680B24143491E9648696000F0B1FCDFF85492286096
:20065C0041462422082305F10800C9F80400384600F0ACFCA5F84080C5F84880696828686A
:20067C00696400F09FFC6968286810F004F9894D05F1140738460FF093FC3068884A5146B4
:20069C00BAFBF0F03B4680B24143491EEB48696000F084FC7349286005F10800086180482C
:2006BC0024220823414600F081FCA5F844806968C5F84C802868A96400F074FC69682868A0
:2006DC0010F0D9F8DE4D05F1100738460FF068FC3068E84A5146BAFBF0F03B4680B24143E7
:2006FC00491ED848696000F059FCD74A2860E14805F108010823D1604146242200F056FC0D
:20071C00C5F84480A5F84080C5F84880CF4D05F1100738460FF044FC3068D74A47F23056FC
:20073C00BAFBF0F03B4680B206FB00F1491EC848696000F033FCC74A2860CF4805F1080155
:20075C00082311604146242200F030FCA5F84080C5F848806E640DF0CBF9BF4E06F10C0073
:20077C00C9F80800301D0FF0BDFF012535720DF0BFF913E08BDA0000D9FA000051880110F5
:20079C0031810110C5AB00100000030379B10000A4190020202201005F080100AF4E06F14E
:2007BC000C00C9F80C00301D0FF09CFF35720DF05FFA2C49AA4E06F10800486106F118003C
:2007DC000FF046FB7576357649F64047F5614FF4E13086F82E80A34B86F82D80A24A3063F3
:2007FC002349B362A24D72628EA3A04E2F6306F10800086193E8030008F094FF8BA20CCA74
:20081C0007F0DEF88BA20CCA06F011FA0CF02CFFA5F866000CF0BCFE85F868001721C5F831
:20083C005C1146F6C032C5F864211F23C5F8BC311420C5F838014AF23141C5F8C41145F232
:20085C00E522C5F8402149F22F70C5F860012423C5F8F8314EF6DA01C5F8C01147F2953285
:20087C0020E0C046B4170020FC19002063080100E0200020541A002067080100F420002078
:20089C00AC1A0020EFC80000B41B00206B080100C81D0020041B0020881A0020E01A00201C
:2008BC00381B0020C5F83C211820C5F868012021C5F8C8111522C5F8442146F67270C5F826
:2008DC0070014AF61D31C5F8D01145F69942C5F84C21D64BC5F8FC3149F6C060C5F86C018B
:2008FC004FF29511C5F8CC1148F2DE12C5F848211920C5F874012121C5F8D4111622C5F8C7
:20091C00502185F8018047F25570C5F87C014BF2BA21C5F8DC1127226A62C5F81C224AF206
:20093C00CF70C5F8780146F20241C5F858114FF68712C5F8D8214DF6B713C5F818321A20A3
:20095C00C5F880012221C5F8E01148F61F52C5F8542147F6F760C5F888014BF65A21C5F818
:20097C00E8111D21C5F8A41102F1EF00C5F8A0014BF2D232C5F8842149F2FA41C5F8AC11DF
:20099C00C648C5F8E4011B22C5F88C214DF20E51C5F8A81148F2B562C5F894212320C5F80D
:2009BC00EC011E21C5F8B0114BF64272C5F890214CF22520C5F8F4011C22C5F8982107F12D
:2009DC003C01C5F8B811C648C5F8F0014CF69F22C5F89C214DF64770C5F8B401A2F1C1013E
:2009FC00C5F80012C44AC5F808222621C5F81012AA30C5F80C022521C5F80412C44AC5F868
:200A1C001422C448C5F820024EF2F801C5F824120CF01EFCB1466B780B4E012B2ED07BBBC4
:200A3C00C2482CE0000000000088C3400000000000005940000000000070C740D3D4000042
:200A5C00081C00206F080100281600205C1C002007E20000142D002098200020B0200020B6
:200A7C00041E00200FE70000E56F000074210020300C0020381C00208C1C0020C148E8622E
:200A9C0005F120000CF094FB0FF030F9B748BEA3A0F8008093E8030008F044FE0CF0E4FD64
:200ABC00A5F87C00A5F8F87040F6B830A5F8BA0001F056FB0220F07086F8048086F80580BE
:200ADC00F0680068C5F83480804704F10D0704F1400504F148060D9704F10B030F9604F13B
:200AFC003402109504F12C0111930BF11000129204F109071391E61D631DC9F80400651C17
:200B1C001497E21C1793B8491596DFF8D8A2169501F1180018920F46DFF8F082B34BDFF897
:200B3C00E89219903E46F81C3D461B901A46B01C1C90681C1D90581C1E90901C2090DBF856
:200B5C00040000214FF040424FF0FF3300F032FA071CF4D0002004900DF12A0104AA05A8E7
:200B7C000DF09CFF00286BD1BDF814C00126BCF1100F60D19BF800009DF82A1088425AD159
:200B9C00049D28884FF6FF71814254D02B78913B29D01F3B4FD16878162818BF002205D17D
:200BBC0030460EF0E7FBB54832460560DBF814309AB163B94FF6FD70B749B84A0090002304
:200BDC00102005F007F9DBF81430C2B22AB943F002030026CBF814302DE0297908352846A7
:200BFC0000F0ECF927E06B780E3B02D09B1E1FD021E0A88842F2030181421CD1A9680D78A8
:200C1C00CDB9491C0DF122000A68496802600DF1220541602878B6490DF1220200F0FD00B4
:200C3C002870102005F0D6F805E0C046021D010008200BF091FF049810B10EB10FF0B1FD86
:200C5C00F80FFFF47CAFDBF8080000F0BBF900287FF475AFDBF80850284600F0B7F9854215
:200C7C0008BF002502D085680DF05EFD002DEAD02888DBF81410401E00F07681C01E00F0B4
:200C9C006F81001F00F05E81083800F03381103806D0203800F04F8169E1C046F8050100F2
:200CBC006868427806788778C17841F60F0306EB0226001DF61A00F0F380B61E00F0A880FA
:200CDC0045F6EF72B61A40F04B810B2F00F24881DFE807F08E7D72685E4E42382E22140866
:200CFC0038120100022940F03B8100880D990880CDF80080206D84E018280100042940F0EC
:200D1C002F8100680F990860CDF80080E06C78E067320100233C0100042940F02181006845
:200D3C0010990860CDF80080606C6AE00000803F022940F01581008811990880CDF800807C
:200D5C00E06B5EE0042940F00B81006812990860CDF80080A06B54E0042940F001810068BF
:200D7C0013990860CDF80080206B4AE0881D0020022940F0F580008814990880CDF80080B2
:200D9C00A06A3EE0DBF91E3F0000000000000000022940F0E580008815990880CDF800801B
:200DBC00606A2EE0012940F0DB80007816990870CDF80080206A24E0012940F0D1800178F4
:200DDC0027463970CDF80080E069394619E0022940F0C680008817990880CDF80080A0692C
:200DFC000FE0C046AD9D0000A0110020F0160020022940F0B580008818990880CDF800800B
:200E1C0060690E9A35236FE0E1850000495C0000002F35D07F1E27D07F1E1AD07F1E0DD0CA
:200E3C007F1E40F09D80042940F09A800068199908605348CDF80090C0692AE0012940F036
:200E5C008F8000781B9908704D48CDF8009040691FE0012940F0848000781C99087048489E
:200E7C00CDF80090006914E0012979D100781D9908704348CDF80090C0680AE0402D00200B
:200E9C0001296DD101783E480170CDF800903C4980681A9A152327E089CD000055FE000000
:200EBC00BFB17F1E0BD07F1E5AD1012958D100781E9908703348CDF800A0006912E0022906
:200EDC004ED10088209908802E48CDF800A0C06808E0012944D101782A480170CDF800A023
:200EFC00284980681F9A0B2309F0A6FC38E0C04695B40010880833D323480768002F2FD0E6
:200F1C007888397908373A4600F064F80746162F03D0042F01D00EF02DFADBF81460FFB96B
:200F3C0036F00206CBF814601AD1184A18494FF6FD70012310E06A6840F20530012102F06F
:200F5C00C9FB0DE040F20E3008A906F0D5F80023BDF82020094808490090102004F03AFF39
:200F7C0068680DF0E1FB02E0A87807F007FE28460DF0DAFB67E6C046EDEA000040E2010021
:200F9C00A0110020F0160020402D002055FE000089CD0000DFF800F0A1B60110DFF800F012
:200FBC00FDB10110DFF800F0E5C00110DFF800F0C1BF0110DFF800F0F99B0110DFF800F04E
:200FDC0089840110DFF800F04FBF0110DFF800F019BD0110DFF800F0DDFE001040680021C8
:040FFC0001747047C5
:20100000B412000018100000E9CE0000FDB301106DC00110FDAE011099B501100000000011
:08102000000000002D0000009B
:20102800B01200003C100000B1C00110A9BF011067C0011069B80110000000000000000035
:041048003000000074
:20104C00B012000060100000BDC00110CDB30110D9BD01106DB3011000000000000000005B
:04106C00310000004F
:2010700000000000C421002004000000000000000000000020000000E8C901103000000045
:2010900028100000CC2100200400000000000000000000000C000000D8CA01101800000020
:2010B0004C100000D421002004000000000000000000000024000000F0CA011018000000A4
:2010D00000000000DC2100200400000000000000000000001000000018CA01102C000000B0
:2010F00000100000EC210020040000000000000000000000200000006CCA01102400000014
:20111000FFFFFFFFF42100200400000000000000000000002800000090CA011024000000D3
:20113000FFFFFFFFFC2100200400000000000000000000001400000008CB01101800000052
:20115000FFFFFFFF0422002004000000000000000000000058000000B4C90110340000001F
:20117000FFFFFFFF0C2200200400000000000000000000001000000020CB011018000000ED
:20119000FFFFFFFF142200200400000000000000000000001C000000B4CA0110240000001A
:2011B000FFFFFFFF1C2200200400000000000000000000003800000044CA01102800000042
:2011D000FFFFFFFF242200200400000000000000000000005400000078C901103C000000B7
:0811F0000100000024220100AF
:0411F80001000000F2
:0411FC0000000E00E1
:0412000000000F00DB
:0412040032000000B4
:0412080001000000E1
:04120C00C8200020D6
:0412100000020000D8
:0412140000000000D6
:0412180001C90110F7
:04121C0000000000CE
:0412200000000000CA
:0412240008000000BE
:0412280000002200A0
:04122C00781E002008
:0412300000000000BA
:0412340000000000B6
:0412380008000000AA
:04123C003820002036
:0412400000000000AA
:0412440000000000A6
:04124800080000009A
:04124C00000000009E
:04125000000000009A
:041254000000000096
:041258000000000092
:04125C00010000008D
:04126000401F00200B
:041264000600000080
:041268000100000081
:04126C00B01C002092
:04127000000000007A
:041274000000000076
:041278000002000070
:04127C00000000006E
:02128000290043
:02128200010069
:02128400250043
:02128600300036
:02128800310033
:02128A002D0035
:02128C0001005F
:01128E00015E
:0812900003000000A42101008D
:0812980000000000000000004E
:0412A0000000010049
:0412A4000000030043
:0412A80013C401105A
:0412AC0085000100B8
:0412B000B812000070
:0412B400B81200006C
:0412B8000000000032
:0412BC008C21002061
:0412C000B302010074
:0412C4002000000006
:0412C8000C210100F4
:0412CC00B81F010046
:0412D00029C101101F
:0412D4009D08010070
:0412D8009F0801006A
:0412DC00A1C7011095
:0412E000A3C701108F
:0412E4000000000006
:0412E800F51C0100F0
:0412EC005C1D010084
:0412F000741D010068
:0412F400441D010094
:0212F8000200F2
:0212FA000900E9
:0212FC000100EF
:0212FE000000EE
:0113000001EB
:0413040041020100A1
:04130800A1E600005A
:04130C0079F600006E
:0413100051EA00009E
:04131400D9E6000016
:04131800CDD600002E
:04131C0075A90000AF
:04132000FB040100C9
:0413240019CB0000E1
:0413280015C70110D4
:04132C0025C70110C0
:201330002DE9F04FD14C04F118012046ADF1340D0BF01CFF002604F1A40A4FF6FF7066706F
:201350000121208250460DF01BF8CE4802210DF017F8D04804210DF013F804F14408042024
:2013700010223146A07040460AF07BF904F154091022484631460AF074F904F11C073E600A
:2013900004F10A052E7007206072DFF804B3E67102222672594610200346CDF8008004F0B0
:2013B0001FFD102003225946CDF80090034604F017FD0422102059460097134604F010FD81
:2013D0004FF0080A4FF003094FF0010B05F12A00079005F17900089005F11E00099005F1B5
:2013F0005A000A9024350B9517E06078A28FE18FB4F84050B4F8423006280ED1ADF80A204A
:20141000ADF80C10ADF80E509E48ADF810300FF028FA584602A909F017FDA069B34A314639
:201430004FF0FF33FFF7CCFD071CF6D0059606A80DF11A0105AA0DF037FB002840F0BC81AE
:20145000BDF818102078102940F0B2819DF81A10884240F0AD81059D29884FF6FF728A42AF
:2014700000F09B812B78A23B00F07E812E3B40F09F81A978B046002900F03A81891E00F0A6
:201490000B81491E012940F2D580891E00F09980491E6ED0491E5BD0083900F05581891E03
:2014B00040F0588194F83A10A8880529ADF8080046D074488DF812B00FF0D3F994F83A0088
:2014D00001281ED004281CD003280DD002280BD00598C188ADF80A100189ADF80C10418906
:2014F000ADF80E10818927E0A18FE08FADF80A10B4F84020ADF80C00B4F84210ADF80E201C
:201510001AE0A08FE9888842D8BF081CADF80A002989E08F8842D8BF081CADF80C006989A4
:20153000B4F840008842D8BF081CADF80E00A989B4F84200884200DC0846ADF8100001E0CD
:201550008DF81260A849102002AA04F049FC01E150480FF086F96B78002B40F0FB80E8885D
:2015700060822889A0826889E08246480EF00AFFF0E0AA88B349102004F032FC0798414648
:2015900006220AF06EF86682A682E682A87920733C480FF066F93F480FF063F9D8464FF660
:2015B000FF70237920824BB9A879082814BF04200520607058460EF015FFCBE084F80190C5
:2015D000C8E06B787BBB291D0A6807980260898881800623637068892082E8896082288ADB
:2015F000A082688A94F83A10E082E8780129E07218BF02290BD1994910201F2204F0F0FBA3
:201610004FF47A7180B241431E480CF0D5FE68890423009090490193EA7810202D1D2B463F
:2016300004F0DEFB99E06878312840F08A80E67004202AE06B78002B40F08380A878E18992
:201650006278032814D0E078257921B9012814BF2671E67005E0054303D081480CF0ACFE69
:201670006278072AE4D106200FE0C046F0080020062A09D0E578002D08BF84F801906CD0C4
:20169000022002E0B80900200720607065E0C0469DFA0000DC0900206B78002B51D1EB78E4
:2016B000617893B902291DD007291BD0062902D12079012816D1032914D069480EF062FEF8
:2016D00080B958460EF08EFE0CE00DF029FC0246A07960490090089843460190102004F013
:2016F0007FFB68706D78002D2BD133E0070000806B7833BB5B4856490090022210200346A0
:2017100004F06EFB58484A46514900901020034604F066FBED1C296809980160A988818066
:20173000207884F801B00DF0FBFB02465B460A9D6079484900901020019504F051FBC0B2DF
:2017500058B184F801A008E0AA8840491020052304F046FBB8F1010F2AD1256A45B3296857
:2017700031B36078884723E06879132820D12889012808D1607B022805D13E480FF071F842
:201790000DF0C4F914E035491020052204F028FB81B238480CF010FE0AE06888C00B07D363
:2017B000324804222A4900901346102004F018FB059808B10EF0FBFF2579E07879082ED320
:2017D00055EA00032BD0204600787DB9E279217A8DF808200B9D8DF809102B680DF10A0123
:2017F0000B60AA888A8003E0051601108DF80890627A8DF81020A17A8DF811100DF090FB2C
:201810001149024602AB102004F0EAFA38B1256A84F801A01DB1296809B150468847B8088E
:2018300003D31349304609F00FFBF808FFF4F5AD607B401E3FF4D9AD401E7FF4EEAD0DF0FD
:2018500065F9EAE52DD1000059440110C1170110D97A000009450110B57D0000CDFE000007
:201870009409002034090020440900200C0900202A090020DC0900202DE9F04F0F46CD4C81
:201890000168E16241688068ADF11C0DE060C548A1608047C448E16A0160A168DFF810A3D4
:2018B0004160E168DFF804938160CE49002FA346C1606FD03D68E8788DF80C0028798DF894
:2018D0000D0003A80FF014FBA86808B1C6490160E86808B1C5490160C54C28782070687860
:2018F000BE686070A878B268A0703178A2607368E1702E696360EA6926627968E2620868F7
:20191000E06068696062A8697B68A062286A9E68206395F8240084F834001EB900200EF07D
:20193000B3F900E066617868C06818B900200EF0ABF900E0A0617868006918B900200EF090
:20195000A3F900E0E0617868406818B900200EF09BF900E0206128692062F86881680E687C
:2019700006B9D24ED0494FF001084E60C66881F8018036B900200EF087F94D462E68F8682B
:2019900001E04D462E6000685446FB68A0615868E06107E000200EF077F94D462E684FF0F1
:2019B00001085446361DC7493668621C04F114035020B04710B1286880688047DBF80800A7
:2019D0008047C24E002781463B46BF487770694620610422337038460CF02AFC0098B0F5ED
:2019F000801F0CD020B90DF0FBFB05F06DFF08E00BF0F8FD0EF008FC0420708001E00DF063
:201A1000EFFB3846BA4EA0602B68B760986980477060AF4880F800803946418014200EF0A3
:201A3000F1FCFF211422A0620EF023FFE01CFF2102220EF01EFF14200EF0E4FCA54F386038
:201A50003868002114220EF014FF002000F052F940460CF0E1FAA0480188FF2906D1022123
:201A700001807822001D00210EF003FF03200FF03BFA04200FF034FA05200FF02DFA0620E4
:201A90000FF026FA07200BF011F8944E0820307006F124000FF018FA0BF0C6F906F1360A25
:201AB00005200A2152460DF0F1FF38B10020C0F10901401C0AF8011B0A28F8DB3078102125
:201AD00007F0EAF92B68864909200DF10E025E68087001AB10200021B047A06AE1690A26CD
:201AF0000A309DF80E20761E00F8012BF9D1891EE161DBF80C104846884704F120002B687A
:201B1000626A059040461E69DFF8D88104F120034146B04710B1286880688047B8460DF086
:201B300057FC5FEA000903D008F0E8F84FF0FF39002643E00298216910F8062CA0F10C0783
:201B5000032A03D1002939D0884737E0A16A9DF810C00A223046491E11F8013F9C4506D0E3
:201B7000521E00F10100F7D14FF0FF0A01E05FFA80FA2868BAF1FF0F00F108001CD0387950
:201B90000CF0DEFCB979012904D0022904BF0299887001E002990870029950460DF0ACFEE2
:201BB0000CE0C04641490010F844002050220020A01F002038150020006880472868C36964
:201BD00004A902AA0DF10F0098470028B2D0D8F800007700C35B6BB9761CF6B20A2EF8DB38
:201BF0002BE0C046080F0100E9F000009DFE0000401E00200A2E20DADBF808008047D8F816
:201C10000010002231F807A0CA53DBF80C108847354850F826202670514630469047064606
:201C3000FF202070DBF808008047D8F800107A5A16437E52DBF80C1088470DF0C9FB07469A
:201C5000B9451AD007B9294FE069B84238BF071CDBF80800804781462868016A206A88473A
:201C7000626A28681F49059B521C6262C6683846B047DBF80C1048468847A7682968606966
:201C90001431AFB9D8F800000A270026835B33B10969606988472968D8F8000014317F1E51
:201CB00006F10206F2D107E0AC21002047F70000096988472968143109684FF0FF3088477B
:201CD0002DE7C046E9F5000015FF00003822002034220020602D0020601800202C10002057
:201CF000722D002089E50000401F01008EC2F528F42C00202DE9F84FDFF8BC13DFF8BC23E1
:201D1000DFF8BC5308700821002010600D23DFF8B40340F23732017043808280DFF8A8038B
:201D30000560AC7EDFF8A4030470FF2CE97E417008BFFF292A7F82706B7FC370AE7F067184
:201D5000ED7F457115D1FF2A08BFFF2B11D1FF2E08BFFF2D0DD1DFF878130A7802704B7858
:201D700043708A788270CB78C3700A79027149794171DFF860130278DFF85C83DFF85C938C
:201D9000DFF85C730A70FF2543784B7082788A70C378CB7002790A714079487188F80050D7
:201DB00088F8015088F8025088F8035088F8045088F805500020CB490880D9F83440CA49E0
:201DD000607808702278C9493A70A0780870A2681079C74A411E1170E078C649C64A08704A
:201DF000E068106008B90DF04FFF2069C34E306008B90DF049FF3068DFF804A30168884791
:201E1000326852F8041F50468847BE48BE49CAF82000CAF824106069BC49086008B90DF06D
:201E300033FFA069BA49086008B90DF02DFFE069B849086008B90DF027FFDFF8DCB2B74C04
:201E50009BF804000EF0DEFA0028206075D09BF80500B34E0EF0D6FA002830606DD09BF829
:201E70000600DFF8C0A20EF0CDFA0028CAF8000063D09BF807000EF0C5FAAB490028086056
:201E90005BD039789BF80000891C484380B20EF0B9FAA649002888604FD03878002862D088
:201EB000BBF80210484380B20EF0ACFAA04A0028506042D038780EF0A5FA9E490028086054
:201ED0003BD0387840000EF09DFA9B490028086033D03878182148430EF094FA974A10609A
:201EF00058B3387840010EF08DFA9549086020B3387800010EF086FA92490860E8B138787D
:201F100000010EF07FFA90490860B0B13878302148430EF077FA8D4A106070B18C483978AF
:201F3000007848430EF06EFA8A4A106028B138780EF068FA8849086018B9BDE8F14F05F017
:201F5000B9BE4FF0000B09E00EF024FA0021418081600180022303710BF1010B39785FFABC
:201F70008BF08842F0D32268694F0120107121680D732068457321688D732068C57321684A
:201F90000D7400212068457400202268D172A0222168487103212068C2800172072022684B
:201FB00050720021206881722821206801224182C2760020216848770022206880F85E20BC
:201FD0000121226811770120216881F85D0001223068027131680D733068457331688D730D
:201FF0003068C57331680D7400213068457400203268D172002231684871306882724FF435
:2020100020703168C88008818A7401213368D974DAF800201573DAF800104D73DAF80020A0
:202030009573DAF80010CD73DAF8002015740022DAF800104D740121DAF80030DA72002393
:20205000DAF800201171DAF800104B71DAF80010C88008818B720520DAF800209374DAF8BE
:2020700000103E4AC874106880473968054608688047396851F8042F00209047D9F80C1019
:202090001C4B0A881878364902430A802846354A136898470C2134480EF012FF40460EF0D6
:2020B0000BFF0EF005FFBDE8F44F034800784FF4005106F0F1BE00BF6E4F0020044F002011
:2020D000B63F0050604E0020084F00202C4E0020E81200503C4E0020344E002038220100DB
:2020F0007B4F00200C4F00206D4F00206B4F0020724F00206C4F0020F04E0020F44E002039
:202110007C4B00201504010035040100F84E0020FC4E0020442D002080210020104F0020D3
:20213000144F0020184F00201C4F0020002D0020684E0020004F0020482D0020804E0020E5
:20215000844E0020884E00208C4E0020904E0020332200204C2D0020502D0020401500206F
:20217000544F002044150020F84D00202DE9F04FDFF85C83DFF85CA308F13405ADF1140DDC
:2021900005F1C4011F27002628680091D146029005F1C404C8F8540005F1860101918635A2
:2021B00034F8021B35F8020B48430CF08AFEB0A20CCA05F00BFC0BF01DFC19F8011B7F1E7B
:2021D00000FB0166ECD130460DF018FAAA4908F05FFAAA4D294609F003FAA94908F058FA6F
:2021F0000CF002FA07F0A4FA0BF004FCBB4944461F27834600201AF8012B31F8023B7F1E49
:2022100003FB0200F7D10DF0F9F9294609F0E8F99C4908F03DFA0CF0E7F907F089FA0BF049
:20223000E9FBE16BE68807465944E163A06BC019A063626C5218E265256C039205EB00083E
:202250003846C4F860801EB90025E570284619E00DF0D4F905464FF496707043A0F59670F0
:202270000CF0FAF90146284608F012FA864909F0B7F90CF0B9F907F05BFA0BF0FBF9C0B2D3
:20229000E070002584F85A00002E08BF2B1C1BD028462B46009931F81010421CD0B25B18A8
:2022B0008642F7DC18460DF0A9F9814630460CF0D3F90146484608F0EBF90CF095F907F03F
:2022D00037FA0BF097FB0346A4F8583023630720A4F864000BF062F94AF2104184F868004F
:2022F000994203D347F23051994201D921630B4647F23050181A0DF01FFB07F019FA0FF2CC
:202310008C1A9AE80C0005F061FB62A20CCA04F094FC0BF0AFF95FFA80F9604EA4F8669015
:20233000002F08BF301C0DD058460DF067F95C4909F056F9834638460DF060F90146584604
:2023500008F0A6F9A76CE16CE066474511D00398401A0DF053F9524909F042F98346A8EB5A
:2023700007000DF04BF90146584608F091F9074600E04C4F2767384631460AF051FA28BF27
:20239000081C1CD248460CF067F9474909F028F90CF02AF945A20CCA05F018FB834689460B
:2023B00038460CF021F90B4602464946584604F044FC9AE80C0004F040FC09F027FD0CF0A8
:2023D00025FBB8F1000F606729D040460DF016F93849804608F05CF90CF006F9074603984C
:2023F0000E460DF00BF9414608F052F90CF0FCF831A20CCA05F0EAFA31A20CCA05F0E6FABE
:2024100002460B4630A003C803F0B2F80B4602463146384605F0DAFA09F0F8FC06462665C0
:202430002D48A6672F4667B92C4A818F01801646B18F019B1180998F009E1980B18F318055
:2024500007E0264A790045525552019E7552009B5D527F1C1F2FE6DB01200299E080491C83
:20247000A078616305B0401CA070BDE8F08FC0462D431CEBE2361A3F00803B450000964364
:20249000000061450060EA460000B4430000000000005940000000000070C74000000000EF
:2024B00000002041F63F1C460070AD48CDCCCCCCCCCCEC3F00401C469A9999999999B93F8A
:2024D0002F505260014C393FB84082E2C798CB3F300C002078200020881D0020AC0C002080
:2024F0002DE9F84FC04CA178FF2904BF00200DF0CBFBA0780DF042FE044604F1680504F186
:2025100090062968086810B10021E1830CE0A87B002804BFA97E002906D13078002801BF1D
:20253000207F0128608CE0832189E08B4118491C618120460EF0B8FC01281EBFAB48017835
:20255000012904D121890020491CE08361814FF6FF77A87E01280DD1AA8B618920890EF04A
:202570009FFC38B1218960894A1C93B298421BD0A88B0FE03078012816D17288618920895D
:202590000EF08EFC80B1218960894A1C93B298420AD0708892B2904206D03818608180B239
:2025B0000EF07AFC3F18E78304F5967999F8040020B120890021401CE183608104F12E07D3
:2025D000A87E012811D12189A88B4B1C9BB298420BD160810EF060FC8046B988288C01FB81
:2025F0000808204609F032FB01E0B7F80480B4F81EC022687E4ED2F80CE00CF1010000FB8C
:2026100008F340F6C41000FB03F18E44C2F80CE03668DFF8E0E13678BEF80080764AB609A5
:20263000032E11D1D67BF60748BF4FF000080BD408F101081FFA88F6012E12BF668AB9F8C2
:20265000066006F2DC5600E0668A5E434FF4C87AB6FBFAF6761C6661AEF80080A3614FF081
:20267000180894F806A084F820C008FB0AFADFF88CC1DCF800E023680EF1080656F80AB01D
:20269000C3F810B094F806A008FB0AFACDF800A0D3F80CB0D4F814A0ABEB0A0ADDF800B0DB
:2026B00046F80BA094F806A008FB0AFA56F80A609E600EF10C06A37908FB03F30EF10C0EF3
:2026D000F65C06F0F00646F002060EF803604FF0000ADCF800E0A6790EF1020308FB06F6E6
:2026F00023F806A0464BA6791B68760103F1140AD4F814B05AF806A00AEB4B0A03F1140B68
:202710004BF806A0AD7E022D0BD1A5796D0103F1140697F800B056F805A000FB0BAA46F8D0
:2027300005A0BD88D27BA779D60736D508FB07F70EF10802D659A6F5A86A0EF1080646F819
:2027500007A0A77908FB07F7D2592768511A3961BA6003F11402A1794901575807F5F66752
:20277000575003F11401A27952018958C9F800106843244AA179156B03EB41162968401A96
:20279000A0F51670F0612049A07903EB40100B78012B14D10121C17214E003F114027F0196
:2027B000D1592A464243A1F5E661A2F516729142DED3082120460EF06BFB012011E0916A6A
:2027D0004A78C272A179DCF8000008FB01F281182268516007200D490870204608F07AFF6F
:2027F0000020BDE8F28F00BF684E0020784F0020084F0020682D00205C4D0020804E002024
:20281000844E002038220100734F00206F4F00202DE9F84F0C46E00788B00BD50DF0CAFD29
:2028300028B100218160B348006800B1804784F001005CE1A0070FD5002100230691059124
:202850000491039302910191009101223C200EF01BFB84F002004AE11D256007A64EA74FC0
:2028700040F18A80002107918B46A5488178FF2904BF00200DF008FA386890F8A0000DF0CE
:202890007DFC80463868C07A98F82691022818BF032808F5907A06D106F10D000EF0F0FAD2
:2028B00008B906F1070B514648460EF0E5FA88B33868807A002818BF012804D1314650465D
:2028D0000EF0D6FA04E05246494630460EF0CCFAFF2834D005FB00F906EB090506225146F3
:2028F000E81D0DF027FB16F80900396840F00209E81D07900622887E00F0010088F826014F
:2029100005F1010A386800F1140108F590700DF011FB14E0514648460EF0A2FA78B1524686
:20293000494630460EF0A0FAFF2808D006F10D01454348190EF0A4FA08B949F0020908F163
:202950002C004B46017806914289120905920122B8F822100491C08807990291400803902D
:20297000CDF804B0CDF800A0002098F806100EF08BFA84F00400BAE020060FD500210023C0
:20299000069105910491039302910191009101223B200EF079FA84F08000A8E0E0044BD5AA
:2029B000F11D06F10D000EF057FA3868017A012918BF042931D1C17A02291EBF0329817EED
:2029D00001292AD1817E00F1140230460EF04CFAFF2811D04543354405F10D000EF050FAAE
:2029F00050B9E91D05F10D000EF036FA38680622E91D14300DF09EFA3868C07A022818BF05
:202A100003280AD106F10D000EF03AFA28B938680622F11D0C300DF08DFA3A4842683A4845
:202A300000784FF480510AF0C3FF10B18E2008F0DFFC84F480505AE0A00505D50DF05CFDA5
:202A5000324901200860FEE7600504D507F08BFD84F480604BE0600405D5812008F0C8FCA2
:202A700084F4804043E0A10440D5294D286810B100200DF009F9274E4FF0FF3028600EF0E2
:202A9000E7F93168244D51F8202F684690472349234B486A8A6A009001920293C86A02684B
:202AB000086A0392ADF810000A6B1178002904BF5068002805D19068002804BFD068002867
:202AD00006D02970506868609168A960D068E86029463568134A2E6813486B46B047134917
:202AF000086003F0E1FB84F4005000E0002009B0BDE8F08F204F0020AC450020104F0020CB
:202B1000684E0020784E00206E4F0020FC002043044F0020F04E002068450020401E002091
:202B3000B50301002C4D0020082C0020EC4E0020BB482DE9F84F0025BA4CB849056094F808
:202B5000E200002800F06581012800F02F81B64E02283CD0032840F05C8151F8250CD4F804
:202B7000B8100029A0F5C060C4F8D400B8BF49420028B8BF4042814226DA4FF08057D7F844
:202B9000A4014568B4F8BC0030214FF47F42082300903046A847D7F8A4014568B4F8C00069
:202BB00004214FF4F802122300903046A847D7F8A401B4F8D070456820214FF440620A2319
:202BD00030460097A847012584F8D8501CE151F8258C0DF091FC2F4600B901273946934FE7
:202BF00038680028FCD0B146012609F10409D9F82CA03E6009B10DF085FCCAF30720C4F8F9
:202C1000BC000DF079FCAA4600B9B2463B68002BFCD0D9F800B0BAF1000F3E6001D00DF094
:202C300071FCCBF38440C4F8C0000DF065FCAA4600B9B2463B68002BFCD0D9F81C90BAF158
:202C5000000F3E6001D00DF05DFCC9F38120C4F8D000B8F5C061C4F8B81000F09C8094F8BD
:202C7000D80068B9C4F8D410D4F8C000C4F8C800D4F8BC70C4F8C470D4F8D030C4F8CC302F
:202C9000D4F8D400D4F8BC30002854BF02226FF0010204F1C8010F6800EB400080184210C1
:202CB00000EB927207EBA2000860D4F8C810C4F8C43000291CDD1E293CDDD4F8CC0030B9C2
:202CD0003429B4BF15391E21C4F8C81025E02A29BABFD4F8C8000B381E20C4F8C800D4F8BD
:202CF000C4003F28B4BF401C3F20C4F8C4001FE0D4F8CC00032812D011F10B0FC6BFD4F8DA
:202D1000C8000B30301CC4F8C800D4F8C4000028C4BF401E051CC4F8C450032508E011F134
:202D3000150FC6BFD4F8C8001530301CC4F8C800C4F8CC504FF08057D7F8A401B4F8C4302F
:202D500030214FF47F424568374800930823A847D7F8A40104214FF40032112345683248CC
:202D70000096A847B4F8C860D7F8A40104214FF4F802122345682C480096A847D7F8A401C5
:202D900020214FF440620A23B4F8CC60456826480096A84701E084F8D85040F2FF504045CD
:202DB00002D8801C40452FD2082030E051F8251C1F4F4BF2F5204843060A3868C0F38140D6
:202DD00001280CD11B480068006880470BF070F80DF09EFB3111C010484306EBE03694F8BA
:202DF000E50030B91448006820F07F403618760801E084F8E5501148310C0660012741603F
:202E10000F4D8760287808B90B2000E0052084F8E40003F0B9F8BDE8F88FC0462D400C40DF
:202E30002C500C402414002000A00C4000800C40B43F0050EC010010102009403C600C4009
:202E5000C92001002DE9F84FB34D696884B0019121B905B0BDE8F04F0DF0F6BF0978DFF807
:202E7000BC82AF4EDFF8BC92DFF8BCA201291CBF0229042946F2A81741F64C5B05D040293D
:202E900018BF802900F096803CE10DF0E3FB0028FAD00198007804F061FA0090446814B949
:202EB00000200CF0F1FE9AF8010000285CD000F043F90DF063F902900168009801914F68AF
:202ED00009F020F9022825D000990A78012ADBD196490A68137A19F80310317018B90DF04E
:202EF000AFFF5844A0602069C17E01F0EF01C1762069C17E41F08001C1762069C17E01F02E
:202F1000F00141F00201C1762269B96888484118D1614BE001980178802911D10820854980
:202F300030700A78012A03D09AF80100022801DB38690CE0D8F828003A690178D1720DE0F7
:202F50007C49072030700A783869012A02D10121C17203E0D8F828104A78C27202988179EA
:202F700001988AF80210C8E0009800288CD00199009A0078914205D101281CBF00200CF0DB
:202F900083FE15E0012840F0BD80684801680A7A19F8020030700DF053FF3918A0680DF020
:202FB0004BFF18B90DF04CFF5844A0600120A8700098A2E09AF8010000287AD000F0BCF806
:202FD0000DF0DCF804462068029047689AF802000DF0D4F803900DF043FB10F0070F3DD0AF
:202FF000A87804F0BBF90190416801980091029909F088F8022831D001990A78012A2AD114
:203010004A490A68137A19F80310317028B90DF017FF83440098C0F808B000980069C17E46
:2030300001F0EF01C17600980069C17E41F08001C17600980069C17E01F0F00141F00201E9
:20305000C176009AB9683A4841181069C16101210198A97051E000200CF016FE0398A04246
:2030700025D0029833490278802A12D1082030700978012903D09AF80100022803DB3869AC
:203090000121C17210E0D8F828003A690178D1720AE0072030700978386901290EBF012297
:2030B000D8F828104A78C272A0798AF80200029823E00DF0D5FA10F0070F29D0A87804F0D9
:2030D0004DF904462078D4F80480012820D117490868027A19F8021031700DF0B1FE391841
:2030F000D8F808000DF0A8FE20B90DF0A9FE5844C8F808000120A870204605B0BDE8F04F2C
:2031100005F0E6BF05B0BDE8F04F00200CF0BCBD05B0BDE8F08F00BF002D00203822010097
:203130006F4F0020289A0110684E0020104F0020F0D8FFFF734F00202DE9FE4FB24C617897
:2031500011B900200CF0A0FD0DF07AFE4FF00008074607F6C417C246AC4DDFF8B49228E0D5
:2031700050460DF00BF806467079F0B12968B07901F80800394608F101005FFA80F8304658
:203190000DF056FE30680178402902BF06F182000178012902BF41887289914205D1B1692F
:2031B000C088411830460BF009F80AF101005FFA80FA99F800008245D2DB6178884505D09D
:2031D00000200CF061FD82200DF02EFE6078012840F0F180002701E07F1CFFB299F8000013
:2031F000874280F2E28038460CF0C8FF064670790028F1D02968B0790A7890421CBF0020BA
:203210000CF042FDB079FDE0286810F809000CF0B5FF00684268DAF808109068814204BF92
:203230003E4609F1010900F0D480D6E0286890F800B001224FF4C0710FE0636803F5AD76C8
:20325000835C01FB03F901FB0BFE36F809C036F80E60B44538BF9B46521CFBB29A42ECDB60
:203270004FF6FF700DF0DCFD064658460CF086FF68490068D0F804A00868D94630F81920D4
:2032900060684FF4C07300F10E0103FB09F3C85AB2EBD00F52D2720840F6C4104243009289
:2032B00000275D4A0190029217E058460CF066FF01680A78802A03D1DAF81030009A5A6145
:2032D0000978402908D1029980790A6802EB4011009800F5A060C8617F1C47452EDA286862
:2032F000C05D8345F8D001464FF4C073594363685A1803F5AD73D289595A53088B4202D259
:20331000521A9045E8DA0CF039FF01684A68019B9168DAF808207008A1F6C41103FB0020BA
:203330000DF08AFD0028C0D03A48006830F81910491C20F81910286810F807B02968087800
:203350000CF01CFF0026006847684FF4C079464551DA2868805D0CF011FF006829684268BB
:203370008B5D606809FB03F3034403F18201087830B15889B1F802C0401C80B2604508DA13
:20339000887B01280ED15889098A401C80B2884208DB6EB3B968906801F5C241A8310DF05A
:2033B0004BFD28B3761CF6B2D1E700200CF06CFC82200DF039FD617828680DF02DFD28686F
:2033D00000780CF0DBFE00260068D0F804A04FF00109771CC145FFF617AFF6B2002E1CBF48
:2033F000F8B200287FF422AF286890F800B037E7296811F806B007490A6800205B4622F8D4
:2034100013005846BDE8FE8F684E0020004F00207B4F0020482D0020844E00202DE9FC47AA
:20343000DFF8B8A20F460546F80B80F00881A64EDFF88882B80F80F0BA80B80880F0AE800B
:203450003809C0F02F819B480178090980F0A180007830F07F0040F09C80684606F0ECFCCD
:20347000012803D10098002800F0938092480078002840F08E8001240025E8B20CF042FEA4
:2034900048B1837A3BB1847290F9090004FA00F0C0B20AF059FF6D1C032DEED345464FF0BC
:2034B000030905F1AC0085F810900DF0AAF9844A0021884610681160824952F8080C05F1CC
:2034D000340042F8088C42460DF0A9F93068006B8047AA68A969801A000BC0F1FF328A4272
:2034F0002CBF01444FF0FF31A961287F20B1E868A969B1EBC02F1ED90CF04EF9414600B13C
:203510002146081C14D0714840F60901018041464180427B64F303024273027B61F30302C6
:20353000027341600CF00EFF418811F4406FFBD02C774146A9616649086820F0020040F47B
:2035500000700860634A42F8049C41F23006966014605023936014604FF4CA669660146072
:20357000022042F80C4C44460C600BF04BF9112005F0F2FC287818B9686838300DF05BF944
:20359000687F18B16C7705200BF03CF9524868612C7409F0E5F827F0080783E004F078FC69
:2035B00040467430006808B927F002077AE00DF030F934468146606D006801460420884758
:2035D000C8B1287CB8B14046083006689EB12068EC68006B8047801BE860010BE960A142B1
:2035F00002D209194908E96040F6C41088422CBFB1F5FA7FE86048460DF00AFC0AF088FEF4
:2036100090B1A8696FF4807100224FF0007304462846A04740466C300068002808BF47F0D1
:20363000020701D009F09CF8686900214FF0806304460A462846A04727F0005732E00DF093
:20365000E8F851460E684EB306F1280106C90A234FF0E0450B40154008BF002B1ED106F174
:20367000280191E8300006F1280393E8060006F12803AA43A14383E806000DF0C9FBB16887
:2036900071B1002D08BF002C0AD03069B6F93C10B2682B4616462246B04701E00DF0B8FB93
:2036B00027F4804727B15046394650300DF0CBF8BDE8FC876A2D00201124002078220020FD
:2036D0001410044029C500008C010010CC2C0020000004600C410440D18A0000F822002045
:2036F0002DE9FC41A0F2013714468846022F40F233819B4E9C493F1F0F2F04D9143F4CD0A8
:20371000BF1E1CD011E0DFE817F0D000CA000E01FB00C200BA002701B000A8001000100051
:203730009E0090008000750066002D2880F21481B8F1020F40F010818849238808E1B8F10B
:20375000010F40F00981F078012800F00581324620781179107189B9002800F0FD805078CE
:20377000012800F0B680042800F0B380062800F0B080052800F0AD80BDE8FC812078002821
:2037900040F0EA805078032800F0B080072800F0AD80052840F0E080A8E0B8F1010F40F0F2
:2037B000DB802078012840F0D78006F1EC000CF0E9FD002840F0D0803446002004F13A011F
:2037D00007F042FB002840F0C78004F1C8000DF048F8BDE8FC81B8F1020F40F0BD8020881B
:2037F0000A28C0F2B980B0F5486F00F3B5800E46B61C17E0B8F1020F40F0AE802088B0F596
:20381000FA7F80F2A9800E460CE0B8F1020F40F0A38020880628C0F29F80B0F5486F00F341
:203830009B803E363080BDE8FC81B8F1020F40F0938020880628C0F28F80B0F5486F00F334
:203850008B803C36EEE7B8F1010F40F085802078062880F28180454E0EE0B8F1010F7BD159
:203870002078042878DA0A3606E0B8F1010F73D12078082870DA09363070BDE8FC81B8F143
:20389000010F69D12078042866DA0836F4E7B8F1010F61D1207804285EDCF61DECE7B8F139
:2038B000020F59D120880E36BCE7B8F1010F53D13079012850D032462078D178D07069B9A4
:2038D000002849D05078012803D0042818BF052842D101200CF086FDBDE8FC81207800280E
:2038F0003AD15078022818BF052835D110780BF017FB1C490246102002F072FABDE8FC81BF
:2039100006F1830500211F22284607F0AAFE21464246284606F07AFB44463078B4710BF08F
:20393000FFFA002311E006F1640500211F22284607F097FE21464246284606F067FB44466F
:20395000307874710BF0ECFA01230094084901950246102002F044FABDE8FC8119E900007E
:20397000F008002099450110300900202A090020094501102DE9FC418E488F4A04788F48D0
:203990008F4B90490D2C6FD8DFE814F012010E000E000E000E000A010A018E000A01C90056
:2039B000C900E700E700EE00106041F204478648864DB0F802C08649BC451FBFB0F81AE029
:2039D000BE45B0F83280B8454FF4A0561ED181480068D0F800C09CF8040003280CF1080EC6
:2039F0000BD1DEF80E0000281CBFBEF81800002803D01F80784911608AE0022C1CBF1E8049
:203A10000D46156000208CF8040081E0BCF1000FA3F800C041D0BCF1010743D0B7F1010C20
:203A30003BD040F2FE37BCEB07071ED0A7F1040CBCF1010F20D94FF47F77BCEB070C1DD023
:203A50004FF44067BCEB07070FD0BF1E012F0CD93F1F0AD07B1E012B0ED940F2F937DB1BAA
:203A7000012B1AD91B1F09D09AE0022C01D115604EE01E800D46FAE7584DF8E7584B1C686A
:203A9000257A012D05D141F20243438043834386F0E7468046834686ECE700200CF0F4F89C
:203AB000832081E08F207FE04E498978FF290CD0106018204C4C41432068851C40F20446DF
:203AD0006C5A1C80A41B012C484B71D94FF47F76A41B0FD04FF44066A41B032C84BF641F38
:203AF000012C0BD9A41E012C62D940F2FD36A41B08D103E0801C41F201444452136004F08A
:203B100011FC05E000200CF0BFF885200DF08CF9BDE8FC4136480078012105F0BDB940F212
:203B300004424888188090421CBF41F2084290423ED041F60402904211D12E4C2E482F4B62
:203B500000680025CDE9004502222D4C256855F8086FB0472B4908802AE04888188000205A
:203B70000CF092F885201FE04888188002280DD940F20442801A1BD040F6FC72801A05D083
:203B9000083815D04FF47F72801AE8D1887B801CC2B2B52AA8BF662088730020488007E0C0
:203BB00000200CF071F88420BDE8F6410DF03CB9BDE8F3816F4F0020204F0020E30701008D
:203BD000504F0020CC4C0020204A0020B1540110615A0110F44B002059550110755B011073
:203BF000104F0020684E0020804E0020313901106E4F002002000080EC4E0020B1E80000A5
:203C1000F04E0020424F00202DE9F04F8246DAF80070DAF804600C465FEA0208ADF11C0D84
:203C300014BF00214FF0FF31DFF8409248460CF026FB002818BF0B2040F0158100258F48D1
:203C50008C4905708A48FC6052460CF0E8FD317B27200CF0E6FDB8F1010F07D0657002200A
:203C70000AF0CCFF06200AF0C9FF01E0012060702078012840F2AA80801E012868D9801EF2
:203C9000012833D9801E012800F2DE800CF0C1FD83464FF0805000F5EE77D0F8DC01A3781C
:203CB000466A009321782846062908BF0120019001200290A068228AE1686368B0478146C9
:203CD00058460DF0A5F8B9F1000F40F0BF80B8F1000F02D00CF0FEF802E050460AF02EFE5A
:203CF000002800F0A3803868806A2AE00CF091FD83464FF0805000F5EE77D0F8DC01012360
:203D100006680093A168A27860682478AC46042C08BF9C466346B047814658460DF078F8CE
:203D3000B9F1000F40F09280B8F1000F02D00CF0D1F802E050460AF001FE002876D03868AA
:203D5000406880474C49C1F8B0510D6081467DE00CF05FFD83464FF0805000F5EE77D0F8B2
:203D7000DC01E38A86690093E0680190208B0290A0780390207D04900121059122782846B5
:203D9000022A08BF081CE1786268A368B047814658460DF03DF8B9F1000F57D1B8F1000FA7
:203DB00002D00CF097F802E050460AF0C7FD00283CD03868006A80475FEA000946D1E0789A
:203DD000A168E28A236907F009F9BFE70CF021FD83464FF0805000F5EE76D0F8DC01E38AD6
:203DF000C7680093E0680190208B0290A0780390207D2946049001200590257805B9014638
:203E100008466268A368E178B847814658460CF0FFFFB9F1000F19D1B8F1000F02D00CF08F
:203E300059F802E050460AF089FD08B914201AE03068406980475FEA000907D13068026905
:203E50002169E078904781E74FF0FF39B8F1010F05D002200AF0D6FC06200AF0D3FC034804
:203E70000CF0E9FC484607B0BDE8F08F5019002088190020A1F2000050450240702D002077
:203E90002DE9F04385B011F8017B0446082F04F1FD0004F1FC0804F1760504F5A076844A56
:203EB000844BDFF8149213D0092F21D00F2F2FD0112F01BF287801286878102840F0D580F7
:203ED0000A78327648787076012184F83D11EBE00025521C4E5D5F5D3E434E55575D3E40FB
:203EF00046556D1C082DF5DB204608F0D5F874E00024571C0D5D1E5D35430D553A5D1540C8
:203F10000555641C082CF5DB022088F80000CBE098F80100820704D410F0110F57D01A22F1
:203F300066E008784A7800EB02203080CA78887800EB022070804A79087900EB0220B0806C
:203F5000CA79887900EB0220F080087A30724A7A887A02EB00227281C87A0A7B00EB0220D0
:203F7000B0818A7B487B00EB0220F0810A7CC87B00EB022030828A7C487C00EB0220708269
:203F90000A7DC87C00EB0220B082487D897D00EB0120F082494801788A0658BF1A2212D5EA
:203FB00004F5A670049071890391307A029021890191F0880090B38872883188204607F0F5
:203FD00063FDE0B11E2298F80100410710D40F2088F8150020460CF017FF002864D199F8B9
:203FF000000005B0BDE8F0434FF4804104F054BF204605B0BDE8F0430F210CF001BF708842
:20401000A882B188E9820221F0882883297400206882A18EA88AC91DE981618EB0EB510F3A
:2040300002BFE88AA18E884202BF288BE18EB0EB111F18D02878012804BF68780F2805D036
:20405000687918B10F21A972FE2127E0FC2120460CF0D2FEF0880090B38872883188A079D7
:204070000CF0C6FE20E0102118E0491E20460CF0BBFE032F18D1A878042818BF0D2813D16E
:204090006E78142E18BF0E2E0ED12F7820460CF0A7FE012F06BFAE72FD213146204605B083
:2040B000BDE8F0430CF0A8BE05B0BDE8F08300BFEC4D0020242D00206E4F0020144E002001
:2040D00010B50B7884074CBF43F0020303F0FD0304064CBF43F0800303F07F0304074CBF71
:2040F00043F0080303F0F70384064CBF43F0200303F0DF0310F0AA0F0B7003D0107840F006
:204110000C0003E018B9107800F0F300107010BD2DE9F8430D4600272878022814461E46C4
:2041300067D1696808784978DDF8208000EB012080B25FEA08021CBFB0F5285F0B205BD1C1
:204150004FF42851401A08D0401E21D0401E2FD0401E25D0401E31D04BE0DDF82490E868FF
:204170000CF089FB80B2A0EB08024A45BCBFA0EB08001FFA80F909EB0800162806DAA6F801
:2041900000904A46E86800EB08010DE00D2732E0E8680088022131802070000A60702AE058
:2041B000062030800622E96820460BF0C3FE22E001203080E9680A7822701CE0E868B0B199
:2041D000082131800288227003881B0A63704188A1704288120AE270818821718288120A83
:2041F0006271C188A171C088000AE07103E0308001E0378001273846BDE8F2832DE9F047A6
:204210000F46814638780024022890461D466DD17868089E01784078DFF8D8A001EB0021EA
:2042300089B24FF42852891A06D0491E29D0491E4ED0491E39D059E0F8680CF01CFB80B2CA
:20425000B04204D3A919162903DB0D244FE007244DE0FB682A46414698190BF06BFEAD19B9
:20427000F868ADB2C5F11602002140190CF001FBDAF8000000281CBF0268002A37D000219E
:2042900023E08EBB022DE0D198F8000098F80110FA6800EB01201080DAF8000000281CBFDE
:2042B0000268002A23D001210FE0EEB9062DCCD1F868062241460BF03DFEDAF800000028A0
:2042D0001CBF0268002A12D00321484690470EE056B9012DB9D198F80000002813BF01288C
:2042F000F9680870802402E00B2400E001242046BDE8F087582D00207CB5894D144602464B
:204310000026A2F58062182A1AD8DFE812F0FE00F800F100E900E200DC00D500D0001900A5
:20433000C500BE00B700AE00A3001900190080006F00680054004C00420039002C002400EE
:204350002D2880F28580022940F0828021880AF0DBFA0646E1E0012940F0DE80002C00F0CB
:20437000DB801135A6E0102940F0D680002C00F0D38028465030102221460BF0DBFDCCE0D2
:20439000012940F0C980002C00F0C68029468D1D90E0262940F0C080002C00F0BD8005F171
:2043B00060002622E8E7012940F0B680002C00F0B3806D1D7EE0602900D13CB9012940F006
:2043D000AB80002C00F0A8800D3573E005F18600214660220BF0AEFD012068739DE001291B
:2043F00040F09A8020780CF0F7FC96E0012940F093802078022800F38F800C3528702078C4
:20441000022814BF301C01200CF0E2FC85E0072940F08280611C684606220BF05FFC207840
:204430006946324604F0C6FF04460A2C10DA0CF0CBFC38B9204602F09BFC0AF0DDFF08F0B1
:20445000F3FC6AE02A46012002F12C05285564E0022662E001295FD1A87B21780028A973D9
:204470005BD12078012858D1E9E7012954D12478072C51DB102C4FDC0B3537E001294BD1F8
:2044900024780A2C48DA093530E0012944D12478022C41DA083529E000293DD10CF094FC9D
:2044B00010B90BF0DCFDC8E701240F351EE0012932D10A35247819E001292DD12478022C46
:2044D0002ADAED1D12E0102926D12B4603F1400051E7012920D12478022C1DDA2D1D05E0B4
:2044F000012919D12478042C16DCED1C2C7014E0012911D12478022C0EDAAD1CF6E70229B2
:204510000AD120881435288007E0012904D12478022CD8BF6D1CE9DD182630467CBDC0468E
:204530002C1000202DE9FE4F05467B48002400680094C00905D37948007810B920200AF0A1
:2045500031FA012D40F0E280DFF80092D9F8DC00012840F0D8800220C9F8DC000BF042FCA1
:2045700001200AF01FFA5FEA000805D00120C9F8DC000BF043FCCBE00CF061F9A34602905D
:204590006748684DC0F800B0A86A016801208847012804D1584607F0EBFD012000906248FE
:2045B000624FC0F800B0386811200BF0C3FF00B1012410200BF0BEFF08B144F002040F2064
:2045D0000BF0B8FF08B144F004040B200BF0B2FF20B12868564E016B308888470A200BF030
:2045F000A9FF20B12868534E016B308888475248012606602868816944F0200088474F48B3
:2046100006600BF091FF00F001010191400814D2286A81684A4888478246BAF1040FF7D0BE
:20463000BAF1010F04D1286A42684548032190474449086820F003000860584600F088F890
:204650002B683868986B8047019801280CD0BAF1010F04D1286A4268394831469047394992
:20467000086840F0030008602F48066028684169204688470B200BF05DFF20B128682C4B79
:20469000C16A188888470A200BF054FF20B12868284BC16A18888847274806600322C9F8CF
:2046B000DC20264BC3F800B02868416B204688470128F9D1386804200AF074F904461848D9
:2046D00006603868144800688009FBD30098012802D1304607F04CFD0BF014FF08200AF02F
:2046F00061F907460298C9F8DC600CF069FB1648008807F03BFA0BF081FB57EA040018BF67
:204710004FF0FF3804E06FF0040801E06FF001084046BDE8FE8FC046141009400C1500200F
:204730000C400940B8010010000222432C200940241D0100201D0100282008608001044317
:204750000040034024220840C4200100241400202DE9F84FDFF804B20746ABF13500DFF81C
:20477000F0810068800880F0E28075480068006880477E490831D1F8009000254FEA297151
:204790005FEA995201F101010AD2C0F13E0210F10A0F4FEAE202D8BF08229142B8BF111CA5
:2047B000684BD3F87C21C2F30462162AA8BF203A1B68C3F30443162BA8BF203B9A465218E5
:2047D000162A05DA12F10A0FB8BF6FF0090200E015225D4B5D4E02F01F0141F4F85119801A
:2047F000316811F0030F18BF0125C90828BF45F002050FB145F00405434693F90710411A87
:20481000052904DA9979A94208BF99886FD0DFF844E10F28A0F10F0829DB08EB0011A1F1E3
:20483000F0084FEA28210091072984BF07210091062988BF06215EF821600424774604EBE9
:2048500081043C594FEA950CA41BEE0804F0FF0124BFC4F3072631446F08AE0824BFC4F3A8
:20487000074631446E0828BF01EB146104E000214FEA950C6F080091009C5EF824E05FEA82
:204890005C060EF0FF0424BFCEF3072634447E0824BFCEF3074634446E0828BF04EB1E649F
:2048B000009E89B2A8EB06267143803104EB1124AAEB02010029D8BF0121342209F0FF07F8
:2048D0004A4391B24FF6FF727943B1FBF4F18A4238BF111C802889B2998005DA10F1800F9A
:2048F000B8BF6FF07F0000E07F20D8719D711A4800681F2918604FF0000008D340F2FF1296
:204910008A4206D24908401C8A42FBD301E01F219980134F0F39090940EAC10047EA000189
:20493000CBF8FB1F0026CBF8FF6FBDE8F88F0D490D4F434608200F609B1D1870BDE8F88FC9
:20495000EC0100103C1100506E620840242208402C2D00209C1300500820094035000940A0
:2049700000E7A48030100940FDFDA400AC3F00502DE9F04F044675488A46016894461F46E6
:20499000BAF1000FADF13C0D4DD0BCF1000F4AD09AF8002001209040014244D0BCF80000C5
:2049B000B0F5C15F32D1DCF81430DCF818206848DCF81C104FF0030E0DF128080B93DFF858
:2049D00094B10C9200680D91C0F3036958F8046FCEB10021351F05200B4655F8042FB2F16F
:2049F000FF3F10D0934506D0401E01F1040103F10103F2D107E0052B05DA705820F4702069
:204A100040EA09407050BEF1010EDFD1C4F804A0C4F808C00BF0FDFE4F4D8046287820B138
:204A300040460CF0F5F900208DE002F001FC4B49086840F00200086007A80BF08BFC002685
:204A500005F1D00007AA4649099609F08BFA454905F5827007AA09F085FA07A80BF03AFCA0
:204A7000FF2105F1340007AB3F4A0891192109F0A5F93E4A05F150001A2107AB09F09EF9EC
:204A90003B49324605F18800134608F0CFFA3949324605F1AC00134608F0C8FA364A05F14D
:204AB0002000042133460AF01BFC0E2004F036FD05F174000BF0FEFA05F16C000BF0FAFA14
:204AD0002E74072085F898012E77AE616E770523AE602B49EB602A786961501C2870274B77
:204AF0001E7040460CF094F9B1464FB92548B0E88C106946A1E88C100DC86F4681E80D0095
:204B100038682060398A6182012060747B6813B940F6C4130646E3601B48A06126746061C0
:204B3000F86800B1A061B86800B160615822494604F1200006F095FD04F1380049460AF065
:204B50009FFA20466C600FB0BDE8F08FD4210840541300500200F844782200200020094042
:204B70003DFE0000058A000029C500008DC3000089F70000B9FB000059D300006A2D002006
:204B9000D18A00004C20010033A700002DE9F0430446834DA178A869ADF1140D891F00F07F
:204BB000F780C91E00F0E280491E5FD0491E48D0C91E3CD0481E40F0EE80287A697AB8B933
:204BD0006878002831D0A0880CF0F6F8071C00F0E280A07A40080FD3787968B1E168890A0B
:204BF0000AD2B91D01AA04F0E5FB0A2804D10321A0880CF0DDF8CEE0287B022802D1A07AE8
:204C10000009F4D3A088797904F1080201F084FAA869002800F0BF804368002B00F0BB80C3
:204C300000210A46A0889847B5E00521E0E7002800F0B1804368002B00F0AD806278022131
:204C5000F0E70BF0BFFB002800F0A580A86950B1076847B1206900906189227B637BE01C88
:204C70003C46A04797E060890121C2E767784FF00008002F6BD1A179490868D3EF69002FD2
:204C900065D101A841460E220BF0F3FDA0880CF093F8071C7FD0606940B97879B91D0622B1
:204CB0008DF80A0001A80BF045F91EE06669307C062301A906F111098DF80A0006F111007F
:204CD00010F8012B5B1E01F8012BF9D107F10C00B91D06220BF02EF9B81D494606220BF07D
:204CF00029F9307C40F002007871A079C00839BF387900F0FD00387940F002003871A0799F
:204D1000000939BF387900F0DF00387940F020003871A1799DF81120C1F3800010438DF86C
:204D30001100080905D39DF8110040F008008DF8110001A8214600F02FFB28B92878022127
:204D500004F0AAF8404627E0A8694FF0150810B3436803B3A088627801219847B8F1000FD4
:204D700019D0A8694368032142465BE7E078211D002204F01FFB0A280DDA410001EB800004
:204D900004F10C0225300421C0B202F09DFE02E0A08808F0C3F9012005B0BDE8F083C046D5
:204DB0002C1000202DE9F04F05468048066800680F461C469246C4F399018900ADF12C0D09
:204DD0000A010021803206F04CFCDFF8C891A9F1880002466E48016830469047A308804630
:204DF000610801979F1C21F00101F819009506EB80000390091DCDF808A07818434506EB8E
:204E1000800206EB870B3844049206EB80000690C4F39C004FEA800000F1080007EB40002D
:204E300000EB070206EB82020A9224F0030202F1080200EB020506EB85053A44059506EBD1
:204E500082050A4407953A4406EB8202089206EB80020992084406EB800A384406EB80057D
:204E700018BF6FF0010040F08F8009F16800024641463046904700233CB10199264611F80F
:204E9000010B761E40EA0303F9D1002B08BF01207AD000263CB10299234611F8010B5B1E66
:204EB00040EA0606F9D1002E08BF02206CD001995846C84703980299C847009881680498E6
:204ED000C8473548049A594681462846C847012803D14FEA88042E590EB1032054E0BE0098
:204EF00028460021324606F0BCFB0399049A2846C847012801D12F590FB1042044E0274F36
:204F1000274C069859463A46A047079803993A46A0470699089827460A46B847099808998B
:204F3000069AB8470A9806991E4C2246B84728460021282206F095FB1B4809990A9A8146E1
:204F50002846C8472034284622460146C847079950460A46B84705980021324606F081FB17
:204F70005FFA88F45046002C0CBF01225FFA88F200216B5C445CA34218BF052004D1491C26
:204F9000521EC9B2F5D100200BB0BDE8F08FC0468C4F0020B9DB0010C9DE0010D41F0020E2
:204FB000F9E00010581E0100C9E60010884F00202DE9FE4F0E468246307AC10693461F469D
:204FD0004FF000090CD558460BF0EEFE030000F0E8800A223146504698475FEA00094DD130
:204FF00030780C9D0D9CDDF8388002281AD170680178407801EB002189B24FF42052891A5C
:20501000012910D9891E3AD0491E14D0FD397AD0491E00F08180491E6DD0491E73D0491EE4
:2050300000F09580ABE0002C2AD1F068017829800278416887E0002C22D101202880F16864
:205050000A783A7000217089401C80B20BF0A8FE298860B10278921C51182980418979701C
:205070004289120ABA7041680278F81C6CE0091D298004220021781C0BF0FBFB93E0002C52
:2050900066D1F0680688042129803E70320A7A700DF1020130460BF083FE040021D0D4F88D
:2050B0000C80BDF802204FF6FF766B4631460BF073FE40B9237862683C4802210BF068FEC9
:2050D00008B9ADF8006098F8000002280BD1D8F804100222381D0AF02DFF2888801C2880ED
:2050F00001E0ADF80060BDF80000B870BDF80010090AF97057E0002C2AD1F06801685046E7
:205110000BF0E0F802E01CBBF0680088022129803870000A787046E0F0680BF0ACFB80B25B
:20513000A042B8BF4FF007093DDB844208BF002205D008EB04028242B4BF4246021B2A809C
:2051500092B2F068011938460AF0F4FE2BE014B14FF00B0927E0F0680721298002783A70A8
:2051700043787B704188B9704288120AFA7001793971C2887A71C088000AB87113E05846D2
:205190000BF002FE5FEA00090BD00F980290CDF8048000942B463A4631465046C8478146ED
:2051B00001E04FF00E094846BDE8FE8FA41E01002DE9F04F0746880FADF1140DC0F0D48029
:2051D0006B4E301D006841688D68CC68486800B18047B046674E002D08BF002C0BD0306819
:2051F0000028FCD00020306005B1A84704B1A047614809F0D7FE0024A6F11C015F4ACC6195
:205210005F480A6040F60A0CA0F800C04480017B64F303010173A646C0F804E0417B4FF037
:20523000010A6AF303014173BA687B7C54801188B146A1F60201C9B141F21E05491B15D00E
:2052500041F6E675491B012920D8517E012B64F38201517606D0118B21F47C7141F434713C
:20527000118313E0118B64F30911F9E7517C012B64F38201517405D0118A21F47C7141F46B
:20529000347102E0118A64F309111182D7F808B07C7461465D4600E035466E6816B1328865
:2052B0009142F9D168606A7B64F303026A73D8F86C603EB1F2681288CB1F93421BD0891F8A
:2052D000914218D03E8CC6B1C7F824E007F120014C8097F82C2064F3030287F82C2097F889
:2052F0002D206AF3030287F82D204160417B64F30301417301E0C8F808402248036882680F
:205310000192C168406B0093102220F0784040F0805003901C480291694604F077FED9F816
:2053300000000028FBD01948C8F8140098F81D00C9F8004078B9164800680068014650464B
:20535000884701280DD0687B6AF303006873114FC8F8147005E008F071FC0028FBD00BF06E
:2053700066FA58460AF0EEFF05B0BDE8F08FC046782200201C1004400100070601010E040D
:20539000CC2C00204C130050180000212D340000E0010010D1C700002DE9F04F734CDFF828
:2053B000C8A1E56988468146ADF1140D002D4ED1B9F1000F00F09680B8F1000F00F092800D
:2053D00009F024FF06460A2E267422DAD8F81470002F3DD0700010216A4600EB86002330E2
:2053F000C0B20AF053FB90B950460778FF21102268460AF0C5FC50B93FB999F806004946A3
:2054100000F001000BF0BCFC01E00120A074E5691DE004F1E60B0A2700265846FF21062254
:205430000AF0AEFC88B97F1E0BF10E0B06F10106F3D1607C002804BF0A20207452D094F8D0
:205450003660304601F094FCE569267400E0267C0A2E47DA002D35D170000E214A4600EB9F
:2054700086002030C0B202F02FFB207C07F0B8FF6846FF2110220BF0FCF9207C10216A4601
:205490007030C0B202F020FB217C0E220801A0EB410000194946E6300AF04CFDD8F8142036
:2054B0006AB15046007840B9107C02F11101002300F001000BF060FC01E00120A074C4F8EC
:2054D0001C804CE0AA68002A3ED12A69002A2FD16A690ABBEA683AB9A07B08B109F048FA00
:2054F0000AF0C5FA01203BE07000102100EB86002430C0B202F0E8FAE769217CFA68480064
:2055100000EB8100103225300421C0B202F0DCFAE1690020C86022E07000102100EB860073
:205530002330C0B202F0D0FAE1690020486116E070001C2100EB86002230C0B202F0C4FA3F
:20555000E169002008610AE070001C2100EB86002130C0B202F0B8FAE16900208860002087
:2055700005B0BDE8F08FC0465A4F00202C1000202DE9FC4F83F0004301E02DE9FC4F1F039C
:20559000FF0847EAD2574FEA42284FEA43095FEA595906D147EA080A1CBF00210020BDE89C
:2055B000FC8F57F000575FF4E06E1EF1FF0EF14505D14FF00000190D0905BDE8FC8F002B1B
:2055D00005D55FF0000AD8F100086AEB07070C03E40844EAD0544FEA40254FEA4106760D66
:2055F00008D144EA050A19BF00210020191C101CBDE8FC8F44F00054764504D10020090D8D
:205610000905BDE8FC8F002904D55FF0000A6D426AEB0404B6EB090E08D5A2463C46574639
:20563000AA464546D046CEF1000E4E46BEF1360F5CBF4FF0000B23E0BEF1000F04BF4FF04C
:20565000000B1AE0CEF1390ABAF120092EBF08FA09FB07FA0AFB4BEA080BDEF1200A07FA24
:205670000AFA38BFBA4647FA0EF72DBF28FA0EF8AEF1200E4AFA0EF8D04415EB08057C41D0
:2056900054EA050A02BF00210020BDE8FC8F002C58BF4FF0000A06D55FF0010A5FF0000E5D
:2056B0006D426EEB0404A6F101066D006441FAD515F4806E11D005F480794BEA090B15F52E
:2056D000806554F1000428BF761C0BD205F400795BEA090B08BF25F4006525F4E0656D005B
:2056F00044EB0404B61CDEBF00210020BDE8FC8F5FF4E06E1EF1FF0E76450AD34FF00000EF
:2057100013F00043FF21C900C91D09051943BDE8FC8F270547EA1530210B41EA065141EA4F
:20573000CA71BDE8FC8F70472DE9F04FADF11C0D0190049300280392109D0291119C0595AF
:2057500000F0BC80081C00F0B980101C00F0B680181C00F0B380281C00F0B080002C00F097
:20577000B280206A002800F0A9805A4D676A281D0068002F00F0A280A16A0BF0F9FA40B2CB
:20579000071C08BF6FF0020700F0948020786288216A84F82C7000EB80001218143290B261
:2057B00088474B49086030B9284640680BF0DCFA4FF0FF377EE00846B4F802B06688277832
:2057D00094F800900568204607F080FC2078AB44C01C8010CBF800002078B919491901F1E3
:2057F000040AC01C8010CAF80000207806EB4703591901F10808C01C8010C8F80000217851
:2058100009EB49094B469A19521902F10C09C91C8910C9F800102178D8198019401900F1BF
:205830001005C91C88100199286022780BF1040004F0ECFB227802990AF1040004F0E6FB26
:205850002278039908F1040004F0E0FB2378204651464246FFF7A6FA071C14D10095584645
:20587000514642464B460BF07BFA80462278049809F1040104F0CAFB22780598291D04F0D3
:20589000C5FB4FFA88F7124821786288006801EB81015218002105F0E4FE0D4E606A0146EF
:2058B000306888470B4840680BF05EFAF8B2992808BF002784F82C70384606E01CB16FF022
:2058D000010084F82C006FF0010007B0BDE8F08F884F0020CC1F00202DE9F04FADF1240DAE
:2058F000079001F0A5FC5F48007809F0D3FD5E4D0024012806D90C3804D0401E0ED0401EFE
:2059100009D006E00AF062FA022804BF01210C1C06D0696805E005211F2401E00321072406
:205930006960524A1068C0F38150012806D152F80C0C0127020E07FA02F004430AF0FAFC32
:2059500005F1440AFF2253464018401E471C28607F1E03F8012BFBD1079A1268002602F0D5
:20597000FF03FE2B1DD0DDF81CC0964633460EF0FF07FF2F0ED0B84205D3B94203D801221E
:20599000BA40144201D0022069E016430EF0FF020AF802305CF804EF5B1C0EF0FF07FE2FF0
:2059B000E7D1092003F0BAFD07980121A86005F1280009F065FB00274FF0010BB94628462D
:2059D000804600F198050BFA07F0044216D1064204BF07F0FF0141F4C04104D01AF8070015
:2059F000079951F82010224801F05EFEF8B24FF0FF3109F073FDC5F8009001E0042028606B
:205A1000D8F800007F1C2D1D8742DCD904A80AF061FC184C184A2078102104AB059008F174
:205A30000C0008F0CBF968460AF094FCCDF80C906A4660681149029008F1640008F092FAB0
:205A50000F4951F80D0C20F4F85040F4005041F80D0C0C4FC1F8FFBF4846C7F800B009B0C2
:205A7000BDE8F08F712D002010130020B43F0050007FC767D82101009DFB00000DDC000086
:205A90000D3009400800094061480178002900D170472DE9F843491E032984B004D9891FAF
:205AB000012940F2B180A9E05A4CDFF86C912068DFF8688103685A4E03F10805062205F1CC
:205AD000080102A80AF036FA0622A91C68460AF031FA2878C1091D2700F00F02032AC0F38A
:205AF000801537D16079C0F3800081421ED12169062202A809F0E0FE00287AD06946284679
:205B10000BF0BAF9002874D0314668460BF0B0F9FF286ED04743D8F80000807AF5190028A3
:205B300018BF02280AD0012818BF032861D1F25D691C48460BF010F910285AD06B46EA1D9D
:205B5000294648460BF004F906226946E81D0AF0F1F94EE000F00F00052855D16079C0F374
:205B70008000814245D12169062202A809F0A4FE00283ED0694628460BF07EF9002838D0D0
:205B9000314668460BF074F9FF2832D04743D8F80000807AF519002818BF01280AD00228B1
:205BB00018BF032825D1F25D691C48460BF0D4F810281ED040F2024008F0F2F96B46EA1D7F
:205BD000294648460BF0C4F806226946E81D0AF0B1F91448144A41F2044141804183418603
:205BF000124801801249134811600121007803F053F921680A680020107105E000200AF01F
:205C100043F886200BF010F905B0BDE8F08300BF6F4F0020F44B0020CC470020104F002014
:205C3000AC450020204A0020204F0020504F0020595501106E4F00202DE9F84F8B460AAFE8
:205C5000664E9BF80050DBF80400BC889246984631462A463F88009009F09AFC4FF00009B7
:205C700040B9022F00F3AF80C7F10200A04200F3A0807FE000982A46B11C09F089FC40B96E
:205C9000022F00F3A080C7F10200A04200F3918070E00098311D2A4609F07AFC40B9022FD1
:205CB00080F29180C7F10100A04200F3828061E0009806F114012A4609F06AFC38B9022FEB
:205CD00080F28180C7F10100A04272DC52E0009806F124012A4609F05BFC30B9022F72DC4A
:205CF000C7F10200A04264DC44E0009806F134012A4609F04DFC30B9022F64DCC7F102000A
:205D1000A04256DC36E0009806F144012A4609F03FFC30B9042F56DCC7F10400A04248DCC1
:205D300028E0009806F154012A4609F031FC30B9042F48DCC7F10400A0423ADC1AE000984B
:205D500006F164012A4609F023FC30B9022F3ADCC7F10400A0422CDC0CE0009806F1740189
:205D70002A4609F015FC38B9042F2CDCC7F10400A0421EDC84B21CE0009806F184012A461F
:205D900009F006FC30B9042F1DDCC7F10400A0420DDD0EE0009894362A46314609F0F8FB38
:205DB000A0B9022F0FDCC7F10200A04201DC82B200E02246A8F80020DBF80C105046C91942
:205DD00004F024F907E04FF0070904E048464FF00A09A8F800004846BDE8F88F501A0100E3
:205DF0000FB42DE9F04F09AF8046ADF1240D0AF073FC391D30F0010021F0030101F1040142
:205E100001D102F0E4FB05911420ADF8100000240294FF258DF812507E6806960AF094FF7C
:205E300006460AF059FCDFF854A130F0010015D009F066FE5146224684460C2031F80C7FDF
:205E50004FB14B681B689E4204D0401E02F10102F4D100E0D5B260460AF0B4F8404608F0FE
:205E7000B7FC0146FF2904D02846032205AB06F03BF80AF069FF09F069F8A3460746CDF8F9
:205E900000B00AF029FC30F001006DD0002F6BD03B4802683B480023214604F019FB04460F
:205EB0000AF04EFFDDF8008001264FF6F87905462D1909E0B8F1000F58D040460AF077FC0C
:205ED00054E00A4644E01C46786859464FF000522346FBF775F8002832D007A80DF11D01DB
:205EF00001AA06F099FE00BB9DF81C000C2813DA9DF81C100AF10C02880000EBC100135A62
:205F100053B1994508D0019A0AF0CEFB00281CBFDDF804805E4613D10199684608F024FC15
:205F300078684FF000510AF007FFB4F1FF3FCBD0002CC9D00AF004FF2B1A01D09C42C2D219
:205F500009F0ECFD009D09F0DBFD083745B12A4652F80C1C0029B4D1396842F80C1C3D607C
:205F70000AF030F8002EA5D002F031FB0598006809B0BDE8F04F04B07047C0468C1500205A
:205F900020220100404B4C002DE9F843614C5A4D5A4EDFF870815E4F94F8E4100846401EE9
:205FB0000B2864D8DFE800F07B2C43062343062343067664042907D001220A2945F8212C25
:205FD00014BF0220032004E0202045F8210C0120024684F8E200002045F8390C0827C5F8B6
:205FF000FF7FC5F8F37F45F8392CBDE8F883052914BF09200620002784F8E400376075E05F
:2060100094F8E170383D0120002FC5F81B0004BF0620002102D00021F160032084F8E40025
:20603000032045F8010C3160306880085ED294F8E4103348012703290ED00068456800219F
:206050006022052300914046A84794F8E400062814BF0A200720CFE7006845680021602250
:206070000523022000904046A8470420C4E7FEE72548264F0026012506600E203D6002F0BC
:206090006BFF022008F0BEFB84F8E45084F8E360BDE8F883002038600C25786024E04FF020
:2060B0008059D9F8A0010168202088472C3D0F2045F8010C41F61D56C5F80360D9F8A401EB
:2060D000466800214FF4C0720723022540460095B047D9F8A401C66800214FF4C0720723A5
:2060F0004046B0470120386084F8E45004F178000AF085FBBDE8F88339400C4038600C40FA
:20611000A401001000A00C402C500C4004800C4034600C40241400202DE9F04F8846824613
:20613000ADF1AC0D29920AF047FE5C4CE67894F80BB0A57A94F80C90071C00F0AB8068467E
:206150000021A4220AF095FB2801279A55498DF8046005F0030300F4807605F00405ADF8C5
:2061700000A0B9F1020F01EA020143EA01024C4B8DF8A0B046EA020100F4C06603EA0102ED
:2061900046EA020045EA00054FF00000279508BF01208DF837000AF0CBFD412809DB207B40
:2061B00000280CBF002008209DF8991008438DF89900607B002804BF00208DF8380017D063
:2061D00001208DF8380004F1860120220DF1390009F0B0FE0DF1590004F1A601202209F007
:2061F000A9FE0DF1790004F1C601202209F0A2FEA07940B18DF8260004F1500110220DF1AF
:20621000270009F097FE66793EB104F16000B91D0622054609F050FB68B92079002804BF64
:2062300000208DF8050015D08DF8050004F140010DF106000BE08DF805600DF1060005F12C
:206250001601102209F076FE0DF11600A91D102209F070FEE07930B1B8F1000F03D0279980
:2062700041F002012791002100B10121A7789DF89900002F41EA00018DF899100CBF00206D
:2062900004209DF89910084329998DF8990068460AF04AFD2BB0BDE8F08FC0462C10002011
:2062B000FBF9FFFFFCFEFFFF70B5484C484B2568186855F8183F00224FF0FF3198474548EA
:2062D000454A416B454C8868454D4179117000260AF026FD43480AF01FFD0AF019FD4248A7
:2062F000026800215171A02301680722CB804A72032103681972002201684A7700230268F2
:20631000D3760021036883F85C10012201680A770123026882F85D300021006880F85E10A0
:206330000EE06068F1B24FF4C072514342185379012B04D1F0B209F021FF0AF0E5FC761C9C
:206350002978F0B28842ECD30AF0DAFC2748284A0178284C117007F041FE2748D02130225A
:206370000023017042708370C370037143718371C3710AF0C1FC2149214B0020087000220A
:2063900020491A700120204B08701A701F49204B08701A701B201F491F4B0A701A804FF433
:2063B000A4721E491E4B08801A80FB201D491E4A088040F648001D491080FB230B80208097
:2063D0000AF096FC1A490020087070BDF04E0020EC4E002038220100714F0020684E002030
:2063F0007B4F0020CC470020104F00206D4F00207A4F00204E4F0020242D0020734F00201C
:20641000744F0020754F0020764F0020774F0020784F0020794F0020524F0020444F002097
:20643000464F0020484F00204A4F00204C4F00206F4F00205A480178042900D870472DE9A1
:20645000F84F891F2FD0491E012900F29E80DFF854A19AF80200FF2825D009F08FFE8346D2
:206470000BF16C0778680AF03FFC804698F80400032818D1D8F80800047814F0030404D1E6
:206490007868BDE8F24F0AF02BBC4578032C00F102090BF20F160BD035B1387820B93D2193
:2064B00071700120307078E03F490A78012A74D09BF8941059B32D1FEDB24B462A462146C3
:2064D00058460AF009FC40B93D207070012131703648BDE8F24F0AF0FBBB3548016888474D
:2064F00000904FF4C0709BF80620DAF8041042438818002180F839110BF59A700168807976
:20651000490805F0A3FF2B4900980A6890470020032CC8F8080016D027484169087882070F
:2065300007D5C0074CBF03200020401919F8000000E08120387223469AF802002A464946C9
:2065500000F094F918E099F80000192803D21B4A115C8D4205D0B070072158460AF04CFC71
:2065700007E00F480178082903D049465846FDF787FC484606F05AFF78680AF0B1FB4146C2
:206590005846BDE8F44F0AF09FBB002009F07CFBBDE8F24F86200AF047BCBDE8F18F00BF14
:2065B0006F4F0020684E0020794F0020AC4500204015002044150020382201007022010042
:2065D0002DE9FF4104466668A7680D460AF021F93178012903D10AF01BFC00208EE001215F
:2065F00031700AF015FC287870706878B07068687060A868B060E868F06028693061287D38
:206610003075687D7075A87DB075A869B061287F3077687F7077A87F4FF0000843461D4619
:2066300086F82851B07786F82951C6F82080336375627563B562B56386F82C5086F82D506D
:20665000786802F06BFF204603F07AFD204603F0C3FD60B9386809F06FF8786802F07CFCA2
:206670000AF0D7F835700AF0D3FB2C4645E0684609F030FE0094387B224A0190B9686B4652
:2066900006F17C0007F09AFB684609F063FE00941D4938696A46029006F1980007F062FC22
:2066B000B07830B906F1CC00294608F0E9FC17483061707830B906F1E800294608F0E0FCC7
:2066D0001348F06068460AF022F801958DF800501049029406F582700A226B4606F0A6FC81
:2066F000B969FA6906F13C0009F0C0FD0A4A06F168000421234608F0F3FD20460090BDE858
:20671000FF81C046CD69000091C80000A50701009D07010015D70000A5040100F0B5514C2A
:2067300020780D46E90BADF11C0DC90372D1A80860D2E069216A6A080ED2E80828BF85F040
:20675000040580F08C80680904D304F0D1FD85F0100584E0002083E0868861B904F11600F6
:20677000414A00904FF6FF71022301200AF0A8FA0146216221B304A8009000270197022399
:206790000293FF220392E28A30460DF11203FEF70FFC58B99DF813009DF81220216A12EBA1
