:20000000004000203DF4000001C9011001C9011001C9011001C9011001C9011001C901102D
:1C00200001C9011001C9011001C9011001C9011001C9011001C901103FC9011089
:20003C002DE9F04FE04C608BE589ADF11C0D11F003FB0FF2783898E80C0009F051F9DDA205
:20005C000CCA08F062F902F065FADCA20CCA09F047F9DCA20CCA06F0EEFB0FF0A9F86E003C
:20007C0004F1820580B2A853400010F02FF9D7490CF0B4FFD6490BF07BFF10F0EFF8D5A292
:20009C000CCA09F02DF90BF007F80FF091F805F1340704F1B6033119A1F89C0003F11A0061
:2000BC00039040F6B8329A53608BE689059711F0C3FA04F1D00798E80C0009F011F90FF274
:2000DC00783999E80C0008F020F902F023FADCA20CCA09F005F9DCA20CCA06F0ACFB0FF06B
:2000FC0067F827F81600E689608B11F0A5FA98E80C0009F0F5F899E80C0008F006F902F06E
:20011C0009FADDA20CCA09F0EBF8DDA20CCA06F092FB0FF04DF836195B3F86F86800E68935
:20013C00608B049711F088FA98E80C0009F0D8F899E80C0008F0E9F802F0ECF9D2A20CCABE
:20015C0009F0CEF8D2A20CCA06F075FB0FF030F84FEA460A311981F8750004EB0A01B1F889
:20017C00820004F1160707F15203A082B1F89C20029336193A80E71D96F96800628B3870CD
:20019C00501C6083B1F89C0011F098F810F066F8C1A20CCA0E46814609F0A2F80FF008F8DA
:2001BC00BFA2ADF800000CCA3146484609F098F807F195080746206C0E4610F04FF80B465F
:2001DC0002463146384609F08BF80EF0F1FF60710AEB0503042102224FF4F0400EF0A0FF35
:2001FC004FF4F040052102226B460EF099FFE089A946401C85B2E5810D2DC0F2FE81059985
:20021C00A06CDFF8BCA2DDF80CB00D2701910026C4F8EC00019A3BF8021B32F8020B0192A7
:20023C00484310F086FCA0A20CCA09F059F80FF0A1F91AF8011B7F1E00FB0166EAD130463C
:20025C0011F03CF89A490BF093FE9A4E31460CF0C5FE99490BF08CFE10F000F80AF01CFF4C
:20027C000FF088F996490D2782464246002011F8013B32F802CB7F1E0CFB0300F7D111F0B3
:20029C001DF831460CF0AAFE8C490BF071FE0FF0E5FF0AF001FF0FF06DF90746206D504423
:2002BC002065E16CC919E164A36D626D1B18C4F8F0305218C4F8F420384610F0FFFF064639
:2002DC004FF4C8706843A0F5C8700FF0FFFF014630460BF04DFEE3490CF080FE0FF0BEFFAD
:2002FC000AF0DAFE0EF064FFC1B2E172002084F80811024602990956461CF0B28918854286
:20031C000AB2F7DC92FBF5F010F013FC0AF0C4FE0EF04EFF41B26429D9BF0026301C1920E7
:20033C00002684F8091160723146A4F806613046039A32F811204B1CD9B280188D42F7DCFF
:20035C0010F0BCFF834628460FF0C0FF014658460BF00EFE0FF082FF0AF09EFE0FF00AF9CD
:20037C006064A4F804010EF093FE84F80B010EF0ABFB84F80A018FB3504610F09FFFBA4941
:20039C000CF02CFE0546384610F098FF014628460BF0EEFD10F05AF94FF6FF71814228BF6E
:2003BC0080B21DD21AE0C0462C0C0020182D4454FB2109400000000000004E4000000000D8
:2003DC0000E075400000000000C07740DB0F49400000704252B81E85EB5124404FF6FF70CF
:2003FC00A4F800010EF0B4FCA4F802010EF096FBC4F8F8000CF026FAE7890146C4F8FC1019
:20041C00381C25D03246304604990956451CE8B2891887420AB2F7DCD7B192FBF7F010F09D
:20043C0088FB0AF039FE0EF0C3FE40B27E28B4BF311C2021A1720CE000000000008066406F
:20045C00000000000070B740000000000094E140304684F80C013746A7BBB9F8180005991F
:20047C00B8F81850A9F800000B8BA8F80050039A0B80108B10802EE000000000000034404C
:20049C000000000000002E400000000000003E400000000000003940CDCCCCCCCCCC0C40C6
:2004BC003BDF4F8D976EA23F2D431CEBE2361A3F00803B450000C843000061450060EA461B
:2004DC0091220020780029F8006028F8006005990E52039D2E527F1C0D2FBDDB2079A16C81
:2004FC00B4F80421012704F1EC05E781401C2071491C94F80A0122832B46A07194F90901F2
:20051C00A16404220521207241F611000EF008FE4FF4F040022105F11D033A460EF000FE68
:20053C004FF4F0400621042205F108030EF0F8FD4FF4F040072104222B1D0EF0F1FD04F5FD
:20055C0080734FF4F0400B2102220EF0E9FD04F581734FF4F040082102220EF0E1FD4FF419
:20057C00F0400921042205F10C030EF0D9FD4FF4F0400A21042205F110030EF0D1FD4FF42A
:20059C00F0400C2105F120033A460EF0C9FD607A192805D0A07A202808BF04F10A0301D099
:2005BC0004F109034FF4F04003213A460EF0B8FD05F1180341F60F00394602220EF0B0FDAF
:2005DC0005F11E0341F60F0031463A460EF0A8FD05F11F0341F60F0004213A460EF0A0FD6A
:2005FC0004F1080341F60F0002213A460EF098FDE07810B1012808BFE67020794B282DDBF0
:20061C00228AD4F8EC30A06B9100C4F81031401C01EBC201C4F814010919144FC1F818015E
:20063C00218AD4F8F420880000EBC1000019C0F81C21218AD4F8F020880000EBC1000019FD
:20065C00C0F82021A06B0025401C87428CBFA063A5630EF00DF925652571E56407B0BDE811
:20067C00F08FC0460000B44300007A4480D3D8FF2DE9F04F0446B4480D461646ADF5FE7D93
:20069C005B1E011DADF1600D9095F21E8F94D1F800C0929316F1140FCDF854C24FF0180139
:2006BC00CDF850C292FBF1F19391BCBF002193910C466246A6EB04161946A6EBC406183E3F
:2006DC008D18A4EB0104969612D406466D1CE8465036002C44BFBEA003C803D456F8240089
:2006FC0010F027FA6D1EA8E8030004F10104F0D19598002828D405460DF5A07B00266D1C7C
:20071C00929FB3A090E80003002F17D4DDF83CA206EBC7007F1C0DEB0004BAE8030094E881
:20073C000C0008F0DDFD0B4602464946404606F082F8083C894680467F1EEED16D1EABE84E
:20075C00000306F10806DBD19598919048E0B9F1000F42DD9199DDF848C2939A7A4F0DEB84
:20077C00C1030CEB0100CB4603F5A473C4008A188C93083407EB820000F1500A61440DEB64
:20079C00C1065AF8040F10F0D4F9083686E803008FA003C8929F8D90002F8E9115D4DDF841
:2007BC003C820DEB04057F1CB8E8030095E80C0008F096FD0B4602468E998D9806F03BF8FE
:2007DC00083D8E917F1E8D90EED18C9ABBF1010B03C204F108048C92D3D1919848449190E4
:2007FC00C5000DEB050404F5A07494E80003002828DD083C07460DF5F07BBDA20CCA49469C
:20081C00404608F06DFD0EF0D3FC10F092F9BAA20CCA8A46064608F063FD0B4602464946AE
:20083C00404606F003F80EF0C3FC4BF8040B94E803005346324605F0FEFF083C89468046BB
:20085C007F1EDAD1969F494640463A4609F0D4FDABA20CCA8846814608F042FD08F0B6FE05
:20087C00A9A20CCA08F03CFD0B4602464146484605F0DCFF884681460EF09AFC8D9010F046
:20089C0058F90B4602464146484605F0CFFF0FF2882A89468046002F14DC391C0BD09CA2A5
:2008BC000CCA49460CF099F884BF00208E9071D802208E9020E091980DEB8000D0F8DC01DA
:2008DC00C01516E091983C460DEB800303F5F0738D9F53F8040CC4F11802C4F1170440FA50
:2008FC0002F101FA02F2801A43F8040C7A188D92204100288E904DDD9198002400280EDD33
:20091C0077A951F8047F24B93FB1C7F18077012402E06FF07F42D71B0F60401EF1D1969F76
:20093C008D98002F00F101008D901ADD7F1E0DD07F1E16D191980DEB800101F5F07151F801
:20095C00040C6FF39F500AE0D838010091980DEB800101F5F07151F8040C6FF3DF5041F803
:20097C00040C8E98022815D19AE803004B46424605F05CFF8946804664B19AE80300969AC8
:20099C0009F03AFD0B4602464946404605F04EFF894680460EA20CCA494640460BF0DAFF17
:2009BC003FD0969F40467A4209F026FD8046919851A20CCA0DEB800440460CF00EF88946EE
:2009DC0004F5F07484BF8B46464624D804E0C046000000000000000045A20CCA404608F0DD
:2009FC007FFC0EF0E5FB10F0A4F843A20CCA8B46064608F075FC0B4602464946404605F002
:200A1C0015FF0EF0D5FB1837083544F8040B91989697401C9190594630460EF0C9FB2060D7
:200A3C0039E0919895990026401E81420CDC919F95980DEB870101F5EE713F1A51F804091A
:200A5C007F1E40EA0606F9D176B995984FF001090DEB800000F5EE70016800297FF477AE43
:200A7C00001F09F10109F7E79199969F0DEB8100083D183F00F5F070491E9697001F9191BB
:200A9C0006E09199183F083D001F9697491E919101680029F5D09AE803003A4609F0ACFCBC
:200ABC0082469198894600281ED407460DEBC7040DEB870804F5A07408F5F0787F1C58F84C
:200ADC00040910F036F84B46524608F009FC08A284E803000CCA4946504608F001FC083C4C
:200AFC00894682467F1EEAD1919C002C50D417E0000000000000703E000000000000704118
:200B1C00000000000000C03F0000000000002040000000000000E03F000000000000F03F0C
:200B3C00A5EBC40528A8E70005EB0008949E3DA090E8000C002ECDF830A221D4DFF8EC90F1
:200B5C00DDF844A2354600266D1C09F11009AAEB040AB24514DBF20002EB090003C850AB4A
:200B7C00D219D2180CCA08F0BBFB02468C980B46594605F060FE761C8B466D1E8C90E8D18E
:200B9C00DDF830A2641EA7F10807A8E8000CCDD5919F24A090E80C00002F10D40DEBC704DD
:200BBC007F1CA03494E80003194610464B46424605F041FE083C7F1E02460B46F2D18E99C5
:200BDC0000290CBF191C83F00041DDF840C2104628AF8CE8030097E8030005F027FE0246BD
:200BFC0091980B4600280DDD0DF1A80A0746BAE8000310464B46424605F01DFE7F1E024647
:200C1C000B46F4D18E9909B183F0004390988D9F08307FB080E80C0018B007F00700BDE871
:200C3C00F08FC0460000000000000000D83801002DE9F84FC04CA178FF2904BF002010F075
:200C5C00A3FEA07811F018F9044604F1680504F190062968086810B10021E1830CE0A87B20
:200C7C00002804BFA97E002906D13078002801BF207F0128608CE0832189E08B4118491CCC
:200C9C006181204600F06CF901281EBFAB480178012904D121890020491CE08361814FF671
:200CBC00FF77A87E01280DD1AA8B6189208900F05BF938B1218960894A1C93B298421BD07D
:200CDC00A88B0FE03078012816D172886189208900F04AF980B1218960894A1C93B2984215
:200CFC000AD0708892B2904206D03818608180B200F03EF93F18E78304F5967999F8040032
:200D1C0020B120890021401CE183608104F12E07A87E012811D12189A88B4B1C9BB29842B5
:200D3C000BD1608100F024F98046B988288C01FB080820460CF0C4FC01E0B7F80480B4F824
:200D5C001EC022687E4ED2F80CE00CF1010000FB08F340F6C41000FB03F18E44C2F80CE028
:200D7C003668DFF8E0E13678BEF80080764AB609032E11D1D67BF60748BF4FF000080BD430
:200D9C0008F101081FFA88F6012E12BF668AB9F8066006F2DC5600E0668A5E434FF4C87A77
:200DBC00B6FBFAF6761C6661AEF80080A3614FF0180894F806A084F820C008FB0AFADFF828
:200DDC008CC1DCF800E023680EF1080656F80AB0C3F810B094F806A008FB0AFACDF800A03D
:200DFC00D3F80CB0D4F814A0ABEB0A0ADDF800B046F80BA094F806A008FB0AFA56F80A60C7
:200E1C009E600EF10C06A37908FB03F30EF10C0EF65C06F0F00646F002060EF803604FF055
:200E3C00000ADCF800E0A6790EF1020308FB06F623F806A0464BA6791B68760103F1140A39
:200E5C00D4F814B05AF806A00AEB4B0A03F1140B4BF806A0AD7E022D0BD1A5796D0103F1F2
:200E7C00140697F800B056F805A000FB0BAA46F805A0BD88D27BA779D60736D508FB07F7DC
:200E9C000EF10802D659A6F5A86A0EF1080646F807A0A77908FB07F7D2592768511A39617F
:200EBC00BA6003F11402A1794901575807F5F667575003F11401A27952018958C9F80010B6
:200EDC006843244AA179156B03EB41162968401AA0F51670F0612049A07903EB40100B7864
:200EFC00012B14D10121C17214E003F114027F01D1592A464243A1F5E661A2F51672914204
:200F1C00DED30821204600F037F8012011E0916A4A78C272A179DCF8000008FB01F28118D6
:200F3C002268516007200D49087020460CF0D0F80020BDE8F28F00BF684E0020784F002079
:200F5C00084F0020502E00205C4D0020804E0020844E002070420100734F00206F4F002044
:200F7C00DFF800F035440110DFF800F069860010DFF800F091860010DFF800F0A98500104B
:200F9C00164938B5091F0868C3430B600A681042FBD1134C0E4A616905468A420ED10D4983
:200FBC0004F13400002211F0EDFA022020740FF005F818B90AF072F90BF0BCFB0648284290
:200FDC0005D004F1D0004FF0005111F0EFFA38BD41450000D9C7000002000040141004401C
:040FFC00A02300200E
:20100000B4120000181000003DE90000FDB301106DC00110FDAE011099B5011000000000A2
:08102000000000002D0000009B
:20102800B01200003C100000B1C00110A9BF011067C0011069B80110000000000000000035
:041048003000000074
:20104C00B012000060100000BDC00110CDB30110D9BD01106DB3011000000000000000005B
:04106C00310000004F
:2010700000000000D822002004000000000000000000000020000000E8C901103000000030
:2010900028100000E02200200400000000000000000000000C000000D8CA0110180000000B
:2010B0004C100000E822002004000000000000000000000024000000F0CA0110180000008F
:2010D00000000000F02200200400000000000000000000001000000018CA01102C0000009B
:2010F0000010000000230020040000000000000000000000200000006CCA011024000000FE
:20111000FFFFFFFF082300200400000000000000000000002800000090CA011024000000BD
:20113000FFFFFFFF102300200400000000000000000000001400000008CB0110180000003C
:20115000FFFFFFFF1823002004000000000000000000000058000000B4C90110340000000A
:20117000FFFFFFFF202300200400000000000000000000001000000020CB011018000000D8
:20119000FFFFFFFF282300200400000000000000000000001C000000B4CA01102400000005
:2011B000FFFFFFFF302300200400000000000000000000003800000044CA0110280000002D
:2011D000FFFFFFFF382300200400000000000000000000005400000078C901103C000000A2
:0811F00001000000644201004F
:0411F80001000000F2
:0411FC0000000E00E1
:0412000000000F00DB
:0412040032000000B4
:0412080001000000E1
:04120C00EC210020B1
:0412100000020000D8
:0412140000000000D6
:0412180001C90110F7
:04121C0000000000CE
:0412200000000000CA
:0412240008000000BE
:0412280000002200A0
:04122C006C1F002013
:0412300000000000BA
:0412340000000000B6
:0412380008000000AA
:04123C00602100200D
:0412400000000000AA
:0412440000000000A6
:04124800080000009A
:04124C00000000009E
:04125000000000009A
:041254000000000096
:041258000000000092
:04125C00010000008D
:0412600068200020E2
:041264000600000080
:041268000100000081
:04126C00241E00201C
:04127000000000007A
:041274000000000076
:041278000002000070
:04127C00000000006E
:02128000290043
:02128200010069
:02128400250043
:02128600300036
:02128800310033
:02128A002D0035
:02128C0001005F
:01128E00015E
:0812900003000000E041010031
:0812980000000000000000004E
:0412A0000000010049
:0412A4000000030043
:0412A80013C401105A
:0412AC008D1D010093
:0412B000B812000070
:0412B400B81200006C
:0412B8000000000032
:0412BC00AC22002040
:0412C000A71F010063
:0412C4002000000006
:0412C8002C410100B4
:0412CC00983F010046
:0412D00029C101101F
:0412D40025260100CA
:0412D80027260100C4
:0412DC00A1C7011095
:0412E000A3C701108F
:0412E4000000000006
:0412E800D53C0100F0
:0412EC003C3D010084
:0412F000543D010068
:0412F400243D010094
:0212F8000200F2
:0212FA000900E9
:0212FC000100EF
:0212FE000000EE
:0113000001EB
:04130400351F010090
:0413080021030100BC
:04130C004513010084
:041310009D06010035
:041314005903010078
:0413180015F20000CA
:04131C00F1C200001A
:041320001F22010087
:0413240015E50000CB
:0413280015C70110D4
:04132C0025C70110C0
:201330002DE9F04FD74C211D2046ADF1940D0DF0C5FC04F120060021304611F0B9FCD24DFD
:2013500010201F220623A660294605F0ADFE4FF47A7A0020ADF816008046ADF81EA0022170
:201370008DF82B800DF11602ADF81C805020ADF818004FF44870ADF81A0040F2063003F094
:2013900039FA4FF44270132104F13D0203F032FA40F20730112104F12C0203F02BFA4FF475
:2013B000447001210DF12B0203F024FA40F21130022106AA03F01EFA40F2123002210DF125
:2013D0001A0203F017FA40F21330022107AA03F011FA4FF4457002210DF11E0203F00AFA66
:2013F00004F1500042461523A8490090102005F05BFE294610200622A02305F055FE294698
:2014100010200722A02305F04FFE294610200122782305F049FE294610200822A02305F044
:2014300043FE294610200922A02305F03DFE01208DF82C008DF82D000BAE8DF82E800346E5
:201450008DF830804FF48062914D00961F4610208DF82F70294605F027FE0DF12D002946D2
:20147000009040F202423B46102005F01DFE0DF12E00294640F203423B460090102005F04D
:2014900013FE0DF12F00294640F206423B460090102005F009FE0CA829464FF483623B460C
:2014B0000090102005F000FE7A4910204FF0FF3205F0FAFD1020784B00907849784A019380
:2014D000092305F0F1FD77494FF0FF32102005F0EBFD754D2878800011F05EF80146734875
:2014F0002C4641610546002900F098804FF6FF700DF0F2FE2078800011F04EF80146A961FB
:20151000002900F08B804FF6FF700DF0E5FE2078800011F041F80146E96100297ED04FF664
:20153000FF700DF0D9FE2078800011F035F801462962002972D04FF6FF700DF0CDFE2078C1
:20155000800011F029F801466962002966D04FF6FF700DF0C1FE2078800011F01DF8014683
:20157000A96200295AD04FF6FF700DF0B5FE2078800011F011F80146296300294ED04FF618
:20159000FF700DF0A9FE2078800011F005F80146A963002942D04FF6FF700DF09DFE2078A0
:2015B000800010F0F9FF0146E963002936D04FF6FF700DF091FE2078800010F0EDFF014656
:2015D000696459B34FF6FF700DF086FE2078800010F0E2FF0146E96401B34FF6FF700DF0FB
:2015F0007BFE2078800010F0D7FF01462965A9B14FF6FF700DF070FE2078800010F0CCFF43
:201610000146696551B14FF6FF700DF065FE284B05F15800352110220FF0C8FB207880006C
:2016300010F0BAFF05F15802014686480E920029C16056D04FF6FF700DF04EFE2078800057
:2016500010F0AAFF01467F480029016149D04FF6FF700DF041FE2078800010F09DFF014634
:201670007848002941613CD04FF6FF700DF034FE2078800010F090FF01467248816181B322
:2016900018E0C046F00800206505010009CC00001D54000025120100C8410100BD0D010066
:2016B000F817002015150100694F002008020020383A01004FF6FF700DF00EFE2078800076
:2016D00010F06AFF01465F48C16151B14FF6FF700DF002FE5B485C4B1521102220300FF0CD
:2016F00065FB2078800010F057FF564A01462032564821920029C16047D04FF6FF700DF070
:20171000EBFD2078800010F047FF01464F48002901613AD04FF6FF700DF0DEFD207880005C
:2017300010F03AFF01464948416171B34FF6FF700DF0D2FD2078800010F02EFF014643482B
:20175000816111B34FF6FF700DF0C6FD2078800010F022FF01463D48C161B1B14FF6FF7022
:201770000DF0BAFD2078800010F016FF01463748416251B14FF6FF700DF0AEFD3348344BB7
:201790001921102228300FF011FB324E2F497778307828311B91AFB937490C3131620FF01F
:2017B000FDF906F15407CDF80080024606F14400019006F11C04029727490394B378102066
:2017D00005F072FC2C4A25491020183205F06CFC294800780FF0E2F921490246102005F041
:2017F00063FC254800780FF0D9F91E490246102005F05AFC1C49102005F056FC09F000FDC8
:201810001A49404607F058FB194940460EF038F940460DF0FBFB0DF0B7FF164C04F10806DD
:20183000304610F0E1FB01203146207440460DF0CBFF6060002804BF201C80F8008020D0FE
:201850001CE0C0461C130020F03F01003C0E0020583B0100B005002017F60000E51701001A
:201870005188011031810110C5AB0010000003038DCD0000A41F0020F00800202146012048
:201890000870BA4E06F11404204610F013FADFF8E0B2DBF8000006F134074FF4FA712346B1
:2018B0003A46BAFBF0F080B24143491EB148716011F0FAF9DFF8C09206F108023060716895
:2018D000C9F80C2011F0ECF9414624220823384611F0E2F97068B064AC484446A6F8448007
:2018F000A64FF46410F0E6F9DBF8000007F1340640F2DC51BAFBF0F080B24143491E7960BD
:201910009F48A24B324611F0CFF99E4938602422082307F1080008603046214611F0BCF9B7
:20193000BC649B48A7F84480974EFC6410F0C2F9DBF80000964B974A57464FF4C871B7FBD1
:20195000F0F080B24143491EDA48716011F0ACF9D949306006F1080048608E482422082341
:20197000214611F099F9A6F844807168F4643068B16411F095F93068716810F045FECF4EBD
:20199000854810F097F9DBF80000834B06F1340A4EF66021B7FBF0F0524680B24143491EF8
:2019B000C748716011F080F9C34930602422082306F1080088602146504611F06DF9A6F8C7
:2019D00044807168F4643068B16411F069F97168306810F019FECE48BA4E10F06BF9DBF815
:2019F0000000CB4BCB4A6421B7FBF0F080B24143491EB548716011F057F9DFF8D0A2306080
:201A100006F10800CAF81C00C24821462422082311F042F9A6F84080B464716830687164FF
:201A300011F03EF97168306810F0EEFDA84EBA4810F040F9DBF80000B74BB84AB7FBF0F068
:201A500080B207FB00F1491EA248716011F02CF9306006F10800C9F81000B0482146242204
:201A7000082311F019F9A6F844807168F4643068B16411F015F97168306810F0C5FDA848A6
:201A9000954E10F017F9DBF80000A54BA54AB7FBF0F080B207FB00F1491E9048716011F0C9
:201AB00003F98F49306006F1080008609D4824220823214611F0F0F87464A6F840809A488D
:201AD000B464884E10F0F6F8DBF80000964B974A47F23051B7FBF0F080B24143491E824852
:201AF000716011F0E1F8814A3060904806F10801082311602146242211F0CEF87464A6F872
:201B100040808B48B4647A4E10F0D4F8DBF80000874B4EF66021B7FBF0F080B206F130071A
:201B300041433A46491E7348716011F0BDF8724A06F10801306008231160384621462422D5
:201B500011F0AAF87464A6F84080B4640DF09CFD6A4E06F10C00CAF82000301D10F066FCA2
:201B7000012030720DF090FD18E0C046781A002060420100D925010088180020D01A0020EC
:201B9000DD2501000C220020281B0020E41A00203C1B00205C1B0020941B0020584E06F1E9
:201BB0000C00CAF82400301D10F040FC012030720DF06AFE534E06F10800C9F8140006F106
:201BD00018000FF0C3FF4746C9F81C7089F80080012474764046C9F8200086F82E804FF45C
:201BF000E13286F82D802346326321463376464FF161464CB762842074620EF094FD09F1F4
:201C100028018422C9F8040009F0C2FE08200EF08AFD044684F80480C9F81840FF20607167
:201C30000A200EF080FDD9F81410206008688047D9F81000006880471F480778DF4E06F129
:201C50001000C9F8080047B91B4C606800688047A06800688047012020705446492201212E
:201C700042F6BA4362710F46E170E069A3814FF4F07227710068E281B821A1718047206AF5
:201C900000688047606A00688047CD4BB346022647460BF10C0204200BF10801A262C94AFC
:201CB000D960002F46D00C2F44D0790834BF1670107041E0E125010014220020801B002094
:201CD000E5250100DC1C0020E9250100D81D0020D81B002033E20000301D0020ED25010005
:201CF00004100020841D0020F1250100082E0020881C0020D5250100F02D0020BC21002079
:201D1000D4210020F81E0020D3EF00005D840000EC1C00200C1D0020EC1B00200C1C0020E5
:201D3000401D0020601D0020941D0020B41D0020981C0020012111707F1C521C0D2FB0DB70
:201D5000A14C49F22F731821C4F8443146F6C037C4F8481140F2DC50C4F840713D38C4F8FB
:201D7000100145F2E523C4F81C3147F29531C4F820111722C4F83C211427C4F8187146F600
:201D90007270C4F84C0149F6C063C4F850311921C4F8541145F69943C4F8283147F2557024
:201DB000C4F858011527C4F8247148F2DE11C4F82C114CF69F22C4F880214AF2CF73C4F8B5
:201DD0005C311A21C4F8601147F6F760C4F8640146F20243C4F834312721C4F81411162745
:201DF000C4F8FC1148F61F53C4F830714BF2D231C4F8383103F1EF00C4F8681148F2B5632E
:201E1000C4F87C011B21C4F87031C84BC4F86C11A2F1C100C4F8E0314BF64271C4F8DC01E6
:201E30002522C4F874111C23C4F8E4211D21C4F878312020C4F88411CD4AC4F8A80147F221
:201E50003057C4F8EC21643767644DF25103C4F8E8314DF20E51C4F88C11C748C4F804028C
:201E70004DF6B712C4F8F42149F2FA43C4F8883149F67C41C4F894112120C4F8B401262330
:201E9000C4F8F0311F21C4F89C114EF2F802C4F800222220C4F8C0011E23C4F890314EF6D3
:201EB000DA01C4F8A411B34BC4F8F8314FF29511C4F8B0112422C4F8D8212320C4F8CC01B8
:201ED0004DF64773C4F898314FF68711C4F8BC114AF23143C4F8A031A349C4F8C8114AF60C
:201EF0001D33C4F8AC31A149C4F8D4114BF2BA23C4F8B8314BF65A23C4F8C4314CF22523AA
:201F1000C4F8D0310CF0BAFC84F80881A4F806814FF00F0A84F809A1A06DC4F8F000636D13
:201F3000C4F8F430B4F84420A4F804210DF0B6F884F80B010CF0CEFD84F80A014FF6FF79A2
:201F5000A4F800910CF00AFFA4F802010CF0ECFDC4F8F8000AF07CFCC4F8FC00607884F889
:201F70000CA10FF0FFFAB9A0A4F8828003C809F099F80DF023F9A4F89C00DFF8ECA2E3784F
:201F9000A4F8D07040F6B830B84FA4F8B6003BB1012B05D1B6480068406884F8038080471C
:201FB000B9480478012C7C7110D02CB987F8018001204646B8700BE07E7809E0A021002035
:201FD00004220020912200202C0C00207E70BE7087F80380022E87F8048002D13869006853
:201FF0008047AAF80080DAF808000068804705F10D0705F1480605F140040F9705F10B03AD
:20201000109605F134021194A91C129305F12C07139205F10906EC1D1497BA480D916B1C21
:2020300015966A1D1694EF1C1793BE4E18921030DFF8E892199706F1200134463346324685
:20205000DFF8DC82DFF8F4A21A913746211DCBF80400BB4E1C91D91C1D913446911C1E9172
:202070003346791C32461F91F11C2091A11C2291591C2391111D2491A248406800214FF0EE
:2020900040424FF0FF3310F003FE071CF4D0002004900DF12A0104AA05A80EF02BFB0028D1
:2020B00074D1BDF814C00126BCF1100F69D195489DF82A100078884263D1049C20884FF666
:2020D000FF7181425DD02378913B29D01F3B58D16078162818BF002205D130460EF0A4FFB1
:2020F000BB4832460460874843699AB163B94FF6FD70BE49BE4A00900023102004F0D4FFA4
:2021100080494B69C2B22AB97E4843F002030026436136E021790834204610F0B5FD30E0FF
:2021300063780E3B04D09B1E28D02AE0021D0100A08842F20301814223D1A1680C7804BB59
:20215000491C0DF122000A68496802600DF1220441602078BC490DF1220200F0FD00207064
:20217000102004F0A1FF0CE0F8050100381201001828010067320100233C010008200CF0F7
:20219000EFF9049810B10EB110F0C8F9F80FFFF473AF5C48806810F073FD00287FF46CAF9C
:2021B00058488468204610F067FD844208BF002402D084680EF0FEF8002CEAD0514920882E
:2021D0004969401E00F09581C01E00F08E81001F00F07D81083800F05B81103840F08C815E
:2021F0006068427806788778C17841F60F0306EB0226001DF61A00F00981B61E00F0AE809C
:2022100045F6EF72B61A40F070810C2F00F26D81DFE807F0988A7A6E645A50463C3020114D
:2022300007C0012940F0618100780D990870CDF80080286D8FE0022940F0578100880F9949
:202250000880CDF80080686D85E0C0460000000000000000042940F04881006810990860C2
:20227000CDF80080E86C76E0E82D0020F40F0020082E0020042940F0388100681199086021
:20229000CDF80080686C66E0A41F0020022940F02C81008812990880CDF80080E86B5AE057
:2022B000042940F02281006813990860CDF80080A86B50E0042940F0188100681499086097
:2022D000CDF80080286B46E0022940F00E81008815990880CDF80080A86A3CE0022940F07A
:2022F0000481008816990880CDF80080686A32E0012940F0FA80007817990870CDF80080A8
:20231000286A28E0F0080020012940F0EE80007829460870CDF80080E8691CE0F9930000B6
:20233000856600003C0E0020022940F0DE80008818990880CDF80080A8690CE0C1A000001B
:202350001C130020022940F0D080008819990880CDF8008068690E9A352396E0002F49D0DD
:202370007F1E37D07F1E27D07F1E1AD07F1E0DD07F1E40F0BA80042940F0B78000681A995E
:2023900008606148CDF80090406A3CE0022940F0AC8000881C9908805B48CDF80090C06994
:2023B00031E0012940F0A18000781D9908705648CDF80090806926E0012940F09680007811
:2023D0001E9908705048CDF8009040691BE0C046282E0020012940F0888000781F990870A7
:2023F0004948CDF8009000690DE0C04685E70000451B0100012978D1017843480170CDF811
:2024100000904149C0681B9A19233EE0002F31D07F1E25D07F1E19D07F1E0BD07F1E64D1C9
:20243000012962D10078209908703848CDF800A0C06928E0012958D10078229908703348F7
:20245000CDF800A080691EE095B4001001294CD10078239908702D48CDF800A0406912E05F
:20247000022942D10088249908802848CDF800A0006908E0012938D1017824480170CDF8CD
:2024900000A02249C068219A152309F051FE2CE088082AD31E4807683FB37888397908376D
:2024B0003A4610F0E5FB0746162F03D0042F01D00EF0BAFD17484669BFB936F00206466133
:2024D00013D1154A15494FF6FD70012309E040F20E3008A906F086F90023BDF8202009488D
:2024F00007490090102004F0DFFD60680DF062FF02E0A0780BF0AAFF20460DF05BFF48E63D
:202510006907010040E201003C0E00201C130020282E0020F0080020451B010085E7000003
:202530002DE9F04F0746C84821F000440E460FF2D82BADF15C0DA04213DDC448A04203DD85
:2025500038460CF03BFE48B1002000909BE80C003146384605F098F90E460746314638466F
:20257000A1E2BB48A04205DC38460B46024604F063F998E2B748B146AFA50FF2C42AA04206
:2025900080F2C880B448A04251DCB448A04200F36F81B34AC1F30A502315000502AEA3F218
:2025B0001648251A3C460227AD18294620460CF005FE0EF0C4FA0B460246294620460CC62E
:2025D00004F03AF992A20CCA06F090FE04460D467F1EEAD106A880E830000325044694E80D
:2025F00003009BE80C000AF0BBF91DD002A808A942462B46FEF742F8B9F1000F014606D441
:2026100008A890E800030AAF97E80C001CE208A890E800030AAF97E80C00494289F0004981
:2026300083F0004310460EE2083C6D1ED7E78D48A04238DA8C48A04200F01A81B9F1000F3E
:2026500075A277A416DC0CCA384604F0FAF894E80C000D46064604F0F4F8894680464B46DF
:2026700042462946304604F0E7F894E80C0004F0E8F815E00CCA384604F0DEF894E80C0013
:202690000D46064604F0D8F8894680464B4642462946304604F0D0F894E80C0004F0CCF838
:2026B00002460B46D8E17148A04200F0E180B9F1000F5DA25EA416DC0CCA384604F0C1F81F
:2026D00094E80C000D46064604F0BBF8894680464B4642462946304604F0AEF894E80C0067
:2026F00004F0AFF88CE00CCA384604F0A5F894E80C000D46064604F09FF8894680464B4606
:2027100042462946304604F097F894E80C0004F093F85AE0D449C4F31300814200F0A880B6
:20273000D248A04236DAB9F1000FD4A2D5A417DC0CCA4946384604F084F894E80C000D46B4
:20275000064604F07EF880468946424630464B46294604F071F894E80C0004F072F816E0E7
:202770000CCA4946384604F067F894E80C000D46064604F061F880468946424630464B467B
:20279000294604F059F894E80C0004F055F802460B467BE1B9F1000F1ADC95E80C004946F0
:2027B000384604F04EF89AE80C000C46054604F048F880468946424628464B46214604F07B
:2027D0003BF89AE80C0004F03CF802460B4664E195E80C004946384604F02EF89AE80C00E4
:2027F0000C46054604F028F880468946424628464B46214604F020F89AE80C0004F01CF8F3
:2028100002460B4634E1C0460000000000000000000000000000704100004054FB2119403A
:202830003163621A61B4F03D0000307F7CD91240CA9493A7910EE93D00004054FB21F93F9B
:202850003163621A61B4D03DFC21E93F0000503E0000F07F7A6A0F403C461C40FB2139414D
:2028700000006041BCFD1540FB2119407CD912408EA20CCA4946384606F038FD0FF23428E2
:2028900098E80C0003F0DDFF98E80C0003F0D4FF0D9181460C9088460CF090FC0E9095E809
:2028B0000C004146484606F021FD0B4602463146384603F0C1FF15909AE80C008B46414607
:2028D000484606F013FD13901598139A14910B46594603F0B1FF80460D984B46894601460D
:2028F000184695E80C0006F001FD0B4602463146384603F0A1FF10910F900D990C989AE8C0
:202910000C0006F0F3FC0B46024610990F9803F093FF24154800A4EB5050102840F3878026
:202930000D990C9865A20CCA06F0E0FC8A46054610990F9853462A4603F07EFF8B46159034
:202950000D990C985FA20CCA06F0D0FC0E460746159A10990F985B4603F06EFF53462A46DA
:2029700003F06AFF0B4602463146384603F064FF139014911598149B139A594603F05CFFC9
:202990008046894615981099119002460F98CDF848B05B4603F050FF53462A4603F04CFFC5
:2029B0000B4602463146384603F046FF024611980B46594603F040FF4800A4EB5054322C55
:2029D00035DB0D9C0C9D41A20CCA2146284606F08DFC82461598894659464B46524603F079
:2029F0002BFF80463BA2CDF854800CCA8B462846214606F07BFC0C460546129911985B46E6
:202A1000424603F019FF4B46524603F015FF0B4602462146284603F00FFF0B461493024634
:202A300013925946404603F007FF89468046159859464B46424603F0FFFE149B139A03F08A
:202A5000FBFE0B460E99024611F0030104D0491E0ED0491E1AD020E00120009049464046F8
:202A700004F012FF1FE0C046FB2109007CD902404946404604F0BCFF15E0C046000040542D
:202A9000FB2109403163621A61B4E03D012000904946404604F0F8FE03E04946404604F0E3
:202AB000A7FF81F0004117B0BDE8F08F83C8C96D305FE43F00000000000038430000601A9B
:202AD00061B4D03D7370032E8A19A33B0000002E8A19A33BC14920259A837B392DE9F04F0B
:202AF000D04C04F118012046ADF1340D0CF0E6F8002604F1A40A4FF6FF7066700121208266
:202B100050460DF099FAD04802210DF095FACF4804210DF091FA04F14408042010223146E6
:202B3000A07040460AF0A1FA04F154091022484631460AF09AFA04F11C073E6004F10A0589
:202B50002E7007206072DFF8FCB2E67102222672594610200346CDF8008004F0A5FA102016
:202B700003225946CDF80090034604F09DFA0422102059460097134604F096FA4FF0080A9E
:202B90004FF003094FF0010B05F12A00079005F17900089005F11E00099005F15A000A903A
:202BB00024350B9517E06078A28FE18FB4F84050B4F8423006280ED1ADF80A20ADF80C10A5
:202BD000ADF80E50A048ADF810300FF00BFD584602A909F081FEA069B24A31464FF0FF3360
:202BF00010F056F8071CF6D0059606A80DF11A0105AA0DF07FFD002840F0BA81BDF8181094
:202C10002078102940F0B0819DF81A10884240F0AB81059D29884FF6FF728A4200F09981AE
:202C30002B78A23B00F07C812E3B40F09D81A978B046002900F03881891E00F00981491EEF
:202C5000012940F2D380891E00F09780491E6ED0491E5BD0083900F05381891E40F056811D
:202C700094F83A10A8880529ADF8080046D076488DF812B00FF0B6FC94F83A0001281ED0BA
:202C900004281CD003280DD002280BD00598C188ADF80A100189ADF80C104189ADF80E1082
:202CB000818927E0A18FE08FADF80A10B4F84020ADF80C00B4F84210ADF80E201AE0A08FDE
:202CD000E9888842D8BF081CADF80A002989E08F8842D8BF081CADF80C006989B4F840000A
:202CF0008842D8BF081CADF80E00A989B4F84200884200DC0846ADF8100001E08DF81260EB
:202D1000A749102002AA04F0CFF9FFE04F480FF069FC6B78002B40F0F980E8886082288987
:202D3000A0826889E08248480FF0AEF9EEE0AA88B249102004F0B8F90798414606220AF0C0
:202D500094F96682A682E682A87920733E480FF049FC3E480FF046FCD8464FF6FF702379AB
:202D700020823BB9A879082814BF042005206070E670CBE084F80190C8E06B787BBB291D5B
:202D90000A6807980260898881800623637068892082E8896082288AA082688A94F83A1020
:202DB000E082E8780129E07218BF02290BD1994910201F2204F078F94FF47A7180B241434B
:202DD00021480DF055F968890423009090490193EA7810202D1D2B4604F066F999E0687821
:202DF000312840F08A80E670042028E06B78002B40F08380A878E1896278032814D0E078A2
:202E1000257921B9012814BF2671E67005E0054303D081480DF02CF96278072AE4D1062070
:202E30000DE0C046B0050020062A07D0E578002D08BF84F801906CD0022000E00720607020
:202E500067E0C046A9170100780600209C0600206B78002B51D1EB78617893B902291DD024
:202E700007291BD0062902D12079012816D1032914D069480FF008F980B958460FF03CF9B0
:202E90000CE00DF08BFE0246A07960490090089843460190102004F007F968706D78002D4E
:202EB0002BD133E0070000806B7833BB5B485649009002221020034604F0F6F858484A461A
:202ED000514900901020034604F0EEF8ED1C296809980160A9888180207884F801B00DF0D5
:202EF0005DFE02465B460A9D6079484900901020019504F0D9F8C0B258B184F801A008E0D2
:202F1000AA8840491020052304F0CEF8B8F1010F2AD1256A45B3296831B36078884723E07A
:202F30006879132820D12889012808D1607B022805D13E480FF056FB0DF026FC14E035497F
:202F50001020052204F0B0F881B238480DF090F80AE06888C00B07D3324804222A49009014
:202F70001346102004F0A0F8059808B10FF0D6FA2579E07879082ED355EA00032BD02046EC
:202F900000787DB9E279217A8DF808200B9D8DF809102B680DF10A010B60AA888A8003E064
:202FB000051601108DF80890627A8DF81020A17A8DF811100DF0F2FD1149024602AB1020FB
:202FD00004F072F838B1256A84F801A01DB1296809B150468847B80803D31349304609F00F
:202FF0007BFCF808FFF4F7AD607B401E3FF4DBAD401E7FF4F0AD0DF0C7FBECE57DEC000058
:2030100059440110C1170110F194000009450110CD970000BD1B010054060020F405002055
:2030300004060020CC050020EA0500209C0600202DE9F04F0F46CD4C0168E1624168806894
:20305000ADF11C0DE060C548A1608047C448E16A0160A168DFF810A34160E168DFF80493E1
:203070008160CE49002FA346C1606FD03D68E8788DF80C0028798DF80D0003A80FF0F4FD6C
:20309000A86808B1C6490160E86808B1C5490160C54C287820706878BE686070A878B2681E
:2030B000A0703178A2607368E1702E696360EA6926627968E2620868E06068696062A8696B
:2030D0007B68A062286A9E68206395F8240084F834001EB900200EF05DFC00E066617868AA
:2030F000C06818B900200EF055FC00E0A0617868006918B900200EF04DFC00E0E0617868F5
:20311000406818B900200EF045FC00E0206128692062F86881680E6806B9D24ED0494FF05D
:2031300001084E60C66881F8018036B900200EF031FC4D462E68F86801E04D462E60006873
:203150005446FB68A0615868E06107E000200EF021FC4D462E684FF001085446361DC749D0
:203170003668621C04F114035020B04710B1286880688047DBF808008047C24E0027814610
:203190003B46BF487770694620610422337038460CF0AAFE0098B0F5801F0CD020B90DF007
:2031B0005DFE06F021F808E00BF09CFF0EF0A6FE0420708001E00DF051FE3846BA4EA060AE
:2031D0002B68B760986980477060AF4880F800803946418014200EF09FFFFF211422A06246
:2031F0000FF00AFAE01CFF2102220FF005FA14200EF092FFA54F38603868002114220FF039
:20321000FBF9002000F052F940460CF029FDA0480188FF2906D1022101807822001D0021BB
:203230000FF0EAF903200FF01BFD04200FF014FD05200FF00DFD06200FF006FD07200BF0B6
:2032500033F9944E0820307006F124000FF0F8FC0BF0E8FA06F1360A05200A2152460EF080
:203270009BFA38B10020C0F10901401C0AF8011B0A28F8DB3078102107F080FB2B688649B9
:2032900009200DF10E025E68087001AB10200021B047A06AE1690A260A309DF80E20761EA0
:2032B00000F8012BF9D1891EE161DBF80C104846884704F120002B68626A059040461E69C5
:2032D000DFF8D88104F120034146B04710B1286880688047B8460DF0CFFE5FEA000903D02B
:2032F00008F01CFA4FF0FF39002643E00298216910F8062CA0F10C07032A03D1002939D0BB
:20331000884737E0A16A9DF810C00A223046491E11F8013F9C4506D0521E00F10100F7D114
:203330004FF0FF0A01E05FFA80FA2868BAF1FF0F00F108001CD038790CF042FFB979012909
:2033500004D0022904BF0299887001E002990870029950460EF056F90CE0C046414900100A
:20337000F844002070230020C8200020B4160020006880472868C36904A902AA0DF10F00EB
:2033900098470028B2D0D8F800007700C35B6BB9761CF6B20A2EF8DB2BE0C046C82C0100C0
:2033B000650D01008D1B0100341F00200A2E20DADBF808008047D8F80010002231F807A0C8
:2033D000CA53DBF80C108847354850F8262026705146304690470646FF202070DBF80800A7
:2033F0008047D8F800107A5A16437E52DBF80C1088470DF041FE0746B9451AD007B9294FB2
:20341000E069B84238BF071CDBF80800804781462868016A206A8847626A28681F49059B1E
:20343000521C6262C6683846B047DBF80C1048468847A768296860691431AFB9D8F8000075
:203450000A270026835B33B10969606988472968D8F8000014317F1E06F10206F2D107E04D
:20347000C022002013140100096988472968143109684FF0FF3088472DE7C046911201008F
:20349000051C01005423002050230020482E002034190020A81100205A2E00200902010040
:2034B000203F01008EC2F528DC2D00202DE9F84FDFF8BC13DFF8BC23DFF8BC5308700821C6
:2034D000002010600D23DFF8B40340F23732017043808280DFF8A8030560AC7EDFF8A4032E
:2034F0000470FF2CE97E417008BFFF292A7F82706B7FC370AE7F0671ED7F457115D1FF2A89
:2035100008BFFF2B11D1FF2E08BFFF2D0DD1DFF878130A7802704B7843708A788270CB78C7
:20353000C3700A79027149794171DFF860130278DFF85C83DFF85C93DFF85C730A70FF255A
:2035500043784B7082788A70C378CB7002790A714079487188F8005088F8015088F80250A0
:2035700088F8035088F8045088F805500020CB490880D9F83440CA49607808702278C949AF
:203590003A70A0780870A2681079C74A411E1170E078C649C64A0870E068106008B90EF0F7
:2035B000F9F92069C34E306008B90EF0F3F93068DFF804A301688847326852F8041F504649
:2035D0008847BE48BE49CAF82000CAF824106069BC49086008B90EF0DDF9A069BA490860E8
:2035F00008B90EF0D7F9E069B849086008B90EF0D1F9DFF8DCB2B74C9BF804000EF08CFD6B
:203610000028206075D09BF80500B34E0EF084FD002830606DD09BF80600DFF8C0A20EF0D0
:203630007BFD0028CAF8000063D09BF807000EF073FDAB49002808605BD039789BF80000EA
:20365000891C484380B20EF067FDA649002888604FD03878002862D0BBF80210484380B2EC
:203670000EF05AFDA04A0028506042D038780EF053FD9E49002808603BD0387840000EF0A3
:203690004BFD9B490028086033D03878182148430EF042FD974A106058B3387840010EF05F
:2036B0003BFD9549086020B3387800010EF034FD92490860E8B1387800010EF02DFD90493B
:2036D0000860B0B13878302148430EF025FD8D4A106070B18C483978007848430EF01CFD5E
:2036F0008A4A106028B138780EF016FD8849086018B9BDE8F14F05F0E9BF4FF0000B09E01D
:203710000EF0D2FC0021418081600180022303710BF1010B39785FFA8BF08842F0D322684C
:20373000694F0120107121680D732068457321688D732068C57321680D7400212068457421
:2037500000202268D172A0222168487103212068C2800172072022685072002120688172F8
:203770002821206801224182C2760020216848770022206880F85E200121226811770120ED
:20379000216881F85D0001223068027131680D733068457331688D733068C57331680D74A0
:2037B00000213068457400203268D172002231684871306882724FF420703168C88008814D
:2037D0008A7401213368D974DAF800201573DAF800104D73DAF800209573DAF80010CD7399
:2037F000DAF8002015740022DAF800104D740121DAF80030DA720023DAF800201171DAF8A0
:2038100000104B71DAF80010C88008818B720520DAF800209374DAF800103E4AC8741068E0
:2038300080473968054608688047396851F8042F00209047D9F80C101C4B0A881878364985
:2038500002430A802846354A136898470C2134480FF0F2F940460FF0EBF90FF0E5F9BDE8C4
:20387000F44F034800784FF4005107F087B800BF6E4F0020044F0020B63F0050604E002046
:20389000084F00202C4E0020E81200503C4E0020344E0020704201007B4F00200C4F002059
:2038B0006D4F00206B4F0020724F00206C4F0020F04E0020F44E00207C4B00202921010094
:2038D00049210100F84E0020FC4E00202C2E0020A0220020104F0020144F0020184F0020B8
:2038F0001C4F0020F42D0020684E0020004F0020302E0020804E0020844E0020884E002053
:203910008C4E0020904E002091230020342E0020382E0020BC160020544F0020C016002018
:20393000F84D00202DE9F84F0C46E00788B00BD50EF0CAFB28B100218160B348006800B1B2
:20395000804784F001005CE1A0070FD50021002306910591049103930291019100910122DE
:203970003C200FF05DF984F002004AE11D256007A64EA74F40F18A80002107918B46A548A0
:203990008178FF2904BF00200EF004F8386890F8A0000EF077FA80463868C07A98F82691FB
:2039B000022818BF032808F5907A06D106F10D000FF032F908B906F1070B514648460FF0D1
:2039D00027F988B33868807A002818BF012804D1314650460FF018F904E052464946304647
:2039F0000FF00EF9FF2834D005FB00F906EB090506225146E81D0EF021F916F809003968FA
:203A100040F00209E81D07900622887E00F0010088F8260105F1010A386800F1140108F555
:203A300090700EF00BF914E0514648460FF0E4F878B15246494630460FF0E2F8FF2808D0E2
:203A500006F10D01454348190FF0E6F808B949F0020908F12C004B460178069142891209DA
:203A700005920122B8F822100491C0880799029140080390CDF804B0CDF800A0002098F821
:203A900006100FF0CDF884F00400BAE020060FD5002100230691059104910393029101915F
:203AB000009101223B200FF0BBF884F08000A8E0E0044BD5F11D06F10D000FF099F8386873
:203AD000017A012918BF042931D1C17A02291EBF0329817E01292AD1817E00F1140230461C
:203AF0000FF08EF8FF2811D04543354405F10D000FF092F850B9E91D05F10D000FF078F81B
:203B100038680622E91D14300EF098F83868C07A022818BF03280AD106F10D000FF07CF89D
:203B300028B938680622F11D0C300EF087F83A4842683A4800784FF480510BF0FFFC10B114
:203B50008E2009F059F984F480505AE0A00505D50EF064FB324901200860FEE7600504D5D7
:203B700006F07DFB84F480604BE0600405D5812009F042F984F4804043E0A10440D5294DA6
:203B9000286810B100200DF005FF274E4FF0FF3028600FF029F83168244D51F8202F6846C8
:203BB00090472349234B486A8A6A009001920293C86A0268086A0392ADF810000A6B117890
:203BD000002904BF5068002805D19068002804BFD068002806D02970506868609168A960FF
:203BF000D068E86029463568134A2E6813486B46B0471349086003F0BBFC84F4005000E01D
:203C1000002009B0BDE8F08F204F0020AC450020104F0020684E0020784E00206E4F0020DF
:203C3000FC002043044F0020F04E002068450020341F0020C92001002C4D0020F02C002045
:203C5000EC4E0020BB482DE9F84F0025BA4CB849056094F8E200002800F06581012800F084
:203C70002F81B64E02283CD0032840F05C8151F8250CD4F8B8100029A0F5C060C4F8D40096
:203C9000B8BF49420028B8BF4042814226DA4FF08057D7F8A4014568B4F8BC0030214FF4FB
:203CB0007F42082300903046A847D7F8A4014568B4F8C00004214FF4F802122300903046E9
:203CD000A847D7F8A401B4F8D070456820214FF440620A2330460097A847012584F8D850BF
:203CF0001CE151F8258C0EF099FA2F4600B901273946934F38680028FCD0B146012609F1C9
:203D10000409D9F82CA03E6009B10EF08DFACAF30720C4F8BC000EF081FAAA4600B9B24696
:203D30003B68002BFCD0D9F800B0BAF1000F3E6001D00EF079FACBF38440C4F8C0000EF0C2
:203D50006DFAAA4600B9B2463B68002BFCD0D9F81C90BAF1000F3E6001D00EF065FAC9F3F2
:203D70008120C4F8D000B8F5C061C4F8B81000F09C8094F8D80068B9C4F8D410D4F8C000F7
:203D9000C4F8C800D4F8BC70C4F8C470D4F8D030C4F8CC30D4F8D400D4F8BC30002854BF90
:203DB00002226FF0010204F1C8010F6800EB40008018421000EB927207EBA2000860D4F86C
:203DD000C810C4F8C43000291CDD1E293CDDD4F8CC0030B93429B4BF15391E21C4F8C81057
:203DF00025E02A29BABFD4F8C8000B381E20C4F8C800D4F8C4003F28B4BF401C3F20C4F868
:203E1000C4001FE0D4F8CC00032812D011F10B0FC6BFD4F8C8000B30301CC4F8C800D4F81E
:203E3000C4000028C4BF401E051CC4F8C450032508E011F1150FC6BFD4F8C8001530301CD4
:203E5000C4F8C800C4F8CC504FF08057D7F8A401B4F8C43030214FF47F42456837480093B8
:203E70000823A847D7F8A40104214FF400321123456832480096A847B4F8C860D7F8A401E2
:203E900004214FF4F802122345682C480096A847D7F8A40120214FF440620A23B4F8CC6036
:203EB000456826480096A84701E084F8D85040F2FF50404502D8801C40452FD2082030E093
:203ED00051F8251C1F4F4BF2F5204843060A3868C0F3814001280CD11B48006800688047D9
:203EF0000BF00AFE0EF0A6F93111C010484306EBE03694F8E50030B91448006820F07F4081
:203F10003618760801E084F8E5501148310C0660012741600F4D8760287808B90B2000E0BF
:203F3000052084F8E40003F093F9BDE8F88FC0462D400C402C500C40A015002000A00C40F9
:203F500000800C40B43F0050EC010010102009403C600C40E54001002DE9F84FB34D696890
:203F700084B0019121B905B0BDE8F04F0EF038BE0978DFF8BC82AF4EDFF8BC92DFF8BCA217
:203F900001291CBF0229042946F2A81741F64C5B05D0402918BF802900F096803CE10EF000
:203FB000F7F90028FAD00198007804F0DDFD0090446814B900200DF0EDFC9AF80100002866
:203FD0005CD000F043F90DF05DFF02900168009801914F6809F066FD022825D000990A78AE
:203FF000012ADBD196490A68137A19F80310317018B90EF0F1FD5844A0602069C17E01F025
:20401000EF01C1762069C17E41F08001C1762069C17E01F0F00141F00201C1762269B968F7
:2040300088484118D1614BE001980178802911D10820854930700A78012A03D09AF80100A4
:20405000022801DB38690CE0D8F828003A690178D1720DE07C49072030700A783869012A9F
:2040700002D10121C17203E0D8F828104A78C2720298817901988AF80210C8E000980028FE
:204090008CD00199009A0078914205D101281CBF00200DF07FFC15E0012840F0BD80684888
:2040B00001680A7A19F8020030700EF095FD3918A0680EF08DFD18B90EF08EFD5844A060E9
:2040D0000120A8700098A2E09AF8010000287AD000F0BCF80DF0D6FE0446206802904768F0
:2040F0009AF802000DF0CEFE03900EF057F910F0070F3DD0A87804F037FD01904168019834
:204110000091029909F0CEFC022831D001990A78012A2AD14A490A68137A19F803103170DC
:2041300028B90EF059FD83440098C0F808B000980069C17E01F0EF01C17600980069C17ED3
:2041500041F08001C17600980069C17E01F0F00141F00201C176009AB9683A4841181069CA
:20417000C16101210198A97051E000200DF012FC0398A04225D0029833490278802A12D14E
:20419000082030700978012903D09AF80100022803DB38690121C17210E0D8F828003A69AD
:2041B0000178D1720AE0072030700978386901290EBF0122D8F828104A78C272A0798AF8AD
:2041D0000200029823E00EF0E9F810F0070F29D0A87804F0C9FC04462078D4F8048001280E
:2041F00020D117490868027A19F8021031700EF0F3FC3918D8F808000EF0EAFC20B90EF0DD
:20421000EBFC5844C8F808000120A870204605B0BDE8F04F06F070BC05B0BDE8F04F002030
:204230000DF0B8BB05B0BDE8F08F00BFF42D0020704201006F4F0020289A0110684E0020EB
:20425000104F0020F0D8FFFF734F00202DE9FE4FB24C617811B900200DF09CFB0EF0BCFCB9
:204270004FF00008074607F6C417C246AC4DDFF8B49228E050460DF005FE06467079F0B130
:204290002968B07901F80800394608F101005FFA80F830460EF098FC30680178402902BFC6
:2042B00006F182000178012902BF41887289914205D1B169C088411830460BF0A3FD0AF1DD
:2042D00001005FFA80FA99F800008245D2DB6178884505D000200DF05DFB82200EF070FCF9
:2042F0006078012840F0F180002701E07F1CFFB299F80000874280F2E28038460DF0C2FD50
:20431000064670790028F1D02968B0790A7890421CBF00200DF03EFBB079FDE0286810F892
:2043300009000DF0AFFD00684268DAF808109068814204BF3E4609F1010900F0D480D6E0BF
:20435000286890F800B001224FF4C0710FE0636803F5AD76835C01FB03F901FB0BFE36F80F
:2043700009C036F80E60B44538BF9B46521CFBB29A42ECDB4FF6FF700EF01EFC0646584683
:204390000DF080FD68490068D0F804A00868D94630F8192060684FF4C07300F10E0103FBE2
:2043B00009F3C85AB2EBD00F52D2720840F6C4104243009200275D4A0190029217E058460C
:2043D0000DF060FD01680A78802A03D1DAF81030009A5A610978402908D1029980790A68DA
:2043F00002EB4011009800F5A060C8617F1C47452EDA2868C05D8345F8D001464FF4C07390
:20441000594363685A1803F5AD73D289595A53088B4202D2521A9045E8DA0DF033FD0168F8
:204430004A68019B9168DAF808207008A1F6C41103FB00200EF0CCFB0028C0D03A480068C2
:2044500030F81910491C20F81910286810F807B0296808780DF016FD0026006847684FF465
:20447000C079464551DA2868805D0DF00BFD0068296842688B5D606809FB03F3034403F143
:204490008201087830B15889B1F802C0401C80B2604508DA887B01280ED15889098A401CEC
:2044B00080B2884208DB6EB3B968906801F5C241A8310EF08DFB28B3761CF6B2D1E700208E
:2044D0000DF068FA82200EF07BFB617828680EF06FFB286800780DF0D5FC00260068D0F85A
:2044F00004A04FF00109771CC145FFF617AFF6B2002E1CBFF8B200287FF422AF286890F88C
:2045100000B037E7296811F806B007490A6800205B4622F813005846BDE8FE8F684E002017
:20453000004F00207B4F0020302E0020844E00202DE9FC47DFF8B8A20F460546F80B80F005
:204550000881A64EDFF88882B80F80F0BA80B80880F0AE803809C0F02F819B48017809090F
:2045700080F0A180007830F07F0040F09C80684607F024F9012803D10098002800F09380B5
:2045900092480078002840F08E8001240025E8B20DF03CFC48B1837A3BB1847290F90900D0
:2045B00004FA00F0C0B20BF02BFD6D1C032DEED345464FF0030905F1AC0085F810900DF05C
:2045D000D7FF844A0021884610681160824952F8080C05F1340042F8088C42460DF0D8FFD2
:2045F0003068006B8047AA68A969801A000BC0F1FF328A422CBF01444FF0FF31A961287F1A
:2046100020B1E868A969B1EBC02F1ED90CF03AFF414600B12146081C14D0714840F6090100
:20463000018041464180427B64F303024273027B61F30302027341600DF006FD418811F419
:20465000406FFBD02C774146A9616649086820F0020040F400700860634A42F8049C41F2A5
:204670003006966014605023936014604FF4CA6696601460022042F80C4C44460C600BF02E
:2046900001FF112006F0DAF9287818B9686838300DF08AFF687F18B16C7705200BF0F2FE3E
:2046B000524868612C7409F02DFD27F0080783E005F0FAF840467430006808B927F00207E1
:2046D0007AE00DF05DFF34468146606D0068014604208847C8B1287CB8B1404608300668B5
:2046F0009EB12068EC68006B8047801BE860010BE960A14202D209194908E96040F6C41098
:2047100088422CBFB1F5FA7FE86048460EF04CFA0BF05AFC90B1A8696FF4807100224FF043
:20473000007304462846A04740466C300068002808BF47F0020701D009F0E4FC6869002102
:204750004FF0806304460A462846A04727F0005732E00DF015FF51460E684EB306F1280179
:2047700006C90A234FF0E0450B40154008BF002B1ED106F1280191E8300006F1280393E8E2
:20479000060006F12803AA43A14383E806000EF00BFAB16871B1002D08BF002C0AD03069CE
:2047B000B6F93C10B2682B4616462246B04701E00EF0FAF927F4804727B150463946503087
:2047D0000DF0FAFEBDE8FC87522E002039250020A0230020141004409D0F00008C010010FA
:2047F000B42D0020000004600C4104407DA60000202400202DE9FC41A0F2013714468846E7
:20481000022F40F233819B4E9C493F1F0F2F04D9143F4CD0BF1E1CD011E0DFE817F0D00063
:20483000CA000E01FB00C200BA002701B000A800100010009E0090008000750066002D289A
:2048500080F21481B8F1020F40F010818849238808E1B8F1010F40F00981F078012800F06D
:204870000581324620781179107189B9002800F0FD805078012800F0B680042800F0B3804A
:20489000062800F0B080052800F0AD80BDE8FC812078002840F0EA805078032800F0B080E1
:2048B000072800F0AD80052840F0E080A8E0B8F1010F40F0DB802078012840F0D78006F1D4
:2048D000EC000DF0E1FB002840F0D0803446002004F13A0108F000F8002840F0C78004F10D
:2048F000C8000DF07FFEBDE8FC81B8F1020F40F0BD8020880A28C0F2B980B0F5486F00F309
:20491000B5800E46B61C17E0B8F1020F40F0AE802088B0F5FA7F80F2A9800E460CE0B8F1D3
:20493000020F40F0A38020880628C0F29F80B0F5486F00F39B803E363080BDE8FC81B8F103
:20495000020F40F0938020880628C0F28F80B0F5486F00F38B803C36EEE7B8F1010F40F0D2
:2049700085802078062880F28180454E0EE0B8F1010F7BD12078042878DA0A3606E0B8F17E
:20499000010F73D12078082870DA09363070BDE8FC81B8F1010F69D12078042866DA08366B
:2049B000F4E7B8F1010F61D1207804285EDCF61DECE7B8F1020F59D120880E36BCE7B8F121
:2049D000010F53D13079012850D032462078D178D07069B9002849D05078012803D00428B5
:2049F00018BF052842D101200DF086FBBDE8FC81207800283AD15078022818BF052835D108
:204A100010780CF0CBF81C490246102002F04CFBBDE8FC8106F1830500211F22284608F0C0
:204A300024FB21464246284606F0B2FF44463078B4710CF0B3F8002311E006F164050021B0
:204A50001F22284608F011FB21464246284606F09FFF4446307874710CF0A0F8012300943F
:204A7000084901950246102002F01EFBBDE8FC8165050100B005002099450110F005002056
:204A9000EA050020094501102DE9FC418E488F4A04788F488F4B90490D2C6FD8DFE814F045
:204AB00012010E000E000E000E000A010A018E000A01C900C900E700E700EE00106041F2FB
:204AD00004478648864DB0F802C08649BC451FBFB0F81AE0BE45B0F83280B8454FF4A0568D
:204AF0001ED181480068D0F800C09CF8040003280CF1080E0BD1DEF80E0000281CBFBEF8AF
:204B10001800002803D01F80784911608AE0022C1CBF1E800D46156000208CF8040081E0BF
:204B3000BCF1000FA3F800C041D0BCF1010743D0B7F1010C3BD040F2FE37BCEB07071ED0AB
:204B5000A7F1040CBCF1010F20D94FF47F77BCEB070C1DD04FF44067BCEB07070FD0BF1EAC
:204B7000012F0CD93F1F0AD07B1E012B0ED940F2F937DB1B012B1AD91B1F09D09AE0022CFA
:204B900001D115604EE01E800D46FAE7584DF8E7584B1C68257A012D05D141F20243438035
:204BB00043834386F0E7468046834686ECE700200CF0F0FE832081E08F207FE04E4989789D
:204BD000FF290CD0106018204C4C41432068851C40F204466C5A1C80A41B012C484B71D92D
:204BF0004FF47F76A41B0FD04FF44066A41B032C84BF641F012C0BD9A41E012C62D940F2C5
:204C1000FD36A41B08D103E0801C41F201444452136005F01DF805E000200CF0BBFE852050
:204C30000DF0CEFFBDE8FC4136480078012105F0A5BE40F204424888188090421CBF41F288
:204C5000084290423ED041F60402904211D12E4C2E482F4B00680025CDE9004502222D4C9A
:204C7000256855F8086FB0472B4908802AE04888188000200CF08EFE85201FE048881880BA
:204C900002280DD940F20442801A1BD040F6FC72801A05D0083815D04FF47F72801AE8D138
:204CB000887B801CC2B2B52AA8BF662088730020488007E000200CF06DFE8420BDE8F64134
:204CD0000DF07EBFBDE8F3816F4F0020204F002051250100504F0020CC4C0020204A00200C
:204CF000B1540110615A0110F44B002059550110755B0110104F0020684E0020804E002080
:204D1000313901106E4F002002000080EC4E0020FD040100F04E0020424F00202DE9F04FE9
:204D30008246DAF80070DAF804600C465FEA0208ADF11C0D14BF00214FF0FF31DFF84092AB
:204D500048460DF016F9002818BF0B2040F0158100258F488C4905708A48FC6052460DF0B0
:204D700017FC317B27200DF015FCB8F1010F07D0657002200BF080FD06200BF07DFD01E094
:204D9000012060702078012840F2AA80801E012868D9801E012833D9801E012800F2DE8003
:204DB0000DF0EEFB83464FF0805000F5EE77D0F8DC01A378466A009321782846062908BFCB
:204DD0000120019001200290A068228AE1686368B047814658460DF0E7FEB9F1000F40F06F
:204DF000BF80B8F1000F02D00CF0ECFE02E050460BF0CAFB002800F0A3803868806A2AE0ED
:204E10000DF0BEFB83464FF0805000F5EE77D0F8DC01012306680093A168A2786068247849
:204E3000AC46042C08BF9C466346B047814658460DF0BAFEB9F1000F40F09280B8F1000F2A
:204E500002D00CF0BFFE02E050460BF09DFB002876D03868406880474C49C1F8B0510D6073
:204E700081467DE00DF08CFB83464FF0805000F5EE77D0F8DC01E38A86690093E0680190DB
:204E9000208B0290A0780390207D04900121059122782846022A08BF081CE1786268A368E4
:204EB000B047814658460DF07FFEB9F1000F57D1B8F1000F02D00CF085FE02E050460BF0AF
:204ED00063FB00283CD03868006A80475FEA000946D1E078A168E28A236907F0C7FDBFE73C
:204EF0000DF04EFB83464FF0805000F5EE76D0F8DC01E38AC7680093E0680190208B029041
:204F1000A0780390207D2946049001200590257805B9014608466268A368E178B84781469C
:204F300058460DF041FEB9F1000F19D1B8F1000F02D00CF047FE02E050460BF025FB08B9C5
:204F500014201AE03068406980475FEA000907D1306802692169E078904781E74FF0FF3946
:204F7000B8F1010F05D002200BF08CFA06200BF089FA03480DF018FB484607B0BDE8F08F88
:204F9000241A00205C1A0020490F010050450240582E00202DE9F04385B011F8017B0446EA
:204FB000082F04F1FD0004F1FC0804F1760504F5A076844A844BDFF8149213D0092F21D01A
:204FD0000F2F2FD0112F01BF287801286878102840F0D5800A78327648787076012184F8B0
:204FF0003D11EBE00025521C4E5D5F5D3E434E55575D3E4046556D1C082DF5DB204608F0B1
:205010001BFD74E00024571C0D5D1E5D35430D553A5D15400555641C082CF5DB022088F852
:205030000000CBE098F80100820704D410F0110F57D01A2266E008784A7800EB02203080FB
:20505000CA78887800EB022070804A79087900EB0220B080CA79887900EB0220F080087A3D
:2050700030724A7A887A02EB00227281C87A0A7B00EB0220B0818A7B487B00EB0220F0816B
:205090000A7CC87B00EB022030828A7C487C00EB022070820A7DC87C00EB0220B082487DE0
:2050B000897D00EB0120F082494801788A0658BF1A2212D504F5A670049071890391307AAD
:2050D000029021890191F0880090B38872883188204608F019FAE0B11E2298F801004107E1
:2050F00010D40F2088F8150020460DF059FD002864D199F8000005B0BDE8F0434FF48041C0
:2051100005F03CBC204605B0BDE8F0430F210DF043BD7088A882B188E9820221F088288366
:20513000297400206882A18EA88AC91DE981618EB0EB510F02BFE88AA18E884202BF288B7D
:20515000E18EB0EB111F18D02878012804BF68780F2805D0687918B10F21A972FE2127E08A
:20517000FC2120460DF014FDF0880090B38872883188A0790DF008FD20E0102118E0491EED
:2051900020460DF0FDFC032F18D1A878042818BF0D2813D16E78142E18BF0E2E0ED12F788B
:2051B00020460DF0E9FC012F06BFAE72FD213146204605B0BDE8F0430DF0EABC05B0BDE8FD
:2051D000F08300BFEC4D0020182E00206E4F0020144E002010B50B7884074CBF43F0020359
:2051F00003F0FD0304064CBF43F0800303F07F0304074CBF43F0080303F0F70384064CBF96
:2052100043F0200303F0DF0310F0AA0F0B7003D0107840F00C0003E018B9107800F0F30069
:20523000107010BD2DE9F8430D4600272878022814461E4667D1696808784978DDF82080FF
:2052500000EB012080B25FEA08021CBFB0F5285F0B205BD14FF42851401A08D0401E21D012
:20527000401E2FD0401E25D0401E31D04BE0DDF82490E8680DF0C2F980B2A0EB08024A45FD
:20529000BCBFA0EB08001FFA80F909EB0800162806DAA6F800904A46E86800EB08010DE055
:2052B0000D2732E0E8680088022131802070000A60702AE0062030800622E96820460CF0C7
:2052D000BDFC22E001203080E9680A7822701CE0E868B0B1082131800288227003881B0A7A
:2052F00063704188A1704288120AE270818821718288120A6271C188A171C088000AE07127
:2053100003E0308001E0378001273846BDE8F2832DE9F0470F468146387800240228904655
:205330001D466DD17868089E01784078DFF8D8A001EB002189B24FF42852891A06D0491ED1
:2053500029D0491E4ED0491E39D059E0F8680DF055F980B2B04204D3A919162903DB0D2460
:205370004FE007244DE0FB682A46414698190CF065FCAD19F868ADB2C5F116020021401961
:205390000DF03AF9DAF8000000281CBF0268002A37D0002123E08EBB022DE0D198F8000080
:2053B00098F80110FA6800EB01201080DAF8000000281CBF0268002A23D001210FE0EEB92A
:2053D000062DCCD1F868062241460CF037FCDAF8000000281CBF0268002A12D003214846B2
:2053F00090470EE056B9012DB9D198F80000002813BF0128F9680870802402E00B2400E0F0
:2054100001242046BDE8F087402E00207CB5894D144602460026A2F58062182A1AD8DFE804
:2054300012F0FE00F800F100E900E200DC00D500D0001900C500BE00B700AE00A30019006A
:20545000190080006F00680054004C00420039002C0024002D2880F28580022940F0828038
:2054700021880BF077F80646E1E0012940F0DE80002C00F0DB801135A6E0102940F0D68042
:20549000002C00F0D38028465030102221460CF0D5FBCCE0012940F0C980002C00F0C68089
:2054B00029468D1D90E0262940F0C080002C00F0BD8005F160002622E8E7012940F0B6803E
:2054D000002C00F0B3806D1D7EE0602900D13CB9012940F0AB80002C00F0A8800D3573E0D8
:2054F00005F18600214660220CF0A8FB012068739DE0012940F09A8020780DF039FB96E06C
:20551000012940F093802078022800F38F800C3528702078022814BF301C01200DF024FB53
:2055300085E0072940F08280611C684606220CF05BFA20786946324605F004FD04460A2CBB
:2055500010DA0DF00DFB38B9204603F019F80BF0A7FD09F067F96AE02A46012002F12C05FA
:20557000285564E0022662E001295FD1A87B21780028A9735BD12078012858D1E9E7012986
:2055900054D12478072C51DB102C4FDC0B3537E001294BD124780A2C48DA093530E001296B
:2055B00044D12478022C41DA083529E000293DD10DF0D6FA10B90CF0D6FBC8E701240F35E9
:2055D0001EE0012932D10A35247819E001292DD12478022C2ADAED1D12E0102926D12B4629
:2055F00003F1400051E7012920D12478022C1DDA2D1D05E0012919D12478042C16DCED1C49
:205610002C7014E0012911D12478022C0EDAAD1CF6E702290AD120881435288007E00129D6
:2056300004D12478022CD8BF6D1CE9DD182630467CBDC046A81100202DE9FE4F05467B4898
:20565000002400680094C00905D37948007810B920200AF0CDFF012D40F0E280DFF8009248
:20567000D9F8DC00012840F0D8800220C9F8DC000CF030FA01200AF0BBFF5FEA000805D0DC
:205690000120C9F8DC000CF031FACBE00CF090FFA34602906748684DC0F800B0A86A01681D
:2056B00001208847012804D1584608F031FA012000906248624FC0F800B0386811200CF0EA
:2056D000CBFD00B1012410200CF0C6FD08B144F002040F200CF0C0FD08B144F004040B2032
:2056F0000CF0BAFD20B12868564E016B308888470A200CF0B1FD20B12868534E016B3088F5
:2057100088475248012606602868816944F0200088474F4806600CF099FD00F001010191D3
:20573000400814D2286A81684A4888478246BAF1040FF7D0BAF1010F04D1286A42684548A9
:20575000032190474449086820F003000860584600F088F82B683868986B804701980128F9
:205770000CD0BAF1010F04D1286A42683948314690473949086840F0030008602F48066038
:2057900028684169204688470B200CF065FD20B128682C4BC16A188888470A200CF05CFD10
:2057B00020B12868284BC16A18888847274806600322C9F8DC20264BC3F800B02868416B9C
:2057D000204688470128F9D1386804200AF010FF0446184806603868144800688009FBD3F9
:2057F0000098012802D1304608F092F90CF01CFD08200AF0FDFE07460298C9F8DC600DF0F9
:20581000ABF91648008807F0F1FE0CF06FF957EA040018BF4FF0FF3804E06FF0040801E0E2
:205830006FF001084046BDE8FE8FC04614100940881600200C400940B80100100002224342
:205850002C200940043D0100003D010028200860800104430040034024220840E040010079
:20587000A01500202DE9F84FDFF804B20746ABF13500DFF8F0810068800880F0E280754874
:205890000068006880477E490831D1F8009000254FEA29715FEA995201F101010AD2C0F15B
:2058B0003E0210F10A0F4FEAE202D8BF08229142B8BF111C684BD3F87C21C2F30462162AB3
:2058D000A8BF203A1B68C3F30443162BA8BF203B9A465218162A05DA12F10A0FB8BF6FF019
:2058F000090200E015225D4B5D4E02F01F0141F4F8511980316811F0030F18BF0125C90880
:2059100028BF45F002050FB145F00405434693F90710411A052904DA9979A94208BF9988DE
:205930006FD0DFF844E10F28A0F10F0829DB08EB0011A1F1F0084FEA28210091072984BF25
:2059500007210091062988BF06215EF821600424774604EB81043C594FEA950CA41BEE088D
:2059700004F0FF0124BFC4F3072631446F08AE0824BFC4F3074631446E0828BF01EB1461A0
:2059900004E000214FEA950C6F080091009C5EF824E05FEA5C060EF0FF0424BFCEF307269D
:2059B00034447E0824BFCEF3074634446E0828BF04EB1E64009E89B2A8EB062671438031A5
:2059D00004EB1124AAEB02010029D8BF0121342209F0FF074A4391B24FF6FF727943B1FBD6
:2059F000F4F18A4238BF111C802889B2998005DA10F1800FB8BF6FF07F0000E07F20D8713A
:205A10009D711A4800681F2918604FF0000008D340F2FF128A4206D24908401C8A42FBD396
:205A300001E01F219980134F0F39090940EAC10047EA0001CBF8FB1F0026CBF8FF6FBDE86A
:205A5000F88F0D490D4F434608200F609B1D1870BDE8F88FEC0100103C1100506E620840BF
:205A700024220840202E00209C130050082009403500094000E7A48030100940FDFDA400FA
:205A9000AC3F00502DE9F04F044675488A46016894461F46BAF1000FADF13C0D4DD0BCF17C
:205AB000000F4AD09AF8002001209040014244D0BCF80000B0F5C15F32D1DCF81430DCF84B
:205AD00018206848DCF81C104FF0030E0DF128080B93DFF894B10C9200680D91C0F30369D3
:205AF00058F8046FCEB10021351F05200B4655F8042FB2F1FF3F10D0934506D0401E01F12A
:205B1000040103F10103F2D107E0052B05DA705820F4702040EA09407050BEF1010EDFD1B2
:205B3000C4F804A0C4F808C00CF02AFD4F4D8046287820B140460DF037F800208DE002F04A
:205B5000E7FE4B49086840F00200086007A80CF083FA002605F1D00007AA464909960AF0C5
:205B700025F8454905F5827007AA0AF01FF807A80CF02AFAFF2105F1340007AB3F4A0891CF
:205B9000192109F021FF3E4A05F150001A2107AB09F01AFF3B49324605F18800134608F00A
:205BB000EDFF3949324605F1AC00134608F0E6FF364A05F12000042133460BF0E5F90E20DC
:205BD00005F066F905F174000CF0F8F805F16C000CF0F4F82E74072085F898012E77AE612E
:205BF0006E770523AE602B49EB602A786961501C2870274B1E7040460CF0D6FFB1464FB9F5
:205C10002548B0E88C106946A1E88C100DC86F4681E80D0038682060398A61820120607444
:205C30007B6813B940F6C4130646E3601B48A06126746061F86800B1A061B86800B16061A6
:205C50005822494604F1200007F00FFA04F1380049460BF053F820466C600FB0BDE8F08FFF
:205C7000D4210840541300500200F844A0230020002009402D1B0100B1A500009D0F00004B
:205C900095DD000075140100C518010059EE0000522E00207DA600005040010063BE00005E
:205CB0002DE9F0430446834DA178A869ADF1140D891F00F0F780C91E00F0E280491E5FD0AA
:205CD000491E48D0C91E3CD0481E40F0EE80287A697AB8B96878002831D0A0880CF038FFE4
:205CF000071C00F0E280A07A40080FD3787968B1E168890A0AD2B91D01AA05F023F90A2855
:205D100004D10321A0880CF01FFFCEE0287B022802D1A07A0009F4D3A088797904F10802E7
:205D300001F05EFBA869002800F0BF804368002B00F0BB8000210A46A0889847B5E005216D
:205D5000E0E7002800F0B1804368002B00F0AD8062780221F0E70CF0BFF9002800F0A5806B
:205D7000A86950B1076847B1206900906189227B637BE01C3C46A04797E060890121C2E78C
:205D900067784FF00008002F6BD1A179490868D3EF69002F65D101A841460E220CF02CFC7B
:205DB000A0880CF0D5FE071C7FD0606940B97879B91D06228DF80A0001A80BF03FFF1EE04A
:205DD0006669307C062301A906F111098DF80A0006F1110010F8012B5B1E01F8012BF9D121
:205DF00007F10C00B91D06220BF028FFB81D494606220BF023FF307C40F002007871A079E6
:205E1000C00839BF387900F0FD00387940F002003871A079000939BF387900F0DF0038793D
:205E300040F020003871A1799DF81120C1F3800010438DF81100080905D39DF8110040F09D
:205E500008008DF8110001A8214600F027FB28B92878022104F092FD404627E0A8694FF06E
:205E7000150810B3436803B3A088627801219847B8F1000F19D0A8694368032142465BE783
:205E9000E078211D002205F05DF80A280DDA410001EB800004F10C0225300421C0B203F048
:205EB0001FFB02E0A08808F0E1FE012005B0BDE8F083C046A81100202DE9F04F05468048A2
:205ED000066800680F461C469246C4F399018900ADF12C0D0A010021803207F0C6F8DFF832
:205EF000C891A9F1880002466E48016830469047A3088046610801979F1C21F00101F81912
:205F1000009506EB80000390091DCDF808A07818434506EB800206EB870B3844049206EB34
:205F300080000690C4F39C004FEA800000F1080007EB400000EB070206EB82020A9224F0EB
:205F5000030202F1080200EB020506EB85053A44059506EB82050A4407953A4406EB820255
:205F7000089206EB80020992084406EB800A384406EB800518BF6FF0010040F08F8009F140
:205F90006800024641463046904700233CB10199264611F8010B761E40EA0303F9D1002B89
:205FB00008BF01207AD000263CB10299234611F8010B5B1E40EA0606F9D1002E08BF0220E3
:205FD0006CD001995846C84703980299C847009881680498C8473548049A594681462846CE
:205FF000C847012803D14FEA88042E590EB1032054E0BE0028460021324607F036F803999D
:20601000049A2846C847012801D12F590FB1042044E0274F274C069859463A46A04707989E
:2060300003993A46A0470699089827460A46B84709980899069AB8470A9806991E4C22465E
:20605000B84728460021282207F00FF81B4809990A9A81462846C8472034284622460146FC
:20607000C847079950460A46B84705980021324606F0FBFF5FFA88F45046002C0CBF0122D1
:206090005FFA88F200216B5C445CA34218BF052004D1491C521EC9B2F5D100200BB0BDE849
:2060B000F08FC0468C4F0020B9DB0010C9DE0010FC200020F9E00010F83D0100C9E60010DB
:2060D000884F00202DE9FE4F0E468246307AC10693461F464FF000090CD558460CF030FD9B
:2060F000030000F0E8800A223146504698475FEA00094DD130780C9D0D9CDDF838800228FC
:206110001AD170680178407801EB002189B24FF42052891A012910D9891E3AD0491E14D0CC
:20613000FD397AD0491E00F08180491E6DD0491E73D0491E00F09580ABE0002C2AD1F068B3
:20615000017829800278416887E0002C22D101202880F1680A783A7000217089401C80B26E
:206170000CF0EAFC298860B10278921C51182980418979704289120ABA7041680278F81C36
:206190006CE0091D298004220021781C0CF034FA93E0002C66D1F0680688042129803E7097
:2061B000320A7A700DF1020130460CF0C5FC040021D0D4F80C80BDF802204FF6FF766B46E6
:2061D00031460CF0B5FC40B9237862683C4802210CF0AAFC08B9ADF8006098F80000022864
:2061F0000BD1D8F804100222381D0BF027FD2888801C288001E0ADF80060BDF80000B87080
:20621000BDF80010090AF97057E0002C2AD1F068016850460BF0D0FE02E01CBBF068008816
:20623000022129803870000A787046E0F0680CF0E5F980B2A042B8BF4FF007093DDB8442D8
:2062500008BF002205D008EB04028242B4BF4246021B2A8092B2F068011938460BF0EEFCD8
:206270002BE014B14FF00B0927E0F0680721298002783A7043787B704188B9704288120A19
:20629000FA7001793971C2887A71C088000AB87113E058460CF044FC5FEA00090BD00F980F
:2062B0000290CDF8048000942B463A4631465046C847814601E04FF00E094846BDE8FE8F94
:2062D000843E01002DE9F04F0746880FADF1140DC0F0CC80674C201D006841688E68CD68CB
:2062F000486800B18047DFF89081002E08BF002D0CD0414608680028FCD00020086006B156
:20631000B04705B1A8475D480AF08AFC5C480BF09BFE5C4940F60A0CA1F800C00020488042
:206330000A7B60F303020A7348604A7B4FF0010969F303024A73BB687D7C58801A888346C0
:20635000A2F60202CAB141F21E06921B15D041F6E676921B012A20D85A7E012D60F38202ED
:206370005A7606D01A8B22F47C7242F434721A8313E01A8B60F30912F9E75A7C012D60F308
:2063900082025A7405D01A8A22F47C7242F4347202E01A8A60F309121A82D7F808A078744F
:2063B0006246554600E035466E6816B133889A42F9D169606B7B60F303036B73E66E3EB108
:2063D000F3681B88D61F9E421AD0921F9A4217D03E8CBEB1786207F12002508097F82C3094
:2063F00060F3030387F82C3097F82D3069F3030387F82D304A604A7B60F303024A7301E0CA
:20641000C4F808B02048036882680192C168406B0093102220F0784040F0805003901B4851
:206430000291694605F0B4FAD8F800000028FBD017486061607FC8F800B070B91548006847
:20645000006801464846884701280CD0687B69F303006873104F676105E009F0F5F90028E3
:20647000FBD00CF09DF850460BF0EEFD05B0BDE8F08FC046A02300201C10044001000706F4
:2064900001010E04B42D00204C1300501800002141450000E001001075E100002DE9F04FCD
:2064B000734CDFF8C8A1E56988468146ADF1140D002D4CD1B9F1000F5ED0B8F1000F5BD017
:2064D0000AF0E2FC06460A2E267422DAD8F81470002F3DD0700010216A4600EB8600233015
:2064F000C0B20BF059F990B950460778FF21102268460BF0BDFA50B93FB999F80600494696
:2065100000F001000CF008FB01E00120A074E5691DE004F1E60B0A2700265846FF210622F7
:206530000BF0A6FA88B97F1E0BF10E0B06F10106F3D1607C002804BF0A2020741CD094F8FE
:206550003660304602F01CF8E569267400E0267C0A2E11DA002D4DD0AA68002A3ED12A6964
:20657000002A2FD16A690ABBEA683AB9A07B08B10AF024F80BF001F9012074E0700010210F
:2065900000EB86002430C0B202F0AAFFE769217CFA68480000EB8100103225300421C0B2E8
:2065B00002F09EFFE1690020C8605BE07000102100EB86002330C0B202F092FFE1690020AB
:2065D00048614FE070001C2100EB86002230C0B202F086FFE1690020086143E070001C21D7
:2065F00000EB86002130C0B202F07AFFE1690020886037E070000E214A4600EB8600203093
:20661000C0B202F06DFF207C08F06AFC6846FF2110220BF0F1FF207C10216A467030C0B226
:2066300002F05EFF207C0101A1EB400109190E20E63119F8012B401E01F8012BF9D1D8F8CF
:2066500014206AB15046007840B9107C02F11101002300F001000CF05BFA01E00120A074C8
:20667000C4F81C80002005B0BDE8F08F5A4F0020A81100202DE9F84F8B460AAF6D4E9BF8E2
:206690000050DBF80400BC889246984631462A463F8800900AF0D0FD4FF0000940B9022F52
:2066B00000F3BC80C7F10200A04200F3AD808DE000982A46B11C0AF0BFFD40B9022F00F3CA
:2066D000AD80C7F10200A04200F39E807EE00098311D2A460AF0B0FD40B9022F80F29E80BB
:2066F000C7F10100A04200F38F806FE0009806F114012A460AF0A0FD38B9022F80F28E8051
:20671000C7F10100A0427FDC60E0009806F124012A460AF091FD30B9022F7FDCC7F1020058
:20673000A04271DC52E0009806F134012A460AF083FD30B9022F71DCC7F10200A04263DCF8
:2067500044E0009806F144012A460AF075FD30B9042F63DCC7F10400A04255DC36E000987D
:2067700006F154012A460AF067FD30B9042F55DCC7F10400A04247DC28E0009806F16401E5
:206790002A460AF059FD30B9022F47DCC7F10400A04239DC1AE0009806F174012A460AF0D1
