:2000000000400020D9D6000001C9011001C9011001C9011001C9011001C9011001C90110AF
:1C00200001C9011001C9011001C9011001C9011001C9011001C901103FC9011089
:20003C002DE9F04FD14C04F118012046ADF1340D0CF0B2FF002604F1A40A4FF6FF706670DF
:20005C000121208250460EF0A7F8CE4802210EF0A3F8D04804210EF09FF804F14408042084
:20007C0010223146A07040460BF0E5F904F154091022484631460BF0DEF904F11C073E603B
:20009C0004F10A052E7007206072DFF804B3E67102222672594610200346CDF8008005F0B6
:2000BC008FFD102003225946CDF80090034605F087FD0422102059460097134605F080FD36
:2000DC004FF0080A4FF003094FF0010B05F12A00079005F17900089005F11E00099005F1BC
:2000FC005A000A9024350B9517E06078A28FE18FB4F84050B4F8423006280ED1ADF80A2051
:20011C00ADF80C10ADF80E509E48ADF8103010F04AFA584602A90AF043FDA069B34A3146F0
:20013C004FF0FF3300F028FA071CF6D0059606A80DF11A0105AA0EF071FB002840F0BC8127
:20015C00BDF818102078102940F0B2819DF81A10884240F0AD81059D29884FF6FF728A42B6
:20017C0000F09B812B78A23B00F07E812E3B40F09F81A978B046002900F03A81891E00F0AD
:20019C000B81491E012940F2D580891E00F09980491E6ED0491E5BD0083900F05581891E0A
:2001BC0040F0588194F83A10A8880529ADF8080046D074488DF812B010F0F5F994F83A006C
:2001DC0001281ED004281CD003280DD002280BD00598C188ADF80A100189ADF80C1041890D
:2001FC00ADF80E10818927E0A18FE08FADF80A10B4F84020ADF80C00B4F84210ADF80E2023
:20021C001AE0A08FE9888842D8BF081CADF80A002989E08F8842D8BF081CADF80C006989AB
:20023C00B4F840008842D8BF081CADF80E00A989B4F84200884200DC0846ADF8100001E0D4
:20025C008DF81260A849102002AA05F0B9FC01E1504810F0A8F96B78002B40F0FB80E888D0
:20027C0060822889A0826889E08246480FF01CFFF0E0AA88B349102005F0A2FC07984146CB
:20029C0006220BF0D8F86682A682E682A87920733C4810F088F93F4810F085F9D8464FF6B6
:2002BC00FF70237920824BB9A879082814BF04200520607058460FF037FFCBE084F80190A9
:2002DC00C8E06B787BBB291D0A6807980260898881800623637068892082E8896082288AE2
:2002FC00A082688A94F83A10E082E8780129E07218BF02290BD1994910201F2205F060FC38
:20031C004FF47A7180B241431E480DF061FF68890423009090490193EA7810202D1D2B46B8
:20033C0005F04EFC99E06878312840F08A80E67004202AE06B78002B40F08380A878E18927
:20035C006278032814D0E078257921B9012814BF2671E67005E0054303D081480DF038FFE2
:20037C006278072AE4D106200FE0C046B0050020062A09D0E578002D08BF84F801906CD00E
:20039C00022002E0780600200720607065E0C046E9F700009C0600206B78002B51D1EB7828
:2003BC00617893B902291DD007291BD0062902D12079012816D1032914D069480FF074FEEC
:2003DC0080B958460FF0B0FE0CE00EF04BFC0246A07960490090089843460190102005F0D3
:2003FC00EFFB68706D78002D2BD133E0070000806B7833BB5B485649009002221020034637
:20041C0005F0DEFB58484A46514900901020034605F0D6FBED1C296809980160A98881808B
:20043C00207884F801B00EF01DFC02465B460A9D6079484900901020019505F0C1FBC0B251
:20045C0058B184F801A008E0AA8840491020052305F0B6FBB8F1010F2AD1256A45B32968ED
:20047C0031B36078884723E06879132820D12889012808D1607B022805D13E4810F093F826
:20049C000EF0FEF914E035491020052205F098FB81B238480DF09CFE0AE06888C00B07D331
:2004BC00324804222A4900901346102005F088FB059808B110F01BF82579E07879082ED39B
:2004DC0055EA00032BD0204600787DB9E279217A8DF808200B9D8DF809102B680DF10A012A
:2004FC000B60AA888A8003E0051601108DF80890627A8DF81020A17A8DF811100EF0B2FB10
:20051C001149024602AB102005F05AFB38B1256A84F801A01DB1296809B150468847B80823
:20053C0003D3134930460AF03BFBF808FFF4F5AD607B401E3FF4D9AD401E7FF4EEAD0EF0D6
:20055C009FF9EAE565CF000059440110C11701109577000009450110717A0000FDFB0000FF
:20057C0054060020F405002004060020CC050020EA0500209C060020DFF800F0F99B011074
:20059C002DE9F04F0F46CD4C0168E16241688068ADF11C0DE060C548A1608047C448E16A0C
:2005BC000160A168DFF810A34160E168DFF804938160CE49002FA346C1606FD03D68E8785E
:2005DC008DF80C0028798DF80D0003A800F016FAA86808B1C6490160E86808B1C5490160DF
:2005FC00C54C287820706878BE686070A878B268A0703178A2607368E1702E696360EA69FA
:20061C0026627968E2620868E06068696062A8697B68A062286A9E68206395F8240084F890
:20063C0034001EB900200FF0CFF900E066617868C06818B900200FF0C7F900E0A06178688C
:20065C00006918B900200FF0BFF900E0E0617868406818B900200FF0B7F900E02061286932
:20067C002062F86881680E6806B9D24ED0494FF001084E60C66881F8018036B900200FF0F9
:20069C00A3F94D462E68F86801E04D462E6000685446FB68A0615868E06107E000200FF0AA
:2006BC0093F94D462E684FF001085446361DC7493668621C04F114035020B04710B1286844
:2006DC0080688047DBF808008047C24E002781463B46BF48777069462061042233703846C9
:2006FC000DF0B2FC0098B0F5801F0CD020B90EF019FC06F041FF08E00CF060FE0FF016FC06
:20071C000420708001E00EF00DFC3846BA4EA0602B68B760986980477060AF4880F800800A
:20073C003946418014200FF00FFDFF211422A0620FF041FFE01CFF2102220FF03CFF1420D9
:20075C000FF002FDA54F38603868002114220FF032FF002000F06AF940460DF069FBA0488A
:20077C000188FF2906D1022101807822001D00210FF021FF032000F045F9042000F046F996
:20079C00052000F047F9062000F048F907200CF077F8944E0820307006F1240000F042F90F
:2007BC000CF058FA06F1360A05200A2152460FF00DF838B10020C0F10901401C0AF8011B6E
:2007DC000A28F8DB3078102108F0C6F92B68864909200DF10E025E68087001AB1020002194
:2007FC00B047A06AE1690A260A309DF80E20761E00F8012BF9D1891EE161DBF80C1048467D
:20081C00884704F120002B68626A059040461E69DFF8D88104F120034146B04710B12868C0
:20083C0080688047B8460EF075FC5FEA000903D009F01AF94FF0FF39002643E0029821696B
:20085C0010F8062CA0F10C07032A03D1002939D0884737E0A16A9DF810C00A223046491E0C
:20087C0011F8013F9C4506D0521E00F10100F7D14FF0FF0A01E05FFA80FA2868BAF1FF0FED
:20089C0000F108001CD038790DF04AFDB979012904D0022904BF0299887001E002990870BD
:2008BC00029950460EF0C8FE0CE0C04641490010F844002064220020B81F00205415002019
:2008DC00006880472868C36904A902AA0DF10F0098470028B2D0D8F800007700C35B6BB999
:2008FC00761CF6B20A2EF8DB2BE0C046540C010039EE0000CDFB0000581E00200A2E20DA6E
:20091C00DBF808008047D8F80010002231F807A0CA53DBF80C108847354850F826202670CB
:20093C005146304690470646FF202070DBF808008047D8F800107A5A16437E52DBF80C104E
:20095C0088470EF0E7FB0746B9451AD007B9294FE069B84238BF071CDBF808008047814699
:20097C002868016A206A8847626A28681F49059B521C6262C6683846B047DBF80C10484651
:20099C008847A768296860691431AFB9D8F800000A270026835B33B10969606988472968D2
:2009BC00D8F8000014317F1E06F10206F2D107E0C421002007F800000969884729681431A5
:2009DC0009684FF0FF3088472DE7C04615F3000045FC0000502200204C220020482C002036
:2009FC007C180020481000205A2C002075E300008C1C01008EC2F528E42B0020DFF800F0A5
:200A1C00B9920110DFF800F0C9790110DFF800F059880110DFF800F0D9750110DFF800F09E
:200A3C007D810110DFF800F0518B01102DE9F84FDFF8BC13DFF8BC23DFF8BC530870082197
:200A5C00002010600D23DFF8B40340F23732017043808280DFF8A8030560AC7EDFF8A403CC
:200A7C000470FF2CE97E417008BFFF292A7F82706B7FC370AE7F0671ED7F457115D1FF2A27
:200A9C0008BFFF2B11D1FF2E08BFFF2D0DD1DFF878130A7802704B7843708A788270CB7866
:200ABC00C3700A79027149794171DFF860130278DFF85C83DFF85C93DFF85C730A70FF25F9
:200ADC0043784B7082788A70C378CB7002790A714079487188F8005088F8015088F802503F
:200AFC0088F8035088F8045088F805500020CB490880D9F83440CA49607808702278C9494E
:200B1C003A70A0780870A2681079C74A411E1170E078C649C64A0870E068106008B90EF095
:200B3C0053FF2069C34E306008B90EF04DFF3068DFF804A301688847326852F8041F504627
:200B5C008847BE48BE49CAF82000CAF824106069BC49086008B90EF037FFA069BA49086026
:200B7C0008B90EF031FFE069B849086008B90EF02BFFDFF8DCB2B74C9BF804000FF0E4FAF3
:200B9C000028206075D09BF80500B34E0FF0DCFA002830606DD09BF80600DFF8C0A20FF018
:200BBC00D3FA0028CAF8000063D09BF807000FF0CBFAAB49002808605BD039789BF80000DE
:200BDC00891C484380B20FF0BFFAA649002888604FD03878002862D0BBF80210484380B235
:200BFC000FF0B2FAA04A0028506042D038780FF0ABFA9E49002808603BD0387840000FF095
:200C1C00A3FA9B490028086033D03878182148430FF09AFA974A106058B3387840010FF051
:200C3C0093FA9549086020B3387800010FF08CFA92490860E8B1387800010FF085FA9049D8
:200C5C000860B0B13878302148430FF07DFA8D4A106070B18C483978007848430FF074FA50
:200C7C008A4A106028B138780FF06EFA8849086018B9BDE8F14F06F075BE4FF0000B09E0D9
:200C9C000FF02AFA0021418081600180022303710BF1010B39785FFA8BF08842F0D3226894
:200CBC00694F0120107121680D732068457321688D732068C57321680D74002120684574C0
:200CDC0000202268D172A0222168487103212068C280017207202268507200212068817297
:200CFC002821206801224182C2760020216848770022206880F85E2001212268117701208C
:200D1C00216881F85D0001223068027131680D733068457331688D733068C57331680D743E
:200D3C0000213068457400203268D172002231684871306882724FF420703168C8800881EB
:200D5C008A7401213368D974DAF800201573DAF800104D73DAF800209573DAF80010CD7337
:200D7C00DAF8002015740022DAF800104D740121DAF80030DA720023DAF800201171DAF83E
:200D9C0000104B71DAF80010C88008818B720520DAF800209374DAF800103E4AC87410687F
:200DBC0080473968054608688047396851F8042F00209047D9F80C101C4B0A881878364924
:200DDC0002430A802846354A136898470C21344800F068F8404600F069F800F06BF8BDE819
:200DFC00F44F034800784FF4005107F0B5BE00BF6E4F0020044F0020B63F0050604E0020B1
:200E1C00084F00202C4E0020E81200503C4E0020344E0020841F01007B4F00200C4F002006
:200E3C006D4F00206B4F0020724F00206C4F0020F04E0020F44E00207C4B00206501010016
:200E5C0085010100F84E0020FC4E00202C2C002098210020104F0020144F0020184F002045
:200E7C001C4F0020F02B0020684E0020004F0020302C0020804E0020844E0020884E0020F9
:200E9C008C4E0020904E00204B220020342C0020382C00205C150020544F002060150020C4
:200EBC00F84D0020DFF800F0E5710110DFF800F01D6E0110DFF800F04D710110F8B5444C4D
:200EDC00A2690D781779092F7ADA87B9E769002F38D0E06880688047E06840688047E0688D
:200EFC0000688047FF2D12D0F02D10D015E01379E068012B13D05179C91C994222DD806853
:200F1C008047E06840688047E06800688047A06901794A1C027100680D54A26912E08068B6
:200F3C008047E06840688047E06800688047A069017900684554A2691079411C1171116830
:200F5C00405C507150791379C11C99423AD11668801CC1B230460EF07EFA854230D1307817
:200F7C00E168F0280FD0E169FF2829D129B1A06880680146B0788847E16960698268086835
:200F9C00097990471CE088688047E06840688047A168A0690A680068E16990470DF0E6FE84
:200FBC00E06908B9206A58B1E06800688047E16921B1606982680868097990470020607079
:200FDC000EF03CFF034801210EF056FFF8BDC046D01700201C1E0020EFF3108072B670478F
:040FFC00002070471A
:20100000B41200001810000021CD0000FDB301106DC00110FDAE011099B5011000000000DA
:08102000000000002D0000009B
:20102800B01200003C100000B1C00110A9BF011067C0011069B80110000000000000000035
:041048003000000074
:20104C00B012000060100000BDC00110CDB30110D9BD01106DB3011000000000000000005B
:04106C00310000004F
:2010700000000000DC21002004000000000000000000000020000000E8C90110300000002D
:2010900028100000E42100200400000000000000000000000C000000D8CA01101800000008
:2010B0004C100000EC21002004000000000000000000000024000000F0CA0110180000008C
:2010D00000000000F42100200400000000000000000000001000000018CA01102C00000098
:2010F0000010000004220020040000000000000000000000200000006CCA011024000000FB
:20111000FFFFFFFF0C2200200400000000000000000000002800000090CA011024000000BA
:20113000FFFFFFFF142200200400000000000000000000001400000008CB01101800000039
:20115000FFFFFFFF1C22002004000000000000000000000058000000B4C901103400000007
:20117000FFFFFFFF242200200400000000000000000000001000000020CB011018000000D5
:20119000FFFFFFFF2C2200200400000000000000000000001C000000B4CA01102400000002
:2011B000FFFFFFFF342200200400000000000000000000003800000044CA0110280000002A
:2011D000FFFFFFFF3C2200200400000000000000000000005400000078C901103C0000009F
:0811F00001000000701F010066
:0411F80001000000F2
:0411FC0000000E00E1
:0412000000000F00DB
:0412040032000000B4
:0412080001000000E1
:04120C00E0200020BE
:0412100000020000D8
:0412140000000000D6
:0412180001C90110F7
:04121C0000000000CE
:0412200000000000CA
:0412240008000000BE
:0412280000002200A0
:04122C00901E0020F0
:0412300000000000BA
:0412340000000000B6
:0412380008000000AA
:04123C00502000201E
:0412400000000000AA
:0412440000000000A6
:04124800080000009A
:04124C00000000009E
:04125000000000009A
:041254000000000096
:041258000000000092
:04125C00010000008D
:04126000581F0020F3
:041264000600000080
:041268000100000081
:04126C00CC1C002076
:04127000000000007A
:041274000000000076
:041278000002000070
:04127C00000000006E
:02128000290043
:02128200010069
:02128400250043
:02128600300036
:02128800310033
:02128A002D0035
:02128C0001005F
:01128E00015E
:0812900003000000F01E010044
:0812980000000000000000004E
:0412A0000000010049
:0412A4000000030043
:0412A80013C401105A
:0412AC00B5FD00008C
:0412B000B812000070
:0412B400B81200006C
:0412B8000000000032
:0412BC00A421002049
:0412C000E3FF000048
:0412C4002000000006
:0412C800581E0100AB
:0412CC00041D0100FC
:0412D00029C101101F
:0412D400EF05010021
:0412D800F10501001B
:0412DC00A1C7011095
:0412E000A3C701108F
:0412E4000000000006
:0412E800411A0100A6
:0412EC00A81A01003B
:0412F000C01A01001F
:0412F400901A01004B
:0212F8000200F2
:0212FA000900E9
:0212FC000100EF
:0212FE000000EE
:0113000001EB
:0413040071FF000075
:0413080055E40000A8
:04130C00A5F3000045
:04131000D1E7000021
:041314008DE4000064
:04131800B1D400004C
:04131C0051A60000D6
:041320004B0201007B
:04132400F9C8000004
:0413280015C70110D4
:04132C0025C70110C0
:201330002DE9F04FD74C211D2046ADF1840D0BF039FE04F12005002128460FF07FFCD24EDD
:2013500010201F220623A560314604F03FFC5020ADF818000025ADF816504FF47A798DF820
:201370002B500221ADF81C500DF11602ADF81E904FF44870ADF81A0040F2063002F0A6F893
:201390004FF44270142104F12C0202F09FF840F20730162104F1550202F098F84FF4447002
:2013B00001210DF12B0202F091F840F21130022106AA02F08BF840F2123002210DF11A02E9
:2013D00002F084F840F21330022107AA02F07EF84FF4457002210DF11E0202F077F804F14F
:2013F00040002A461523A9490090102004F0EEFB314610200622A02304F0E8FB3146102056
:201410000722A02304F0E2FB314610200822A02304F0DCFB314610200922A02304F0D6FB46
:201430000BAC01208DF82E5029468DF82C0003468DF82D004FF480628DF83010944D009447
:201450001F4610208DF82F70294604F0BFFB0DF12D002946009040F202423B46102004F061
:20147000B5FB0DF12E00294640F203423B460090102004F0ABFB0DF12F00294640F20642A9
:201490003B460090102004F0A1FB0CA829464FF483623B460090102004F098FB7D49102062
:2014B0004FF0FF3204F092FB10207B4B00907B497B4A0193132304F089FB7A494FF0FF32A7
:2014D000102004F083FB784D287880000FF051F80146764804464161002900F08B804FF6D3
:2014F000FF700CF047F8287880000FF042F80146A16100297ED04FF6FF700CF03BF8287896
:2015100080000FF036F80146E161002972D04FF6FF700CF02FF8287880000FF02AF80146BB
:201530002162002966D04FF6FF700CF023F8287880000FF01EF80146616200295AD04FF617
:20155000FF700CF017F8287880000FF012F80146A16200294ED04FF6FF700CF00BF82878F4
:2015700080000FF006F801462163002942D04FF6FF700BF0FFFF287880000EF0FAFF0146CD
:20159000A163002936D04FF6FF700BF0F3FF287880000EF0EEFF0146E16359B34FF6FF7011
:2015B0000BF0E8FF287880000EF0E3FF0146616401B34FF6FF700BF0DDFF287880000EF0D0
:2015D000D8FF0146E164A9B14FF6FF700BF0D2FF287880000EF0CDFF0146216551B14FF6C0
:2015F000FF700BF0C7FF324B04F15400352110220DF046FC287880000EF0BBFF04F15402FB
:2016100001462C480E92816011B34FF6FF700BF0B1FF287880000EF0ACFF01462548C160BD
:20163000B1B14FF6FF700BF0A5FF287880000EF0A0FF01461F48016151B14FF6FF700BF067
:2016500099FF1C481C4B0B21102214300DF018FC287880000EF08DFF164A01461432334852
:201670001F920029816058D04FF6FF700BF082FF287880000EF07DFF01462C480029C160A8
:201690004BD01BE0F008002099E6000061AF0000F5400000A9F20000D81E010091EE000037
:2016B000180F002075F50000694F002008020020A41701000C170020381E01004FF6FF705D
:2016D0000BF058FF287880000EF053FF01461748016111B34FF6FF700BF04CFF2878800052
:2016F0000EF047FF014611484161B1B14FF6FF700BF040FF287880000EF03BFF01460B4812
:20171000C16151B14FF6FF700BF034FF0748084B1521102220300DF0B3FB064D03496F7828
:20173000287820311A91EFB906E0C046BC11002040190100B0050020DA490C3129620DF065
:2017500097FA05F1440702460020009005F15406019705F11C030296C8490393AB78102020
:2017700004F034FACF4AC6491020183204F02EFACC4800780DF07CFAC2490246102004F003
:2017900025FAC84800780DF073FABF490246102004F01CFABD49102004F018FA07F0DCFE91
:2017B000BB49002005F056FDBA4900200CF074FA00200BF09DFDB84E06F1140528460EF0E9
:2017D0008DFADFF8D882D8F8000006F134074FF4FA712B463A46B9FBF0F080B24143491EEF
:2017F000AF4871600FF026FAE64B06F1080230607168DA600FF01AFA0021242208233846FA
:201810000FF010FA0025E04FA6F844507068F56407F1140AB06450460EF060FAD8F8000010
:2018300007F1340640F2DC5153463246B9FBF0F080B24143491ED54879600FF0FBF9D4493F
:2018500038602422082307F10800C860304629460FF0E8F9BD64CF4EA7F8445006F1140BFB
:20187000FD6458460EF03AFAD8F8000006F1340A4FF49671B9FBF0F080B24143491E716056
:20189000C54852465B460FF0D5F9C44F306029462422082306F10800786050460FF0C2F97B
:2018B000A6F844507168F5643068B1640FF0BEF9306871680EF08DFEB94E06F1140B58469C
:2018D0000EF00CFAD8F8000006F1340A42F22831B9FBF0F05B46524680B24143491EB1487F
:2018F00071600FF0A7F9294624220823306006F10800B86050460FF095F9A6F844507168B3
:20191000F5643068B1640FF091F9306871680EF060FEA54E06F1100A50460EF0DFF9D8F81B
:20193000000006F130076421B9FBF0F053463A4680B24143491E9D4871600FF07BF9DFF81A
:2019500070A2306029462422082306F10800CAF8040038460FF066F9A6F840507168B56434
:20197000306871640FF062F9306871680EF031FE9248904E0EF0B2F9D8F800008F4B06F1F0
:2019900034074946B9FBF0F03A4680B24143491E894871600FF04EF97A4930602422082390
:2019B00006F108000861294638460FF03BF9A6F844507168F5643068B1640FF037F93068B7
:2019D00071680EF006FEE44E06F1100738460EF085F9D8F80000EA4AFA21B9FBF0F03B46AE
:2019F00080B24143491EDD4871600FF023F9DFF870B33060E24806F1080124220823CBF8C1
:201A10000C1029460FF00EF97564A6F84050B564D44E06F1100738460EF060F9D8F8000030
:201A3000D84AB9FBF0F03B4647F2305980B209FB00F1491ECC4871600FF0FCF8CB4A306092
:201A5000D04806F1080108231160294624220FF0E9F87564A6F84050B5640BF041FFC44EC0
:201A700006F10C00CAF80800301D0EF0E3FC4FF0010886F808800BF033FF15E06FD80000A8
:201A900025F800005188011031810110C5AB001000000303DDAE0000C01900206C1F0100D6
:201AB000AB050100F0080020B24E06F10C00CAF80C00301D0EF0BEFC86F808800BF0D0FFA7
:201AD000AD4F304907F10800486107F118000EF05DF84FF4E130A94E38631721C6F8781110
:201AF0001F22C6F8D8211423C6F8543146F6C030C6F880014AF23141C6F8E01147F6F76206
:201B1000C6F8A42145F2E523C6F85C3149F22F70C6F87C014EF6DA01C6F8DC114DF20E522A
:201B3000C6F8C42147F29533C6F858311820C6F884012021C6F8E41148F2B562C6F8B0215B
:201B50001523C6F8603146F67270C6F88C014AF61D31C6F8EC1149F67C42C6F8D42145F651
:201B70009943C6F8683149F6C060C6F888014FF29511C6F8E8111C22C6F8B42148F2DE13E2
:201B90001EE0C046D0170020181A0020AF050100F8200020701A0020B30501000C2100203B
:201BB000C81A0020CFC60000D01B0020B7050100E01D0020201B0020B7D20000341B002046
:201BD000C6F864311920C6F890012121C6F8F0112422C6F814221623C6F86C3187F8198033
:201BF00087F82E5087F81880C7F81C8087F82D5047F25570C6F89801757009F16409C6F80B
:201C100038904BF2BA21C6F8F8112622C6F82C2227237362C6F838324AF2CF70C6F89401A4
:201C300046F20241C6F874112522C6F8202248F61F53C6F870311A20C6F89C014FF687110E
:201C5000C6F8F4114EF2F802C6F8402203F1EF00C6F8BC012221C6F8FC114BF2D233C6F8EB
:201C7000A0314BF65A21C6F804122320C6F808021B23C6F8A831B44AC6F80C221D21C6F82D
:201C9000C0114BF64273C6F8AC314CF22520C6F8100249F2FA41C6F8C8114CF69F23C6F8B0
:201CB000B8311E21C6F8CC11CA4AC6F83C224DF6477101F1AA00C6F8D011A3F1C101C6F8D7
:201CD00028024DF6B713C6F83432BB48B862C6F81C12BC4BBC48C6F80032DFF8E4A2C6F87A
:201CF0001802B64BBC497B620AF108000861B84BC6F83032B54FC6F824720BF063FA86F81A
:201D10007650A6F88050F06CB067338FA6F87430B76CF7670BF034FB86F884000AF048FF1A
:201D3000A6F88200BD483066C6F888000BF018FFC6F88C0009F0C8FAC6F8900008F0F2FE45
:201D50005F467378C6F89400012B1DD013BBBE4A114608461BE0C046241C0020BB050100DB
:201D700044160020781C0020BF050100042C0020B0200020C82000201C1E0020300C002062
:201D9000541C0020A81C0020BA4ABB49BB48F26231637063BC48BAA3058093E8030007F09E
:201DB0002DFB0BF059FBA6F8980040F6B830B378A6F8D600F089A6F814913BB9052805DAED
:201DD00086F802800EF07EF9B378F089012B04D1082802DDB5700EF07DF90220F8703D71F9
:201DF0007D71F8680068804704F1480604F1400504F10B070F9604F12C02109504F1340339
:201E1000119704F10D01139204F109061293BD481496E51D0D91E21C1892671C1595631D15
:201E300016971030B84EDFF8F8B2DFF8F892DFF8F882BE4A179306F1180135461991374608
:201E5000CAF80400E91C3B461B911646B91C1C91591C1D91511C1E91B11C2091A948406846
:201E700000214FF040424FF0FF33FEF78BFB071CF4D0002004900DF12A0104AA05A80CF069
:201E9000D3FC00286AD1BDF814C00126BCF1100F5FD19C489DF82A100078884259D1049D94
:201EB00028884FF6FF71814253D02B78913B29D01F3B4ED16878162818BF002205D1304683
:201ED0000DF006F9BB48324605608E4843699AB163B94FF6FD70BE49BE4A00900023102089
:201EF00003F074FE87494B69C2B22AB9854843F00203002643612CE02979083528460EF06C
:201F10008DFE26E06B780E3B02D09B1E1ED020E0A88842F2030181421BD1A9680D78C5B950
:201F3000491C0DF122000A68496802600DF1220541602878B5490DF1220200F0FD0028707C
:201F5000102003F043FE04E03812010008200AF0F9FC049810B10EB10EF0CFFAF80FFFF4EA
:201F70007DAF684880680EF055FE00287FF476AF6448856828460EF049FE854208BF00257D
:201F900002D085680CF0B0FA002DEAD05D4928884969401E00F08381C01E00F07C81001FA1
:201FB00000F06B81083800F04181103816D0203800F05C8176E1C0462BE00000D90E0000A1
:201FD0008C210020F8050100021D01001828010067320100233C0100F82000206868427809
:201FF00006788778C17841F60F0306EB0226001DF61A00F0F180B61E00F0A68045F6EF72A5
:20201000B61A40F048810B2F00F24581DFE807F0907E70665C52483E281E1208F63F1C4628
:20203000022940F0388100880D990880CDF80080206D86E0042940F02E8100680F9908600A
:20205000CDF80080E06C7CE00000803F042940F02281006810990860CDF80080606C70E0EA
:20207000022940F01881008811990880CDF80080E06B66E0DBF91E3F0C93C93EB81E0D40D2
:202090000000000000000000A01D0020042940F00281006812990860CDF80080A06B50E078
:2020B000042940F0F880006813990860CDF80080206B46E0022940F0EE8000881499088043
:2020D000CDF80080A06A3CE0022940F0E480008815990880CDF80080606A32E0012940F08D
:2020F000DA80007816990870CDF80080206A28E0012940F0D080007821460870CDF80080BA
:20211000E0691EE0F0080020BC110020022940F0C280008817990880CDF80080A06910E0C8
:20213000259B00009D820000355A00000C170020022940F0B080008818990880CDF800804D
:2021500060690E9A35236EE0002F35D07F1E27D07F1E1AD07F1E0DD07F1E40F09C80042979
:2021700040F099800068199908605248CDF80090C0692AE0012940F08E8000781B99087056
:202190004C48CDF8009040691FE0012940F0838000781C9908704748CDF80090006914E05B
:2021B000012978D100781D9908704248CDF80090C0680AE0282C002001296CD101783D482C
:2021D0000170CDF800903B4980681A9A15232AE069CB000085FB0000D7B17F1E0BD07F1E76
:2021F00059D1012957D100781E9908703248CDF800B0006915E002294DD10088209908804D
:202210002D48CDF800B0C0680BE0C04695B40010012940D1017828480170CDF800B02649D9
:2022300080681F9A0B2308F07BF934E0880832D322480768002F2ED07888397908373A4633
:202250000EF0E0FC0746162F03D0042F01D00CF03FFF1B484669F7B936F0020646611AD16F
:20227000184A19494FF6FD70012310E06A6840F20530012101F02AF90DE040F20E3008A947
:2022900004F09EFD0023BDF82020094807490090102003F09BFC68680CF026F902E0A878AF
:2022B00006F01EFD28460CF01FF95AE66DE8000040E20100BC1100200C170020282C00201F
:2022D000F008002085FB000069CB00002DE9F84FC04CA178FF2904BF00200DF07BFBA0780A
:2022F0000DF0E4FD044604F1680504F190062968086810B10021E1830CE0A87B002804BF78
:20231000A97E002906D13078002801BF207F0128608CE0832189E08B4118491C61812046C4
:202330000EF06CFC01281EBFAB480178012904D121890020491CE08361814FF6FF77A87E61
:2023500001280DD1AA8B618920890EF053FC38B1218960894A1C93B298421BD0A88B0FE043
:202370003078012816D17288618920890EF042FC80B1218960894A1C93B298420AD07088B1
:2023900092B2904206D03818608180B20EF02EFC3F18E78304F5967999F8040020B12089DE
:2023B0000021401CE183608104F12E07A87E012811D12189A88B4B1C9BB298420BD16081C8
:2023D0000EF014FC8046B988288C01FB0808204609F02CFB01E0B7F80480B4F81EC022686A
:2023F0007E4ED2F80CE00CF1010000FB08F340F6C41000FB03F18E44C2F80CE03668DFF871
:20241000E0E13678BEF80080764AB609032E11D1D67BF60748BF4FF000080BD408F10108F8
:202430001FFA88F6012E12BF668AB9F8066006F2DC5600E0668A5E434FF4C87AB6FBFAF62D
:20245000761C6661AEF80080A3614FF0180894F806A084F820C008FB0AFADFF88CC1DCF8FD
:2024700000E023680EF1080656F80AB0C3F810B094F806A008FB0AFACDF800A0D3F80CB02C
:20249000D4F814A0ABEB0A0ADDF800B046F80BA094F806A008FB0AFA56F80A609E600EF1A6
:2024B0000C06A37908FB03F30EF10C0EF65C06F0F00646F002060EF803604FF0000ADCF8CA
:2024D00000E0A6790EF1020308FB06F623F806A0464BA6791B68760103F1140AD4F814B0DD
:2024F0005AF806A00AEB4B0A03F1140B4BF806A0AD7E022D0BD1A5796D0103F1140697F82F
:2025100000B056F805A000FB0BAA46F805A0BD88D27BA779D60736D508FB07F70EF10802D1
:20253000D659A6F5A86A0EF1080646F807A0A77908FB07F7D2592768511A3961BA6003F1CF
:202550001402A1794901575807F5F667575003F11401A27952018958C9F800106843244A00
:20257000A179156B03EB41162968401AA0F51670F0612049A07903EB40100B78012B14D1C1
:202590000121C17214E003F114027F01D1592A464243A1F5E661A2F516729142DED3082190
:2025B00020460EF01FFB012011E0916A4A78C272A179DCF8000008FB01F2811822685160D2
:2025D00007200D490870204608F074FF0020BDE8F28F00BF684E0020784F0020084F0020EC
:2025F000502C00205C4D0020804E0020844E0020841F0100734F00206F4F00202DE9F84FC5
:202610000C46E00788B00BD50DF07CFD28B100218160B348006800B1804784F001005CE17B
:20263000A0070FD500210023069105910491039302910191009101223C200EF0CFFA84F0F3
:2026500002004AE11D256007A64EA74F40F18A80002107918B46A5488178FF2904BF0020F4
:202670000DF0B8F9386890F8A0000DF01FFC80463868C07A98F82691022818BF032808F5AC
:20269000907A06D106F10D000EF0A4FA08B906F1070B514648460EF099FA88B33868807A54
:2026B000002818BF012804D1314650460EF08AFA04E05246494630460EF080FAFF2834D05A
:2026D00005FB00F906EB090506225146E81D0DF0C9FA16F80900396840F00209E81D0790DF
:2026F0000622887E00F0010088F8260105F1010A386800F1140108F590700DF0B3FA14E0C2
:20271000514648460EF056FA78B15246494630460EF054FAFF2808D006F10D014543481937
:202730000EF058FA08B949F0020908F12C004B46017806914289120905920122B8F82210EC
:202750000491C0880799029140080390CDF804B0CDF800A0002098F806100EF03FFA84F02F
:202770000400BAE020060FD500210023069105910491039302910191009101223B200EF0D3
:202790002DFA84F08000A8E0E0044BD5F11D06F10D000EF00BFA3868017A012918BF042924
:2027B00031D1C17A02291EBF0329817E01292AD1817E00F1140230460EF000FAFF2811D0F8
:2027D0004543354405F10D000EF004FA50B9E91D05F10D000EF0EAF938680622E91D1430E4
:2027F0000DF040FA3868C07A022818BF03280AD106F10D000EF0EEF928B938680622F11D11
:202810000C300DF02FFA3A4842683A4800784FF480510AF0E1FF10B18E2008F09BFC84F4BC
:2028300080505AE0A00505D5FEF7DCFB324901200860FEE7600504D507F003FD84F48060BD
:202850004BE0600405D5812008F084FC84F4804043E0A10440D5294D286810B100200DF0ED
:20287000B9F8274E4FF0FF3028600EF09BF93168244D51F8202F684690472349234B486AE7
:202890008A6A009001920293C86A0268086A0392ADF810000A6B1178002904BF506800285A
:2028B00005D19068002804BFD068002806D02970506868609168A960D068E8602946356872
:2028D000134A2E6813486B46B0471349086003F0E1FB84F4005000E0002009B0BDE8F08FBA
:2028F000204F0020AC450020104F0020684E0020784E00206E4F0020FC002043044F00203E
:20291000F04E002068450020581E0020050101002C4D0020F82A0020EC4E0020BB482DE991
:20293000F84F0025BA4CB849056094F8E200002800F06581012800F02F81B64E02283CD040
:20295000032840F05C8151F8250CD4F8B8100029A0F5C060C4F8D400B8BF49420028B8BF12
:202970004042814226DA4FF08057D7F8A4014568B4F8BC0030214FF47F42082300903046DD
:20299000A847D7F8A4014568B4F8C00004214FF4F802122300903046A847D7F8A401B4F8FF
:2029B000D070456820214FF440620A2330460097A847012584F8D8501CE151F8258CFEF715
:2029D00011FB2F4600B901273946934F38680028FCD0B146012609F10409D9F82CA03E6030
:2029F00009B10DF031FCCAF30720C4F8BC00FEF7F9FAAA4600B9B2463B68002BFCD0D9F893
:202A100000B0BAF1000F3E6001D00DF01DFCCBF38440C4F8C000FEF7E5FAAA4600B9B24644
:202A30003B68002BFCD0D9F81C90BAF1000F3E6001D00DF009FCC9F38120C4F8D000B8F5AE
:202A5000C061C4F8B81000F09C8094F8D80068B9C4F8D410D4F8C000C4F8C800D4F8BC7088
:202A7000C4F8C470D4F8D030C4F8CC30D4F8D400D4F8BC30002854BF02226FF0010204F1C4
:202A9000C8010F6800EB40008018421000EB927207EBA2000860D4F8C810C4F8C430002969
:202AB0001CDD1E293CDDD4F8CC0030B93429B4BF15391E21C4F8C81025E02A29BABFD4F89E
:202AD000C8000B381E20C4F8C800D4F8C4003F28B4BF401C3F20C4F8C4001FE0D4F8CC00DD
:202AF000032812D011F10B0FC6BFD4F8C8000B30301CC4F8C800D4F8C4000028C4BF401EE0
:202B1000051CC4F8C450032508E011F1150FC6BFD4F8C8001530301CC4F8C800C4F8CC5078
:202B30004FF08057D7F8A401B4F8C43030214FF47F424568374800930823A847D7F8A401B9
:202B500004214FF400321123456832480096A847B4F8C860D7F8A40104214FF4F80212230C
:202B700045682C480096A847D7F8A40120214FF440620A23B4F8CC60456826480096A84760
:202B900001E084F8D85040F2FF50404502D8801C40452FD2082030E051F8251C1F4F4BF231
:202BB000F5204843060A3868C0F3814001280CD11B480068006880470BF08CF80DF04AFB80
:202BD0003111C010484306EBE03694F8E50030B91448006820F07F403618760801E084F82B
:202BF000E5501148310C0660012741600F4D8760287808B90B2000E0052084F8E40003F0A4
:202C1000B9F8BDE8F88FC0462D400C402C500C404014002000A00C4000800C40B43F0050D1
:202C3000EC010010102009403C600C40151E01002DE9F84FB34D696884B0019121B905B06F
:202C5000BDE8F04F0DF0AABF0978DFF8BC82AF4EDFF8BC92DFF8BCA201291CBF02290429D0
:202C700046F2A81741F64C5B05D0402918BF802900F096803CE10DF08FFB0028FAD001987C
:202C9000007804F0C9F90090446814B900200CF0A1FE9AF8010000285CD000F043F90DF022
:202CB00005F902900168009801914F6809F01AF9022825D000990A78012ADBD196490A68BC
:202CD000137A19F80310317018B90DF063FF5844A0602069C17E01F0EF01C1762069C17E1E
:202CF00041F08001C1762069C17E01F0F00141F00201C1762269B96888484118D1614BE094
:202D100001980178802911D10820854930700A78012A03D09AF80100022801DB38690CE0CA
:202D3000D8F828003A690178D1720DE07C49072030700A783869012A02D10121C17203E05A
:202D5000D8F828104A78C2720298817901988AF80210C8E0009800288CD00199009A007834
:202D7000914205D101281CBF00200CF033FE15E0012840F0BD80684801680A7A19F802000E
:202D900030700DF007FF3918A0680DF0FFFE18B90DF000FF5844A0600120A8700098A2E071
:202DB0009AF8010000287AD000F0BCF80DF07EF804462068029047689AF802000DF076F8D5
:202DD00003900DF0EFFA10F0070F3DD0A87804F023F90190416801980091029909F082F8A5
:202DF000022831D001990A78012A2AD14A490A68137A19F80310317028B90DF0CBFE834491
:202E10000098C0F808B000980069C17E01F0EF01C17600980069C17E41F08001C176009881
:202E30000069C17E01F0F00141F00201C176009AB9683A4841181069C16101210198A97088
:202E500051E000200CF0C6FD0398A04225D0029833490278802A12D1082030700978012950
:202E700003D09AF80100022803DB38690121C17210E0D8F828003A690178D1720AE0072086
:202E900030700978386901290EBF0122D8F828104A78C272A0798AF80200029823E00DF011
:202EB00081FA10F0070F29D0A87804F0B5F804462078D4F80480012820D117490868027A1F
:202ED00019F8021031700DF065FE3918D8F808000DF05CFE20B90DF05DFE5844C8F80800A9
:202EF0000120A870204605B0BDE8F04F05F056BF05B0BDE8F04F00200CF06CBD05B0BDE848
:202F1000F08F00BFF02B0020841F01006F4F0020289A0110684E0020104F0020F0D8FFFFB8
:202F3000734F00202DE9FE4FB24C617811B900200CF050FD0DF02EFE4FF00008074607F678
:202F5000C417C246AC4DDFF8B49228E050460CF0ADFF06467079F0B12968B07901F8080091
:202F7000394608F101005FFA80F830460DF00AFE30680178402902BF06F182000178012925
:202F900002BF41887289914205D1B169C088411830460BF025F80AF101005FFA80FA99F84A
:202FB00000008245D2DB6178884505D000200CF011FD82200DF0E2FD6078012840F0F180C8
:202FD000002701E07F1CFFB299F80000874280F2E28038460CF06AFF064670790028F1D05E
:202FF0002968B0790A7890421CBF00200CF0F2FCB079FDE0286810F809000CF057FF00686D
:203010004268DAF808109068814204BF3E4609F1010900F0D480D6E0286890F800B0012221
:203030004FF4C0710FE0636803F5AD76835C01FB03F901FB0BFE36F809C036F80E60B445CF
:2030500038BF9B46521CFBB29A42ECDB4FF6FF700DF090FD064658460CF028FF6849006866
:20307000D0F804A00868D94630F8192060684FF4C07300F10E0103FB09F3C85AB2EBD00F0E
:2030900052D2720840F6C4104243009200275D4A0190029217E058460CF008FF01680A78EB
:2030B000802A03D1DAF81030009A5A610978402908D1029980790A6802EB4011009800F587
:2030D000A060C8617F1C47452EDA2868C05D8345F8D001464FF4C073594363685A1803F5BD
:2030F000AD73D289595A53088B4202D2521A9045E8DA0CF0DBFE01684A68019B9168DAF83C
:2031100008207008A1F6C41103FB00200DF03EFD0028C0D03A48006830F81910491C20F8CD
:203130001910286810F807B0296808780CF0BEFE0026006847684FF4C079464551DA28683F
:20315000805D0CF0B3FE0068296842688B5D606809FB03F3034403F18201087830B1588988
:20317000B1F802C0401C80B2604508DA887B01280ED15889098A401C80B2884208DB6EB3E4
:20319000B968906801F5C241A8310DF0FFFC28B3761CF6B2D1E700200CF01CFC82200DF09C
:2031B000EDFC617828680DF0E1FC286800780CF07DFE00260068D0F804A04FF00109771C7E
:2031D000C145FFF617AFF6B2002E1CBFF8B200287FF422AF286890F800B037E7296811F8D7
:2031F00006B007490A6800205B4622F813005846BDE8FE8F684E0020004F00207B4F00205A
:20321000302C0020844E00202DE9FC47DFF8B8A20F460546F80B80F00881A64EDFF8888235
:20323000B80F80F0BA80B80880F0AE803809C0F02F819B480178090980F0A180007830F077
:203250007F0040F09C80684606F0B2FC012803D10098002800F0938092480078002840F0D7
:203270008E8001240025E8B20CF0E4FD48B1837A3BB1847290F9090004FA00F0C0B20AF0AB
:2032900075FF6D1C032DEED345464FF0030905F1AC0085F810900DF05AF9844A002188468E
:2032B00010681160824952F8080C05F1340042F8088C42460DF059F93068006B8047AA6841
:2032D000A969801A000BC0F1FF328A422CBF01444FF0FF31A961287F20B1E868A969B1EB5A
:2032F000C02F1ED90CF0FEF8414600B12146081C14D0714840F60901018041464180427BC0
:2033100064F303024273027B61F30302027341600CF0B0FE418811F4406FFBD02C77414684
:20333000A9616649086820F0020040F400700860634A42F8049C41F2300696601460502369
:20335000936014604FF4CA6696601460022042F80C4C44460C600BF02FF9112005F062FCC8
:20337000287818B9686838300DF00BF9687F18B16C7705200BF020F9524868612C7409F0CB
:20339000DFF827F0080783E004F0E0FB40467430006808B927F002077AE00DF0E0F83446D2
:2033B0008146606D0068014604208847C8B1287CB8B14046083006689EB12068EC68006B7F
:2033D0008047801BE860010BE960A14202D209194908E96040F6C41088422CBFB1F5FA7F8D
:2033F000E86048460DF0BEFB0AF0A4FE90B1A8696FF4807100224FF0007304462846A0477C
:2034100040466C300068002808BF47F0020701D009F096F8686900214FF0806304460A46DD
:203430002846A04727F0005732E00DF098F851460E684EB306F1280106C90A234FF0E0458C
:203450000B40154008BF002B1ED106F1280191E8300006F1280393E8060006F12803AA4360
:20347000A14383E806000DF07DFBB16871B1002D08BF002C0AD03069B6F93C10B2682B461E
:2034900016462246B04701E00DF06CFB27F4804727B15046394650300DF07BF8BDE8FC8735
:2034B000522C002021240020882200201410044009C300008C010010BC2B002000000460F3
:2034D0000C41044065880000082300202DE9FC41A0F2013714468846022F40F233819B4ECE
:2034F0009C493F1F0F2F04D9143F4CD0BF1E1CD011E0DFE817F0D000CA000E01FB00C20001
:20351000BA002701B000A800100010009E0090008000750066002D2880F21481B8F1020FA2
:2035300040F010818849238808E1B8F1010F40F00981F078012800F0058132462078117941
:20355000107189B9002800F0FD805078012800F0B680042800F0B380062800F0B080052822
:2035700000F0AD80BDE8FC812078002840F0EA805078032800F0B080072800F0AD80052816
:2035900040F0E080A8E0B8F1010F40F0DB802078012840F0D78006F1EC000CF08BFD0028E8
:2035B00040F0D0803446002004F13A0107F0FEFA002840F0C78004F1C8000CF0FAFFBDE8CC
:2035D000FC81B8F1020F40F0BD8020880A28C0F2B980B0F5486F00F3B5800E46B61C17E0D1
:2035F000B8F1020F40F0AE802088B0F5FA7F80F2A9800E460CE0B8F1020F40F0A38020884D
:203610000628C0F29F80B0F5486F00F39B803E363080BDE8FC81B8F1020F40F09380208846
:203630000628C0F28F80B0F5486F00F38B803C36EEE7B8F1010F40F085802078062880F2C4
:203650008180454E0EE0B8F1010F7BD12078042878DA0A3606E0B8F1010F73D120780828D2
:2036700070DA09363070BDE8FC81B8F1010F69D12078042866DA0836F4E7B8F1010F61D1F4
:20369000207804285EDCF61DECE7B8F1020F59D120880E36BCE7B8F1010F53D13079012814
:2036B00050D032462078D178D07069B9002849D05078012803D0042818BF052842D10120B6
:2036D0000CF038FDBDE8FC81207800283AD15078022818BF052835D110780BF0C9FA1C4915
:2036F0000246102002F072FABDE8FC8106F1830500211F22284607F0A4FE2146424628467D
:2037100006F0F2FA44463078B4710BF0B1FA002311E006F1640500211F22284607F091FEF0
:2037300021464246284606F0DFFA4446307874710BF09EFA0123009408490195024610208C
:2037500002F044FABDE8FC8199E60000B005002099450110F0050020EA0500200945011041
:203770002DE9FC418E488F4A04788F488F4B90490D2C6FD8DFE814F012010E000E000E00A9
:203790000E000A010A018E000A01C900C900E700E700EE00106041F204478648864DB0F8D7
:2037B00002C08649BC451FBFB0F81AE0BE45B0F83280B8454FF4A0561ED181480068D0F86C
:2037D00000C09CF8040003280CF1080E0BD1DEF80E0000281CBFBEF81800002803D01F8018
:2037F000784911608AE0022C1CBF1E800D46156000208CF8040081E0BCF1000FA3F800C08E
:2038100041D0BCF1010743D0B7F1010C3BD040F2FE37BCEB07071ED0A7F1040CBCF1010F90
:2038300020D94FF47F77BCEB070C1DD04FF44067BCEB07070FD0BF1E012F0CD93F1F0AD0F7
:203850007B1E012B0ED940F2F937DB1B012B1AD91B1F09D09AE0022C01D115604EE01E8067
:203870000D46FAE7584DF8E7584B1C68257A012D05D141F20243438043834386F0E746804F
:2038900046834686ECE700200CF0A4F8832081E08F207FE04E498978FF290CD010601820A2
:2038B0004C4C41432068851C40F204466C5A1C80A41B012C484B71D94FF47F76A41B0FD036
:2038D0004FF44066A41B032C84BF641F012C0BD9A41E012C62D940F2FD36A41B08D103E020
:2038F000801C41F201444452136004F079FB05E000200CF06FF885200DF040F9BDE8FC410E
:2039100036480078012105F02DB940F204424888188090421CBF41F2084290423ED041F683
:203930000402904211D12E4C2E482F4B00680025CDE9004502222D4C256855F8086FB047E6
:203950002B4908802AE04888188000200CF042F885201FE04888188002280DD940F20442FF
:20397000801A1BD040F6FC72801A05D0083815D04FF47F72801AE8D1887B801CC2B2B52A01
:20399000A8BF662088730020488007E000200CF021F88420BDE8F6410DF0F0B8BDE8F381ED
:2039B0006F4F0020204F00202F050100504F0020CC4C0020204A0020B1540110615A0110F2
:2039D000F44B002059550110755B0110104F0020684E0020804E0020313901106E4F00203D
:2039F00002000080EC4E002031E60000F04E0020424F00202DE9F04F8246DAF80070DAF884
:203A100004600C465FEA0208ADF11C0D14BF00214FF0FF31DFF8409248460CF0C8FA002846
:203A300018BF0B2040F0158100258F488C4905708A48FC6052460CF098FD317B27200CF022
:203A500096FDB8F1010F07D0657002200AF096FF06200AF093FF01E0012060702078012868
:203A700040F2AA80801E012868D9801E012833D9801E012800F2DE800CF071FD83464FF076
:203A9000805000F5EE77D0F8DC01A378466A009321782846062908BF012001900120029087
:203AB000A068228AE1686368B047814658460DF059F8B9F1000F40F0BF80B8F1000F02D0D2
:203AD0000CF0A0F802E050460AF0F8FD002800F0A3803868806A2AE00CF041FD83464FF0CA
:203AF000805000F5EE77D0F8DC01012306680093A168A27860682478AC46042C08BF9C4670
:203B10006346B047814658460DF02CF8B9F1000F40F09280B8F1000F02D00CF073F802E0A1
:203B300050460AF0CBFD002876D03868406880474C49C1F8B0510D6081467DE00CF00FFDB8
:203B500083464FF0805000F5EE77D0F8DC01E38A86690093E0680190208B0290A0780390CE
:203B7000207D04900121059122782846022A08BF081CE1786268A368B047814658460CF0A7
:203B9000F1FFB9F1000F57D1B8F1000F02D00CF039F802E050460AF091FD00283CD03868B9
:203BB000006A80475FEA000946D1E078A168E28A236907F0C5F8BFE70CF0D1FC83464FF0D7
:203BD000805000F5EE76D0F8DC01E38AC7680093E0680190208B0290A0780390207D29460B
:203BF000049001200590257805B9014608466268A368E178B847814658460CF0B3FFB9F191
:203C1000000F19D1B8F1000F02D00BF0FBFF02E050460AF053FD08B914201AE0306840692A
:203C300080475FEA000907D1306802692169E078904781E74FF0FF39B8F1010F05D0022038
:203C50000AF0BAFC06200AF0B7FC03480CF099FC484607B0BDE8F08F6C190020A41900200A
:203C7000F1EF000050450240582C00202DE9F04385B011F8017B0446082F04F1FD0004F16E
:203C9000FC0804F1760504F5A076844A844BDFF8149213D0092F21D00F2F2FD0112F01BF2E
:203CB000287801286878102840F0D5800A78327648787076012184F83D11EBE00025521C74
:203CD0004E5D5F5D3E434E55575D3E4046556D1C082DF5DB204608F0CFF874E00024571CDE
:203CF0000D5D1E5D35430D553A5D15400555641C082CF5DB022088F80000CBE098F801004D
:203D1000820704D410F0110F57D01A2266E008784A7800EB02203080CA78887800EB02201B
:203D300070804A79087900EB0220B080CA79887900EB0220F080087A30724A7A887A02EB6A
:203D500000227281C87A0A7B00EB0220B0818A7B487B00EB0220F0810A7CC87B00EB02201D
:203D700030828A7C487C00EB022070820A7DC87C00EB0220B082487D897D00EB0120F08265
:203D9000494801788A0658BF1A2212D504F5A670049071890391307A029021890191F0881E
:203DB0000090B38872883188204607F05DFDE0B11E2298F80100410710D40F2088F815006C
:203DD00020460CF0CBFE002864D199F8000005B0BDE8F0434FF4804104F0C4BE204605B098
:203DF000BDE8F0430F210CF0B5BE7088A882B188E9820221F0882883297400206882A18E5A
:203E1000A88AC91DE981618EB0EB510F02BFE88AA18E884202BF288BE18EB0EB111F18D064
:203E30002878012804BF68780F2805D0687918B10F21A972FE2127E0FC2120460CF086FEDC
:203E5000F0880090B38872883188A0790CF07AFE20E0102118E0491E20460CF06FFE032F3E
:203E700018D1A878042818BF0D2813D16E78142E18BF0E2E0ED12F7820460CF05BFE012F61
:203E900006BFAE72FD213146204605B0BDE8F0430CF05CBE05B0BDE8F08300BFEC4D0020AA
:203EB000142C00206E4F0020144E002010B50B7884074CBF43F0020303F0FD0304064CBF15
:203ED00043F0800303F07F0304074CBF43F0080303F0F70384064CBF43F0200303F0DF03A6
:203EF00010F0AA0F0B7003D0107840F00C0003E018B9107800F0F300107010BD2DE9F8432A
:203F10000D4600272878022814461E4667D1696808784978DDF8208000EB012080B25FEA49
:203F300008021CBFB0F5285F0B205BD14FF42851401A08D0401E21D0401E2FD0401E25D01C
:203F5000401E31D04BE0DDF82490E8680CF03BFB80B2A0EB08024A45BCBFA0EB08001FFA3F
:203F700080F909EB0800162806DAA6F800904A46E86800EB08010DE00D2732E0E868008891
:203F9000022131802070000A60702AE0062030800622E96820460BF065FE22E001203080E3
:203FB000E9680A7822701CE0E868B0B1082131800288227003881B0A63704188A1704288C2
:203FD000120AE270818821718288120A6271C188A171C088000AE07103E0308001E03780A6
:203FF00001273846BDE8F2832DE9F0470F46814638780024022890461D466DD17868089E8D
:2040100001784078DFF8D8A001EB002189B24FF42852891A06D0491E29D0491E4ED0491E46
:2040300039D059E0F8680CF0CEFA80B2B04204D3A919162903DB0D244FE007244DE0FB6815
:204050002A46414698190BF00DFEAD19F868ADB2C5F11602002140190CF0B3FADAF800005A
:2040700000281CBF0268002A37D0002123E08EBB022DE0D198F8000098F80110FA6800EBC7
:2040900001201080DAF8000000281CBF0268002A23D001210FE0EEB9062DCCD1F8680622F3
:2040B00041460BF0DFFDDAF8000000281CBF0268002A12D00321484690470EE056B9012D93
:2040D000B9D198F80000002813BF0128F9680870802402E00B2400E001242046BDE8F0877E
:2040F000402C00207CB5894D144602460026A2F58062182A1AD8DFE812F0FE00F800F100F8
:20411000E900E200DC00D500D0001900C500BE00B700AE00A3001900190080006F00680016
:2041300054004C00420039002C0024002D2880F28580022940F0828021880AF0A5FA06464D
:20415000E1E0012940F0DE80002C00F0DB801135A6E0102940F0D680002C00F0D3802846F7
:204170005030102221460BF07DFDCCE0012940F0C980002C00F0C68029468D1D90E0262918
:2041900040F0C080002C00F0BD8005F160002622E8E7012940F0B680002C00F0B3806D1D70
:2041B0007EE0602900D13CB9012940F0AB80002C00F0A8800D3573E005F18600214660227F
:2041D0000BF050FD012068739DE0012940F09A8020780CF0ABFC96E0012940F093802078E4
:2041F000022800F38F800C3528702078022814BF301C01200CF096FC85E0072940F0828053
:20421000611C684606220BF00FFC20786946324604F036FF04460A2C10DA0CF07FFC38B97B
:20423000204602F09BFC0AF08FFF08F019FD6AE02A46012002F12C05285564E0022662E0BF
:2042500001295FD1A87B21780028A9735BD12078012858D1E9E7012954D12478072C51DBC4
:20427000102C4FDC0B3537E001294BD124780A2C48DA093530E0012944D12478022C41DAC4
:20429000083529E000293DD10CF048FC10B90BF07EFDC8E701240F351EE0012932D10A3590
:2042B000247819E001292DD12478022C2ADAED1D12E0102926D12B4603F1400051E7012930
:2042D00020D12478022C1DDA2D1D05E0012919D12478042C16DCED1C2C7014E0012911D176
:2042F0002478022C0EDAAD1CF6E702290AD120881435288007E0012904D12478022CD8BF70
:204310006D1CE9DD182630467CBDC046481000202DE9FE4F05467B48002400680094C00979
:2043300005D37948007810B920200AF0FBF9012D40F0E280DFF80092D9F8DC00012840F036
:20435000D8800220C9F8DC000BF0E4FB01200AF0E9F95FEA000805D00120C9F8DC000BF080
:20437000E5FBCBE00CF011F9A34602906748684DC0F800B0A86A016801208847012804D1EC
:20439000584607F0E5FD012000906248624FC0F800B0386811200BF06FFF00B101241020E2
:2043B0000BF06AFF08B144F002040F200BF064FF08B144F004040B200BF05EFF20B1286830
:2043D000564E016B308888470A200BF055FF20B12868534E016B30888847524801260660A1
:2043F0002868816944F0200088474F4806600BF03DFF00F001010191400814D2286A8168AF
:204410004A4888478246BAF1040FF7D0BAF1010F04D1286A4268454803219047444908688D
:2044300020F003000860584600F088F82B683868986B8047019801280CD0BAF1010F04D1B8
:20445000286A42683948314690473949086840F0030008602F480660286841692046884768
:204470000B200BF009FF20B128682C4BC16A188888470A200BF000FF20B12868284BC16A69
:2044900018888847274806600322C9F8DC20264BC3F800B02868416B204688470128F9D1A6
:2044B000386804200AF03EF90446184806603868144800688009FBD30098012802D1304622
:2044D00007F046FD0BF0C0FE08200AF02BF907460298C9F8DC600CF01DFB1648008807F0BE
:2044F00035FA0BF023FB57EA040018BF4FF0FF3804E06FF0040801E06FF001084046BDE80F
:20451000FE8FC04614100940281500200C400940B8010010000222432C200940701A010049
:204530006C1A010028200860800104430040034024220840101E0100401400202DE9F84F5B
:20455000DFF804B20746ABF13500DFF8F0810068800880F0E28075480068006880477E497B
:204570000831D1F8009000254FEA29715FEA995201F101010AD2C0F13E0210F10A0F4FEA59
:20459000E202D8BF08229142B8BF111C684BD3F87C21C2F30462162AA8BF203A1B68C3F37F
:2045B0000443162BA8BF203B9A465218162A05DA12F10A0FB8BF6FF0090200E015225D4B7C
:2045D0005D4E02F01F0141F4F8511980316811F0030F18BF0125C90828BF45F002050FB19A
:2045F00045F00405434693F90710411A052904DA9979A94208BF99886FD0DFF844E10F2883
:20461000A0F10F0829DB08EB0011A1F1F0084FEA28210091072984BF07210091062988BF9B
:2046300006215EF821600424774604EB81043C594FEA950CA41BEE0804F0FF0124BFC4F361
:20465000072631446F08AE0824BFC4F3074631446E0828BF01EB146104E000214FEA950C82
:204670006F080091009C5EF824E05FEA5C060EF0FF0424BFCEF3072634447E0824BFCEF30D
:20469000074634446E0828BF04EB1E64009E89B2A8EB06267143803104EB1124AAEB0201BE
:2046B0000029D8BF0121342209F0FF074A4391B24FF6FF727943B1FBF4F18A4238BF111CF0
:2046D000802889B2998005DA10F1800FB8BF6FF07F0000E07F20D8719D711A4800681F2922
:2046F00018604FF0000008D340F2FF128A4206D24908401C8A42FBD301E01F219980134F4E
:204710000F39090940EAC10047EA0001CBF8FB1F0026CBF8FF6FBDE8F88F0D490D4F434677
:2047300008200F609B1D1870BDE8F88FEC0100103C1100506E620840242208401C2C0020BE
:204750009C130050082009403500094000E7A48030100940FDFDA400AC3F00502DE9F04F99
:20477000044675488A46016894461F46BAF1000FADF13C0D4DD0BCF1000F4AD09AF8002064
:2047900001209040014244D0BCF80000B0F5C15F32D1DCF81430DCF818206848DCF81C1071
:2047B0004FF0030E0DF128080B93DFF894B10C9200680D91C0F3036958F8046FCEB100218B
:2047D000351F05200B4655F8042FB2F1FF3F10D0934506D0401E01F1040103F10103F2D100
:2047F00007E0052B05DA705820F4702040EA09407050BEF1010EDFD1C4F804A0C4F808C0C2
:204810000BF0ADFE4F4D8046287820B140460CF0A9F900208DE002F069FB4B49086840F0D4
:204830000200086007A80BF02DFC002605F1D00007AA4649099609F0A7FA454905F582704C
:2048500007AA09F0A1FA07A80BF0DCFBFF2105F1340007AB3F4A0891192109F0C1F93E4AEF
:2048700005F150001A2107AB09F0BAF93B49324605F18800134608F0F5FA3949324605F19F
:20489000AC00134608F0EEFA364A05F12000042133460AF0CDFB0E2004F0A6FC05F17400FF
:2048B0000BF0A0FA05F16C000BF09CFA2E74072085F898012E77AE616E770523AE602B493E
:2048D000EB602A786961501C2870274B1E7040460CF048F9B1464FB92548B0E88C106946FB
:2048F000A1E88C100DC86F4681E80D0038682060398A6182012060747B6813B940F6C4130C
:204910000646E3601B48A06126746061F86800B1A061B86800B160615822494604F1200077
:2049300006F08FFD04F1380049460AF051FA20466C600FB0BDE8F08FD421084054130050DB
:204950000200F84488220020002009406DFB00009987000009C300006DC10000D5F400008B
:2049700005F90000F1D00000522C002065880000981D01000FA400002DE9F0430446834D11
:20499000A178A869ADF1140D891F00F0F780C91E00F0E280491E5FD0491E48D0C91E3CD0CE
:2049B000481E40F0EE80287A697AB8B96878002831D0A0880CF0AAF8071C00F0E280A07A8F
:2049D00040080FD3787968B1E168890A0AD2B91D01AA04F055FB0A2804D10321A0880CF0C7
:2049F00091F8CEE0287B022802D1A07A0009F4D3A088797904F1080201F084FAA869002825
:204A100000F0BF804368002B00F0BB8000210A46A0889847B5E00521E0E7002800F0B18013
:204A30004368002B00F0AD8062780221F0E70BF071FB002800F0A580A86950B1076847B182
:204A5000206900906189227B637BE01C3C46A04797E060890121C2E767784FF00008002FE3
:204A70006BD1A179490868D3EF69002F65D101A841460E220BF0A5FDA0880CF047F8071C04
:204A90007FD0606940B97879B91D06228DF80A0001A80BF0E7F81EE06669307C062301A9A8
:204AB00006F111098DF80A0006F1110010F8012B5B1E01F8012BF9D107F10C00B91D0622A0
:204AD0000BF0D0F8B81D494606220BF0CBF8307C40F002007871A079C00839BF387900F078
:204AF000FD00387940F002003871A079000939BF387900F0DF00387940F020003871A179BF
:204B10009DF81120C1F3800010438DF81100080905D39DF8110040F008008DF8110001A89C
:204B3000214600F02FFB28B92878022104F01AF8404627E0A8694FF0150810B3436803B31C
:204B5000A088627801219847B8F1000F19D0A8694368032142465BE7E078211D002204F04B
:204B70008FFA0A280DDA410001EB800004F10C0225300421C0B202F005FE02E0A08808F0F0
:204B9000E9F9012005B0BDE8F083C046481000202DE9F04F05468048066800680F461C46C2
:204BB0009246C4F399018900ADF12C0D0A010021803206F046FCDFF8C891A9F188000246AC
:204BD0006E48016830469047A3088046610801979F1C21F00101F819009506EB800003906F
:204BF000091DCDF808A07818434506EB800206EB870B3844049206EB80000690C4F39C0098
:204C10004FEA800000F1080007EB400000EB070206EB82020A9224F0030202F1080200EB9A
:204C3000020506EB85053A44059506EB82050A4407953A4406EB8202089206EB80020992CD
:204C5000084406EB800A384406EB800518BF6FF0010040F08F8009F168000246414630466E
:204C7000904700233CB10199264611F8010B761E40EA0303F9D1002B08BF01207AD0002611
:204C90003CB10299234611F8010B5B1E40EA0606F9D1002E08BF02206CD001995846C847EB
:204CB00003980299C847009881680498C8473548049A594681462846C847012803D14FEA3F
:204CD00088042E590EB1032054E0BE0028460021324606F0B6FB0399049A2846C84701284F
:204CF00001D12F590FB1042044E0274F274C069859463A46A047079803993A46A047069974
:204D1000089827460A46B84709980899069AB8470A9806991E4C2246B8472846002128225B
:204D300006F08FFB1B4809990A9A81462846C8472034284622460146C847079950460A46F0
:204D5000B84705980021324606F07BFB5FFA88F45046002C0CBF01225FFA88F200216B5C62
:204D7000445CA34218BF052004D1491C521EC9B2F5D100200BB0BDE8F08FC0468C4F0020B7
:204D9000B9DB0010C9DE0010EC1F0020F9E00010A41B0100C9E60010884F00202DE9FE4FBB
:204DB0000E468246307AC10693461F464FF000090CD558460BF0A2FE030000F0E8800A222F
:204DD0003146504698475FEA00094DD130780C9D0D9CDDF8388002281AD1706801784078C2
:204DF00001EB002189B24FF42052891A012910D9891E3AD0491E14D0FD397AD0491E00F01D
:204E10008180491E6DD0491E73D0491E00F09580ABE0002C2AD1F068017829800278416878
:204E300087E0002C22D101202880F1680A783A7000217089401C80B20BF05CFE298860B1CF
:204E50000278921C51182980418979704289120ABA7041680278F81C6CE0091D29800422CC
:204E70000021781C0BF0ADFB93E0002C66D1F0680688042129803E70320A7A700DF102016B
:204E900030460BF037FE040021D0D4F80C80BDF802204FF6FF766B4631460BF027FE40B93D
:204EB000237862683C4802210BF01CFE08B9ADF8006098F8000002280BD1D8F8041002225D
:204ED000381D0AF0CFFE2888801C288001E0ADF80060BDF80000B870BDF80010090AF970AE
:204EF00057E0002C2AD1F068016850460BF082F802E01CBBF0680088022129803870000A61
:204F1000787046E0F0680BF05EFB80B2A042B8BF4FF007093DDB844208BF002205D008EB5E
:204F300004028242B4BF4246021B2A8092B2F068011938460AF096FE2BE014B14FF00B09F0
:204F500027E0F0680721298002783A7043787B704188B9704288120AFA7001793971C28897
:204F70007A71C088000AB87113E058460BF0B6FD5FEA00090BD00F980290CDF80480009439
:204F90002B463A4631465046C847814601E04FF00E094846BDE8FE8FF01B01002DE9F04FD5
:204FB0000746880FADF1140DC0F0D4806B4E301D006841688D68CC68486800B18047B046DC
:204FD000674E002D08BF002C0BD030680028FCD00020306005B1A84704B1A047614809F0F2
:204FF00089FE0024A6F11C015F4ACC615F480A6040F60A0CA0F800C04480017B64F303011C
:205010000173A646C0F804E0417B4FF0010A6AF303014173BA687B7C54801188B146A1F655
:205030000201C9B141F21E05491B15D041F6E675491B012920D8517E012B64F38201517690
:2050500006D0118B21F47C7141F43471118313E0118B64F30911F9E7517C012B64F38201AB
:20507000517405D0118A21F47C7141F4347102E0118A64F309111182D7F808B07C74614670
:205090005D4600E035466E6816B132889142F9D168606A7B64F303026A73D8F86C603EB19D
:2050B000F2681288CB1F93421BD0891F914218D03E8CC6B1C7F824E007F120014C8097F867
:2050D0002C2064F3030287F82C2097F82D206AF3030287F82D204160417B64F303014173D7
:2050F00001E0C8F808402248036882680192C168406B0093102220F0784040F08050039071
:205110001C480291694604F0EFFDD9F800000028FBD01948C8F8140098F81D00C9F8004052
:2051300078B916480068006801465046884701280DD0687B6AF303006873114FC8F814708C
:2051500005E008F06DFC0028FBD00BF016FA58460AF090FF05B0BDE8F08FC046882200202B
:205170001C1004400100070601010E04BC2B00204C1300501800002119320000E001001062
:20519000B1C500002DE9F04F734CDFF8C8A1E56988468146ADF1140D002D4ED1B9F1000F8E
:2051B00000F09680B8F1000F00F0928009F0D6FE06460A2E267422DAD8F81470002F3DD0A8
:2051D000700010216A4600EB86002330C0B20AF003FB90B950460778FF21102268460AF0E8
:2051F00067FC50B93FB999F80600494600F001000BF070FC01E00120A074E5691DE004F167
:20521000E60B0A2700265846FF2106220AF050FC88B97F1E0BF10E0B06F10106F3D1607C79
:20523000002804BF0A20207452D094F83660304601F094FCE569267400E0267C0A2E47DAB7
:20525000002D35D170000E214A4600EB86002030C0B202F097FA207C07F08EFF6846FF2138
:2052700010220BF0AEF9207C10216A467030C0B202F088FA217C0E220801A0EB410000198C
:205290004946E6300AF0EEFCD8F814206AB15046007840B9107C02F11101002300F00100AA
:2052B0000BF014FC01E00120A074C4F81C804CE0AA68002A3ED12A69002A2FD16A690ABB99
:2052D000EA683AB9A07B08B109F012FA0AF075FA01203BE07000102100EB86002430C0B223
:2052F00002F050FAE769217CFA68480000EB8100103225300421C0B202F044FAE169002097
:20531000C86022E07000102100EB86002330C0B202F038FAE1690020486116E070001C21A2
:2053300000EB86002230C0B202F02CFAE169002008610AE070001C2100EB86002130C0B272
:2053500002F020FAE16900208860002005B0BDE8F08FC0465A4F0020481000202DE9FC4F3E
:2053700083F0004301E02DE9FC4F1F03FF0847EAD2574FEA42284FEA43095FEA595906D1A8
:2053900047EA080A1CBF00210020BDE8FC8F57F000575FF4E06E1EF1FF0EF14505D14FF0C8
:2053B0000000190D0905BDE8FC8F002B05D55FF0000AD8F100086AEB07070C03E40844EABE
:2053D000D0544FEA40254FEA4106760D08D144EA050A19BF00210020191C101CBDE8FC8F38
:2053F00044F00054764504D10020090D0905BDE8FC8F002904D55FF0000A6D426AEB0404AA
:20541000B6EB090E08D5A2463C465746AA464546D046CEF1000E4E46BEF1360F5CBF4FF0A0
:20543000000B23E0BEF1000F04BF4FF0000B1AE0CEF1390ABAF120092EBF08FA09FB07FABF
:205450000AFB4BEA080BDEF1200A07FA0AFA38BFBA4647FA0EF72DBF28FA0EF8AEF1200ED3
:205470004AFA0EF8D04415EB08057C4154EA050A02BF00210020BDE8FC8F002C58BF4FF0F3
:20549000000A06D55FF0010A5FF0000E6D426EEB0404A6F101066D006441FAD515F4806EDA
:2054B00011D005F480794BEA090B15F5806554F1000428BF761C0BD205F400795BEA090B67
:2054D00008BF25F4006525F4E0656D0044EB0404B61CDEBF00210020BDE8FC8F5FF4E06EF4
:2054F0001EF1FF0E76450AD34FF0000013F00043FF21C900C91D09051943BDE8FC8F2705CE
:2055100047EA1530210B41EA065141EACA71BDE8FC8F70472DE9F04FADF11C0D01900493C6
:2055300000280392109D0291119C059500F0BC80081C00F0B980101C00F0B680181C00F028
:20555000B380281C00F0B080002C00F0B280206A002800F0A9805A4D676A281D0068002F37
:2055700000F0A280A16A0BF0ADFA40B2071C08BF6FF0020700F0948020786288216A84F88B
:205590002C7000EB80001218143290B288474B49086030B9284640680BF090FA4FF0FF377E
:2055B0007EE00846B4F802B06688277894F800900568204607F0A6FC2078AB44C01C8010C9
:2055D000CBF800002078B919491901F1040AC01C8010CAF80000207806EB4703591901F1C7
:2055F0000808C01C8010C8F80000217809EB49094B469A19521902F10C09C91C8910C9F88A
:2056100000102178D8198019401900F11005C91C88100199286022780BF1040004F064FB5C
:20563000227802990AF1040004F05EFB2278039908F1040004F058FB23782046514642463F
:20565000FFF7A6FA071C14D100955846514642464B460BF02FFA80462278049809F104019A
:2056700004F042FB22780598291D04F03DFB4FFA88F7124821786288006801EB810152185B
:20569000002105F0DEFE0D4E606A0146306888470B4840680BF012FAF8B2992808BF0027DA
:2056B00084F82C70384606E01CB16FF0010084F82C006FF0010007B0BDE8F08F884F002057
:2056D000E41F00202DE9F04FADF1240D079001F00DFC5F48007807F06FFF5E4D0024012866
:2056F00006D90C3804D0401E0ED0401E09D006E00AF004FA022804BF01210C1C06D0696874
:2057100005E005211F2401E0032107246960524A1068C0F38150012806D152F80C0C012710
:20573000020E07FA02F004430AF09CFC05F1440AFF2253464018401E471C28607F1E03F846
:20575000012BFBD1079A1268002602F0FF03FE2B1DD0DDF81CC0964633460EF0FF07FF2FBE
:205770000ED0B84205D3B94203D80122BA40144201D0022069E016430EF0FF020AF8023058
:205790005CF804EF5B1C0EF0FF07FE2FE7D1092003F02AFD07980121A86005F1280009F02F
:2057B00017FB00274FF0010BB9462846804600F198050BFA07F0044216D1064204BF07F069
:2057D000FF0141F4C04104D01AF80700079951F82010224801F0C6FDF8B24FF0FF3109F04D
:2057F00013FDC5F8009001E004202860D8F800007F1C2D1D8742DCD904A80AF003FC184C73
:20581000184A2078102104AB059008F10C0008F0E7F968460AF036FCCDF80C906A46606879
:205830001149029008F1640008F0AEFA0F4951F80D0C20F4F85040F4005041F80D0C0C4F28
:20585000C1F8FFBF4846C7F800B009B0BDE8F08F592C00202C130020B43F0050007FC767F3
:20587000241F0100E9F80000F1D900000D3009400800094061480178002900D170472DE969
:20589000F843491E032984B004D9891F012940F2B180A9E05A4CDFF86C912068DFF8688199
:2058B00003685A4E03F10805062205F1080102A80AF0D8F90622A91C68460AF0D3F9287827
:2058D000C1091D2700F00F02032AC0F3801537D16079C0F3800081421ED12169062202A812
:2058F00009F090FE00287AD0694628460BF06EF9002874D0314668460BF064F9FF286ED0D2
:205910004743D8F80000807AF519002818BF02280AD0012818BF032861D1F25D691C484653
:205930000BF0C4F810285AD06B46EA1D294648460BF0B8F806226946E81D0AF093F94EE04E
:2059500000F00F00052855D16079C0F38000814245D12169062202A809F054FE00283ED023
:20597000694628460BF032F9002838D0314668460BF028F9FF2832D04743D8F80000807AE6
:20599000F519002818BF01280AD0022818BF032825D1F25D691C48460BF088F810281ED0C2
:2059B00040F2024008F00EFA6B46EA1D294648460BF078F806226946E81D0AF053F91448C5
:2059D000144A41F20441418041834186124801801249134811600121007803F0C3F82168C2
:2059F0000A680020107105E0002009F0F3FF86200BF0C4F805B0BDE8F08300BF6F4F0020CD
:205A1000F44B0020CC470020104F0020AC450020204A0020204F0020504F002059550110BD
:205A30006E4F00202DE9F84F8B460AAF664E9BF80050DBF80400BC889246984631462A4643
:205A50003F88009009F03AFC4FF0000940B9022F00F3AF80C7F10200A04200F3A0807FE00E
:205A700000982A46B11C09F029FC40B9022F00F3A080C7F10200A04200F3918070E000985E
:205A9000311D2A4609F01AFC40B9022F80F29180C7F10100A04200F3828061E0009806F11C
:205AB00014012A4609F00AFC38B9022F80F28180C7F10100A04272DC52E0009806F12401EE
:205AD0002A4609F0FBFB30B9022F72DCC7F10200A04264DC44E0009806F134012A4609F0C2
:205AF000EDFB30B9022F64DCC7F10200A04256DC36E0009806F144012A4609F0DFFB30B970
:205B1000042F56DCC7F10400A04248DC28E0009806F154012A4609F0D1FB30B9042F48DCED
:205B3000C7F10400A0423ADC1AE0009806F164012A4609F0C3FB30B9022F3ADCC7F10400A0
:205B5000A0422CDC0CE0009806F174012A4609F0B5FB38B9042F2CDCC7F10400A0421EDC7E
:205B700084B21CE0009806F184012A4609F0A6FB30B9042F1DDCC7F10400A0420DDD0EE03A
:205B9000009894362A46314609F098FBA0B9022F0FDCC7F10200A04201DC82B200E02246B6
:205BB000A8F80020DBF80C105046C91904F09CF807E04FF0070904E048464FF00A09A8F88C
:205BD00000004846BDE8F88F9C1701000FB42DE9F04F09AF8046ADF1240D0AF01FFC391D77
:205BF00030F0010021F0030101F1040101D102F04CFB05911420ADF8100000240294FF2500
:205C10008DF812507E6806960AF048FF06460AF005FCDFF854A130F0010015D009F016FEA4
:205C30005146224684460C2031F80C7F4FB14B681B689E4204D0401E02F10102F4D100E0C8
:205C5000D5B260460AF056F8404608F09BFC0146FF2904D02846032205AB06F035F80AF007
:205C70001DFF09F01BF8A3460746CDF800B00AF0D5FB30F001006DD0002F6BD03B480268C2
:205C90003B480023214604F091FA04460AF002FFDDF8008001264FF6F87905462D1909E077
:205CB000B8F1000F58D040460AF027FC54E00A4644E01C46786859464FF000522346FAF7DD
:205CD00061FC002832D007A80DF11D0101AA06F093FE00BB9DF81C000C2813DA9DF81C10E2
:205CF0000AF10C02880000EBC100135A53B1994508D0019A0AF07AFB00281CBFDDF80480CA
:205D10005E4613D10199684608F008FC78684FF000510AF0BBFEB4F1FF3FCBD0002CC9D041
:205D30000AF0B8FE2B1A01D09C42C2D209F09CFD009D09F08BFD083745B12A4652F80C1C54
:205D50000029B4D1396842F80C1C3D6009F0D2FF002EA5D002F099FA0598006809B0BDE890
:205D7000F04F04B07047C046A81500206C1F0100404B4C002DE9F843614C5A4D5A4EDFF8FF
:205D900070815E4F94F8E4100846401E0B2864D8DFE800F07B2C4306234306234306766461
:205DB000042907D001220A2945F8212C14BF0220032004E0202045F8210C0120024684F864
:205DD000E200002045F8390C0827C5F8FF7FC5F8F37F45F8392CBDE8F883052914BF0920AA
:205DF0000620002784F8E400376075E094F8E170383D0120002FC5F81B0004BF0620002176
:205E100002D00021F160032084F8E400032045F8010C3160306880085ED294F8E410334862
:205E3000012703290ED00068456800216022052300914046A84794F8E400062814BF0A209F
:205E50000720CFE700684568002160220523022000904046A8470420C4E7FEE72548264FB8
:205E70000026012506600E203D6002F0DBFE022008F0A2FB84F8E45084F8E360BDE8F88384
:205E9000002038600C25786024E04FF08059D9F8A0010168202088472C3D0F2045F8010C49
:205EB00041F61D56C5F80360D9F8A401466800214FF4C0720723022540460095B047D9F81A
:205ED000A401C66800214FF4C07207234046B0470120386084F8E45004F178000AF035FBA2
:205EF000BDE8F88339400C4038600C40A401001000A00C402C500C4004800C4034600C40B0
:205F1000401400202DE9F04F88468246ADF1AC0D29920AF0FBFD5C4CE67894F80BB0A57AA2
:205F300094F80C90071C00F0AB8068460021A4220AF047FB2801279A55498DF8046005F0B4
:205F5000030300F4807605F00405ADF800A0B9F1020F01EA020143EA01024C4B8DF8A0B0B9
:205F700046EA020100F4C06603EA010246EA020045EA00054FF00000279508BF01208DF806
:205F900037000AF07FFD412809DB207B00280CBF002008209DF8991008438DF89900607B9F
:205FB000002804BF00208DF8380017D001208DF8380004F1860120220DF1390009F052FE06
:205FD0000DF1590004F1A601202209F04BFE0DF1790004F1C601202209F044FEA07940B180
:205FF0008DF8260004F1500110220DF1270009F039FE66793EB104F16000B91D06220546AD
:2060100009F000FB68B92079002804BF00208DF8050015D08DF8050004F140010DF1060084
:206030000BE08DF805600DF1060005F11601102209F018FE0DF11600A91D102209F012FE14
:20605000E07930B1B8F1000F03D0279941F002012791002100B10121A7789DF89900002F4F
:2060700041EA00018DF899100CBF002004209DF89910084329998DF8990068460AF0FEFC9C
:206090002BB0BDE8F08FC04648100020FBF9FFFFFCFEFFFF70B5484C484B2568186855F8E3
:2060B000183F00224FF0FF3198474548454A416B454C8868454D4179117000260AF0DAFCFD
:2060D00043480AF0D3FC0AF0CDFC4248026800215171A02301680722CB804A7203210368D7
:2060F0001972002201684A7700230268D3760021036883F85C10012201680A7701230268D5
:2061100082F85D300021006880F85E100EE06068F1B24FF4C072514342185379012B04D170
:20613000F0B209F0C3FE0AF099FC761C2978F0B28842ECD30AF08EFC2748284A0178284CB4
:20615000117007F05DFE2748D02130220023017042708370C370037143718371C3710AF0F4
:2061700075FC2149214B00200870002220491A700120204B08701A701F49204B08701A70B8
:206190001B201F491F4B0A701A804FF4A4721E491E4B08801A80FB201D491E4A088040F6DC
:2061B00048001D491080FB230B8020800AF04AFC1A490020087070BDF04E0020EC4E002028
:2061D000841F0100714F0020684E00207B4F0020CC470020104F00206D4F00207A4F0020F4
:2061F0004E4F0020142C0020734F0020744F0020754F0020764F0020774F0020784F002017
:20621000794F0020524F0020444F0020464F0020484F00204A4F00204C4F00206F4F002054
:206230005A480178042900D870472DE9F84F891F2FD0491E012900F29E80DFF854A19AF874
:206250000200FF2825D009F031FE83460BF16C0778680AF0F3FB804698F80400032818D17A
:20627000D8F80800047814F0030404D17868BDE8F24F0AF0DFBB4578032C00F102090BF29B
:206290000F160BD035B1387820B93D2171700120307078E03F490A78012A74D09BF8941077
:2062B00059B32D1FEDB24B462A46214658460AF0BDFB40B93D207070012131703648BDE803
:2062D000F24F0AF0AFBB35480168884700904FF4C0709BF80620DAF804104243881800216C
:2062F00080F839110BF59A7001688079490805F09DFF2B4900980A6890470020032CC8F81A
:20631000080016D0274841690878820707D5C0074CBF03200020401919F8000000E0812081
:20633000387223469AF802002A46494600F094F918E099F80000192803D21B4A115C8D42EA
:2063500005D0B070072158460AF000FC07E00F480178082903D049465846FDF787FC48468F
:2063700006F056FF78680AF065FB41465846BDE8F44F0AF053BB002009F02CFBBDE8F24F4D
:2063900086200AF0FBBBBDE8F18F00BF6F4F0020684E0020794F0020AC4500205C15002075
:2063B00060150020841F0100BC1F01002DE9FF4104466668A7680D460AF0D1F83178012952
:2063D00003D10AF0CFFB00208EE0012131700AF0C9FB287870706878B07068687060A868D6
:2063F000B060E868F06028693061287D3075687D7075A87DB075A869B061287F3077687F06
:206410007077A87F4FF0000843461D4686F82851B07786F82951C6F8208033637562756372
:20643000B562B56386F82C5086F82D50786802F0DBFE204603F0F2FC204603F03BFD60B98C
:20645000386809F01FF8786802F0ECFB0AF087F835700AF087FB2C4645E0684609F0D2FD1C
:206470000094387B224A0190B9686B4606F17C0007F0B6FB684609F005FE00941D49386996
:206490006A46029006F1980007F07EFCB07830B906F1CC00294608F09BFC17483061707800
:2064B00030B906F1E800294608F092FC1348F060684609F0CEFF01958DF800501049029496
:2064D00006F582700A226B4606F0CCFCB969FA6906F13C0009F062FD0A4A06F1680004213C
:2064F000234608F0A5FD20460090BDE8FF81C046B967000071C60000F1040100E90401002D
:20651000F9D40000F5010100F0B5514C20780D46E90BADF11C0DC90372D1A80860D2E06985
:20653000216A6A080ED2E80828BF85F0040580F08C80680904D304F08DFD85F0100584E0E9
:20655000002083E0868861B904F11600414A00904FF6FF71022301200AF05CFA0146216245
:2065700021B304A800900027019702230293FF220392E28A30460DF11203FEF70FFC58B9C6
:206590009DF813009DF81220216A12EB002204D04989304607F042F9216AE28A08463B46BE
:2065B0004FF6FF710AF0A2FA01462162A069002918BF85F001051AD168B143685BB1E0692E
:2065D0008088012100229847A069E7694368B88803210022984709F0EFF985F0010534E0A7
:2065F00000200146FEF7CEFD18B185F00205012102E0022185F00205207802F0B3FA24E041
:2066100003F0D6FF071C1ED038780126B03811D0401E02D01F3808D011E0387978B97888BF
:20663000F9883A8907F0FAF80AE03846FEF7A4F9064604E0397907F108000AF0EFFA16B197
:20665000384608F0EFFF85F40045A8B207B0F0BD48100020EA1B01002DE9FC4706460C46D5
:2066700015469A46C0B209F021FC8146F0B209F039FD0646494F3079DFF82481012802D0AB
:20669000022843D082E0BAF1020F0AD100207080308002223271B06806F0BAFD0020B06038
:2066B00037E0308871882A1891420BDA00207080308002223271B06806F0AAFD0020B0609C
:2066D0008B2061E0B3682A462146184409F0CAFA30882D183580ADB27288954256D199F819
:2066F0007410802917BF81297F2198F80000091A49B200915346B168B878D2B20AF086F91F
:20671000002070803080022232713FE0BAF1020F3CD1042DB8BF8C2036DB20786178001D07
:2067300040EA01201F49708083B20A789A4238BF8A2029D381B2A94238BF8B2024D380B28D
:206750000AF060F9B060F0B12A46214609F08AFA7288954211D199F87410802917BF8129E0
:206770007F2198F80000091A49B200910223B168B878D2B20AF04AF908E030882D18358061
:206790000121317102E0812004F0E4FC24B12046BDE8F64706F03CBDBDE8F387684E0020CD
