:20000000004000205DF2000001C9011001C9011001C9011001C9011001C9011001C901100F
:1C00200001C9011001C9011001C9011001C9011001C9011001C901103FC9011089
:20003C002DE9F04F0446B4480D461646ADF5FE7D5B1E011DADF1600D9095F21E8F94D1F87A
:20005C0000C0929316F1140FCDF854C24FF01801CDF850C292FBF1F19391BCBF0021939118
:20007C000C466246A6EB04161946A6EBC406183E8D18A4EB0104969612D406466D1CE84661
:20009C005036002C44BFBEA003C803D456F8240010F0D3FC6D1EA8E8030004F10104F0D175
:2000BC009598002828D405460DF5A07B00266D1C929FB3A090E80003002F17D4DDF83CA2F0
:2000DC0006EBC7007F1C0DEB0004BAE8030094E80C0008F0EDFF0B4602464946404606F000
:2000FC00FCF9083C894680467F1EEED16D1EABE8000306F10806DBD19598919048E0B9F1C8
:20011C00000F42DD9199DDF848C2939A7A4F0DEBC1030CEB0100CB4603F5A473C4008A185C
:20013C008C93083407EB820000F1500A61440DEBC1065AF8040F10F080FC083686E8030095
:20015C008FA003C8929F8D90002F8E9115D4DDF83C820DEB04057F1CB8E8030095E80C00A9
:20017C0008F0A6FF0B4602468E998D9806F0B5F9083D8E917F1E8D90EED18C9ABBF1010B82
:20019C0003C204F108048C92D3D1919848449190C5000DEB050404F5A07494E8000300286B
:2001BC0028DD083C07460DF5F07BBDA20CCA4946404608F07DFF0EF0E9FE10F03EFCBAA2E7
:2001DC000CCA8A46064608F073FF0B4602464946404606F07DF90EF0D9FE4BF8040B94E8EA
:2001FC0003005346324606F078F9083C894680467F1EDAD1969F494640463A4609F068FF1D
:20021C00ABA20CCA8846814608F052FF09F04AF8A9A20CCA08F04CFF0B4602464146484674
:20023C0006F056F9884681460EF0B0FE8D9010F004FC0B4602464146484606F049F90FF218
:20025C00882A89468046002F14DC391C0BD09CA20CCA49460CF0C5FA84BF00208E9071D8C4
:20027C0002208E9020E091980DEB8000D0F8DC01C01516E091983C460DEB800303F5F07390
:20029C008D9F53F8040CC4F11802C4F1170440FA02F101FA02F2801A43F8040C7A188D926A
:2002BC00204100288E904DDD9198002400280EDD77A951F8047F24B93FB1C7F18077012464
:2002DC0002E06FF07F42D71B0F60401EF1D1969F8D98002F00F101008D901ADD7F1E0DD076
:2002FC007F1E16D191980DEB800101F5F07151F8040C6FF39F500AE01038010091980DEB67
:20031C00800101F5F07151F8040C6FF3DF5041F8040C8E98022815D19AE803004B464246E2
:20033C0006F0D6F88946804664B19AE80300969A09F0CEFE0B4602464946404606F0C8F855
:20035C00894680460EA20CCA494640460CF006FA3FD0969F40467A4209F0BAFE804691982F
:20037C0051A20CCA0DEB800440460CF03AFA894604F5F07484BF8B46464624D804E0C046B4
:20039C00000000000000000045A20CCA404608F08FFE0EF0FBFD10F050FB43A20CCA8B46AC
:2003BC00064608F085FE0B4602464946404606F08FF80EF0EBFD1837083544F8040B919849
:2003DC009697401C9190594630460EF0DFFD206039E0919895990026401E81420CDC919F19
:2003FC0095980DEB870101F5EE713F1A51F804097F1E40EA0606F9D176B995984FF00109EE
:20041C000DEB800000F5EE70016800297FF477AE001F09F10109F7E79199969F0DEB8100F2
:20043C00083D183F00F5F070491E9697001F919106E09199183F083D001F9697491E919159
:20045C0001680029F5D09AE803003A4609F040FE82469198894600281ED407460DEBC70403
:20047C000DEB870804F5A07408F5F0787F1C58F8040910F0E2FA4B46524608F019FE08A2B1
:20049C0084E803000CCA4946504608F011FE083C894682467F1EEAD1919C002C50D417E028
:2004BC00000000000000703E0000000000007041000000000000C03F000000000000204062
:2004DC00000000000000E03F000000000000F03FA5EBC40528A8E70005EB0008949E3DA09B
:2004FC0090E8000C002ECDF830A221D4DFF8EC90DDF844A2354600266D1C09F11009AAEBC2
:20051C00040AB24514DBF20002EB090003C850ABD219D2180CCA08F0CBFD02468C980B46F5
:20053C00594605F0DAFF761C8B466D1E8C90E8D1DDF830A2641EA7F10807A8E8000CCDD561
:20055C00919F24A090E80C00002F10D40DEBC7047F1CA03494E80003194610464B46424675
:20057C0005F0BBFF083C7F1E02460B46F2D18E9900290CBF191C83F00041DDF840C2104642
:20059C0028AF8CE8030097E8030005F0A1FF024691980B4600280DDD0DF1A80A0746BAE867
:2005BC00000310464B46424605F097FF7F1E02460B46F4D18E9909B183F0004390988D9F3C
:2005DC0008307FB080E80C0018B007F00700BDE8F08FC046000000000000000010380100EB
:2005FC002DE9F04F0746C84821F000440E460FF2D82BADF15C0DA04213DDC448A04203DDD9
:20061C0038460EF0C3FC48B1002000909BE80C003146384606F086FF0E4607463146384645
:20063C00A1E2BB48A04205DC38460B46024605F04FFF98E2B748B146AFA50FF2C42AA04266
:20065C0080F2C880B448A04251DCB448A04200F36F81B34AC1F30A502315000502AEA3F26B
:20067C001648251A3C460227AD18294620460EF08DFC10F0E2F90B460246294620460CC6DA
:20069C0005F026FF92A20CCA08F012FD04460D467F1EEAD106A880E830000325044694E8EA
:2006BC0003009BE80C000CF059F81DD002A808A942462B46FFF7B4FCB9F1000F014606D47E
:2006DC0008A890E800030AAF97E80C001CE208A890E800030AAF97E80C00494289F00049D5
:2006FC0083F0004310460EE2083C6D1ED7E78D48A04238DA8C48A04200F01A81B9F1000F92
:20071C0075A277A416DC0CCA384605F0E6FE94E80C000D46064605F0E0FE894680464B464C
:20073C0042462946304605F0D3FE94E80C0005F0D4FE15E00CCA384605F0CAFE94E80C008D
:20075C000D46064605F0C4FE894680464B4642462946304605F0BCFE94E80C0005F0B8FEB2
:20077C0002460B46D8E17148A04200F0E180B9F1000F5DA25EA416DC0CCA384605F0ADFE7F
:20079C0094E80C000D46064605F0A7FE894680464B4642462946304605F09AFE94E80C00D4
:2007BC0005F09BFE8CE00CCA384605F091FE94E80C000D46064605F08BFE894680464B4680
:2007DC0042462946304605F083FE94E80C0005F07FFE5AE0D449C4F31300814200F0A88024
:2007FC00D248A04236DAB9F1000FD4A2D5A417DC0CCA4946384605F070FE94E80C000D4615
:20081C00064605F06AFE80468946424630464B46294605F05DFE94E80C0005F05EFE16E061
:20083C000CCA4946384605F053FE94E80C000D46064605F04DFE80468946424630464B46E8
:20085C00294605F045FE94E80C0005F041FE02460B467BE1B9F1000F1ADC95E80C0049465D
:20087C00384605F03AFE9AE80C000C46054605F034FE80468946424628464B46214605F0E7
:20089C0027FE9AE80C0005F028FE02460B4664E195E80C004946384605F01AFE9AE80C005F
:2008BC000C46054605F014FE80468946424628464B46214605F00CFE9AE80C0005F008FE6D
:2008DC0002460B4634E1C0460000000000000000000000000000704100004054FB2119408E
:2008FC003163621A61B4F03D0000307F7CD91240CA9493A7910EE93D00004054FB21F93FEF
:20091C003163621A61B4D03DFC21E93F0000503E0000F07F7A6A0F403C461C40FB213941A0
:20093C0000006041BCFD1540FB2119407CD912408EA20CCA4946384608F0BAFB0FF23428B3
:20095C0098E80C0005F0C9FD98E80C0005F0C0FD0D9181460C9088460EF018FB0E9095E8FB
:20097C000C004146484608F0A3FB0B4602463146384605F0ADFD15909AE80C008B464146EC
:20099C00484608F095FB13901598139A14910B46594605F09DFD80460D984B4689460146F2
:2009BC00184695E80C0008F083FB0B4602463146384605F08DFD10910F900D990C989AE8A5
:2009DC000C0008F075FB0B46024610990F9805F07FFD24154800A4EB5050102840F387800B
:2009FC000D990C9865A20CCA08F062FB8A46054610990F9853462A4605F06AFD8B46159019
:200A1C000D990C985FA20CCA08F052FB0E460746159A10990F985B4605F05AFD53462A46BE
:200A3C0005F056FD0B4602463146384605F050FD139014911598149B139A594605F048FD58
:200A5C008046894615981099119002460F98CDF848B05B4605F03CFD53462A4605F038FD40
:200A7C000B4602463146384605F032FD024611980B46594605F02CFD4800A4EB5054322CD0
:200A9C0035DB0D9C0C9D41A20CCA2146284608F00FFB82461598894659464B46524605F047
:200ABC0017FD80463BA2CDF854800CCA8B462846214608F0FDFA0C460546129911985B46CD
:200ADC00424605F005FD4B46524605F001FD0B4602462146284605F0FBFC0B4614930246C5
:200AFC0013925946404605F0F3FC89468046159859464B46424605F0EBFC149B139A05F005
:200B1C00E7FC0B460E99024611F0030104D0491E0ED0491E1AD020E0012000904946404661
:200B3C0006F000FD1FE0C046FB2109007CD902404946404606F05AFE15E0C04600004054F3
:200B5C00FB2109403163621A61B4E03D012000904946404606F0E6FC03E04946404606F046
:200B7C0045FE81F0004117B0BDE8F08F83C8C96D305FE43F00000000000038430000601A51
:200B9C0061B4D03D7370032E8A19A33B0000002E8A19A33BC14920259A837B392DE9F84F56
:200BBC00C04CA178FF2904BF002010F091FEA07811F012F9044604F1680504F1900629686E
:200BDC00086810B10021E1830CE0A87B002804BFA97E002906D13078002801BF207F0128CA
:200BFC00608CE0832189E08B4118491C6181204600F06CF901281EBFAB480178012904D1A9
:200C1C0021890020491CE08361814FF6FF77A87E01280DD1AA8B6189208900F05BF938B167
:200C3C00218960894A1C93B298421BD0A88B0FE03078012816D172886189208900F04AF9FB
:200C5C0080B1218960894A1C93B298420AD0708892B2904206D03818608180B200F03EF9E7
:200C7C003F18E78304F5967999F8040020B120890021401CE183608104F12E07A87E012845
:200C9C0011D12189A88B4B1C9BB298420BD1608100F024F98046B988288C01FB08082046F4
:200CBC000CF09AFB01E0B7F80480B4F81EC022687E4ED2F80CE00CF1010000FB08F340F6B3
:200CDC00C41000FB03F18E44C2F80CE03668DFF8E0E13678BEF80080764AB609032E11D111
:200CFC00D67BF60748BF4FF000080BD408F101081FFA88F6012E12BF668AB9F8066006F2C5
:200D1C00DC5600E0668A5E434FF4C87AB6FBFAF6761C6661AEF80080A3614FF0180894F880
:200D3C0006A084F820C008FB0AFADFF88CC1DCF800E023680EF1080656F80AB0C3F810B09B
:200D5C0094F806A008FB0AFACDF800A0D3F80CB0D4F814A0ABEB0A0ADDF800B046F80BA0BA
:200D7C0094F806A008FB0AFA56F80A609E600EF10C06A37908FB03F30EF10C0EF65C06F0E1
:200D9C00F00646F002060EF803604FF0000ADCF800E0A6790EF1020308FB06F623F806A0BA
:200DBC00464BA6791B68760103F1140AD4F814B05AF806A00AEB4B0A03F1140B4BF806A08D
:200DDC00AD7E022D0BD1A5796D0103F1140697F800B056F805A000FB0BAA46F805A0BD881D
:200DFC00D27BA779D60736D508FB07F70EF10802D659A6F5A86A0EF1080646F807A0A7798A
:200E1C0008FB07F7D2592768511A3961BA6003F11402A1794901575807F5F667575003F1CB
:200E3C001401A27952018958C9F800106843244AA179156B03EB41162968401AA0F5167063
:200E5C00F0612049A07903EB40100B78012B14D10121C17214E003F114027F01D1592A4664
:200E7C004243A1F5E661A2F516729142DED30821204600F037F8012011E0916A4A78C272A0
:200E9C00A179DCF8000008FB01F281182268516007200D49087020460CF01EF80020BDE84C
:200EBC00F28F00BF684E0020784F0020084F0020A43100205C4D0020804E0020844E002004
:200EDC00AC410100734F00206F4F0020DFF800F035440110DFF800F069860010DFF800F06A
:200EFC0091860010DFF800F0A98500102DE9F84F8B460AAF3A4E9BF80050DBF80400BC883D
:200F1C009246984606F10C012A463F88009010F023F94FF0000930B9022F56DAC7F10100CD
:200F3C00A04248DC28E000982A4606F11C0110F013F930B9022F48DAC7F10100A0423ADC72
:200F5C001AE0009806F12C012A4610F005F930B9022F3ADAC7F10100A0422CDC0CE00098FC
:200F7C0006F13C012A4610F0F7F838B9022F2CDAC7F10100A0421EDC84B21CE0009806F144
:200F9C004C012A4610F0E8F830B9022F1DDCC7F10200A0420DDD0EE000985C362A46314600
:200FBC0010F0DAF8A0B9042F0FDCC7F10400A04201DC82B200E02246A8F80020DBF80C1026
:200FDC005046C9190AF04CFB07E04FF0070904E048464FF00A09A8F800004846BDE8F88FE8
:040FFC00903A010026
:20100000B41200001810000015E70000FDB301106DC00110FDAE011099B5011000000000CC
:08102000000000002D0000009B
:20102800B01200003C100000B1C00110A9BF011067C0011069B80110000000000000000035
:041048003000000074
:20104C00B012000060100000BDC00110CDB30110D9BD01106DB3011000000000000000005B
:04106C00310000004F
:20107000000000003026002004000000000000000000000020000000E8C9011030000000D4
:2010900028100000382600200400000000000000000000000C000000D8CA011018000000AF
:2010B0004C1000004026002004000000000000000000000024000000F0CA01101800000033
:2010D00000000000482600200400000000000000000000001000000018CA01102C0000003F
:2010F0000010000058260020040000000000000000000000200000006CCA011024000000A3
:20111000FFFFFFFF602600200400000000000000000000002800000090CA01102400000062
:20113000FFFFFFFF682600200400000000000000000000001400000008CB011018000000E1
:20115000FFFFFFFF7026002004000000000000000000000058000000B4C9011034000000AF
:20117000FFFFFFFF782600200400000000000000000000001000000020CB0110180000007D
:20119000FFFFFFFF802600200400000000000000000000001C000000B4CA011024000000AA
:2011B000FFFFFFFF882600200400000000000000000000003800000044CA011028000000D2
:2011D000FFFFFFFF902600200400000000000000000000005400000078C901103C00000047
:0811F00001000000A041010014
:0411F80001000000F2
:0411FC0000000E00E1
:0412000000000F00DB
:0412040032000000B4
:0412080001000000E1
:04120C003C2500205D
:0412100000020000D8
:0412140000000000D6
:0412180001C90110F7
:04121C0000000000CE
:0412200000000000CA
:0412240008000000BE
:0412280000002200A0
:04122C006C22002010
:0412300000000000BA
:0412340000000000B6
:0412380008000000AA
:04123C007C240020EE
:0412400000000000AA
:0412440000000000A6
:04124800080000009A
:04124C00000000009E
:04125000000000009A
:041254000000000096
:041258000000000092
:04125C00010000008D
:041260003423002013
:041264000600000080
:041268000100000081
:04126C00D820002066
:04127000000000007A
:041274000000000076
:041278000002000070
:04127C00000000006E
:02128000290043
:02128200010069
:02128400250043
:02128600300036
:02128800310033
:02128A002D0035
:02128C0001005F
:01128E00015E
:081290000300000018410100F9
:0812980000000000000000004E
:0412A0000000010049
:0412A4000000030043
:0412A80013C401105A
:0412AC00ED1C010034
:0412B000B812000070
:0412B400B81200006C
:0412B8000000000032
:0412BC0004260020E4
:0412C000F31E010018
:0412C4002000000006
:0412C800644001007D
:0412CC00D03E01000F
:0412D00029C101101F
:0412D400532501009D
:0412D8005525010097
:0412DC00A1C7011095
:0412E000A3C701108F
:0412E4000000000006
:0412E8000D3C0100B8
:0412EC00743C01004D
:0412F0008C3C010031
:0412F4005C3C01005D
:0212F8000200F2
:0212FA000900E9
:0212FC000100EF
:0212FE000000EE
:0113000001EB
:04130400811E010045
:04130800F5010100EA
:04130C004D1201007D
:04131000A50501002E
:041314002D020100A5
:04131800F1EF0000F1
:04131C00F5C0000018
:041320005B2101004C
:04132400EDE20000F6
:0413280015C70110D4
:04132C0025C70110C0
:201330002DE9F04FD64C211D2046ADF19C0D0DF0DBFB04F120050021284611F055FCD14E4E
:2013500010201F220623A560314605F001FD5020ADF820000025ADF81E504FF47A7A8DF84B
:201370002F500221ADF824500DF11E02ADF826A04FF44870ADF8220040F2063002F09AFF64
:201390004FF44270132104F13D0202F093FF40F20730112104F12C0202F08CFF4FF444702A
:2013B00001210DF12F0202F085FF40F21130022108AA02F07FFF40F2123002210DF12202E5
:2013D00002F078FF40F21330022109AA02F072FF4FF4457002210DF1260202F06BFF04F154
:2013F00050002A461523A8490090102005F0B0FC314610200622A02305F0AAFC31461020BF
:201410000722A02305F0A4FC314610200122782305F09EFC314610200822A02305F098FC2A
:20143000314610200922A02305F092FC0CAC01208DF8325029468DF8300003468DF8310081
:201450004FF480628DF83410904D00941F4610208DF83370294605F07BFC0DF131002946E7
:20147000009040F202423B46102005F071FC0DF13200294640F203423B460090102005F0F7
:2014900067FC0DF13300294640F206423B460090102005F05DFC0DA829464FF483623B4663
:2014B0000090102005F054FC794910204FF0FF3205F04EFC1020774B00907749774A0193DF
:2014D000092305F045FC76494FF0FF32102005F03FFC744D2878800010F0F8FF0146724832
:2014F00004464161002900F098804FF6FF700DF0E1FD2878800010F0E9FF0146A1610029B6
:2015100000F08B804FF6FF700DF0D4FD2878800010F0DCFF0146E16100297ED04FF6FF708F
:201530000DF0C8FD2878800010F0D0FF01462162002972D04FF6FF700DF0BCFD287880002B
:2015500010F0C4FF01466162002966D04FF6FF700DF0B0FD2878800010F0B8FF0146A162D0
:2015700000295AD04FF6FF700DF0A4FD2878800010F0ACFF0146216300294ED04FF6FF7025
:201590000DF098FD2878800010F0A0FF0146A163002942D04FF6FF700DF08CFD287880000A
:2015B00010F094FF0146E163002936D04FF6FF700DF080FD2878800010F088FF01466164ED
:2015D00059B34FF6FF700DF075FD2878800010F07DFF0146E16401B34FF6FF700DF06AFDD8
:2015F0002878800010F072FF01462165A9B14FF6FF700DF05FFD2878800010F067FF014649
:20161000616551B14FF6FF700DF054FD274B04F15800352110220FF037FB2878800010F058
:2016300055FF04F15802014687480F920029C16055D04FF6FF700DF03DFD2878800010F0C6
:2016500045FF014680480029016148D04FF6FF700DF030FD2878800010F038FF01467A4846
:20167000002941613BD04FF6FF700DF023FD2878800010F02BFF01467348816179B317E062
:20169000F00800206D04010011CA0000DD4E00005111010000410100990C0100041B002020
:2016B0007D140100694F002008020020703901004FF6FF700DF0FEFC2878800010F006FF0C
:2016D00001466148C16151B14FF6FF700DF0F2FC5D485E4B1521102220300FF0D5FA2878D3
:2016F000800010F0F3FE584A01462032584822920029C16047D04FF6FF700DF0DBFC287851
:20171000800010F0E3FE01465148002901613AD04FF6FF700DF0CEFC2878800010F0D6FE74
:2017300001464B48416171B34FF6FF700DF0C2FC2878800010F0CAFE01464548816111B328
:201750004FF6FF700DF0B6FC2878800010F0BEFE01463F48C161B1B14FF6FF700DF0AAFC91
:201770002878800010F0B2FE01463948416251B14FF6FF700DF09EFC3548364B1921102267
:2017900028300FF081FA344D31496F78287828311C91AFB93C490C3129620FF083F905F1B9
:2017B000440702460020009005F15406019705F11C03029629490393AB78102005F0C8FA2F
:2017D000314A27491020183205F0C2FA2E4800780FF068F923490246102005F0B9FA2A4897
:2017F00000780FF05FF920490246102005F0B0FA1E49102005F0ACFA1D4D0120287009F03C
:20181000C1FB1C49002007F0BFF91B4900200EF067F800200DF0E8FA022028700DF0C4FE6F
:20183000174E164A174806F10801116006F11401016006F1200010F07DFB0120377886F8B9
:2018500028002FBB22E0C04628160020283F0100FC120020903A0100B005002037F400009F
:201870002D1701005188011031810110C5AB0010E52600200000030395CB0000F42300201E
:201890008C20002038310020F00800200FF0AEFD0320DF4E287006F11407384610F0BAF9F6
:2018B000DFF870B3DBF8000006F134094FF4FA713B464A46BAFBF0F080B24143491EE3487B
:2018D000716011F08DF9DFF8888306F10801C8F80C107168306011F07FF90021242208236E
:2018F000484611F075F94FF000094B46C6F84C907768A6F844300420B764D64E287006F185
:201910001407384610F086F9DBF80000C24A51463B46BAFBF0F080B24143491ECE4871600F
:2019300011F05EF9306006F10800C8F81000BA4824220823494611F04BF94846C6F84C9071
:201950007168A6F844003068B16411F045F97168306810F0EDFDD6480527C04E2F7010F07E
:2019700059F9DBF80000D24B06F1340740F2DC51BAFBF0F03A4680B24143491EB848716081
:2019900011F02EF9B74930602422082306F1080008604946384611F01BF9C6F848904F465A
:2019B000C6F84C900620A6F84470AF4E287006F11407384610F02EF9DBF80000BD4A4FF49C
:2019D000C871BAFBF0F03B4680B24143491EA748716011F005F9A64A3060B64806F108014E
:2019F000082391604946242211F0F2F84846C6F84C907168A6F844003068B16411F0ECF886
:201A10007168306810F094FD07209A4E287006F11407384610F0FEF8DBF800004FF496518A
:201A3000BAFBF0F080B24143491E71609248A24A3B4611F0D5F88E4A30609F4806F10801AF
:201A50000823D1604946242211F0C2F84846C6F84C907168A6F844003068B16411F0BCF845
:201A70007168306810F064FD0820844E287006F11007384610F0CEF8DBF800008F4A64216F
:201A9000BAFBF0F03B4680B24143491E7C48716011F0A6F87B4F3060884806F1080124225F
:201AB00008233962494611F093F84846C6F848907168A6F840003068716411F08DF871688E
:201AD000306810F035FD09206F4E28707C4810F0A1F8DBF800007A4BBAFBF0F006F1300BF2
:201AF00047F2305A80B25A460AFB00F1491E6748716011F075F8664A06F10801306008238B
:201B1000116058464946242211F062F8C6F84490C6F848904846A6F840000A2028700DF023
:201B3000C3FC5C4E06F10C007862301D10F00AFC012030720B2028700DF0B6FC564E06F12C
:201B50000C00B862301D10F0FDFB012030720C2028700DF0A9FD514E06F10800C8F814006E
:201B700006F118000FF096FF4A4686F82E200D2028700123737619463176F1614FF4E132D6
:201B900032634B4686F82D30454A474DB2620B466B704449716210F01BFB494688F800103C
:201BB0004B46C8F820304A4628700326C8F81C2044496E7005F10C00206105F110038B6045
:201BD00084200EF034FD08F128018422C8F8040009F04CFD08200EF02AFD0646FF23C8F8D9
:201BF0001860484630710A2073710EF020FDD8F81410306008688047D8F81000006880473B
:201C10001B4805F11C030678C8F808308EB905E0841D00209C410100101E00200646B06849
:201C30000421006869708047F06800688047012030701E4805214E466970002E44D00C2EAA
:201C500042D0710834BF022104213EE009250100941B0020DC1D00200BE00000341E00201C
:201C70000D2501005C2500208C1E00201125010024210020E41E002015250100941F0020EA
:201C9000192501003C200020E81F00201D2501005C3100200C25002024250020F82100206F
:201CB000AFED00002187000010240020DE250020481E0020C01E0020181F0020C41F00207B
:201CD000F81F0020FC12002001210170761C401C0D2EB2DBCD4E2722C6F8102147F29450D6
:201CF000C6F8F8211D23F06340F2DC51C6F880314DF20E52C6F8882149F2FA40C6F88401DE
:201D10004EF2F803C6F8FC3145F2E522C6F81821A1F13D00C6F80C01BD4BC6F8C4311421CE
:201D3000C6F8141147F29532C6F81C211E20C6F88C01B84BC6F8D03148F61F51C6F83411B9
:201D50001522C6F8202149F67C40C6F89001B24BC6F8DC3148F2DE12C6F82821EF31C6F81C
:201D700078114DF64770C6F89401AC4BC6F8E8311622C6F82C211721C6F838111F20C6F830
:201D9000980146F20242C6F8302149F22F71C6F8401145F69943C6F824314AF23140C6F890
:201DB0009C014FF29512C6F8AC2146F67271C6F848114EF6DA00C6F8A001994BC6F8F43189
:201DD00046F6C032C6F83C211921C6F850112020C6F8A4014BF2BA22C6F8B4214AF2CF7186
:201DF000C6F858114DF6B713C6F8F0314AF61D30C6F8A8011822C6F8442147F6F761C6F81C
:201E100060112120C6F8B001864AC6F800224FF68710C6F8B8011B21C6F868112222C6F819
:201E3000BC214CF69F23C6F87C314BF65A20C6F8C00149F6C062C6F84C214CF22520C6F83F
:201E5000CC012322C6F8C8214BF64271C6F870112520C6F8E00147F25572C6F85421262029
:201E7000C6F8EC012422C6F8D4211A22C6F85C21A3F1C100C6F8D8014DF25102C6F8E421F6
:201E90004BF2D232C6F8642148F2B562C6F86C211C22C6F874210CF0DDFB4B46A6F802314B
:201EB0000F2286F80521484686F80401316DC6F8EC10F36CC6F8F030B28FA6F800210CF09B
:201ED000DBFF86F807010CF01BFD4FF6FF78D6F854A0D6F8F0B0A6F8FC80DFF8209386F870
:201EF0000601DA4518D0B16DD6F8EC00401A0FF06FF9BE490AF07CFF0E90ABEB0A000FF072
:201F100067F901460E9809F0F3FE0EF029FB4146814228BF80B200D24046A6F8FE000CF005
:201F300019FDC6F8F4000AF097FBC6F8F8000F2086F8080170780EF0FFFEADA30020A6F8E0
:201F50007E0093E8030008F019FF0DF025F847F29451A6F89800F378A74AA6F8CC1040F6EB
:201F7000B83096F80711A6F8B20051701BB1012B04BF0021F17042F6E94101263983082305
:201F90003E704FF0490A78834FF4F0726B7007F1300107F1400087F807A01E46BA8340F21C
:201FB0005232761E21F8022B134620F8023BF6D105F11800F862386A01210068B9718047B9
:201FD000786A00688047B86A0068804705F11401BF4A2878D160012845D1BE4E318800277F
:201FF000D9F80C00ADF8101002220DF135038DF83570092140686970844604A9504600975C
:20201000E047012889F805002DD10DE0F0100020F805010038120100021D01001828010025
:2020300067320100233C01007188D9F80C00ADF82A1040688DF8367002220DF13603394634
:20205000009706468DF82B1050460DF12A01B04789F80500012089F8030089F8047042F6BF
:20207000E066A9F806600A2068700BF013FE0B2068700DF0D9FDA71C04F10D060E9704F1BA
:202090004803109604F14002119304F10B0012920C21139004F13407149704F12C06159643
:2020B00004F109036970E21D1693671CB8481792661D1897E31C1996B64A1A93103002F1A2
:2020D00020011746DFF8E4A2DFF8E492DFF8E482DFF8E4B21B913E463B46391D1D91B74F63
:2020F000A860F11C1E91991C3E461F91511C3B462091F91C3A462191B11C2391591C249192
:20211000111D2591A248406800214FF040424FF0FF3310F059FD071CF4D0002006900DF1F5
:202130002E0106AA07A80EF069FA002870D1BDF81CC00126BCF1100F65D195489DF82E10CD
:20215000007888425FD1069D28884FF6FF71814259D02B78913B29D01F3B54D16878162804
:2021700018BF002205D130460EF0E0FE3246CBF80050874843699AB163B94FF6FD70B8490E
:20219000B84A00900023102004F0E2FD80494B69C2B22AB97E4843F002030026436132E0C9
:2021B00029790835284610F00BFD2CE06B780E3B02D09B1E24D026E0A88842F203018142D2
:2021D00021D1A9680D78F5B9491C04A80A684968026004AD41602878B84904AA00F0FD0095
:2021F0002870102004F0B4FD0DE0C04600007A4400000000000000002C310020E823002009
:2022100008200CF099F8069810B10EB110F020F9F80FFFF477AF5E48806810F0CDFC002823
:202230007FF470AF5A488568284610F0C1FC854208BF002502D085680EF026F8002DEAD0CD
:20225000534928884969401E00F08E81C01E00F08781001F00F07581083800F053811038EC
:2022700040F085816868427806788778C17841F60F0306EB0226001DF61A00F00181B61E03
:2022900000F0AA8045F6EF72B61A40F069810C2F00F26681DFE807F0948070665C52483E9E
:2022B000342A201107C0012940F05A8100780E990870CDF80080206D8BE0022940F0508183
:2022D000008810990880CDF80080606D81E0C046542500200C380100042940F04181006857
:2022F00011990860CDF80080E06C72E0042940F03781006812990860CDF80080606C68E0F0
:20231000022940F02D81008813990880CDF80080E06B5EE0042940F023810068149908609C
:20233000CDF80080A06B54E0042940F01981006815990860CDF80080206B4AE0022940F03F
:202350000F81008816990880CDF80080A06A40E0022940F00581008817990880CDF80080C9
:20237000606A36E0012940F0FB80007818990870CDF80080206A2CE0012940F0F1800178D8
:2023900027463970CDF80080E069394621E0C046F0080020FC120020022940F0E180008879
:2023B00019990880CDF80080A06912E0999D0000090F0000296300007C310020281600208E
:2023D000022940F0CD8000881A990880CDF8008060690F9A352392E0002F45D07F1E34D01C
:2023F0007F1E27D07F1E1AD07F1E0DD07F1E40F0B780042940F0B48000681B990860604877
:20241000CDF80090406A38E0022940F0A98000881D9908805A48CDF80090C0692DE00129F4
:2024300040F09E8000781E9908705548CDF80090806922E0012940F0938000781F990870A5
:202450004F48CDF80090406917E0012940F088800078209908704A48CDF8009000690CE099
:202470005DE500008D1A0100012979D1017844480170CDF800904249C0681C9A19233EE060
:20249000002F31D07F1E25D07F1E19D07F1E0BD07F1E65D1012963D1007821990870394810
:2024B000CDF800A0C06928E0012959D10078239908703448CDF800A080691EE095B4001055
:2024D00001294DD10078249908702E48CDF800A0406912E0022943D1008825990880294803
:2024F000CDF800A0006908E0012939D1017825480170CDF800A02349C068229A152309F0A5
:20251000D1FC2DE088082BD3DBF8007047B37888397908373A4610F047FB0746162F03D0EE
:20253000042F01D00EF002FD17484669C7B936F00206466114D1154A15494FF6FD700123AF
:202550000AE040F252300AA9443805F0B5FF0023BDF82820094808490090102004F0F8FB8C
:2025700068680DF091FE02E0A8780BF05BFE28460DF08AFE4FE6C0467106010040E20100D0
:20259000FC12002028160020F00800208D1A01005DE500002DE9F04FD04C04F118012046B8
:2025B000ADF1340D0CF0A0FA002604F1A40A4FF6FF7066700121208250460DF08BFCD0484D
:2025D00002210DF087FCCF4804210DF083FC04F14408042010223146A07040460AF049FCAD
:2025F00004F154091022484631460AF042FC04F11C073E6004F10A052E7007206072DFF8E2
:20261000FCB2E67102222672594610200346CDF8008004F09DFB102003225946CDF80090B7
:20263000034604F095FB0422102059460097134604F08EFB4FF0080A4FF003094FF0010B74
:2026500005F12A00079005F17900089005F11E00099005F15A000A9024350B9517E060784D
:20267000A28FE18FB4F84050B4F8423006280ED1ADF80A20ADF80C10ADF80E50A048ADF822
:2026900010300FF045FF584602A90AF029F8A069B24A31464FF0FF3310F096FA071CF6D0DD
:2026B000059606A80DF11A0105AA0DF0A7FF002840F0BA81BDF818102078102940F0B081B4
:2026D0009DF81A10884240F0AB81059D29884FF6FF728A4200F099812B78A23B00F07C81B9
:2026F0002E3B40F09D81A978B046002900F03881891E00F00981491E012940F2D380891E4C
:2027100000F09780491E6ED0491E5BD0083900F05381891E40F0568194F83A10A888052984
:20273000ADF8080046D076488DF812B00FF0F0FE94F83A0001281ED004281CD003280DD0D7
:2027500002280BD00598C188ADF80A100189ADF80C104189ADF80E10818927E0A18FE08F37
:20277000ADF80A10B4F84020ADF80C00B4F84210ADF80E201AE0A08FE9888842D8BF081CDD
:20279000ADF80A002989E08F8842D8BF081CADF80C006989B4F840008842D8BF081CADF81B
:2027B0000E00A989B4F84200884200DC0846ADF8100001E08DF81260A749102002AA04F09A
:2027D000C7FAFFE04F480FF0A3FE6B78002B40F0F980E88860822889A0826889E082484853
:2027F0000FF0F0FBEEE0AA88B249102004F0B0FA0798414606220AF03CFB6682A682E6821F
:20281000A87920733E480FF083FE3E480FF080FED8464FF6FF70237920823BB9A879082896
:2028300014BF042005206070E670CBE084F80190C8E06B787BBB291D0A6807980260898803
:2028500081800623637068892082E8896082288AA082688A94F83A10E082E8780129E072AB
:2028700018BF02290BD1994910201F2204F070FA4FF47A7180B2414321480DF047FB68893C
:202890000423009090490193EA7810202D1D2B4604F05EFA99E06878312840F08A80E67029
:2028B000042028E06B78002B40F08380A878E1896278032814D0E078257921B9012814BF5C
:2028D0002671E67005E0054303D081480DF01EFB6278072AE4D106200DE0C046B00500206E
:2028F000062A07D0E578002D08BF84F801906CD0022000E00720607067E0C046F1160100D9
:20291000780600209C0600206B78002B51D1EB78617893B902291DD007291BD0062902D15A
:202930002079012816D1032914D069480FF04AFB80B958460FF07EFB0CE00EF0B3F80246AD
:20295000A07960490090089843460190102004F0FFF968706D78002D2BD133E007000080BF
:202970006B7833BB5B485649009002221020034604F0EEF958484A46514900901020034659
:2029900004F0E6F9ED1C296809980160A9888180207884F801B00EF085F802465B460A9DB6
:2029B0006079484900901020019504F0D1F9C0B258B184F801A008E0AA88404910200523F6
:2029D00004F0C6F9B8F1010F2AD1256A45B3296831B36078884723E06879132820D128891C
:2029F000012808D1607B022805D13E480FF090FD0DF04EFE14E035491020052204F0A8F931
:202A100081B238480DF082FA0AE06888C00B07D3324804222A4900901346102004F098F94A
:202A3000059808B10FF014FD2579E07879082ED355EA00032BD0204600787DB9E279217A61
:202A50008DF808200B9D8DF809102B680DF10A010B60AA888A8003E0051601108DF8089004
:202A7000627A8DF81020A17A8DF811100EF01AF81149024602AB102004F06AF938B1256A96
:202A900084F801A01DB1296809B150468847B80803D31349304609F023FEF808FFF4F7AD72
:202AB000607B401E3FF4DBAD401E7FF4F0AD0DF0EFFDECE5A9EA000059440110C1170110C0
:202AD000C991000009450110A5940000051B010054060020F405002004060020CC05002025
:202AF000EA0500209C0600202DE9F04F0F46CD4C0168E16241688068ADF11C0DE060C548E1
:202B1000A1608047C448E16A0160A168DFF810A34160E168DFF804938160CE49002FA3462A
:202B3000C1606FD03D68E8788DF80C0028798DF80D0003A810F034F8A86808B1C64901604C
:202B5000E86808B1C5490160C54C287820706878BE686070A878B268A0703178A260736806
:202B7000E1702E696360EA6926627968E2620868E06068696062A8697B68A062286A9E68C9
:202B9000206395F8240084F834001EB900200EF0A5FE00E066617868C06818B900200EF00B
:202BB0009DFE00E0A0617868006918B900200EF095FE00E0E0617868406818B900200EF026
:202BD0008DFE00E0206128692062F86881680E6806B9D24ED0494FF001084E60C66881F892
:202BF000018036B900200EF079FE4D462E68F86801E04D462E6000685446FB68A06158680F
:202C1000E06107E000200EF069FE4D462E684FF001085446361DC7493668621C04F1140361
:202C30005020B04710B1286880688047DBF808008047C24E002781463B46BF48777069465F
:202C500020610422337038460DF09CF80098B0F5801F0CD020B90EF085F806F02DF908E0FB
:202C70000CF02EF90FF0F0F80420708001E00EF079F83846BA4EA0602B68B76098698047DE
:202C90007060AF4880F800803946418014200FF0E1F9FF211422A0620FF042FCE01CFF2167
:202CB00002220FF03DFC14200FF0D4F9A54F38603868002114220FF033FC002000F052F99C
:202CD00040460CF0DFFEA0480188FF2906D1022101807822001D00210FF022FC03200FF05A
:202CF0005BFF04200FF054FF05200FF04DFF06200FF046FF07200BF0C3FA944E0820307091
:202D100006F124000FF038FF0BF078FC06F1360A05200A2152460EF0E3FC38B10020C0F12D
:202D30000901401C0AF8011B0A28F8DB3078102107F090FC2B68864909200DF10E025E683F
:202D5000087001AB10200021B047A06AE1690A260A309DF80E20761E00F8012BF9D1891E4D
:202D7000E161DBF80C104846884704F120002B68626A059040461E69DFF8D88104F1200357
:202D90004146B04710B1286880688047B8460EF009F95FEA000903D008F02EFB4FF0FF39EA
:202DB000002643E00298216910F8062CA0F10C07032A03D1002939D0884737E0A16A9DF8FF
:202DD00010C00A223046491E11F8013F9C4506D0521E00F10100F7D14FF0FF0A01E05FFA5E
:202DF00080FA2868BAF1FF0F00F108001CD038790DF050F9B979012904D0022904BF02996B
:202E1000887001E002990870029950460EF09EFB0CE0C04641490010F8440020C4260020FC
:202E300094230020C0190020006880472868C36904A902AA0DF10F0098470028B2D0D8F808
:202E500000007700C35B6BB9761CF6B20A2EF8DB2BE0C046002C0100410C0100D51A0100E8
:202E7000342200200A2E20DADBF808008047D8F80010002231F807A0CA53DBF80C1088474B
:202E9000354850F8262026705146304690470646FF202070DBF808008047D8F800107A5A4C
:202EB00016437E52DBF80C1088470EF07BF80746B9451AD007B9294FE069B84238BF071CE0
:202ED000DBF80800804781462868016A206A8847626A28681F49059B521C6262C6683846E3
:202EF000B047DBF80C1048468847A768296860691431AFB9D8F800000A270026835B33B180
:202F10000969606988472968D8F8000014317F1E06F10206F2D107E0182600200F17010026
:202F3000096988472968143109684FF0FF3088472DE7C046BD1101004D1B0100A82600207C
:202F5000A42600209C310020401C0020B4140020AE310020DD000100583E01008EC2F52845
:202F70003C3100202DE9F84FDFF8BC13DFF8BC23DFF8BC5308700821002010600D23DFF8DD
:202F9000B40340F23732017043808280DFF8A8030560AC7EDFF8A4030470FF2CE97E417053
:202FB00008BFFF292A7F82706B7FC370AE7F0671ED7F457115D1FF2A08BFFF2B11D1FF2E85
:202FD00008BFFF2D0DD1DFF878130A7802704B7843708A788270CB78C3700A790271497922
:202FF0004171DFF860130278DFF85C83DFF85C93DFF85C730A70FF2543784B7082788A7021
:20301000C378CB7002790A714079487188F8005088F8015088F8025088F8035088F80450A8
:2030300088F805500020CB490880D9F83440CA49607808702278C9493A70A0780870A26857
:203050001079C74A411E1170E078C649C64A0870E068106008B90EF041FC2069C34E306019
:2030700008B90EF03BFC3068DFF804A301688847326852F8041F50468847BE48BE49CAF8C1
:203090002000CAF824106069BC49086008B90EF025FCA069BA49086008B90EF01FFCE0695D
:2030B000B849086008B90EF019FCDFF8DCB2B74C9BF804000EF0CEFF0028206075D09BF879
:2030D0000500B34E0EF0C6FF002830606DD09BF80600DFF8C0A20EF0BDFF0028CAF80000AC
:2030F00063D09BF807000EF0B5FFAB49002808605BD039789BF80000891C484380B20EF0EE
:20311000A9FFA649002888604FD03878002862D0BBF80210484380B20EF09CFFA04A0028A2
:20313000506042D038780EF095FF9E49002808603BD0387840000EF08DFF9B49002808600B
:2031500033D03878182148430EF084FF974A106058B3387840010EF07DFF9549086020B387
:20317000387800010EF076FF92490860E8B1387800010EF06FFF90490860B0B1387830217F
:2031900048430EF067FF8D4A106070B18C483978007848430EF05EFF8A4A106028B1387818
:2031B0000EF058FF8849086018B9BDE8F14F06F0F9B84FF0000B09E00EF014FF00214180EE
:2031D00081600180022303710BF1010B39785FFA8BF08842F0D32268694F0120107121685D
:2031F0000D732068457321688D732068C57321680D7400212068457400202268D172A0229B
:203210002168487103212068C2800172072022685072002120688172282120680122418235
:20323000C2760020216848770022206880F85E200121226811770120216881F85D00012267
:203250003068027131680D733068457331688D733068C57331680D740021306845740020D5
:203270003268D172002231684871306882724FF420703168C88008818A7401213368D9741C
:20329000DAF800201573DAF800104D73DAF800209573DAF80010CD73DAF800201574002249
:2032B000DAF800104D740121DAF80030DA720023DAF800201171DAF800104B71DAF80010D4
:2032D000C88008818B720520DAF800209374DAF800103E4AC87410688047396805460868B1
:2032F0008047396851F8042F00209047D9F80C101C4B0A881878364902430A802846354A32
:20331000136898470C2134480FF032FC40460FF02BFC0FF025FCBDE8F44F034800784FF4B3
:20333000005107F097B900BF6E4F0020044F0020B63F0050604E0020084F00202C4E0020B2
:20335000E81200503C4E0020344E0020AC4101007B4F00200C4F00206D4F00206B4F0020BE
:20337000724F00206C4F0020F04E0020F44E00207C4B00206520010085200100F84E002048
:20339000FC4E002080310020F8250020104F0020144F0020184F00201C4F002048310020F8
:2033B000684E0020004F002084310020804E0020844E0020884E00208C4E0020904E002015
:2033D000E8260020883100208C310020C8190020544F0020CC190020F84D00202DE9F84F6E
:2033F0000C46E00788B00BD50EF00CFE28B100218160B348006800B1804784F001005CE1FC
:20341000A0070FD500210023069105910491039302910191009101223C200FF09DFB84F035
:2034300002004AE11D256007A64EA74F40F18A80002107918B46A5488178FF2904BF002006
:203450000EF04CFA386890F8A0000EF0CBFC80463868C07A98F82691022818BF032808F57B
:20347000907A06D106F10D000FF072FB08B906F1070B514648460FF067FB88B33868807AC6
:20349000002818BF012804D1314650460FF058FB04E05246494630460FF04EFBFF2834D0CC
:2034B00005FB00F906EB090506225146E81D0EF075FB16F80900396840F00209E81D079043
:2034D0000622887E00F0010088F8260105F1010A386800F1140108F590700EF05FFB14E026
:2034F000514648460FF024FB78B15246494630460FF022FBFF2808D006F10D0145434819AA
:203510000FF026FB08B949F0020908F12C004B46017806914289120905920122B8F822102E
:203530000491C0880799029140080390CDF804B0CDF800A0002098F806100FF00DFB84F071
:203550000400BAE020060FD500210023069105910491039302910191009101223B200FF0E4
:20357000FBFA84F08000A8E0E0044BD5F11D06F10D000FF0D9FA3868017A012918BF042999
:2035900031D1C17A02291EBF0329817E01292AD1817E00F1140230460FF0CEFAFF2811D03B
:2035B0004543354405F10D000FF0D2FA50B9E91D05F10D000FF0B8FA38680622E91D143057
:2035D0000EF0ECFA3868C07A022818BF03280AD106F10D000FF0BCFA28B938680622F11DA6
:2035F0000C300EF0DBFA3A4842683A4800784FF480510BF0B3FE10B18E2009F001FB84F4EA
:2036100080505AE0A00505D50EF0A6FD324901200860FEE7600504D506F08DFC84F4806072
:203630004BE0600405D5812009F0EAFA84F4804043E0A10440D5294D286810B100200EF099
:203650004DF9274E4FF0FF3028600FF069FA3168244D51F8202F684690472349234B486A94
:203670008A6A009001920293C86A0268086A0392ADF810000A6B1178002904BF506800286C
:2036900005D19068002804BFD068002806D02970506868609168A960D068E8602946356884
:2036B000134A2E6813486B46B0471349086003F0B3FD84F4005000E0002009B0BDE8F08FF8
:2036D000204F0020AC450020104F0020684E0020784E00206E4F0020FC002043044F002050
:2036F000F04E00206845002034220020052001002C4D002040300020EC4E0020BB482DE957
:20371000F84F0025BA4CB849056094F8E200002800F06581012800F02F81B64E02283CD052
:20373000032840F05C8151F8250CD4F8B8100029A0F5C060C4F8D400B8BF49420028B8BF24
:203750004042814226DA4FF08057D7F8A4014568B4F8BC0030214FF47F42082300903046EF
:20377000A847D7F8A4014568B4F8C00004214FF4F802122300903046A847D7F8A401B4F811
:20379000D070456820214FF440620A2330460097A847012584F8D8501CE151F8258C0EF01E
:2037B000DBFC2F4600B901273946934F38680028FCD0B146012609F10409D9F82CA03E6077
:2037D00009B10EF0CFFCCAF30720C4F8BC000EF0C3FCAA4600B9B2463B68002BFCD0D9F831
:2037F00000B0BAF1000F3E6001D00EF0BBFCCBF38440C4F8C0000EF0AFFCAA4600B9B246E3
:203810003B68002BFCD0D9F81C90BAF1000F3E6001D00EF0A7FCC9F38120C4F8D000B8F521
:20383000C061C4F8B81000F09C8094F8D80068B9C4F8D410D4F8C000C4F8C800D4F8BC709A
:20385000C4F8C470D4F8D030C4F8CC30D4F8D400D4F8BC30002854BF02226FF0010204F1D6
:20387000C8010F6800EB40008018421000EB927207EBA2000860D4F8C810C4F8C43000297B
:203890001CDD1E293CDDD4F8CC0030B93429B4BF15391E21C4F8C81025E02A29BABFD4F8B0
:2038B000C8000B381E20C4F8C800D4F8C4003F28B4BF401C3F20C4F8C4001FE0D4F8CC00EF
:2038D000032812D011F10B0FC6BFD4F8C8000B30301CC4F8C800D4F8C4000028C4BF401EF2
:2038F000051CC4F8C450032508E011F1150FC6BFD4F8C8001530301CC4F8C800C4F8CC508B
:203910004FF08057D7F8A401B4F8C43030214FF47F424568374800930823A847D7F8A401CB
:2039300004214FF400321123456832480096A847B4F8C860D7F8A40104214FF4F80212231E
:2039500045682C480096A847D7F8A40120214FF440620A23B4F8CC60456826480096A84772
:2039700001E084F8D85040F2FF50404502D8801C40452FD2082030E051F8251C1F4F4BF243
:20399000F5204843060A3868C0F3814001280CD11B480068006880470BF0DEFF0EF0E8FB9A
:2039B0003111C010484306EBE03694F8E50030B91448006820F07F403618760801E084F83D
:2039D000E5501148310C0660012741600F4D8760287808B90B2000E0052084F8E40003F0B6
:2039F0008BFABDE8F88FC0462D400C402C500C40AC18002000A00C4000800C40B43F0050A0
:203A1000EC010010102009403C600C401D4001002DE9F84FB34D696884B0019121B905B057
:203A3000BDE8F04F0FF078B80978DFF8BC82AF4EDFF8BC92DFF8BCA201291CBF0229042919
:203A500046F2A81741F64C5B05D0402918BF802900F096803CE10EF027FC0028FAD00198F4
:203A7000007804F0E9FE0090446814B900200DF035FF9AF8010000285CD000F043F90EF078
:203A9000B1F902900168009801914F6809F060FE022825D000990A78012ADBD196490A68D7
:203AB000137A19F80310317018B90FF031F85844A0602069C17E01F0EF01C1762069C17E67
:203AD00041F08001C1762069C17E01F0F00141F00201C1762269B96888484118D1614BE0A6
:203AF00001980178802911D10820854930700A78012A03D09AF80100022801DB38690CE0DD
:203B1000D8F828003A690178D1720DE07C49072030700A783869012A02D10121C17203E06C
:203B3000D8F828104A78C2720298817901988AF80210C8E0009800288CD00199009A007846
:203B5000914205D101281CBF00200DF0C7FE15E0012840F0BD80684801680A7A19F802008B
:203B700030700EF0D5FF3918A0680EF0CDFF18B90EF0CEFF5844A0600120A8700098A2E015
:203B90009AF8010000287AD000F0BCF80EF02AF904462068029047689AF802000EF022F98B
:203BB00003900EF087FB10F0070F3DD0A87804F043FE0190416801980091029909F0C8FDAD
:203BD000022831D001990A78012A2AD14A490A68137A19F80310317028B90EF099FF8344D3
:203BF0000098C0F808B000980069C17E01F0EF01C17600980069C17E41F08001C176009894
:203C10000069C17E01F0F00141F00201C176009AB9683A4841181069C16101210198A9709A
:203C300051E000200DF05AFE0398A04225D0029833490278802A12D10820307009780129CC
:203C500003D09AF80100022803DB38690121C17210E0D8F828003A690178D1720AE0072098
:203C700030700978386901290EBF0122D8F828104A78C272A0798AF80200029823E00EF022
:203C900019FB10F0070F29D0A87804F0D5FD04462078D4F80480012820D117490868027A73
:203CB00019F8021031700EF033FF3918D8F808000EF02AFF20B90EF02BFF5844C8F808004B
:203CD0000120A870204605B0BDE8F04F06F080BD05B0BDE8F04F00200DF000BE05B0BDE89B
:203CF000F08F00BF48310020AC4101006F4F0020289A0110684E0020104F0020F0D8FFFF23
:203D1000734F00202DE9FE4FB24C617811B900200DF0E4FD0EF0FCFE4FF00008074607F626
:203D3000C417C246AC4DDFF8B49228E050460EF059F806467079F0B12968B07901F80800FC
:203D5000394608F101005FFA80F830460EF0D8FE30680178402902BF06F182000178012968
:203D700002BF41887289914205D1B169C088411830460BF095FF0AF101005FFA80FA99F8E5
:203D900000008245D2DB6178884505D000200DF0A5FD82200EF0B0FE6078012840F0F18075
:203DB000002701E07F1CFFB299F80000874280F2E28038460EF016F8064670790028F1D0C9
:203DD0002968B0790A7890421CBF00200DF086FDB079FDE0286810F809000EF003F8006842
:203DF0004268DAF808109068814204BF3E4609F1010900F0D480D6E0286890F800B0012234
:203E10004FF4C0710FE0636803F5AD76835C01FB03F901FB0BFE36F809C036F80E60B445E1
:203E300038BF9B46521CFBB29A42ECDB4FF6FF700EF05EFE064658460DF0D4FF68490068FB
:203E5000D0F804A00868D94630F8192060684FF4C07300F10E0103FB09F3C85AB2EBD00F20
:203E700052D2720840F6C4104243009200275D4A0190029217E058460DF0B4FF01680A7850
:203E9000802A03D1DAF81030009A5A610978402908D1029980790A6802EB4011009800F599
:203EB000A060C8617F1C47452EDA2868C05D8345F8D001464FF4C073594363685A1803F5CF
:203ED000AD73D289595A53088B4202D2521A9045E8DA0DF087FF01684A68019B9168DAF8A0
:203EF00008207008A1F6C41103FB00200EF00CFE0028C0D03A48006830F81910491C20F810
:203F10001910286810F807B0296808780DF06AFF0026006847684FF4C079464551DA2868A3
:203F3000805D0DF05FFF0068296842688B5D606809FB03F3034403F18201087830B15889EC
:203F5000B1F802C0401C80B2604508DA887B01280ED15889098A401C80B2884208DB6EB3F6
:203F7000B968906801F5C241A8310EF0CDFD28B3761CF6B2D1E700200DF0B0FC82200EF048
:203F9000BBFD617828680EF0AFFD286800780DF029FF00260068D0F804A04FF00109771C43
:203FB000C145FFF617AFF6B2002E1CBFF8B200287FF422AF286890F800B037E7296811F8E9
:203FD00006B007490A6800205B4622F813005846BDE8FE8F684E0020004F00207B4F00206C
:203FF00084310020844E00202DE9F84FDFF8C0B20F460546F80B80F00B81A74EDFF89082C7
:20401000B80F80F0BD80B80880F0B1803809C0F032819D480178090980F0A480007830F07B
:204030007F0040F09F80684607F036FA012803D10098002800F0968094480078002840F05E
:20405000918001240025E8B20DF090FE48B1837A3BB1847290F9090004FA00F0C0B20BF00B
:204070001DFF6D1C032DEED345464FF0030A05F1AC0085F810A00EF015FADFF82492002139
:2040900009F11402884610681160824952F8080C05F1340042F8088C42460EF013FA3068FD
:2040B000006B8047AA68A969801A000BC0F1FF328A422CBF01444FF0FF31A961287F20B126
:2040D000E868A969B1EBC02F1ED90DF06FF9414600B12146A9B1714840F609010180464688
:2040F0004680427B64F303024273027B66F30302027346604B46DE611860418811F4406F61
:20411000FBD02C774146A9616649086820F0020040F400700860644A42F804AC41F2300652
:20413000966014605023936014604FF4CA6696601460022042F80C4C44460C600CF00CF9A3
:20415000112006F0E7FA287818B9686838300EF0C5F9687F18B16C7705200CF0FDF853489E
:2041700068612C7409F0BAFE27F0080783E005F007FA40467430006808B927F002077AE0C9
:204190000EF098F934468146606D0068014604208847C8B1287CB8B14046083006689EB1CF
:2041B0002068EC68006B8047801BE860010BE960A14202D209194908E96040F6C410884262
:2041D0002CBFB1F5FA7FE86048460EF089FC0BF049FE90B1A8696FF4807100224FF00073B0
:2041F00004462846A04740466C300068002808BF47F0020701D009F071FE686900214FF0ED
:20421000806304460A462846A04727F0005732E00EF050F959460E684EB306F1280106C9F0
:204230000A234FF0E0450B40154008BF002B1ED106F1280191E8300006F1280393E80600F0
:2042500006F12803AA43A14383E806000EF048FCB16871B1002D08BF002C0AD03069B6F92B
:204270003C10B2682B4616462246B04701E00EF037FC27F4804727B15846394650300EF035
:2042900035F9BDE8F88FC046A631002089280020F0260020DDDB00008C0100100431002006
:2042B00000100440000004600C41044055A30000702700202DE9FC41A0F2013714468846B1
:2042D000022F40F233819B4E9C493F1F0F2F04D9143F4CD0BF1E1CD011E0DFE817F0D000A9
:2042F000CA000E01FB00C200BA002701B000A800100010009E0090008000750066002D28E0
:2043100080F21481B8F1020F40F010818849238808E1B8F1010F40F00981F078012800F0B2
:204330000581324620781179107189B9002800F0FD805078012800F0B680042800F0B3808F
:20435000062800F0B080052800F0AD80BDE8FC812078002840F0EA805078032800F0B08026
:20437000072800F0AD80052840F0E080A8E0B8F1010F40F0DB802078012840F0D78006F119
:20439000EC000DF01FFE002840F0D0803446002004F13A0108F0A4F9002840F0C78004F16C
:2043B000C8000EF0B5F8BDE8FC81B8F1020F40F0BD8020880A28C0F2B980B0F5486F00F31D
:2043D000B5800E46B61C17E0B8F1020F40F0AE802088B0F5FA7F80F2A9800E460CE0B8F119
:2043F000020F40F0A38020880628C0F29F80B0F5486F00F39B803E363080BDE8FC81B8F149
:20441000020F40F0938020880628C0F28F80B0F5486F00F38B803C36EEE7B8F1010F40F017
:2044300085802078062880F28180454E0EE0B8F1010F7BD12078042878DA0A3606E0B8F1C3
:20445000010F73D12078082870DA09363070BDE8FC81B8F1010F69D12078042866DA0836B0
:20447000F4E7B8F1010F61D1207804285EDCF61DECE7B8F1020F59D120880E36BCE7B8F166
:20449000010F53D13079012850D032462078D178D07069B9002849D05078012803D00428FA
:2044B00018BF052842D101200DF0C4FDBDE8FC81207800283AD15078022818BF052835D10D
:2044D00010780CF0EFFA1C490246102002F040FCBDE8FC8106F1830500211F22284608F0EB
:2044F000C8FC21464246284607F0C0F844463078B4710CF0D7FA002311E006F16405002123
:204510001F22284608F0B5FC21464246284607F0ADF84446307874710CF0C4FA01230094B1
:20453000084901950246102002F012FCBDE8FC816D040100B005002099450110F00500209F
:20455000EA050020094501102DE9FC418E488F4A04788F488F4B90490D2C6FD8DFE814F08A
:2045700012010E000E000E000E000A010A018E000A01C900C900E700E700EE00106041F240
:2045900004478648864DB0F802C08649BC451FBFB0F81AE0BE45B0F83280B8454FF4A056D2
:2045B0001ED181480068D0F800C09CF8040003280CF1080E0BD1DEF80E0000281CBFBEF8F4
:2045D0001800002803D01F80784911608AE0022C1CBF1E800D46156000208CF8040081E005
:2045F000BCF1000FA3F800C041D0BCF1010743D0B7F1010C3BD040F2FE37BCEB07071ED0F1
:20461000A7F1040CBCF1010F20D94FF47F77BCEB070C1DD04FF44067BCEB07070FD0BF1EF1
:20463000012F0CD93F1F0AD07B1E012B0ED940F2F937DB1B012B1AD91B1F09D09AE0022C3F
:2046500001D115604EE01E800D46FAE7584DF8E7584B1C68257A012D05D141F2024343807A
:2046700043834386F0E7468046834686ECE700200DF034F9832081E08F207FE04E498978A2
:20469000FF290CD0106018204C4C41432068851C40F204466C5A1C80A41B012C484B71D972
:2046B0004FF47F76A41B0FD04FF44066A41B032C84BF641F012C0BD9A41E012C62D940F20A
:2046D000FD36A41B08D103E0801C41F201444452136005F029F905E000200DF0FFF885204A
:2046F0000EF00AFABDE8FC4136480078012105F0B1BF40F204424888188090421CBF41F289
:20471000084290423ED041F60402904211D12E4C2E482F4B00680025CDE9004502222D4CDF
:20473000256855F8086FB0472B4908802AE04888188000200DF0D2F885201FE048881880C0
:2047500002280DD940F20442801A1BD040F6FC72801A05D0083815D04FF47F72801AE8D17D
:20477000887B801CC2B2B52AA8BF662088730020488007E000200DF0B1F88420BDE8F6413A
:204790000EF0BAB9BDE8F3816F4F0020204F002085240100504F0020CC4C0020204A0020E7
:2047B000B1540110615A0110F44B002059550110755B0110104F0020684E0020804E0020C5
:2047D000313901106E4F002002000080EC4E002005040100F04E0020424F00202DE9F04F27
:2047F0008246DAF80070DAF804600C465FEA0208ADF11C0D14BF00214FF0FF31DFF84092F1
:2048100048460DF05CFB002818BF0B2040F0158100258F488C4905708A48FC6052460DF0AD
:2048300051FE317B27200DF04FFEB8F1010F07D0657002200BF0A4FF06200BF0A1FF01E015
:20485000012060702078012840F2AA80801E012868D9801E012833D9801E012800F2DE8048
:204870000DF028FE83464FF0805000F5EE77D0F8DC01A378466A009321782846062908BFD3
:204890000120019001200290A068228AE1686368B047814658460EF023F9B9F1000F40F07C
:2048B000BF80B8F1000F02D00DF030F902E050460BF0EEFD002800F0A3803868806A2AE0CC
:2048D0000DF0F8FD83464FF0805000F5EE77D0F8DC01012306680093A168A2786068247853
:2048F000AC46042C08BF9C466346B047814658460EF0F6F8B9F1000F40F09280B8F1000F39
:2049100002D00DF003F902E050460BF0C1FD002876D03868406880474C49C1F8B0510D6052
:2049300081467DE00DF0C6FD83464FF0805000F5EE77D0F8DC01E38A86690093E0680190E4
:20495000208B0290A0780390207D04900121059122782846022A08BF081CE1786268A36829
:20497000B047814658460EF0BBF8B9F1000F57D1B8F1000F02D00DF0C9F802E050460BF07E
:2049900087FD00283CD03868006A80475FEA000946D1E078A168E28A236907F06BFFBFE7B5
:2049B0000DF088FD83464FF0805000F5EE76D0F8DC01E38AC7680093E0680190208B02904A
:2049D000A0780390207D2946049001200590257805B9014608466268A368E178B8478146E2
:2049F00058460EF07DF8B9F1000F19D1B8F1000F02D00DF08BF802E050460BF049FD08B96F
:204A100014201AE03068406980475FEA000907D1306802692169E078904781E74FF0FF398B
:204A3000B8F1010F05D002200BF096FC06200BF093FC03480DF052FD484607B0BDE8F08F79
:204A5000301D0020681D0020250E010050450240AC3100202DE9F04385B011F8017B0446DF
:204A7000082F04F1FD0004F1FC0804F1760504F5A076844A844BDFF8149213D0092F21D05F
:204A90000F2F2FD0112F01BF287801286878102840F0D5800A78327648787076012184F8F5
:204AB0003D11EBE00025521C4E5D5F5D3E434E55575D3E4046556D1C082DF5DB204608F0F6
:204AD00011FE74E00024571C0D5D1E5D35430D553A5D15400555641C082CF5DB022088F8A1
:204AF0000000CBE098F80100820704D410F0110F57D01A2266E008784A7800EB0220308041
:204B1000CA78887800EB022070804A79087900EB0220B080CA79887900EB0220F080087A82
:204B300030724A7A887A02EB00227281C87A0A7B00EB0220B0818A7B487B00EB0220F081B0
:204B50000A7CC87B00EB022030828A7C487C00EB022070820A7DC87C00EB0220B082487D25
:204B7000897D00EB0120F082494801788A0658BF1A2212D504F5A670049071890391307AF2
:204B9000029021890191F0880090B38872883188204608F045FBE0B11E2298F801004107F9
:204BB00010D40F2088F8150020460DF095FF002864D199F8000005B0BDE8F0434FF48041C7
:204BD00005F048BD204605B0BDE8F0430F210DF07FBF7088A882B188E9820221F088288361
:204BF000297400206882A18EA88AC91DE981618EB0EB510F02BFE88AA18E884202BF288BC3
:204C1000E18EB0EB111F18D02878012804BF68780F2805D0687918B10F21A972FE2127E0CF
:204C3000FC2120460DF050FFF0880090B38872883188A0790DF044FF20E0102118E0491EB6
:204C500020460DF039FF032F18D1A878042818BF0D2813D16E78142E18BF0E2E0ED12F7891
:204C700020460DF025FF012F06BFAE72FD213146204605B0BDE8F0430DF026BF05B0BDE8C4
:204C9000F08300BFEC4D00206C3100206E4F0020144E002010B50B7884074CBF43F0020347
:204CB00003F0FD0304064CBF43F0800303F07F0304074CBF43F0080303F0F70384064CBFDB
:204CD00043F0200303F0DF0310F0AA0F0B7003D0107840F00C0003E018B9107800F0F300AF
:204CF000107010BD2DE9F8430D4600272878022814461E4667D1696808784978DDF8208045
:204D100000EB012080B25FEA08021CBFB0F5285F0B205BD14FF42851401A08D0401E21D057
:204D3000401E2FD0401E25D0401E31D04BE0DDF82490E8680DF0F6FB80B2A0EB08024A450C
:204D5000BCBFA0EB08001FFA80F909EB0800162806DAA6F800904A46E86800EB08010DE09A
:204D70000D2732E0E8680088022131802070000A60702AE0062030800622E96820460CF00C
:204D90000DFF22E001203080E9680A7822701CE0E868B0B1082131800288227003881B0A6C
:204DB00063704188A1704288120AE270818821718288120A6271C188A171C088000AE0716C
:204DD00003E0308001E0378001273846BDE8F2832DE9F0470F46814638780024022890469B
:204DF0001D466DD17868089E01784078DFF8D8A001EB002189B24FF42852891A06D0491E17
:204E100029D0491E4ED0491E39D059E0F8680DF089FB80B2B04204D3A919162903DB0D246F
:204E30004FE007244DE0FB682A46414698190CF0B5FEAD19F868ADB2C5F116020021401954
:204E50000DF06EFBDAF8000000281CBF0268002A37D0002123E08EBB022DE0D198F800008F
:204E700098F80110FA6800EB01201080DAF8000000281CBF0268002A23D001210FE0EEB96F
:204E9000062DCCD1F868062241460CF087FEDAF8000000281CBF0268002A12D003214846A5
:204EB00090470EE056B9012DB9D198F80000002813BF0128F9680870802402E00B2400E035
:204ED00001242046BDE8F087943100207CB5894D144602460026A2F58062182A1AD8DFE8F3
:204EF00012F0FE00F800F100E900E200DC00D500D0001900C500BE00B700AE00A3001900B0
:204F1000190080006F00680054004C00420039002C0024002D2880F28580022940F082807D
:204F300021880BF09BFA0646E1E0012940F0DE80002C00F0DB801135A6E0102940F0D68061
:204F5000002C00F0D38028465030102221460CF025FECCE0012940F0C980002C00F0C6807B
:204F700029468D1D90E0262940F0C080002C00F0BD8005F160002622E8E7012940F0B68083
:204F9000002C00F0B3806D1D7EE0602900D13CB9012940F0AB80002C00F0A8800D3573E01D
:204FB00005F18600214660220CF0F8FD012068739DE0012940F09A8020780DF075FD96E021
:204FD000012940F093802078022800F38F800C3528702078022814BF301C01200DF060FD5B
:204FF00085E0072940F08280611C684606220CF09FFC20786946324605F010FE04460A2CAE
:2050100010DA0DF049FD38B9204603F023F90BF0DDFF09F0F3FA6AE02A46012002F12C0531
:20503000285564E0022662E001295FD1A87B21780028A9735BD12078012858D1E9E70129CB
:2050500054D12478072C51DB102C4FDC0B3537E001294BD124780A2C48DA093530E00129B0
:2050700044D12478022C41DA083529E000293DD10DF012FD10B90CF026FEC8E701240F359C
:205090001EE0012932D10A35247819E001292DD12478022C2ADAED1D12E0102926D12B466E
:2050B00003F1400051E7012920D12478022C1DDA2D1D05E0012919D12478042C16DCED1C8E
:2050D0002C7014E0012911D12478022C0EDAAD1CF6E702290AD120881435288007E001291C
:2050F00004D12478022CD8BF6D1CE9DD182630467CBDC046B41400202DE9FE4F05467B48CF
:20511000002400680094C00905D37948007810B920200BF0F1F9012D40F0E280DFF800926E
:20513000D9F8DC00012840F0D8800220C9F8DC000CF074FC01200BF0DFF95FEA000805D0BC
:205150000120C9F8DC000CF075FCCBE00DF0CAF9A34602906748684DC0F800B0A86A0168E7
:2051700001208847012804D1584608F027FB012000906248624FC0F800B0386811200DF037
:2051900009F800B1012410200DF004F808B144F002040F200CF0FEFF08B144F004040B20C4
:2051B0000CF0F8FF20B12868564E016B308888470A200CF0EFFF20B12868534E016B3088BA
:2051D00088475248012606602868816944F0200088474F4806600CF0D7FF00F001010191D9
:2051F000400814D2286A81684A4888478246BAF1040FF7D0BAF1010F04D1286A42684548EF
:20521000032190474449086820F003000860584600F088F82B683868986B8047019801283E
:205230000CD0BAF1010F04D1286A42683948314690473949086840F0030008602F4806607D
:2052500028684169204688470B200CF0A3FF20B128682C4BC16A188888470A200CF09AFFD5
:2052700020B12868284BC16A18888847274806600322C9F8DC20264BC3F800B02868416BE1
:20529000204688470128F9D1386804200BF034F90446184806603868144800688009FBD31F
:2052B0000098012802D1304608F088FA0CF05AFF08200BF021F907460298C9F8DC600DF0E7
:2052D000E7FB1648008808F01DF80CF0B3FB57EA040018BF4FF0FF3804E06FF0040801E07D
:2052F0006FF001084046BDE8FE8FC04614100940941900200C400940B80100100002224379
:205310002C2009403C3C0100383C0100282008608001044300400340242208401840010018
:20533000AC1800202DE9F84FDFF804B20746ABF13500DFF8F0810068800880F0E2807548AA
:205350000068006880477E490831D1F8009000254FEA29715FEA995201F101010AD2C0F1A0
:205370003E0210F10A0F4FEAE202D8BF08229142B8BF111C684BD3F87C21C2F30462162AF8
:20539000A8BF203A1B68C3F30443162BA8BF203B9A465218162A05DA12F10A0FB8BF6FF05E
:2053B000090200E015225D4B5D4E02F01F0141F4F8511980316811F0030F18BF0125C908C5
:2053D00028BF45F002050FB145F00405434693F90710411A052904DA9979A94208BF998824
:2053F0006FD0DFF844E10F28A0F10F0829DB08EB0011A1F1F0084FEA28210091072984BF6B
:2054100007210091062988BF06215EF821600424774604EB81043C594FEA950CA41BEE08D2
:2054300004F0FF0124BFC4F3072631446F08AE0824BFC4F3074631446E0828BF01EB1461E5
:2054500004E000214FEA950C6F080091009C5EF824E05FEA5C060EF0FF0424BFCEF30726E2
:2054700034447E0824BFCEF3074634446E0828BF04EB1E64009E89B2A8EB062671438031EA
:2054900004EB1124AAEB02010029D8BF0121342209F0FF074A4391B24FF6FF727943B1FB1B
:2054B000F4F18A4238BF111C802889B2998005DA10F1800FB8BF6FF07F0000E07F20D8717F
:2054D0009D711A4800681F2918604FF0000008D340F2FF128A4206D24908401C8A42FBD3DC
:2054F00001E01F219980134F0F39090940EAC10047EA0001CBF8FB1F0026CBF8FF6FBDE8B0
:20551000F88F0D490D4F434608200F609B1D1870BDE8F88FEC0100103C1100506E62084004
:2055300024220840743100209C130050082009403500094000E7A48030100940FDFDA400E8
:20555000AC3F00502DE9F04F044675488A46016894461F46BAF1000FADF13C0D4DD0BCF1C1
:20557000000F4AD09AF8002001209040014244D0BCF80000B0F5C15F32D1DCF81430DCF890
:2055900018206848DCF81C104FF0030E0DF128080B93DFF894B10C9200680D91C0F3036918
:2055B00058F8046FCEB10021351F05200B4655F8042FB2F1FF3F10D0934506D0401E01F16F
:2055D000040103F10103F2D107E0052B05DA705820F4702040EA09407050BEF1010EDFD1F8
:2055F000C4F804A0C4F808C00CF064FF4F4D8046287820B140460DF073FA00208DE002F016
:20561000F1FF4B49086840F00200086007A80CF0C1FC002605F1D00007AA464909960AF0BF
:20563000D7F9454905F5827007AA0AF0D1F907A80CF070FCFF2105F1340007AB3F4A089166
:2056500019210AF0F1F83E4A05F150001A2107AB0AF0EAF83B49324605F18800134609F0BA
:20567000A3F93949324605F1AC00134609F09CF9364A05F12000042133460BF007FC0E209B
:2056900005F072FA05F174000CF048FB05F16C000CF044FB2E74072085F898012E77AE61C0
:2056B0006E770523AE602B49EB602A786961501C2870274B1E7040460DF012FAB1464FB902
:2056D0002548B0E88C106946A1E88C100DC86F4681E80D0038682060398A6182012060748A
:2056F0007B6813B940F6C4130646E3601B48A06126746061F86800B1A061B86800B16061EC
:205710005822494604F1200007F0B3FB04F1380049460BF061FA20466C600FB0BDE8F08F8F
:20573000D4210840541300500200F844F026002000200940751A010089A20000DDDB000015
:2057500041DA00009D1301000D18010035EC0000A631002055A30000883F0100D7BB0000DD
:205770002DE9F04F05468048066800680F461C469246C4F399018900ADF12C0D0A0100216F
:20579000803207F076FBDFF8C891A9F1880002466E48016830469047A30880466108019767
:2057B0009F1C21F00101F819009506EB80000390091DCDF808A07818434506EB800206EB52
:2057D000870B3844049206EB80000690C4F39C004FEA800000F1080007EB400000EB0702E3
:2057F00006EB82020A9224F0030202F1080200EB020506EB85053A44059506EB82050A4427
:2058100007953A4406EB8202089206EB80020992084406EB800A384406EB800518BF6FF052
:20583000010040F08F8009F16800024641463046904700233CB10199264611F8010B761EDB
:2058500040EA0303F9D1002B08BF01207AD000263CB10299234611F8010B5B1E40EA060606
:20587000F9D1002E08BF02206CD001995846C84703980299C847009881680498C8473548C6
:20589000049A594681462846C847012803D14FEA88042E590EB1032054E0BE0028460021CB
:2058B000324607F0E6FA0399049A2846C847012801D12F590FB1042044E0274F274C0698C0
:2058D00059463A46A047079803993A46A0470699089827460A46B84709980899069AB84734
:2058F0000A9806991E4C2246B84728460021282207F0BFFA1B4809990A9A81462846C84710
:205910002034284622460146C847079950460A46B84705980021324607F0ABFA5FFA88F4CB
:205930005046002C0CBF01225FFA88F200216B5C445CA34218BF052004D1491C521EC9B246
:20595000F5D100200BB0BDE8F08FC0468C4F0020B9DB0010C9DE0010C8230020F9E0001022
:20597000303D0100C9E60010884F00202DE9F0410446804DA178A869ADF1180D891F00F010
:20599000F280C91E00F0DD80491E5FD0491E48D0C91E3CD0481E40F0E980287A697AB8B954
:2059B0006878002831D0A0880DF06EF8071C00F0DD80A07A40080FD3787968B1E168890AA9
:2059D0000AD2B91D01AA05F029F90A2804D10321A0880DF055F8C9E0287B022802D1A07A43
:2059F0000009F4D3A088797904F1080201F04CFBA869002800F0BA804368002B00F0B68017
:205A100000210A46A0889847B0E00521E0E7002800F0AC804368002B00F0A8806278022152
:205A3000F0E70CF0F7FA002800F0A080A86950B1076847B1206900906189227B637BE01C67
:205A50003C46A04792E060890121C2E767784FF00008002F66D1A179490863D3EF69002FF3
:205A700060D101A841460E220CF05AFDA0880DF00BF8071C7AD0606940B97879B91D0622EC
:205A90008DF80A0001A80CF089F819E06669307C062206F111018DF80A0001A80CF07EF8F2
:205AB00007F10C00B91D06220CF078F8B81D062206F111010CF072F8307C40F00200787135
:205AD000A079C00839BF387900F0FD00387940F002003871A079000939BF387900F0DF0019
:205AF000387940F020003871A1799DF81120C1F3800010438DF81100080905D39DF8110060
:205B100040F008008DF8110001A8214600F02AFA28B92878022104F09DFD404627E0A869B3
:205B30004FF0150810B3436803B3A088627801219847B8F1000F19D0A869436803214246C9
:205B500060E7E078211D002205F068F80A280DDA410001EB800004F10C0225300421C0B22C
:205B700003F02AFB02E0A08808F096FF012006B0BDE8F081B41400202DE9FE4F0E46824612
:205B9000307AC10693461F464FF000090CD558460CF072FF030000F0E8800A22314650467E
:205BB00098475FEA00094DD130780C9D0D9CDDF8388002281AD170680178407801EB0021D4
:205BD00089B24FF42052891A012910D9891E3AD0491E14D0FD397AD0491E00F08180491ED4
:205BF0006DD0491E73D0491E00F09580ABE0002C2AD1F068017829800278416887E0002C60
:205C100022D101202880F1680A783A7000217089401C80B20CF02CFF298860B10278921C7A
:205C300051182980418979704289120ABA7041680278F81C6CE0091D298004220021781C51
:205C50000CF06EFC93E0002C66D1F0680688042129803E70320A7A700DF1020130460CF0FD
:205C700007FF040021D0D4F80C80BDF802204FF6FF766B4631460CF0F7FE40B923786268B9
:205C90003C4802210CF0ECFE08B9ADF8006098F8000002280BD1D8F804100222381D0BF0B3
:205CB0007DFF2888801C288001E0ADF80060BDF80000B870BDF80010090AF97057E0002CFD
:205CD0002AD1F068016850460CF01CF902E01CBBF0680088022129803870000A787046E02C
:205CF000F0680CF01FFC80B2A042B8BF4FF007093DDB844208BF002205D008EB04028242F2
:205D1000B4BF4246021B2A8092B2F068011938460BF044FF2BE014B14FF00B0927E0F068BD
:205D30000721298002783A7043787B704188B9704288120AFA7001793971C2887A71C088D5
:205D5000000AB87113E058460CF086FE5FEA00090BD00F980290CDF8048000942B463A46BB
:205D700031465046C847814601E04FF00E094846BDE8FE8FBC3D01002DE9F04F0646880F07
:205D9000ADF1140DC0F0D7806C4F381D006841688D68CC68486800B18047B946694F002DD7
:205DB00008BF002C0DD038461C300368002BFCD00021016005B1A84704B1A04760480BF071
:205DD00051F83C4600256049E5616048216040F60A0CA0F800C04580017B65F303010173F6
:205DF000AA46C0F804A0417B4FF0010B6BF303014173B268737C558011888646A1F602014D
:205E1000C9B141F21E07C91B15D041F6E677C91B012920D8507E012B65F38200507606D0CD
:205E3000108B20F47C7040F43470108313E0108B65F30910F9E7507C012B65F382005074D7
:205E500005D0108A20F47C7040F4347002E0108A65F309101082D6F80880757460464746FA
:205E700000E01F467B6813B119888842F9D1C7F804E0797B65F303017973D9F86C303BB1B9
:205E9000D9680988C21F8A421ED0801F88421BD0338CDBB1C6F824A006F12000458096F8FA
:205EB0002C1065F3030186F82C1096F82D106BF3030186F82D10CEF804009EF80D0065F3D3
:205ED00003008EF80D0001E0C9F808502048036882680192C168406B0093102220F0784071
:205EF00040F0805003901B480291694605F0BEFBE0690028FCD01848C9F8140099F81D008C
:205F1000E56178B915480068006801465846884701280DD0787B6BF303007873104EC9F8B5
:205F3000146005E009F0A0FB0028FBD00CF0D2FAE561C4F8008005B0BDE8F08FF026002018
:205F5000010007060010044001010E04043100204C13005018000021F93F0000E001001055
:205F70004DDF00002DE9F04F754CDFF8D0A1E56988468146ADF1140D002D52D1B9F1000FDC
:205F900000F09A80B8F1000F00F096800AF000FF06460A2E267426DAD8F81470002F41D07E
:205FB000700010216A4600EB86002330C0B20BF097FBB0B91020ADF1010111F8012FFF2A22
:205FD00002D1401EF9D10CE05046007838B999F80600494600F001000CF03AFD01E001207F
:205FF000A074E5691DE004F1E60B0A2700265846FF2106220BF0E0FC88B97F1E0BF10E0B45
:2060100006F10106F3D1607C002804BF0A20207452D094F83660304602F01CF9E569267480
:2060300000E0267C0A2E47DA002D35D170000E214A4600EB86002030C0B203F0BDF8207C9C
:2060500008F03CFE6846FF2110220CF069FA207C10216A467030C0B203F0AEF8217C0E22AA
:206070000801A0EB410000194946E6300BF096FDD8F814206AB15046007840B9107C02F14A
:206090001101002300F001000CF0DEFC01E00120A074C4F81C804CE0AA68002A3ED12A697C
:2060B000002A2FD16A690ABBEA683AB9A07B08B10AF008FA0BF005FB01203BE07000102121
:2060D00000EB86002430C0B203F076F8E769217CFA68480000EB8100103225300421C0B2E7
:2060F00003F06AF8E1690020C86022E07000102100EB86002330C0B203F05EF8E16900201D
:20611000486116E070001C2100EB86002230C0B203F052F8E169002008610AE070001C2147
:2061300000EB86002130C0B203F046F8E16900208860002005B0BDE8F08FC0465A4F0020D0
:20615000B41400202DE9FE4F714C606A406801466846884720792279BDF80010401C04EBAD
:206170004202C0B208281186B9BF20714FF0000A4FF0000A84F804A0A06A4068014604F1E9
:20619000080088476179208904EB4101A1F840006079401CC0B20828B4BF607184F805A04F
:2061B000FF23082720461D462E3030F8022F018A7F1E1A44294493B28DB2F6D141F27071AC
:2061D000D810ED109942D8BF94F8018002DD01276770B84640F6C411814202DA01276770C6
:2061F000B846A1F19602824206DB40F25233834203DDA382184601E01046A08240F2EE2347
:20621000AB4202DD02276770B846A94202DA02276770B846AA4205DB6433AB4203DDE3824A
:206230001D4601E01546E582A0F252300F2190FBF1F086B22682678AB4F80AB0B4F80C9019
:20625000012F12D158460BF0A1F90190029148460AF0F9FB2CA20CCA02F030FF02460B46EA
:206270000198029906F0C3FA1DD90FB9062E15DA58460AF0E8FB01908B4648460AF0E3FB03
:2062900021A20CCA02F01AFF024601980B46594606F06AFA12D2062E0ADB0FE00127678222
:2062B000A4F80CB00AE0B9F1000F05D1062E03DAA4F812A0574601E0012767820F20A5F249
:2062D0005231B8F1000F91FBF0F081B261810BD1012F09D0E0792822484300B2C0EB8010F2
:2062F00090FBF2F0E08101E0A4F80EA0E06A0268A08B1346424698470649887884F802A089
:20631000401C8870BDE8FE8F666666666666E63F3C200020102400202DE9F84F8B460AAFA7
:206330006D4E9BF80050DBF80400BC889246984631462A463F8800900AF014FF4FF000094B
:2063500040B9022F00F3BC80C7F10200A04200F3AD808DE000982A46B11C0AF003FF40B9E1
:20637000022F00F3AD80C7F10200A04200F39E807EE00098311D2A460AF0F4FE40B9022F45
:2063900080F29E80C7F10100A04200F38F806FE0009806F114012A460AF0E4FE38B9022F5F
:2063B00080F28E80C7F10100A0427FDC60E0009806F124012A460AF0D5FE30B9022F7FDCB1
:2063D000C7F10200A04271DC52E0009806F134012A460AF0C7FE30B9022F71DCC7F102007E
:2063F000A04263DC44E0009806F144012A460AF0B9FE30B9042F63DCC7F10400A04255DC29
:2064100036E0009806F154012A460AF0ABFE30B9042F55DCC7F10400A04247DC28E00098B1
:2064300006F164012A460AF09DFE30B9022F47DCC7F10400A04239DC1AE0009806F17401FD
:206450002A460AF08FFE30B9042F39DCC7F10400A0422BDC0CE0009806F184012A460AF0F5
:2064700081FE38B9042F2BDCC7F10400A0421DDC84B21BE00098B11D2A460AF073FE30B970
:20649000022F1DDAC7F10100A0420DDD0EE0009894362A4631460AF065FEA0B9022F0FDC36
:2064B000C7F10200A04201DC82B200E02246A8F80020DBF80C105046C91905F0D7F807E005
:2064D0004FF0070904E048464FF00A09A8F800004846BDE8F88FC046683901002DE9FC4F36
:2064F00083F0004301E02DE9FC4F1F03FF0847EAD2574FEA42284FEA43095FEA595906D117
:2065100047EA080A1CBF00210020BDE8FC8F57F000575FF4E06E1EF1FF0EF14505D14FF036
:206530000000190D0905BDE8FC8F002B05D55FF0000AD8F100086AEB07070C03E40844EA2C
:20655000D0544FEA40254FEA4106760D08D144EA050A19BF00210020191C101CBDE8FC8FA6
:2065700044F00054764504D10020090D0905BDE8FC8F002904D55FF0000A6D426AEB040418
:20659000B6EB090E08D5A2463C465746AA464546D046CEF1000E4E46BEF1360F5CBF4FF00F
:2065B000000B23E0BEF1000F04BF4FF0000B1AE0CEF1390ABAF120092EBF08FA09FB07FA2E
:2065D0000AFB4BEA080BDEF1200A07FA0AFA38BFBA4647FA0EF72DBF28FA0EF8AEF1200E42
:2065F0004AFA0EF8D04415EB08057C4154EA050A02BF00210020BDE8FC8F002C58BF4FF062
:20661000000A06D55FF0010A5FF0000E6D426EEB0404A6F101066D006441FAD515F4806E48
:2066300011D005F480794BEA090B15F5806554F1000428BF761C0BD205F400795BEA090BD5
:2066500008BF25F4006525F4E0656D0044EB0404B61CDEBF00210020BDE8FC8F5FF4E06E62
:206670001EF1FF0E76450AD34FF0000013F00043FF21C900C91D09051943BDE8FC8F27053C
:2066900047EA1530210B41EA065141EACA71BDE8FC8F70472DE9F04FADF11C0D0190049335
:2066B00000280392109D0291119C059500F0BC80081C00F0B980101C00F0B680181C00F097
:2066D000B380281C00F0B080002C00F0B280206A002800F0A9805A4D676A281D0068002FA6
:2066F00000F0A280A16A0CF0ABF940B2071C08BF6FF0020700F0948020786288216A84F8FC
:206710002C7000EB80001218143290B288474B49086030B9284640680CF08EF94FF0FF37EE
:206730007EE00846B4F802B06688277894F800900568204608F088F92078AB44C01C801057
:20675000CBF800002078B919491901F1040AC01C8010CAF80000207806EB4703591901F135
:206770000808C01C8010C8F80000217809EB49094B469A19521902F10C09C91C8910C9F8F8
:2067900000102178D8198019401900F11005C91C88100199286022780BF1040004F066FFC5
