:2000000000400020DDF4000001C9011001C9011001C9011001C9011001C9011001C901108D
:1C00200001C9011001C9011001C9011001C9011001C9011001C901103FC9011089
:20003C002DE9F04FE04C608BE589ADF11C0D11F035FB0FF2783898E80C0009F0D3F8DDA252
:20005C000CCA08F014FA02F06DFADCA20CCA09F0C9F8DCA20CCA06F0D8FC0FF0D7F86E00E7
:20007C0004F1820580B2A853400010F061F9D7490CF0F4FFD6490BF075FF10F021F9D5A2F3
:20009C000CCA09F0AFF80AF0FDFF0FF0BFF805F1340704F1B6033119A1F89C0003F11A00B6
:2000BC00039040F6B8329A53608BE689059711F0F5FA04F1D00798E80C0009F093F80FF2C1
:2000DC00783999E80C0008F0D2F902F02BFADCA20CCA09F087F8DCA20CCA06F096FC0FF045
:2000FC0095F827F81600E689608B11F0D7FA98E80C0009F077F899E80C0008F0B8F902F0DA
:20011C0011FADDA20CCA09F06DF8DDA20CCA06F07CFC0FF07BF836195B3F86F86800E68992
:20013C00608B049711F0BAFA98E80C0009F05AF899E80C0008F09BF902F0F4F9D2A20CCA4F
:20015C0009F050F8D2A20CCA06F05FFC0FF05EF84FEA460A311981F8750004EB0A01B1F8EE
:20017C00820004F1160707F15203A082B1F89C20029336193A80E71D96F96800628B3870CD
:20019C00501C6083B1F89C0011F0CAF810F098F8C1A20CCA0E46814609F024F80FF036F8C6
:2001BC00BFA2ADF800000CCA3146484609F01AF807F195080746206C0E4610F081F80B46AB
:2001DC0002463146384609F00DF80FF01FF860710AEB0503042102224FF4F0400EF0CEFF5D
:2001FC004FF4F040052102226B460EF0C7FFE089A946401C85B2E5810D2DC0F2FE81059957
:20021C00A06CDFF8BCA2DDF80CB00D2701910026C4F8EC00019A3BF8021B32F8020B0192A7
:20023C00484310F0B8FCA0A20CCA08F0DBFF0FF0F1F91AF8011B7F1E00FB0166EAD1304632
:20025C0011F06EF89A490BF08DFE9A4E31460CF005FF99490BF086FE10F032F80AF012FFBD
:20027C000FF0D8F996490D2782464246002011F8013B32F802CB7F1E0CFB0300F7D111F063
:20029C004FF831460CF0EAFE8C490BF06BFE10F017F80AF0F7FE0FF0BDF90746206D504446
:2002BC002065E16CC919E164A36D626D1B18C4F8F0305218C4F8F420384611F031F806460D
:2002DC004FF4C8706843A0F5C87010F031F8014630460BF047FEE3490CF0C0FE0FF0F0FF15
:2002FC000AF0D0FE0EF092FFC1B2E172002084F80811024602990956461CF0B28918854262
:20031C000AB2F7DC92FBF5F010F045FC0AF0BAFE0EF07CFF41B26429D9BF0026301C192091
:20033C00002684F8091160723146A4F806613046039A32F811204B1CD9B280188D42F7DCFF
:20035C0010F0EEFF834628460FF0F2FF014658460BF008FE0FF0B4FF0AF094FE0FF05AF9F7
:20037C006064A4F804010EF09DFE84F80B010EF0B5FB84F80A018FB3504610F0D1FFBA49FB
:20039C000CF06CFE0546384610F0CAFF014628460BF0E8FD10F08CF94FF6FF71814228BFD0
:2003BC0080B21DD21AE0C0462C0C0020182D4454FB2109400000000000004E4000000000D8
:2003DC0000E075400000000000C07740DB0F49400000704252B81E85EB5124404FF6FF70CF
:2003FC00A4F800010EF0BEFCA4F802010EF0A0FBC4F8F8000CF066FAE7890146C4F8FC10C5
:20041C00381C25D03246304604990956451CE8B2891887420AB2F7DCD7B192FBF7F010F09D
:20043C00BAFB0AF02FFE0EF0F1FE40B27E28B4BF311C2021A1720CE0000000000080664019
:20045C00000000000070B740000000000094E140304684F80C013746A7BBB9F8180005991F
:20047C00B8F81850A9F800000B8BA8F80050039A0B80108B10802EE000000000000034404C
:20049C000000000000002E400000000000003E400000000000003940CDCCCCCCCCCC0C40C6
:2004BC003BDF4F8D976EA23F2D431CEBE2361A3F00803B450000C843000061450060EA461B
:2004DC00A1220020780029F8006028F8006005990E52039D2E527F1C0D2FBDDB2079A16C71
:2004FC00B4F80421012704F1EC05E781401C2071491C94F80A0122832B46A07194F90901F2
:20051C00A16404220521207241F611000EF036FE4FF4F040022105F11D033A460EF02EFE0C
:20053C004FF4F0400621042205F108030EF026FE4FF4F040072104222B1D0EF01FFE04F59F
:20055C0080734FF4F0400B2102220EF017FE04F581734FF4F040082102220EF00FFE4FF4BB
:20057C00F0400921042205F10C030EF007FE4FF4F0400A21042205F110030EF0FFFD4FF4CD
:20059C00F0400C2105F120033A460EF0F7FD607A192805D0A07A202808BF04F10A0301D06B
:2005BC0004F109034FF4F04003213A460EF0E6FD05F1180341F60F00394602220EF0DEFD53
:2005DC0005F11E0341F60F0031463A460EF0D6FD05F11F0341F60F0004213A460EF0CEFD0E
:2005FC0004F1080341F60F0002213A460EF0C6FDE07810B1012808BFE67020794B282DDBC2
:20061C00228AD4F8EC30A06B9100C4F81031401C01EBC201C4F814010919144FC1F818015E
:20063C00218AD4F8F420880000EBC1000019C0F81C21218AD4F8F020880000EBC1000019FD
:20065C00C0F82021A06B0025401C87428CBFA063A5630EF017F925652571E56407B0BDE807
:20067C00F08FC0460000B44300007A4480D3D8FF2DE9F04F0446B4480D461646ADF5FE7D93
:20069C005B1E011DADF1600D9095F21E8F94D1F800C0929316F1140FCDF854C24FF0180139
:2006BC00CDF850C292FBF1F19391BCBF002193910C466246A6EB04161946A6EBC406183E3F
:2006DC008D18A4EB0104969612D406466D1CE8465036002C44BFBEA003C803D456F8240089
:2006FC0010F059FA6D1EA8E8030004F10104F0D19598002828D405460DF5A07B00266D1C4A
:20071C00929FB3A090E80003002F17D4DDF83CA206EBC7007F1C0DEB0004BAE8030094E881
:20073C000C0008F05FFD0B4602464946404606F06CF9083C894680467F1EEED16D1EABE8E1
:20075C00000306F10806DBD19598919048E0B9F1000F42DD9199DDF848C2939A7A4F0DEB84
:20077C00C1030CEB0100CB4603F5A473C4008A188C93083407EB820000F1500A61440DEB64
:20079C00C1065AF8040F10F006FA083686E803008FA003C8929F8D90002F8E9115D4DDF80E
:2007BC003C820DEB04057F1CB8E8030095E80C0008F018FD0B4602468E998D9806F025F991
:2007DC00083D8E917F1E8D90EED18C9ABBF1010B03C204F108048C92D3D1919848449190E4
:2007FC00C5000DEB050404F5A07494E80003002828DD083C07460DF5F07BBDA20CCA49469C
:20081C00404608F0EFFC0EF001FD10F0C4F9BAA20CCA8A46064608F0E5FC0B46024649464B
:20083C00404606F0EDF80EF0F1FC4BF8040B94E803005346324606F0E8F8083C89468046BF
:20085C007F1EDAD1969F494640463A4609F0CAFDABA20CCA8846814608F0C4FC08F038FE0C
:20087C00A9A20CCA08F0BEFC0B4602464146484606F0C6F8884681460EF0C8FC8D9010F0B3
:20089C008AF90B4602464146484606F0B9F80FF2882A89468046002F14DC391C0BD09CA28F
:2008BC000CCA49460CF0D9F884BF00208E9071D802208E9020E091980DEB8000D0F8DC019A
:2008DC00C01516E091983C460DEB800303F5F0738D9F53F8040CC4F11802C4F1170440FA50
:2008FC0002F101FA02F2801A43F8040C7A188D92204100288E904DDD9198002400280EDD33
:20091C0077A951F8047F24B93FB1C7F18077012402E06FF07F42D71B0F60401EF1D1969F76
:20093C008D98002F00F101008D901ADD7F1E0DD07F1E16D191980DEB800101F5F07151F801
:20095C00040C6FF39F500AE04839010091980DEB800101F5F07151F8040C6FF3DF5041F892
:20097C00040C8E98022815D19AE803004B46424606F046F88946804664B19AE80300969AE4
:20099C0009F030FD0B4602464946404606F038F8894680460EA20CCA494640460CF01AF803
:2009BC003FD0969F40467A4209F01CFD8046919851A20CCA0DEB800440460CF04EF88946B8
:2009DC0004F5F07484BF8B46464624D804E0C046000000000000000045A20CCA404608F0DD
:2009FC0001FC0EF013FC10F0D6F843A20CCA8B46064608F0F7FB0B4602464946404605F09E
:200A1C00FFFF0EF003FC1837083544F8040B91989697401C9190594630460EF0F7FB206090
:200A3C0039E0919895990026401E81420CDC919F95980DEB870101F5EE713F1A51F804091A
:200A5C007F1E40EA0606F9D176B995984FF001090DEB800000F5EE70016800297FF477AE43
:200A7C00001F09F10109F7E79199969F0DEB8100083D183F00F5F070491E9697001F9191BB
:200A9C0006E09199183F083D001F9697491E919101680029F5D09AE803003A4609F0A2FCC6
:200ABC0082469198894600281ED407460DEBC7040DEB870804F5A07408F5F0787F1C58F84C
:200ADC00040910F068F84B46524608F08BFB08A284E803000CCA4946504608F083FB083C18
:200AFC00894682467F1EEAD1919C002C50D417E0000000000000703E000000000000704118
:200B1C00000000000000C03F0000000000002040000000000000E03F000000000000F03F0C
:200B3C00A5EBC40528A8E70005EB0008949E3DA090E8000C002ECDF830A221D4DFF8EC90F1
:200B5C00DDF844A2354600266D1C09F11009AAEB040AB24514DBF20002EB090003C850AB4A
:200B7C00D219D2180CCA08F03DFB02468C980B46594605F04AFF761C8B466D1E8C90E8D121
:200B9C00DDF830A2641EA7F10807A8E8000CCDD5919F24A090E80C00002F10D40DEBC704DD
:200BBC007F1CA03494E80003194610464B46424605F02BFF083C7F1E02460B46F2D18E99DA
:200BDC0000290CBF191C83F00041DDF840C2104628AF8CE8030097E8030005F011FF0246D2
:200BFC0091980B4600280DDD0DF1A80A0746BAE8000310464B46424605F007FF7F1E02465C
:200C1C000B46F4D18E9909B183F0004390988D9F08307FB080E80C0018B007F00700BDE871
:200C3C00F08FC0460000000000000000483901002DE9F84FC04CA178FF2904BF002010F004
:200C5C00D5FEA07811F04CF9044604F1680504F190062968086810B10021E1830CE0A87BBA
:200C7C00002804BFA97E002906D13078002801BF207F0128608CE0832189E08B4118491CCC
:200C9C006181204600F06CF901281EBFAB480178012904D121890020491CE08361814FF671
:200CBC00FF77A87E01280DD1AA8B6189208900F05BF938B1218960894A1C93B298421BD07D
:200CDC00A88B0FE03078012816D172886189208900F04AF980B1218960894A1C93B2984215
:200CFC000AD0708892B2904206D03818608180B200F03EF93F18E78304F5967999F8040032
:200D1C0020B120890021401CE183608104F12E07A87E012811D12189A88B4B1C9BB29842B5
:200D3C000BD1608100F024F98046B988288C01FB080820460CF004FD01E0B7F80480B4F8E3
:200D5C001EC022687E4ED2F80CE00CF1010000FB08F340F6C41000FB03F18E44C2F80CE028
:200D7C003668DFF8E0E13678BEF80080764AB609032E11D1D67BF60748BF4FF000080BD430
:200D9C0008F101081FFA88F6012E12BF668AB9F8066006F2DC5600E0668A5E434FF4C87A77
:200DBC00B6FBFAF6761C6661AEF80080A3614FF0180894F806A084F820C008FB0AFADFF828
:200DDC008CC1DCF800E023680EF1080656F80AB0C3F810B094F806A008FB0AFACDF800A03D
:200DFC00D3F80CB0D4F814A0ABEB0A0ADDF800B046F80BA094F806A008FB0AFA56F80A60C7
:200E1C009E600EF10C06A37908FB03F30EF10C0EF65C06F0F00646F002060EF803604FF055
:200E3C00000ADCF800E0A6790EF1020308FB06F623F806A0464BA6791B68760103F1140A39
:200E5C00D4F814B05AF806A00AEB4B0A03F1140B4BF806A0AD7E022D0BD1A5796D0103F1F2
:200E7C00140697F800B056F805A000FB0BAA46F805A0BD88D27BA779D60736D508FB07F7DC
:200E9C000EF10802D659A6F5A86A0EF1080646F807A0A77908FB07F7D2592768511A39617F
:200EBC00BA6003F11402A1794901575807F5F667575003F11401A27952018958C9F80010B6
:200EDC006843244AA179156B03EB41162968401AA0F51670F0612049A07903EB40100B7864
:200EFC00012B14D10121C17214E003F114027F01D1592A464243A1F5E661A2F51672914204
:200F1C00DED30821204600F037F8012011E0916A4A78C272A179DCF8000008FB01F28118D6
:200F3C002268516007200D49087020460CF010F90020BDE8F28F00BF684E0020784F002038
:200F5C00084F0020582E00205C4D0020804E0020844E0020E0420100734F00206F4F0020CC
:200F7C00DFF800F035440110DFF800F069860010DFF800F091860010DFF800F0A98500104B
:200F9C00164938B5091F0868C3430B600A681042FBD1134C0E4A616905468A420ED10D4983
:200FBC0004F13400002211F025FB022020740FF037F818B90AF0BEF90BF0FCFB0648284299
:200FDC0005D004F1D0004FF0005111F027FB38BD5145000059C80000020000401410044052
:040FFC00A823002006
:20100000B41200001810000051E90000FDB301106DC00110FDAE011099B50110000000008E
:08102000000000002D0000009B
:20102800B01200003C100000B1C00110A9BF011067C0011069B80110000000000000000035
:041048003000000074
:20104C00B012000060100000BDC00110CDB30110D9BD01106DB3011000000000000000005B
:04106C00310000004F
:2010700000000000E822002004000000000000000000000020000000E8C901103000000020
:2010900028100000F02200200400000000000000000000000C000000D8CA011018000000FB
:2010B0004C100000F822002004000000000000000000000024000000F0CA0110180000007F
:2010D00000000000002300200400000000000000000000001000000018CA01102C0000008A
:2010F0000010000010230020040000000000000000000000200000006CCA011024000000EE
:20111000FFFFFFFF182300200400000000000000000000002800000090CA011024000000AD
:20113000FFFFFFFF202300200400000000000000000000001400000008CB0110180000002C
:20115000FFFFFFFF2823002004000000000000000000000058000000B4C9011034000000FA
:20117000FFFFFFFF302300200400000000000000000000001000000020CB011018000000C8
:20119000FFFFFFFF382300200400000000000000000000001C000000B4CA011024000000F5
:2011B000FFFFFFFF402300200400000000000000000000003800000044CA0110280000001D
:2011D000FFFFFFFF482300200400000000000000000000005400000078C901103C00000092
:0811F00001000000D4420100DF
:0411F80001000000F2
:0411FC0000000E00E1
:0412000000000F00DB
:0412040032000000B4
:0412080001000000E1
:04120C00FC210020A1
:0412100000020000D8
:0412140000000000D6
:0412180001C90110F7
:04121C0000000000CE
:0412200000000000CA
:0412240008000000BE
:0412280000002200A0
:04122C00741F00200B
:0412300000000000BA
:0412340000000000B6
:0412380008000000AA
:04123C008C210020E1
:0412400000000000AA
:0412440000000000A6
:04124800080000009A
:04124C00000000009E
:04125000000000009A
:041254000000000096
:041258000000000092
:04125C00010000008D
:0412600070200020DA
:041264000600000080
:041268000100000081
:04126C00281E002018
:04127000000000007A
:041274000000000076
:041278000002000070
:04127C00000000006E
:02128000290043
:02128200010069
:02128400250043
:02128600300036
:02128800310033
:02128A002D0035
:02128C0001005F
:01128E00015E
:081290000300000050420100C0
:0812980000000000000000004E
:0412A0000000010049
:0412A4000000030043
:0412A80013C401105A
:0412AC00091E010016
:0412B000B812000070
:0412B400B81200006C
:0412B8000000000032
:0412BC00BC22002030
:0412C0000F200100FA
:0412C4002000000006
:0412C8009C41010044
:0412CC0008400100D5
:0412D00029C101101F
:0412D400932601005C
:0412D8009526010056
:0412DC00A1C7011095
:0412E000A3C701108F
:0412E4000000000006
:0412E800453D01007F
:0412EC00AC3D010014
:0412F000C43D0100F8
:0412F400943D010024
:0212F8000200F2
:0212FA000900E9
:0212FC000100EF
:0212FE000000EE
:0113000001EB
:041304009D1F010028
:041308008503010058
:04130C00A913010020
:0413100001070100D0
:04131400BD03010014
:0413180071F200006E
:04131C00E5C2000026
:04132000872201001F
:0413240029E50000B7
:0413280015C70110D4
:04132C0025C70110C0
:201330002DE9F04FD74C211D2046ADF1940D0DF0CFFC04F120060021304611F0F1FCD24DBB
:2013500010201F220623A660294605F0C3FE4FF47A7A0020ADF816008046ADF81EA002215A
:201370008DF82B800DF11602ADF81C805020ADF818004FF44870ADF81A0040F2063003F094
:2013900045FA4FF44270132104F13D0203F03EFA40F20730112104F12C0203F037FA4FF451
:2013B000447001210DF12B0203F030FA40F21130022106AA03F02AFA40F2123002210DF10D
:2013D0001A0203F023FA40F21330022107AA03F01DFA4FF4457002210DF11E0203F016FA42
:2013F00004F1500042461523A8490090102005F071FE294610200622A02305F06BFE29466C
:2014100010200722A02305F065FE294610200122782305F05FFE294610200822A02305F018
:2014300059FE294610200922A02305F053FE01208DF82C008DF82D000BAE8DF82E800346B9
:201450008DF830804FF48062914D00961F4610208DF82F70294605F03DFE0DF12D002946BC
:20147000009040F202423B46102005F033FE0DF12E00294640F203423B460090102005F037
:2014900029FE0DF12F00294640F206423B460090102005F01FFE0CA829464FF483623B46E0
:2014B0000090102005F016FE7A4910204FF0FF3205F010FE1020784B00907849784A019353
:2014D000092305F007FE77494FF0FF32102005F001FE754D2878800011F096F8014673480F
:2014F0002C4641610546002900F098804FF6FF700DF020FF2078800011F086F80146A96194
:20151000002900F08B804FF6FF700DF013FF2078800011F079F80146E96100297ED04FF6FD
:20153000FF700DF007FF2078800011F06DF801462962002972D04FF6FF700DF0FBFE20782C
:20155000800011F061F801466962002966D04FF6FF700DF0EFFE2078800011F055F80146E5
:20157000A96200295AD04FF6FF700DF0E3FE2078800011F049F80146296300294ED04FF6B2
:20159000FF700DF0D7FE2078800011F03DF80146A963002942D04FF6FF700DF0CBFE20780C
:2015B000800011F031F80146E963002936D04FF6FF700DF0BFFE2078800011F025F80146C4
:2015D000696459B34FF6FF700DF0B4FE2078800011F01AF80146E96401B34FF6FF700DF09B
:2015F000A9FE2078800011F00FF801462965A9B14FF6FF700DF09EFE2078800011F004F883
:201610000146696551B14FF6FF700DF093FE284B05F15800352110220FF0FAFB207880000C
:2016300010F0F2FF05F15802014686480E920029C16056D04FF6FF700DF07CFE20788000F1
:2016500010F0E2FF01467F480029016149D04FF6FF700DF06FFE2078800010F0D5FF014696
:201670007848002941613CD04FF6FF700DF062FE2078800010F0C8FF01467248816181B3BC
:2016900018E0C046F0080020C905010089CC0000355400008912010038420100210E010030
:2016B000F817002079150100694F002008020020A83A01004FF6FF700DF03CFE2078800074
:2016D00010F0A2FF01465F48C16151B14FF6FF700DF030FE5B485C4B1521102220300FF067
:2016F00097FB2078800010F08FFF564A01462032564821920029C16047D04FF6FF700DF006
:2017100019FE2078800010F07FFF01464F48002901613AD04FF6FF700DF00CFE20788000C6
:2017300010F072FF01464948416171B34FF6FF700DF000FE2078800010F066FF014643488C
:20175000816111B34FF6FF700DF0F4FD2078800010F05AFF01463D48C161B1B14FF6FF70BC
:201770000DF0E8FD2078800010F04EFF01463748416251B14FF6FF700DF0DCFD3348344B23
:201790001921102228300FF043FB324E2F497778307828311B91AFB937490C3131620FF0ED
:2017B0002FFA06F15407CDF80080024606F14400019006F11C04029727490394B378102033
:2017D00005F088FC2C4A25491020183205F082FC294800780FF014FA21490246102005F0E2
:2017F00079FC254800780FF00BFA1E490246102005F070FC1C49102005F06CFC09F04CFD07
:201810001A49404607F0DAFA194940460EF088F940460DF005FC0EF007F8164C04F10806B7
:20183000304610F015FC01203146207440460EF01BF86060002804BF201C80F8008020D07F
:201850001CE0C0461C130020604001003C0E0020C83B0100B0050020B7F600004918010034
:201870005188011031810110C5AB0010000003030DCE0000AC1F0020F008002021460120BF
:201890000870BD4E06F11404204610F051FABB48006806F134074FF4FA7123463A46BAFB0C
:2018B000F0F080B24143491EB548716011F034FADFF8D09206F1080230607168C9F80C208E
:2018D00011F026FA414624220823384611F01CFA4446AD4FA6F844807068F46407F1140B1B
:2018F000B064584610F024FAA448006807F1340640F2DC51BAFBF0F080B24143491E796098
:20191000A24832465B4611F007FAA14938602422082307F1080008603046214611F0F4F98C
:20193000BC64A7F844809B4EFC6406F1140B584610F0FEF991480068974A57464FF4C871E5
:201950005B46B7FBF0F080B24143491EDC48716011F0E2F9DB49306006F1080048608E4825
:2019700024220823214611F0CFF9A6F844807168F4643068B16411F0CBF93068716810F040
:2019900079FED14E854810F0D3F97C480068834B06F1340A4EF660215246B7FBF0F080B2B8
:2019B0004143491EC948716011F0B6F9C54930602422082306F1080088602146504611F0A6
:2019D000A3F9A6F844807168F4643068B16411F09FF93068716810F04DFED148BC4E10F0A3
:2019F000A7F966480068CE4B06F1300B64215A46B7FBF0F080B24143491EB648716011F032
:201A10008BF9DFF8D4A2214624220823306006F10800CAF82000584611F076F9A6F8408030
:201A30007168B4643068716411F072F93068716810F020FEA94EBB4810F07AF94F480068D1
:201A5000B84B06F1340B5A46B7FBF0F080B207FB00F1491EA248716011F05EF921462422BF
:201A70000823306006F10800C9F81000584611F04BF9A6F844807168F4643068B16411F0A7
:201A900047F93068716810F0F5FDA748954E10F04FF93A480068A44B06F1300B5A46B7FB1C
:201AB000F0F080B207FB00F1491E8F48716011F033F98E4930602422082306F10800086096
:201AD0002146584611F020F97464A6F840809748B464874E10F02CF928480068934B944A1C
:201AF00047F2305BB7FBF0F080B20BFB00F1491E8048716011F010F97F4A30608C4806F129
:201B10000801082311602146242211F0FDF87464A6F840808748B464784E10F009F9174829
:201B30000068844B844A4EF66021B7FBF0F080B24143491E7248716011F0EEF8714A30605F
:201B50007D4806F10801082311602146242211F0DBF87464A6F84080B4640DF0E5FD6A4EAE
:201B700006F10C00CAF82400301D10F093FC012030720DF0D9FD13E0781A0020D042010042
:201B90004926010088180020D01A00204D2601001C220020281B00205C1B0020941B002060
:201BB0005A4E06F10C00CAF82800301D10F072FC012030720DF0B8FE554C04F10800C9F8F0
:201BD000140004F118000FF0F3FF4746C9F81C7089F800804F49A1624046C9F820000123E2
:201BF00063761A4684F82E804FF4E13784F82D804A4E22761946276306F10C02E161464BFD
:201C10004E49636284208A600EF0BFFD09F128018422C9F8040009F0B5FE08200EF0B5FDFE
:201C3000044684F80480C9F81840FF2060710A200EF0ABFDD9F81410206008688047D9F8F4
:201C50001000006880471F4806F118040778C9F8084047B90446606800688047A068006882
:201C700080470120207054464922012142F6E947E2710B462170206A678340F6B832A37170
:201C90000068A2834FF4F071E1838047606A00688047A06A00688047CB4B47463146304616
:201CB0000422143102261030E162C849D860002F46D00C2F44D0780834BF0E700A7041E095
:201CD0005126010024220020801B002055260100DC1C002059260100D81D0020D81B00201F
:201CF00047E20000301D00205D26010004100020841D002061260100102E0020881C00201B
:201D100045260100F82D0020CC210020E4210020001F0020E7EF00001D82000024210020B7
:201D3000EC1C0020EC1B0020401D0020941D0020B41D0020981C0020B81C00203C0E0020D3
:201D5000012008707F1C491C0D2FB0DBA04C49F22F731821C4F8443146F6C037C4F8481198
:201D700040F2DC50C4F840713D38C4F8100145F2E523C4F81C3147F29531C4F820111722D9
:201D9000C4F83C211427C4F8187146F67270C4F84C0149F6C063C4F850311921C4F8541179
:201DB00045F69943C4F8283147F25570C4F8580148F2DE11C4F82C111527C4F824714AF2E9
:201DD000CF73C4F85C314CF69F22C4F880211A21C4F8601147F6F760C4F8640146F202436E
:201DF000C4F834312721C4F81411C4F8FC111627C4F8307148F61F53C4F838314BF2D23111
:201E1000C4F8681103F1EF00C4F87C0148F2B563C4F870311B21C4F86C11C74BC4F8E0315E
:201E3000A2F1C100C4F8DC014BF64271C4F874112522C4F8E4211C23C4F878311D21C4F8CA
:201E500084112020C4F8A801CC4AC4F8EC210BF1640767644DF25103C4F8E8314DF20E5121
:201E7000C4F88C11C748C4F804024DF6B712C4F8F42149F2FA43C4F8883149F67C41C4F8A6
:201E900094112120C4F8B4012623C4F8F0311F21C4F89C114EF2F802C4F800222220C4F8F6
:201EB000C0011E23C4F890314EF6DA01C4F8A411B34BC4F8F8314FF29511C4F8B011242276
:201ED000C4F8D8212320C4F8CC014DF64773C4F898314FF68711C4F8BC114AF23143C4F81D
:201EF000A031A449C4F8C8114AF61D33C4F8AC31A149C4F8D4114BF2BA23C4F8B8314BF6CB
:201F10005A23C4F8C4314CF22523C4F8D0310CF0BFFC84F80881A4F806814FF00F0A84F88D
:201F300009A1A06DC4F8F000636DC4F8F430B4F84420A4F804210DF0BBF884F80B010CF079
:201F5000D3FD84F80A014FF6FF79A4F800910CF00FFFA4F802010CF0F1FDC4F8F8000AF0EF
:201F7000B7FCC4F8FC00607884F80CA10FF02CFBB9A0A4F8828003C809F08AF80DF04CF940
:201F9000BB46A4F89C00DFF8ECA2BB4FE378A4F8D0B040F6B830A4F8B6003BB1012B05D1B4
:201FB000B6480068406884F803808047B9480478012C7C710ED02CB987F801800120464636
:201FD000B87009E07E7807E014220020A12200202C0C00207E70BE7087F80380022E87F8A5
:201FF000048002D1386900688047AAF80080DAF808000068804705F10D0705F1480605F13B
:2020100040040F9705F10B03109605F134021194A91C129305F12C07139205F109060D9170
:20203000EC1D14976B1C15966A1D1694B8481793EF1C1892B74E199706F12001344633465A
:202050003246DFF8F4B2DFF8EC82DFF8E4A21A9137461030211DB94E1C91D91C1D91911C2F
:2020700034461E913346791CBA4F1F913246F11C2091DFF8FC92B860A11C2291591C239114
:20209000111D2491A248406800214FF040424FF0FF3310F035FE071CF4D0002004900DF19C
:2020B0002A0104AA05A80EF057FB002874D1BDF814C00126BCF1100F69D195489DF82A106B
:2020D0000078884263D1049C20884FF6FF7181425DD02378913B29D01F3B58D16078162894
:2020F00018BF002205D130460EF0D0FF3246CBF80040874843699AB163B94FF6FD70BA49AC
:20211000BA4A00900023102004F0E4FF80494B69C2B22AB97E4843F002030026436136E03F
:2021300021790834204610F0E7FD30E063780E3B04D09B1E28D02AE0021D0100A08842F230
:202150000301814223D1A1680C7804BB491C0DF122000A68496802600DF122044160207801
:20217000B9490DF1220200F0FD002070102004F0B1FF0CE0F8050100381201001828010064
:2021900067320100233C010008200CF0F3F9049810B10EB110F0FAF9F80FFFF473AF5C4856
:2021B000806810F0A5FD00287FF46CAF58488468204610F099FD844208BF002402D08468D8
:2021D0000EF02AF9002CEAD0514920884969401E00F09981C01E00F09281001F00F081819A
:2021F000083800F05F81103840F090816068427806788778C17841F60F0306EB0226001D7F
:20221000F61A00F00C81B61E00F0B48045F6EF72B61A40F074810C2F00F27181DFE807F0BB
:202230009C907C6E645A50463C30201107C0012940F0658100780D990870CDF80080286D10
:2022500093E0022940F05B8100880F990880CDF80080686D89E0C046000000000000000083
:20227000042940F04C81006810990860CDF80080E86C7AE0F02D0020F40F0020102E0020FA
:20229000042940F03C81006811990860CDF80080686C6AE0AC1F0020022940F030810088B8
:2022B00012990880CDF80080E86B5EE0042940F02681006813990860CDF80080A86B54E0F9
:2022D000042940F01C81006814990860CDF80080286B4AE0022940F01281008815990880C9
:2022F000CDF80080A86A40E0022940F00881008816990880CDF80080686A36E0012940F02D
:20231000FE80007817990870CDF80080286A2CE0F00800203C0E0020012940F0F0800178E7
:202330002F463970CDF80080E86939461DE0C046ADA0000099660000302E00201C1300203E
:20235000022940F0DC80008818990880CDF80080A8690AE024210020022940F0D08000881D
:2023700019990880CDF8008068690E9A352396E0FD920000002F46D07F1E39D07F1E27D079
:202390007F1E1AD07F1E0DD07F1E40F0B880042940F0B58000681A9908606048CDF8009015
:2023B000406A39E0022940F0AA8000881C9908805A48CDF80090C0692EE0012940F09F8059
:2023D00000781D9908705548CDF80090806923E0012940F0948000781E9908704F48CDF8F8
:2023F0000090406918E0C04699E70000A91B0100012940F0848000781F9908704748CDF8F7
:202410000090006908E0012979D1017843480170CDF800904149C0681B9A19233FE0002F9C
:2024300032D07F1E26D07F1E1AD07F1E0ED07F1E65D1012963D10078209908703848CDF8D6
:2024500000A0C06929E0C04695B40010012956D10078229908703248CDF800A080691CE07B
:2024700001294CD10078239908702D48CDF800A0406912E0022942D1008824990880284869
:20249000CDF800A0006908E0012938D1017824480170CDF800A02249C068219A152309F009
:2024B00041FE2CE088082AD3DBF800703FB37888397908373A4610F013FC0746162F03D01A
:2024D000042F01D00EF0E2FD16484669BFB936F00206466113D1144A14494FF6FD7001233C
:2024F00009E040F20E3008A906F094F90023BDF82020094807490090102004F0EBFD606822
:202510000DF08AFF02E0A0780BF0AAFF20460DF083FF44E6CD07010040E201003C0E002016
:202530001C130020F0080020A91B010099E700002DE9F04F0746C84821F000440E460FF283
:20255000D82BADF15C0DA04213DDC448A04203DD38460CF061FE48B1002000909BE80C00B0
:202570003146384605F0A6F90E46074631463846A1E2BB48A04205DC38460B46024604F0D8
:2025900045FA98E2B748B146AFA50FF2C42AA04280F2C880B448A04251DCB448A04200F3C1
:2025B0006F81B34AC1F30A502315000502AEA3F21648251A3C460227AD18294620460CF0B0
:2025D0002BFE0EF0EEFA0B460246294620460CC604F01CFA92A20CCA06F00AFE04460D46ED
:2025F0007F1EEAD106A880E830000325044694E803009BE80C000AF0F3F91DD002A808A97F
:2026100042462B46FEF73AF8B9F1000F014606D408A890E800030AAF97E80C001CE208A893
:2026300090E800030AAF97E80C00494289F0004983F0004310460EE2083C6D1ED7E78D4820
:20265000A04238DA8C48A04200F01A81B9F1000F75A277A416DC0CCA384604F0DCF994E8BF
:202670000C000D46064604F0D6F9894680464B4642462946304604F0C9F994E80C0004F017
:20269000CAF915E00CCA384604F0C0F994E80C000D46064604F0BAF9894680464B464246F5
:2026B0002946304604F0B2F994E80C0004F0AEF902460B46D8E17148A04200F0E180B9F17B
:2026D000000F5DA25EA416DC0CCA384604F0A3F994E80C000D46064604F09DF989468046BE
:2026F0004B4642462946304604F090F994E80C0004F091F98CE00CCA384604F087F994E899
:202710000C000D46064604F081F9894680464B4642462946304604F079F994E80C0004F01B
:2027300075F95AE0D449C4F31300814200F0A880D248A04236DAB9F1000FD4A2D5A417DC78
:202750000CCA4946384604F066F994E80C000D46064604F060F980468946424630464B469B
:20277000294604F053F994E80C0004F054F916E00CCA4946384604F049F994E80C000D46E7
:20279000064604F043F980468946424630464B46294604F03BF994E80C0004F037F90246FE
:2027B0000B467BE1B9F1000F1ADC95E80C004946384604F030F99AE80C000C46054604F0DB
:2027D0002AF980468946424628464B46214604F01DF99AE80C0004F01EF902460B4664E1C2
:2027F00095E80C004946384604F010F99AE80C000C46054604F00AF9804689464246284689
:202810004B46214604F002F99AE80C0004F0FEF802460B4634E1C046000000000000000095
:20283000000000000000704100004054FB2119403163621A61B4F03D0000307F7CD9124026
:20285000CA9493A7910EE93D00004054FB21F93F3163621A61B4D03DFC21E93F0000503E1E
:202870000000F07F7A6A0F403C461C40FB21394100006041BCFD1540FB2119407CD9124067
:202890008EA20CCA4946384606F0B2FC0FF2342898E80C0004F0BFF898E80C0004F0B6F8AF
:2028B0000D9181460C9088460CF0B6FC0E9095E80C004146484606F09BFC0B4602463146B2
:2028D000384604F0A3F815909AE80C008B464146484606F08DFC13901598139A14910B4650
:2028F000594604F093F880460D984B4689460146184695E80C0006F07BFC0B460246314634
:20291000384604F083F810910F900D990C989AE80C0006F06DFC0B46024610990F9804F066
:2029300075F824154800A4EB5050102840F387800D990C9865A20CCA06F05AFC8A4605466A
:2029500010990F9853462A4604F060F88B4615900D990C985FA20CCA06F04AFC0E4607464E
:20297000159A10990F985B4604F050F853462A4604F04CF80B4602463146384604F046F86A
:20299000139014911598149B139A594604F03EF88046894615981099119002460F98CDF8CD
:2029B00048B05B4604F032F853462A4604F02EF80B4602463146384604F028F8024611989A
:2029D0000B46594604F022F84800A4EB5054322C35DB0D9C0C9D41A20CCA2146284606F02A
:2029F00007FC82461598894659464B46524604F00DF880463BA2CDF854800CCA8B4628466E
:202A1000214606F0F5FB0C460546129911985B46424603F0FBFF4B46524603F0F7FF0B46EF
:202A300002462146284603F0F1FF0B461493024613925946404603F0E9FF8946804615985F
:202A500059464B46424603F0E1FF149B139A03F0DDFF0B460E99024611F0030104D0491E30
:202A70000ED0491E1AD020E0012000904946404604F020FF1FE0C046FB2109007CD902407D
:202A90004946404604F0CAFF15E0C04600004054FB2109403163621A61B4E03D012000906D
:202AB0004946404604F006FF03E04946404604F0B5FF81F0004117B0BDE8F08F83C8C96D3A
:202AD000305FE43F00000000000038430000601A61B4D03D7370032E8A19A33B0000002E5A
:202AF0008A19A33BC14920259A837B392DE9F04FD04C04F118012046ADF1340D0CF0E8F885
:202B1000002604F1A40A4FF6FF7066700121208250460DF0C3FAD04802210DF0BFFACF4836
:202B300004210DF0BBFA04F14408042010223146A07040460AF0D9FA04F15409102248462B
:202B500031460AF0D2FA04F11C073E6004F10A052E7007206072DFF8FCB2E671022226723F
:202B7000594610200346CDF8008004F0B3FA102003225946CDF80090034604F0ABFA0422F6
:202B9000102059460097134604F0A4FA4FF0080A4FF003094FF0010B05F12A00079005F140
:202BB0007900089005F11E00099005F15A000A9024350B9517E06078A28FE18FB4F84050B8
:202BD000B4F8423006280ED1ADF80A20ADF80C10ADF80E50A048ADF810300FF03BFD584685
:202BF00002A909F0B9FEA069B24A31464FF0FF3310F086F8071CF6D0059606A80DF11A01B4
:202C100005AA0DF0A9FD002840F0BA81BDF818102078102940F0B0819DF81A10884240F0F7
:202C3000AB81059D29884FF6FF728A4200F099812B78A23B00F07C812E3B40F09D81A97834
:202C5000B046002900F03881891E00F00981491E012940F2D380891E00F09780491E6ED012
:202C7000491E5BD0083900F05381891E40F0568194F83A10A8880529ADF8080046D076484A
:202C90008DF812B00FF0E6FC94F83A0001281ED004281CD003280DD002280BD00598C18814
:202CB000ADF80A100189ADF80C104189ADF80E10818927E0A18FE08FADF80A10B4F84020F2
:202CD000ADF80C00B4F84210ADF80E201AE0A08FE9888842D8BF081CADF80A002989E08F73
:202CF0008842D8BF081CADF80C006989B4F840008842D8BF081CADF80E00A989B4F8420058
:202D1000884200DC0846ADF8100001E08DF81260A749102002AA04F0DDF9FFE04F480FF017
:202D300099FC6B78002B40F0F980E88860822889A0826889E08248480FF0DAF9EEE0AA885D
:202D5000B249102004F0C6F90798414606220AF0CCF96682A682E682A87920733E480FF0C7
:202D700079FC3E480FF076FCD8464FF6FF70237920823BB9A879082814BF04200520607096
:202D9000E670CBE084F80190C8E06B787BBB291D0A6807980260898881800623637068899C
:202DB0002082E8896082288AA082688A94F83A10E082E8780129E07218BF02290BD1994974
:202DD00010201F2204F086F94FF47A7180B2414321480DF07FF96889042300909049019328
:202DF000EA7810202D1D2B4604F074F999E06878312840F08A80E670042028E06B78002B99
:202E100040F08380A878E1896278032814D0E078257921B9012814BF2671E67005E0054316
:202E300003D081480DF056F96278072AE4D106200DE0C046B0050020062A07D0E578002D5B
:202E500008BF84F801906CD0022000E00720607067E0C0460D180100780600209C06002086
:202E70006B78002B51D1EB78617893B902291DD007291BD0062902D12079012816D1032980
:202E900014D069480FF034F980B958460FF068F90CE00DF0B5FE0246A07960490090089854
:202EB00043460190102004F015F968706D78002D2BD133E0070000806B7833BB5B48564923
:202ED000009002221020034604F004F958484A46514900901020034604F0FCF8ED1C29686F
:202EF00009980160A9888180207884F801B00DF087FE02465B460A9D60794849009010208D
:202F1000019504F0E7F8C0B258B184F801A008E0AA8840491020052304F0DCF8B8F1010F24
:202F30002AD1256A45B3296831B36078884723E06879132820D12889012808D1607B02281B
:202F500005D13E480FF086FB0DF050FC14E035491020052204F0BEF881B238480DF0BAF867
:202F70000AE06888C00B07D3324804222A4900901346102004F0AEF8059808B10FF006FBA6
:202F90002579E07879082ED355EA00032BD0204600787DB9E279217A8DF808200B9D8DF888
:202FB00009102B680DF10A010B60AA888A8003E0051601108DF80890627A8DF81020A17ACD
:202FD0008DF811100DF01CFE1149024602AB102004F080F838B1256A84F801A01DB1296845
:202FF00009B150468847B80803D31349304609F0B3FCF808FFF4F7AD607B401E3FF4DBAD07
:20301000401E7FF4F0AD0DF0F1FBECE591EC000059440110C1170110F5930000094501107D
:20303000D1960000211C010054060020F405002004060020CC050020EA0500209C0600205C
:203050002DE9F04F0F46CD4C0168E16241688068ADF11C0DE060C548A1608047C448E16A2D
:203070000160A168DFF810A34160E168DFF804938160CE49002FA346C1606FD03D68E8787F
:203090008DF80C0028798DF80D0003A80FF024FEA86808B1C6490160E86808B1C5490160DF
:2030B000C54C287820706878BE686070A878B268A0703178A2607368E1702E696360EA691B
:2030D00026627968E2620868E06068696062A8697B68A062286A9E68206395F8240084F8B2
:2030F00034001EB900200EF087FC00E066617868C06818B900200EF07FFC00E0A06178683A
:20311000006918B900200EF077FC00E0E0617868406818B900200EF06FFC00E020612869DF
:203130002062F86881680E6806B9D24ED0494FF001084E60C66881F8018036B900200EF01B
:203150005BFC4D462E68F86801E04D462E6000685446FB68A0615868E06107E000200EF011
:203170004BFC4D462E684FF001085446361DC7493668621C04F114035020B04710B12868AA
:2031900080688047DBF808008047C24E002781463B46BF48777069462061042233703846EA
:2031B0000CF0D4FE0098B0F5801F0CD020B90DF087FE05F09BFF08E00BF09EFF0EF0D2FE41
:2031D0000420708001E00DF07BFE3846BA4EA0602B68B760986980477060AF4880F80080BD
:2031F0003946418014200EF0CBFFFF211422A0620FF038FAE01CFF2102220FF033FA14205A
:203210000EF0BEFFA54F38603868002114220FF029FA002000F052F940460CF053FDA04829
:203230000188FF2906D1022101807822001D00210FF018FA03200FF04BFD04200FF044FD9B
:2032500005200FF03DFD06200FF036FD07200BF035F9944E0820307006F124000FF028FD6F
:203270000BF0EAFA06F1360A05200A2152460EF0C5FA38B10020C0F10901401C0AF8011B45
:203290000A28F8DB3078102107F06EFB2B68864909200DF10E025E68087001AB102000210C
:2032B000B047A06AE1690A260A309DF80E20761E00F8012BF9D1891EE161DBF80C1048469E
:2032D000884704F120002B68626A059040461E69DFF8D88104F120034146B04710B12868E2
:2032F00080688047B8460DF0F9FE5FEA000903D008F00EFA4FF0FF39002643E00298216914
:2033100010F8062CA0F10C07032A03D1002939D0884737E0A16A9DF810C00A223046491E2D
:2033300011F8013F9C4506D0521E00F10100F7D14FF0FF0A01E05FFA80FA2868BAF1FF0F0E
:2033500000F108001CD038790CF06CFFB979012904D0022904BF0299887001E002990870BB
:20337000029950460EF080F90CE0C04641490010F84400207C230020D0200020B4160020F4
:20339000006880472868C36904A902AA0DF10F0098470028B2D0D8F800007700C35B6BB9BA
:2033B000761CF6B20A2EF8DB2BE0C046382D0100C90D0100F11B01003C1F00200A2E20DAB0
:2033D000DBF808008047D8F80010002231F807A0CA53DBF80C108847354850F826202670ED
:2033F0005146304690470646FF202070DBF808008047D8F800107A5A16437E52DBF80C1070
:2034100088470DF06BFE0746B9451AD007B9294FE069B84238BF071CDBF808008047814634
:203430002868016A206A8847626A28681F49059B521C6262C6683846B047DBF80C10484672
:203450008847A768296860691431AFB9D8F800000A270026835B33B10969606988472968F3
:20347000D8F8000014317F1E06F10206F2D107E0D02200207714010009698847296814312C
:2034900009684FF0FF3088472DE7C046F5120100691C0100602300205C230020502E0020E6
:2034B00034190020A8110020622E00206D020100903F01008EC2F528E42D00202DE9F84FCB
:2034D000DFF8BC13DFF8BC23DFF8BC5308700821002010600D23DFF8B40340F2373201709F
:2034F00043808280DFF8A8030560AC7EDFF8A4030470FF2CE97E417008BFFF292A7F827027
:203510006B7FC370AE7F0671ED7F457115D1FF2A08BFFF2B11D1FF2E08BFFF2D0DD1DFF801
:2035300078130A7802704B7843708A788270CB78C3700A79027149794171DFF860130278EE
:20355000DFF85C83DFF85C93DFF85C730A70FF2543784B7082788A70C378CB7002790A71C5
:203570004079487188F8005088F8015088F8025088F8035088F8045088F805500020CB49A6
:203590000880D9F83440CA49607808702278C9493A70A0780870A2681079C74A411E117081
:2035B000E078C649C64A0870E068106008B90EF023FA2069C34E306008B90EF01DFA3068E0
:2035D000DFF804A301688847326852F8041F50468847BE48BE49CAF82000CAF8241060690B
:2035F000BC49086008B90EF007FAA069BA49086008B90EF001FAE069B849086008B90EF0EF
:20361000FBF9DFF8DCB2B74C9BF804000EF0B8FD0028206075D09BF80500B34E0EF0B0FDC3
:20363000002830606DD09BF80600DFF8C0A20EF0A7FD0028CAF8000063D09BF807000EF05C
:203650009FFDAB49002808605BD039789BF80000891C484380B20EF093FDA64900288860DC
:203670004FD03878002862D0BBF80210484380B20EF086FDA04A0028506042D038780EF08C
:203690007FFD9E49002808603BD0387840000EF077FD9B490028086033D0387818214843CF
:2036B0000EF06EFD974A106058B3387840010EF067FD9549086020B3387800010EF060FDBD
:2036D00092490860E8B1387800010EF059FD90490860B0B13878302148430EF051FD8D4AA8
:2036F000106070B18C483978007848430EF048FD8A4A106028B138780EF042FD884908601B
:2037100018B9BDE8F14F05F063BF4FF0000B09E00EF0FEFC002141808160018002230371C4
:203730000BF1010B39785FFA8BF08842F0D32268694F0120107121680D73206845732168A9
:203750008D732068C57321680D7400212068457400202268D172A022216848710321206890
:20377000C28001720720226850720021206881722821206801224182C2760020216848771E
:203790000022206880F85E200121226811770120216881F85D0001223068027131680D737E
:2037B0003068457331688D733068C57331680D7400213068457400203268D17200223168FC
:2037D0004871306882724FF420703168C88008818A7401213368D974DAF800201573DAF803
:2037F00000104D73DAF800209573DAF80010CD73DAF8002015740022DAF800104D7401216B
:20381000DAF80030DA720023DAF800201171DAF800104B71DAF80010C88008818B72052040
:20383000DAF800209374DAF800103E4AC874106880473968054608688047396851F8042F5A
:2038500000209047D9F80C101C4B0A881878364902430A802846354A136898470C213448AD
:203870000FF022FA40460FF01BFA0FF015FABDE8F44F034800784FF4005107F075B800BF53
:203890006E4F0020044F0020B63F0050604E0020084F00202C4E0020E81200503C4E0020B0
:2038B000344E0020E04201007B4F00200C4F00206D4F00206B4F0020724F00206C4F00205C
:2038D000F04E0020F44E00207C4B002091210100B1210100F84E0020FC4E0020342E002059
:2038F000B0220020104F0020144F0020184F00201C4F0020FC2D0020684E0020004F002024
:20391000382E0020804E0020844E0020884E00208C4E0020904E00209D2300203C2E0020D9
:20393000402E0020BC160020544F0020C0160020F84D00202DE9F84F0C46E00788B00BD52B
:203950000EF0F6FB28B100218160B348006800B1804784F001005CE1A0070FD50021002331
:20397000069105910491039302910191009101223C200FF08DF984F002004AE11D256007DB
:20399000A64EA74F40F18A80002107918B46A5488178FF2904BF00200EF02EF8386890F82B
:2039B000A0000EF0A3FA80463868C07A98F82691022818BF032808F5907A06D106F10D00C7
:2039D0000FF062F908B906F1070B514648460FF057F988B33868807A002818BF012804D16D
:2039F000314650460FF048F904E05246494630460FF03EF9FF2834D005FB00F906EB090590
:203A100006225146E81D0EF057F916F80900396840F00209E81D07900622887E00F00100D6
:203A300088F8260105F1010A386800F1140108F590700EF041F914E0514648460FF014F9CE
:203A500078B15246494630460FF012F9FF2808D006F10D01454348190FF016F908B949F091
:203A7000020908F12C004B46017806914289120905920122B8F822100491C08807990291D3
:203A900040080390CDF804B0CDF800A0002098F806100FF0FDF884F00400BAE020060FD587
:203AB00000210023069105910491039302910191009101223B200FF0EBF884F08000A8E0C8
:203AD000E0044BD5F11D06F10D000FF0C9F83868017A012918BF042931D1C17A02291EBF72
:203AF0000329817E01292AD1817E00F1140230460FF0BEF8FF2811D04543354405F10D0029
:203B10000FF0C2F850B9E91D05F10D000FF0A8F838680622E91D14300EF0CEF83868C07A7B
:203B3000022818BF03280AD106F10D000FF0ACF828B938680622F11D0C300EF0BDF83A489F
:203B500042683A4800784FF480510BF047FD10B18E2009F091F984F480505AE0A00505D56B
:203B70000EF090FB324901200860FEE7600504D506F06BFB84F480604BE0600405D58120C7
:203B900009F07AF984F4804043E0A10440D5294D286810B100200DF02FFF274E4FF0FF309F
:203BB00028600FF059F83168244D51F8202F684690472349234B486A8A6A009001920293BE
:203BD000C86A0268086A0392ADF810000A6B1178002904BF5068002805D19068002804BFFA
:203BF000D068002806D02970506868609168A960D068E86029463568134A2E6813486B46D9
:203C1000B0471349086003F0C9FC84F4005000E0002009B0BDE8F08F204F0020AC450020DC
:203C3000104F0020684E0020784E00206E4F0020FC002043044F0020F04E0020684500205F
:203C50003C1F0020312101002C4D0020F82C0020EC4E0020BB482DE9F84F0025BA4CB849C3
:203C7000056094F8E200002800F06581012800F02F81B64E02283CD0032840F05C8151F8DF
:203C9000250CD4F8B8100029A0F5C060C4F8D400B8BF49420028B8BF4042814226DA4FF0BC
:203CB0008057D7F8A4014568B4F8BC0030214FF47F42082300903046A847D7F8A4014568FE
:203CD000B4F8C00004214FF4F802122300903046A847D7F8A401B4F8D070456820214FF44B
:203CF00040620A2330460097A847012584F8D8501CE151F8258C0EF0C5FA2F4600B9012715
:203D10003946934F38680028FCD0B146012609F10409D9F82CA03E6009B10EF0B9FACAF316
:203D30000720C4F8BC000EF0ADFAAA4600B9B2463B68002BFCD0D9F800B0BAF1000F3E601B
:203D500001D00EF0A5FACBF38440C4F8C0000EF099FAAA4600B9B2463B68002BFCD0D9F84A
:203D70001C90BAF1000F3E6001D00EF091FAC9F38120C4F8D000B8F5C061C4F8B81000F0AA
:203D90009C8094F8D80068B9C4F8D410D4F8C000C4F8C800D4F8BC70C4F8C470D4F8D0300E
:203DB000C4F8CC30D4F8D400D4F8BC30002854BF02226FF0010204F1C8010F6800EB4000C2
:203DD0008018421000EB927207EBA2000860D4F8C810C4F8C43000291CDD1E293CDDD4F85C
:203DF000CC0030B93429B4BF15391E21C4F8C81025E02A29BABFD4F8C8000B381E20C4F86B
:203E1000C800D4F8C4003F28B4BF401C3F20C4F8C4001FE0D4F8CC00032812D011F10B0F65
:203E3000C6BFD4F8C8000B30301CC4F8C800D4F8C4000028C4BF401E051CC4F8C45003259C
:203E500008E011F1150FC6BFD4F8C8001530301CC4F8C800C4F8CC504FF08057D7F8A401B4
:203E7000B4F8C43030214FF47F424568374800930823A847D7F8A40104214FF40032112322
:203E9000456832480096A847B4F8C860D7F8A40104214FF4F802122345682C480096A847E1
:203EB000D7F8A40120214FF440620A23B4F8CC60456826480096A84701E084F8D85040F2FC
:203ED000FF50404502D8801C40452FD2082030E051F8251C1F4F4BF2F5204843060A386845
:203EF000C0F3814001280CD11B480068006880470BF052FE0EF0D2F93111C010484306EB9C
:203F1000E03694F8E50030B91448006820F07F403618760801E084F8E5501148310C066034
:203F3000012741600F4D8760287808B90B2000E0052084F8E40003F0A1F9BDE8F88FC046B5
:203F50002D400C402C500C40A015002000A00C4000800C40B43F0050EC010010102009408A
:203F70003C600C40554101002DE9F84FB34D696884B0019121B905B0BDE8F04F0EF068BE27
:203F90000978DFF8BC82AF4EDFF8BC92DFF8BCA201291CBF0229042946F2A81741F64C5BF2
:203FB00005D0402918BF802900F096803CE10EF023FA0028FAD00198007804F057FD00901A
:203FD000446814B900200DF017FD9AF8010000285CD000F043F90DF089FF029001680098FC
:203FF00001914F6809F068FD022825D000990A78012ADBD196490A68137A19F80310317056
:2040100018B90EF021FE5844A0602069C17E01F0EF01C1762069C17E41F08001C1762069EC
:20403000C17E01F0F00141F00201C1762269B96888484118D1614BE001980178802911D115
:204050000820854930700A78012A03D09AF80100022801DB38690CE0D8F828003A69017800
:20407000D1720DE07C49072030700A783869012A02D10121C17203E0D8F828104A78C2721D
:204090000298817901988AF80210C8E0009800288CD00199009A0078914205D101281CBF32
:2040B00000200DF0A9FC15E0012840F0BD80684801680A7A19F8020030700EF0C5FD391842
:2040D000A0680EF0BDFD18B90EF0BEFD5844A0600120A8700098A2E09AF8010000287AD092
:2040F00000F0BCF80DF002FF04462068029047689AF802000DF0FAFE03900EF083F910F065
:20411000070F3DD0A87804F0B1FC0190416801980091029909F0D0FC022831D001990A78A0
:20413000012A2AD14A490A68137A19F80310317028B90EF089FD83440098C0F808B0009826
:204150000069C17E01F0EF01C17600980069C17E41F08001C17600980069C17E01F0F00144
:2041700041F00201C176009AB9683A4841181069C16101210198A97051E000200DF03CFC39
:204190000398A04225D0029833490278802A12D1082030700978012903D09AF8010002287D
:2041B00003DB38690121C17210E0D8F828003A690178D1720AE007203070097838690129D7
:2041D0000EBF0122D8F828104A78C272A0798AF80200029823E00EF015F910F0070F29D08C
:2041F000A87804F043FC04462078D4F80480012820D117490868027A19F8021031700EF002
:2042100023FD3918D8F808000EF01AFD20B90EF01BFD5844C8F808000120A870204605B089
:20423000BDE8F04F06F05EBC05B0BDE8F04F00200DF0E2BB05B0BDE8F08F00BFFC2D002046
:20425000E04201006F4F0020289A0110684E0020104F0020F0D8FFFF734F00202DE9FE4F1A
:20427000B24C617811B900200DF0C6FB0EF0ECFC4FF00008074607F6C417C246AC4DDFF885
:20429000B49228E050460DF031FE06467079F0B12968B07901F80800394608F101005FFA9B
:2042B00080F830460EF0C8FC30680178402902BF06F182000178012902BF4188728991428F
:2042D00005D1B169C088411830460BF0CDFD0AF101005FFA80FA99F800008245D2DB617855
:2042F000884505D000200DF087FB82200EF0A0FC6078012840F0F180002701E07F1CFFB23B
:2043100099F80000874280F2E28038460DF0EEFD064670790028F1D02968B0790A789042CD
:204330001CBF00200DF068FBB079FDE0286810F809000DF0DBFD00684268DAF808109068A2
:20435000814204BF3E4609F1010900F0D480D6E0286890F800B001224FF4C0710FE063682C
:2043700003F5AD76835C01FB03F901FB0BFE36F809C036F80E60B44538BF9B46521CFBB2B7
:204390009A42ECDB4FF6FF700EF04EFC064658460DF0ACFD68490068D0F804A00868D946CA
:2043B00030F8192060684FF4C07300F10E0103FB09F3C85AB2EBD00F52D2720840F6C4100E
:2043D0004243009200275D4A0190029217E058460DF08CFD01680A78802A03D1DAF810302D
:2043F000009A5A610978402908D1029980790A6802EB4011009800F5A060C8617F1C474574
:204410002EDA2868C05D8345F8D001464FF4C073594363685A1803F5AD73D289595A530830
:204430008B4202D2521A9045E8DA0DF05FFD01684A68019B9168DAF808207008A1F6C411E1
:2044500003FB00200EF0FCFB0028C0D03A48006830F81910491C20F81910286810F807B051
:20447000296808780DF042FD0026006847684FF4C079464551DA2868805D0DF037FD00686A
:20449000296842688B5D606809FB03F3034403F18201087830B15889B1F802C0401C80B22E
:2044B000604508DA887B01280ED15889098A401C80B2884208DB6EB3B968906801F5C24178
:2044D000A8310EF0BDFB28B3761CF6B2D1E700200DF092FA82200EF0ABFB617828680EF01A
:2044F0009FFB286800780DF001FD00260068D0F804A04FF00109771CC145FFF617AFF6B2D0
:20451000002E1CBFF8B200287FF422AF286890F800B037E7296811F806B007490A68002054
:204530005B4622F813005846BDE8FE8F684E0020004F00207B4F0020382E0020844E002026
:204550002DE9F84FDFF8C0B20F460546F80B80F00B81A74EDFF89082B80F80F0BD80B808F4
:2045700080F0B1803809C0F032819D480178090980F0A480007830F07F0040F09F806846CE
:2045900007F016F9012803D10098002800F0968094480078002840F0918001240025E8B2A1
:2045B0000DF072FC48B1837A3BB1847290F9090004FA00F0C0B20BF055FD6D1C032DEED3EF
:2045D00045464FF0030A05F1AC0085F810A00EF007F8DFF82492002109F114028846106824
:2045F0001160824952F8080C05F1340042F8088C42460EF005F83068006B8047AA68A969A8
:20461000801A000BC0F1FF328A422CBF01444FF0FF31A961287F20B1E868A969B1EBC02F29
:204630001ED90CF061FF414600B12146A9B1714840F60901018046464680427B64F3030239
:204650004273027B66F30302027346604B46DE611860418811F4406FFBD02C774146A961DB
:204670006649086820F0020040F400700860644A42F804AC41F2300696601460502393601C
:2046900014604FF4CA6696601460022042F80C4C44460C600BF028FF112006F0C5F9287868
:2046B00018B9686838300DF0B7FF687F18B16C7705200BF019FF534868612C7409F02CFD3D
:2046D00027F0080783E005F071F840467430006808B927F002077AE00DF08AFF344681464F
:2046F000606D0068014604208847C8B1287CB8B14046083006689EB12068EC68006B80472C
:20471000801BE860010BE960A14202D209194908E96040F6C41088422CBFB1F5FA7FE860B8
:2047300048460EF079FA0BF081FC90B1A8696FF4807100224FF0007304462846A047404653
:204750006C300068002808BF47F0020701D009F0E3FC686900214FF0806304460A46284651
:20477000A04727F0005732E00DF042FF59460E684EB306F1280106C90A234FF0E0450B40A3
:20479000154008BF002B1ED106F1280191E8300006F1280393E8060006F12803AA43A14374
:2047B00083E806000EF038FAB16871B1002D08BF002C0AD03069B6F93C10B2682B46164698
:2047D0002246B04701E00EF027FA27F4804727B15846394650300DF027FFBDE8F88FC046BE
:2047F0005A2E002041250020A82300209D0F00008C010010BC2D0020001004400000046086
:204810000C41044069A60000282400202DE9FC41A0F2013714468846022F40F233819B4E37
:204830009C493F1F0F2F04D9143F4CD0BF1E1CD011E0DFE817F0D000CA000E01FB00C200AD
:20485000BA002701B000A800100010009E0090008000750066002D2880F21481B8F1020F4F
:2048700040F010818849238808E1B8F1010F40F00981F078012800F00581324620781179EE
:20489000107189B9002800F0FD805078012800F0B680042800F0B380062800F0B0800528CF
:2048B00000F0AD80BDE8FC812078002840F0EA805078032800F0B080072800F0AD800528C3
:2048D00040F0E080A8E0B8F1010F40F0DB802078012840F0D78006F1EC000DF009FC002817
:2048F00040F0D0803446002004F13A0108F034F8002840F0C78004F1C8000DF0ABFEBDE893
:20491000FC81B8F1020F40F0BD8020880A28C0F2B980B0F5486F00F3B5800E46B61C17E07D
:20493000B8F1020F40F0AE802088B0F5FA7F80F2A9800E460CE0B8F1020F40F0A3802088F9
:204950000628C0F29F80B0F5486F00F39B803E363080BDE8FC81B8F1020F40F093802088F3
:204970000628C0F28F80B0F5486F00F38B803C36EEE7B8F1010F40F085802078062880F271
:204990008180454E0EE0B8F1010F7BD12078042878DA0A3606E0B8F1010F73D1207808287F
:2049B00070DA09363070BDE8FC81B8F1010F69D12078042866DA0836F4E7B8F1010F61D1A1
:2049D000207804285EDCF61DECE7B8F1020F59D120880E36BCE7B8F1010F53D130790128C1
:2049F00050D032462078D178D07069B9002849D05078012803D0042818BF052842D1012063
:204A10000DF0AEFBBDE8FC81207800283AD15078022818BF052835D110780CF0F1F81C4925
:204A30000246102002F056FBBDE8FC8106F1830500211F22284608F058FB21464246284692
:204A500006F0A0FF44463078B4710CF0D9F8002311E006F1640500211F22284608F045FB11
:204A700021464246284606F08DFF4446307874710CF0C6F80123009408490195024610205F
:204A900002F028FBBDE8FC81C9050100B005002099450110F0050020EA05002009450110B9
:204AB0002DE9FC418E488F4A04788F488F4B90490D2C6FD8DFE814F012010E000E000E0056
:204AD0000E000A010A018E000A01C900C900E700E700EE00106041F204478648864DB0F884
:204AF00002C08649BC451FBFB0F81AE0BE45B0F83280B8454FF4A0561ED181480068D0F819
:204B100000C09CF8040003280CF1080E0BD1DEF80E0000281CBFBEF81800002803D01F80C4
:204B3000784911608AE0022C1CBF1E800D46156000208CF8040081E0BCF1000FA3F800C03A
:204B500041D0BCF1010743D0B7F1010C3BD040F2FE37BCEB07071ED0A7F1040CBCF1010F3D
:204B700020D94FF47F77BCEB070C1DD04FF44067BCEB07070FD0BF1E012F0CD93F1F0AD0A4
:204B90007B1E012B0ED940F2F937DB1B012B1AD91B1F09D09AE0022C01D115604EE01E8014
:204BB0000D46FAE7584DF8E7584B1C68257A012D05D141F20243438043834386F0E74680FC
:204BD00046834686ECE700200CF016FF832081E08F207FE04E498978FF290CD010601820D6
:204BF0004C4C41432068851C40F204466C5A1C80A41B012C484B71D94FF47F76A41B0FD0E3
:204C10004FF44066A41B032C84BF641F012C0BD9A41E012C62D940F2FD36A41B08D103E0CC
:204C3000801C41F201444452136005F007F805E000200CF0E1FE85200DF0FAFFBDE8FC41F6
:204C500036480078012105F08FBE40F204424888188090421CBF41F2084290423ED041F6C9
:204C70000402904211D12E4C2E482F4B00680025CDE9004502222D4C256855F8086FB04793
:204C90002B4908802AE04888188000200CF0B4FE85201FE04888188002280DD940F2044234
:204CB000801A1BD040F6FC72801A05D0083815D04FF47F72801AE8D1887B801CC2B2B52AAE
:204CD000A8BF662088730020488007E000200CF093FE8420BDE8F6410DF0AABFBDE8F38161
:204CF0006F4F0020204F0020C1250100504F0020CC4C0020204A0020B1540110615A0110ED
:204D1000F44B002059550110755B0110104F0020684E0020804E0020313901106E4F0020E9
:204D300002000080EC4E002061050100F04E0020424F00202DE9F04F8246DAF80070DAF8E0
:204D500004600C465FEA0208ADF11C0D14BF00214FF0FF31DFF8409248460DF03EF900287D
:204D700018BF0B2040F0158100258F488C4905708A48FC6052460DF043FC317B27200DF023
:204D900041FCB8F1010F07D0657002200BF0A6FD06200BF0A3FD01E001206070207801284D
:204DB00040F2AA80801E012868D9801E012833D9801E012800F2DE800DF01AFC83464FF07A
:204DD000805000F5EE77D0F8DC01A378466A009321782846062908BF012001900120029034
:204DF000A068228AE1686368B047814658460DF013FFB9F1000F40F0BF80B8F1000F02D0BE
:204E10000CF012FF02E050460BF0F0FB002800F0A3803868806A2AE00DF0EAFB83464FF05E
:204E3000805000F5EE77D0F8DC01012306680093A168A27860682478AC46042C08BF9C461C
:204E50006346B047814658460DF0E6FEB9F1000F40F09280B8F1000F02D00CF0E5FE02E016
:204E700050460BF0C3FB002876D03868406880474C49C1F8B0510D6081467DE00DF0B8FBC6
:204E900083464FF0805000F5EE77D0F8DC01E38A86690093E0680190208B0290A07803907B
:204EB000207D04900121059122782846022A08BF081CE1786268A368B047814658460DF053
:204ED000ABFEB9F1000F57D1B8F1000F02D00CF0ABFE02E050460BF089FB00283CD038683E
:204EF000006A80475FEA000946D1E078A168E28A236907F0FBFDBFE70DF07AFB83464FF0A0
:204F1000805000F5EE76D0F8DC01E38AC7680093E0680190208B0290A0780390207D2946B7
:204F3000049001200590257805B9014608466268A368E178B847814658460DF06DFEB9F183
:204F5000000F19D1B8F1000F02D00CF06DFE02E050460BF04BFB08B914201AE0306840696E
:204F700080475FEA000907D1306802692169E078904781E74FF0FF39B8F1010F05D00220E5
:204F90000BF0B2FA06200BF0AFFA03480DF044FB484607B0BDE8F08F241A00205C1A0020AC
:204FB000AD0F010050450240602E00202DE9F04385B011F8017B0446082F04F1FD0004F134
:204FD000FC0804F1760504F5A076844A844BDFF8149213D0092F21D00F2F2FD0112F01BFDB
:204FF000287801286878102840F0D5800A78327648787076012184F83D11EBE00025521C21
:205010004E5D5F5D3E434E55575D3E4046556D1C082DF5DB204608F019FD74E00024571C3B
:205030000D5D1E5D35430D553A5D15400555641C082CF5DB022088F80000CBE098F80100F9
:20505000820704D410F0110F57D01A2266E008784A7800EB02203080CA78887800EB0220C8
:2050700070804A79087900EB0220B080CA79887900EB0220F080087A30724A7A887A02EB17
:2050900000227281C87A0A7B00EB0220B0818A7B487B00EB0220F0810A7CC87B00EB0220CA
:2050B00030828A7C487C00EB022070820A7DC87C00EB0220B082487D897D00EB0120F08212
:2050D000494801788A0658BF1A2212D504F5A670049071890391307A029021890191F088CB
:2050F0000090B38872883188204608F04DFAE0B11E2298F80100410710D40F2088F815002B
:2051100020460DF085FD002864D199F8000005B0BDE8F0434FF4804105F026BC204605B029
:20513000BDE8F0430F210DF06FBD7088A882B188E9820221F0882883297400206882A18E4C
:20515000A88AC91DE981618EB0EB510F02BFE88AA18E884202BF288BE18EB0EB111F18D011
:205170002878012804BF68780F2805D0687918B10F21A972FE2127E0FC2120460DF040FDCF
:20519000F0880090B38872883188A0790DF034FD20E0102118E0491E20460DF029FD032F77
:2051B00018D1A878042818BF0D2813D16E78142E18BF0E2E0ED12F7820460DF015FD012F54
:2051D00006BFAE72FD213146204605B0BDE8F0430DF016BD05B0BDE8F08300BFEC4D00209D
:2051F000202E00206E4F0020144E002010B50B7884074CBF43F0020303F0FD0304064CBFB4
:2052100043F0800303F07F0304074CBF43F0080303F0F70384064CBF43F0200303F0DF0352
:2052300010F0AA0F0B7003D0107840F00C0003E018B9107800F0F300107010BD2DE9F843D6
:205250000D4600272878022814461E4667D1696808784978DDF8208000EB012080B25FEAF6
:2052700008021CBFB0F5285F0B205BD14FF42851401A08D0401E21D0401E2FD0401E25D0C9
:20529000401E31D04BE0DDF82490E8680DF0ECF980B2A0EB08024A45BCBFA0EB08001FFA3C
:2052B00080F909EB0800162806DAA6F800904A46E86800EB08010DE00D2732E0E86800883E
:2052D000022131802070000A60702AE0062030800622E96820460CF0EFFC22E00120308007
:2052F000E9680A7822701CE0E868B0B1082131800288227003881B0A63704188A17042886F
:20531000120AE270818821718288120A6271C188A171C088000AE07103E0308001E0378052
:2053300001273846BDE8F2832DE9F0470F46814638780024022890461D466DD17868089E39
:2053500001784078DFF8D8A001EB002189B24FF42852891A06D0491E29D0491E4ED0491EF3
:2053700039D059E0F8680DF07FF980B2B04204D3A919162903DB0D244FE007244DE0FB6811
:205390002A46414698190CF097FCAD19F868ADB2C5F11602002140190DF064F9DAF80000CD
:2053B00000281CBF0268002A37D0002123E08EBB022DE0D198F8000098F80110FA6800EB74
:2053D00001201080DAF8000000281CBF0268002A23D001210FE0EEB9062DCCD1F8680622A0
:2053F00041460CF069FCDAF8000000281CBF0268002A12D00321484690470EE056B9012DB6
:20541000B9D198F80000002813BF0128F9680870802402E00B2400E001242046BDE8F0872A
:20543000482E00207CB5894D144602460026A2F58062182A1AD8DFE812F0FE00F800F1009A
:20545000E900E200DC00D500D0001900C500BE00B700AE00A3001900190080006F006800C3
:2054700054004C00420039002C0024002D2880F28580022940F0828021880BF09DF8064603
:20549000E1E0012940F0DE80002C00F0DB801135A6E0102940F0D680002C00F0D3802846A4
:2054B0005030102221460CF007FCCCE0012940F0C980002C00F0C68029468D1D90E026293B
:2054D00040F0C080002C00F0BD8005F160002622E8E7012940F0B680002C00F0B3806D1D1D
:2054F0007EE0602900D13CB9012940F0AB80002C00F0A8800D3573E005F18600214660222C
:205510000CF0DAFB012068739DE0012940F09A8020780DF065FB96E0012940F0938020784D
:20553000022800F38F800C3528702078022814BF301C01200DF050FB85E0072940F0828045
:20555000611C684606220CF081FA20786946324605F0EEFC04460A2C10DA0DF039FB38B947
:20557000204603F025F80BF0CDFD09F065F96AE02A46012002F12C05285564E0022662E05F
:2055900001295FD1A87B21780028A9735BD12078012858D1E9E7012954D12478072C51DB71
:2055B000102C4FDC0B3537E001294BD124780A2C48DA093530E0012944D12478022C41DA71
:2055D000083529E000293DD10DF002FB10B90CF008FCC8E701240F351EE0012932D10A35F9
:2055F000247819E001292DD12478022C2ADAED1D12E0102926D12B4603F1400051E70129DD
:2056100020D12478022C1DDA2D1D05E0012919D12478042C16DCED1C2C7014E0012911D122
:205630002478022C0EDAAD1CF6E702290AD120881435288007E0012904D12478022CD8BF1C
:205650006D1CE9DD182630467CBDC046A81100202DE9FE4F05467B48002400680094C009C5
:2056700005D37948007810B920200AF0F3FF012D40F0E280DFF80092D9F8DC00012840F0E5
:20569000D8800220C9F8DC000CF056FA01200AF0E1FF5FEA000805D00120C9F8DC000CF0BC
:2056B00057FACBE00CF0BCFFA34602906748684DC0F800B0A86A016801208847012804D177
:2056D000584608F02FFA012000906248624FC0F800B0386811200CF0F3FD00B101241020C4
:2056F0000CF0EEFD08B144F002040F200CF0E8FD08B144F004040B200CF0E2FD20B1286854
:20571000564E016B308888470A200CF0D9FD20B12868534E016B30888847524801260660CA
:205730002868816944F0200088474F4806600CF0C1FD00F001010191400814D2286A8168D8
:205750004A4888478246BAF1040FF7D0BAF1010F04D1286A4268454803219047444908683A
:2057700020F003000860584600F088F82B683868986B8047019801280CD0BAF1010F04D165
:20579000286A42683948314690473949086840F0030008602F480660286841692046884715
:2057B0000B200CF08DFD20B128682C4BC16A188888470A200CF084FD20B12868284BC16A10
:2057D00018888847274806600322C9F8DC20264BC3F800B02868416B204688470128F9D153
:2057F000386804200AF036FF0446184806603868144800688009FBD30098012802D13046D1
:2058100008F090F90CF044FD08200AF023FF07460298C9F8DC600DF0D7F91648008807F0E8
:2058300025FF0CF095F957EA040018BF4FF0FF3804E06FF0040801E06FF001084046BDE855
:20585000FE8FC04614100940881600200C400940B8010010000222432C200940743D01006E
:20587000703D01002820086080010443004003402422084050410100A01500202DE9F84F1D
:20589000DFF804B20746ABF13500DFF8F0810068800880F0E28075480068006880477E4928
:2058B0000831D1F8009000254FEA29715FEA995201F101010AD2C0F13E0210F10A0F4FEA06
:2058D000E202D8BF08229142B8BF111C684BD3F87C21C2F30462162AA8BF203A1B68C3F32C
:2058F0000443162BA8BF203B9A465218162A05DA12F10A0FB8BF6FF0090200E015225D4B29
:205910005D4E02F01F0141F4F8511980316811F0030F18BF0125C90828BF45F002050FB146
:2059300045F00405434693F90710411A052904DA9979A94208BF99886FD0DFF844E10F282F
:20595000A0F10F0829DB08EB0011A1F1F0084FEA28210091072984BF07210091062988BF48
:2059700006215EF821600424774604EB81043C594FEA950CA41BEE0804F0FF0124BFC4F30E
:20599000072631446F08AE0824BFC4F3074631446E0828BF01EB146104E000214FEA950C2F
:2059B0006F080091009C5EF824E05FEA5C060EF0FF0424BFCEF3072634447E0824BFCEF3BA
:2059D000074634446E0828BF04EB1E64009E89B2A8EB06267143803104EB1124AAEB02016B
:2059F0000029D8BF0121342209F0FF074A4391B24FF6FF727943B1FBF4F18A4238BF111C9D
:205A1000802889B2998005DA10F1800FB8BF6FF07F0000E07F20D8719D711A4800681F29CE
:205A300018604FF0000008D340F2FF128A4206D24908401C8A42FBD301E01F219980134FFA
:205A50000F39090940EAC10047EA0001CBF8FB1F0026CBF8FF6FBDE8F88F0D490D4F434624
:205A700008200F609B1D1870BDE8F88FEC0100103C1100506E62084024220840282E00205D
:205A90009C130050082009403500094000E7A48030100940FDFDA400AC3F00502DE9F04F46
:205AB000044675488A46016894461F46BAF1000FADF13C0D4DD0BCF1000F4AD09AF8002011
:205AD00001209040014244D0BCF80000B0F5C15F32D1DCF81430DCF818206848DCF81C101E
:205AF0004FF0030E0DF128080B93DFF894B10C9200680D91C0F3036958F8046FCEB1002138
:205B1000351F05200B4655F8042FB2F1FF3F10D0934506D0401E01F1040103F10103F2D1AC
:205B300007E0052B05DA705820F4702040EA09407050BEF1010EDFD1C4F804A0C4F808C06E
:205B50000CF056FD4F4D8046287820B140460DF063F800208DE002F0F3FE4B49086840F091
:205B70000200086007A80CF0ABFA002605F1D00007AA464909960AF04BF8454905F58270D9
:205B900007AA0AF045F807A80CF052FAFF2105F1340007AB3F4A0891192109F065FF3E4AD9
:205BB00005F150001A2107AB09F05EFF3B49324605F18800134608F0EBFF3949324605F1A7
:205BD000AC00134608F0E4FF364A05F12000042133460BF00BFA0E2005F050F905F17400CB
:205BF0000CF02AF905F16C000CF026F92E74072085F898012E77AE616E770523AE602B49D7
:205C1000EB602A786961501C2870274B1E7040460DF002F8B1464FB92548B0E88C106946ED
:205C3000A1E88C100DC86F4681E80D0038682060398A6182012060747B6813B940F6C413B8
:205C50000646E3601B48A06126746061F86800B1A061B86800B160615822494604F1200024
:205C700007F043FA04F1380049460BF079F820466C600FB0BDE8F08FD421084054130050AF
:205C90000200F844A823002000200940911B01009DA500009D0F0000A9DD0000D914010053
:205CB000291901006DEE00005A2E002069A60000C040010057BE00002DE9F04F0546804801
:205CD000066800680F461C469246C4F399018900ADF12C0D0A010021803207F006FADFF8F2
:205CF000C891A9F1880002466E48016830469047A3088046610801979F1C21F00101F81914
:205D1000009506EB80000390091DCDF808A07818434506EB800206EB870B3844049206EB36
:205D300080000690C4F39C004FEA800000F1080007EB400000EB070206EB82020A9224F0ED
:205D5000030202F1080200EB020506EB85053A44059506EB82050A4407953A4406EB820257
:205D7000089206EB80020992084406EB800A384406EB800518BF6FF0010040F08F8009F142
:205D90006800024641463046904700233CB10199264611F8010B761E40EA0303F9D1002B8B
:205DB00008BF01207AD000263CB10299234611F8010B5B1E40EA0606F9D1002E08BF0220E5
:205DD0006CD001995846C84703980299C847009881680498C8473548049A594681462846D0
:205DF000C847012803D14FEA88042E590EB1032054E0BE0028460021324607F076F903995E
:205E1000049A2846C847012801D12F590FB1042044E0274F274C069859463A46A0470798A0
:205E300003993A46A0470699089827460A46B84709980899069AB8470A9806991E4C224660
:205E5000B84728460021282207F04FF91B4809990A9A81462846C8472034284622460146BD
:205E7000C847079950460A46B84705980021324607F03BF95FFA88F45046002C0CBF012298
:205E90005FFA88F200216B5C445CA34218BF052004D1491C521EC9B2F5D100200BB0BDE84B
:205EB000F08FC0468C4F0020B9DB0010C9DE001004210020F9E00010683E0100C9E6001063
:205ED000884F00202DE9F0410446804DA178A869ADF1180D891F00F0F280C91E00F0DD8032
:205EF000491E5FD0491E48D0C91E3CD0481E40F0E980287A697AB8B96878002831D0A08864
:205F10000CF05EFE071C00F0DD80A07A40080FD3787968B1E168890A0AD2B91D01AA05F02D
:205F300007F80A2804D10321A0880CF045FEC9E0287B022802D1A07A0009F4D3A088797973
:205F500004F1080201F062FAA869002800F0BA804368002B00F0B68000210A46A08898470E
:205F7000B0E00521E0E7002800F0AC804368002B00F0A88062780221F0E70CF0E1F8002891
:205F900000F0A080A86950B1076847B1206900906189227B637BE01C3C46A04792E060892A
:205FB0000121C2E767784FF00008002F66D1A179490863D3EF69002F60D101A841460E22C1
:205FD0000CF050FBA0880CF0FBFD071C7AD0606940B97879B91D06228DF80A0001A80BF0FD
:205FF0006BFE19E06669307C062206F111018DF80A0001A80BF060FE07F10C00B91D0622F0
:206010000BF05AFEB81D062206F111010BF054FE307C40F002007871A079C00839BF387979
:2060300000F0FD00387940F002003871A079000939BF387900F0DF00387940F02000387193
:20605000A1799DF81120C1F3800010438DF81100080905D39DF8110040F008008DF81100D6
:2060700001A8214600F034F928B92878022104F07BFC404627E0A8694FF0150810B343686C
:2060900003B3A088627801219847B8F1000F19D0A86943680321424660E7E078211D00222F
:2060B00004F046FF0A280DDA410001EB800004F10C0225300421C0B203F094F902E0A08858
:2060D00008F0DEFD012006B0BDE8F081A81100202DE9FE4F0E468246307AC10693461F46E9
:2060F0004FF000090CD558460CF062FD030000F0E8800A223146504698475FEA00094DD18B
:2061100030780C9D0D9CDDF8388002281AD170680178407801EB002189B24FF42052891A2A
:20613000012910D9891E3AD0491E14D0FD397AD0491E00F08180491E6DD0491E73D0491EB3
:2061500000F09580ABE0002C2AD1F068017829800278416887E0002C22D101202880F16833
:206170000A783A7000217089401C80B20CF01CFD298860B10278921C511829804189797077
:206190004289120ABA7041680278F81C6CE0091D298004220021781C0CF064FA93E0002CB8
:2061B00066D1F0680688042129803E70320A7A700DF1020130460CF0F7FC040021D0D4F8E9
:2061D0000C80BDF802204FF6FF766B4631460CF0E7FC40B9237862683C4802210CF0DCFCB2
:2061F00008B9ADF8006098F8000002280BD1D8F804100222381D0BF05FFD2888801C28808B
:2062100001E0ADF80060BDF80000B870BDF80010090AF97057E0002C2AD1F06801685046B5
:206230000BF0FEFE02E01CBBF0680088022129803870000A787046E0F0680CF015FA80B29D
:20625000A042B8BF4FF007093DDB844208BF002205D008EB04028242B4BF4246021B2A806B
:2062700092B2F068011938460BF026FD2BE014B14FF00B0927E0F0680721298002783A7045
:2062900043787B704188B9704288120AFA7001793971C2887A71C088000AB87113E05846A1
:2062B0000CF076FC5FEA00090BD00F980290CDF8048000942B463A4631465046C847814649
:2062D00001E04FF00E094846BDE8FE8FF43E01002DE9F04F754CDFF8D0A1E5698846814643
:2062F000ADF1140D002D52D1B9F1000F00F09A80B8F1000F00F096800AF0F8FD06460A2E8B
:20631000267426DAD8F81470002F41D0700010216A4600EB86002330C0B20BF06FFAB0B9EB
:206330001020ADF1010111F8012FFF2A02D1401EF9D10CE05046007838B999F8060049460F
:2063500000F001000CF020FC01E00120A074E5691DE004F1E60B0A2700265846FF210622A0
:206370000BF0B8FB88B97F1E0BF10E0B06F10106F3D1607C002804BF0A20207452D094F877
:206390003660304602F014F9E569267400E0267C0A2E47DA002D35D170000E214A4600EBD2
:2063B00086002030C0B203F01DF8207C08F0A2FD6846FF2110220CF055F9207C10216A4683
:2063D0007030C0B203F00EF8217C0E220801A0EB410000194946E6300BF06EFCD8F81420D9
:2063F0006AB15046007840B9107C02F11101002300F001000CF0C4FB01E00120A074C4F839
:206410001C804CE0AA68002A3ED12A69002A2FD16A690ABBEA683AB9A07B08B10AF000F9F8
:206430000BF0DDF901203BE07000102100EB86002430C0B202F0D6FFE769217CFA68480009
:2064500000EB8100103225300421C0B202F0CAFFE1690020C86022E07000102100EB860031
:206470002330C0B202F0BEFFE1690020486116E070001C2100EB86002230C0B202F0B2FF0A
:20649000E169002008610AE070001C2100EB86002130C0B202F0A6FFE16900208860002045
:2064B00005B0BDE8F08FC0465A4F0020A81100202DE9F04F0746880FADF1140DC0F0CC8057
:2064D000674C201D006841688E68CD68486800B18047DFF89081002E08BF002D0CD04146EB
:2064F00008680028FCD00020086006B1B04705B1A8475D480AF0C6FB5C480BF0D9FD5C49D3
:2065100040F60A0CA1F800C0002048800A7B60F303020A7348604A7B4FF0010969F303026D
:206530004A73BB687D7C58801A888346A2F60202CAB141F21E06921B15D041F6E676921BEF
:20655000012A20D85A7E012D60F382025A7606D01A8B22F47C7242F434721A8313E01A8BCB
:2065700060F30912F9E75A7C012D60F382025A7405D01A8A22F47C7242F4347202E01A8A35
:2065900060F309121A82D7F808A078746246554600E035466E6816B133889A42F9D1696019
:2065B0006B7B60F303036B73E66E3EB1F3681B88D61F9E421AD0921F9A4217D03E8CBEB101
:2065D000786207F12002508097F82C3060F3030387F82C3097F82D3069F3030387F82D309E
:2065F0004A604A7B60F303024A7301E0C4F808B02048036882680192C168406B00931022C9
:2066100020F0784040F0805003901B480291694605F0B8F9D8F800000028FBD017486061E1
:20663000607FC8F800B070B915480068006801464846884701280CD0687B69F303006873DF
:20665000104F676105E009F04FF90028FBD00BF0DFFF50460BF02CFD05B0BDE8F08FC04678
:20667000A82300201C1004400100070601010E04BC2D00204C130050180000215145000006
:20669000E001001089E100002DE9F84F8B460AAF6D4E9BF80050DBF80400BC889246984639
:2066B00031462A463F8800900AF0F8FD4FF0000940B9022F00F3BC80C7F10200A04200F36D
:2066D000AD808DE000982A46B11C0AF0E7FD40B9022F00F3AD80C7F10200A04200F39E8066
:2066F0007EE00098311D2A460AF0D8FD40B9022F80F29E80C7F10100A04200F38F806FE061
:20671000009806F114012A460AF0C8FD38B9022F80F28E80C7F10100A0427FDC60E0009826
:2067300006F124012A460AF0B9FD30B9022F7FDCC7F10200A04271DC52E0009806F13401B9
:206750002A460AF0ABFD30B9022F71DCC7F10200A04263DC44E0009806F144012A460AF073
:206770009DFD30B9042F63DCC7F10400A04255DC36E0009806F154012A460AF08FFD30B96C
:20679000042F55DCC7F10400A04247DC28E0009806F164012A460AF081FD30B9022F47DCA3
