:2000000000400020C5D1000001C9011001C9011001C9011001C9011001C9011001C90110C8
:1C00200001C9011001C9011001C9011001C9011001C9011001C901103FC9011089
:20003C002DE9F04FD74C211D2046ADF1840D0CF06DFD04F120050021284600F05DFFD24EDE
:20005C0010201F220623A560314605F0FBFC5020ADF818000025ADF816504FF47A7B8DF868
:20007C002B500221ADF81C500DF11602ADF81EB04FF44870ADF81A0040F2063003F070F9AE
:20009C004FF44270182104F1570203F069F940F20730162104F1410203F062F94FF4447056
:2000BC0001210DF12B0203F05BF940F21130022106AA03F055F940F2123002210DF11A0258
:2000DC0003F04EF940F21330022107AA03F048F94FF4457002210DF11E0203F041F904F1F2
:2000FC002C002A461523A9490090102005F0AAFC314610200622A02305F0A4FC31461020F5
:20011C000722A02305F09EFC314610200822A02305F098FC314610200922A02305F092FC13
:20013C000BAC01208DF82E5029468DF82C0003468DF82D004FF480628DF83010944D00944E
:20015C001F4610208DF82F70294605F07BFC0DF12D002946009040F202423B46102005F0A9
:20017C0071FC0DF12E00294640F203423B460090102005F067FC0DF12F00294640F2064235
:20019C003B460090102005F05DFC0CA829464FF483623B460090102005F054FC7D491020ED
:2001BC004FF0FF3205F04EFC10207B4B00907B497B4A0193132305F045FC7A494FF0FF3232
:2001DC00102005F03FFC784D287880000FF0F3FE0146764804464161002900F08B804FF674
:2001FC00FF700CF059FF287880000FF0E4FE0146A16100297ED04FF6FF700CF04DFF2878C3
:20021C0080000FF0D8FE0146E161002972D04FF6FF700CF041FF287880000FF0CCFE014659
:20023C002162002966D04FF6FF700CF035FF287880000FF0C0FE0146616200295AD04FF65D
:20025C00FF700CF029FF287880000FF0B4FE0146A16200294ED04FF6FF700CF01DFF287821
:20027C0080000FF0A8FE01462163002942D04FF6FF700CF011FF287880000FF09CFE014677
:20029C00A163002936D04FF6FF700CF005FF287880000FF090FE0146E16359B34FF6FF7063
:2002BC000CF0FAFE287880000FF085FE0146616401B34FF6FF700CF0EFFE287880000FF010
:2002DC007AFE0146E164A9B14FF6FF700CF0E4FE287880000FF06FFE0146216551B14FF672
:2002FC00FF700CF0D9FE324B04F15400352110220EF016FB287880000FF05DFE04F154027E
:20031C0001462C480E92816011B34FF6FF700CF0C3FE287880000FF04EFE01462548C16010
:20033C00B1B14FF6FF700CF0B7FE287880000FF042FE01461F48016151B14FF6FF700CF0B9
:20035C00ABFE1C481C4B0B21102214300EF0E8FA287880000FF02FFE164A014614323348D7
:20037C001F920029816058D04FF6FF700CF094FE287880000FF01FFE01462C480029C160FB
:20039C004BD01BE0AC05002079E1000079AC0000953F000079ED0000301901003DE9000031
:2003BC008C0F002001F00000694F002008020020FC11010080170020901801004FF6FF7051
:2003DC000CF06AFE287880000FF0F5FD01461748016111B34FF6FF700CF05EFE2878800094
:2003FC000FF0E9FD014611484161B1B14FF6FF700CF052FE287880000FF0DDFD01460B48C5
:20041C00C16151B14FF6FF700CF046FE0748084B1521102220300EF083FA064D03496F784D
:20043C00287820311A91EFB906E0C0463012002098130100F0080020DB490C3129620EF060
:20045C0067F905F1440702460020009005F15406019705F11C030296C9490393AB78102057
:20047C0005F0F0FAD04AC7491020183205F0EAFACD4800780EF04CF9C3490246102005F0BB
:20049C00E1FAC94800780EF043F9C0490246102005F0D8FABE49102005F0D4FA08F0C0FFA9
:2004BC00BC49002006F0A4FEBB4900200DF064F900200CF0D3FCB94D05F1140738460FF066
:2004DC004BF9B74E306805F134084FF4FA71BBFBF0F080B24143491E6960B24842463B46C0
:2004FC0000F00EFD05F10802E14B28606968DA6000F00AFD404600212422082300F008FD22
:20051C004FF0000AE04FA5F844A06868C5F84CA007F11408A86440460FF01EF9306807F101
:20053C00340540F2DC51BBFBF0F043462A4680B24143491EDA48796000F0E2FCD9493860D8
:20055C002422082307F10800C8602846514600F0DFFCC7F848A0D44DA7F844A005F11409B8
:20057C00C7F84CA048460FF0F7F83068D846594605F1340B4B46B8FBF0F080B25A46414334
:20059C00491ECA48696000F0BBFC24220823C84F2860514605F108007860584600F0B8FC97
:2005BC00A5F844A06968C5F84CA02868A96400F0ABFC286869680FF02EFDBE4D05F1140947
:2005DC0048460FF0C9F83068C34605F1340841F270714B464246BBFBF0F080B24143491EFE
:2005FC00B548696000F08CFC514624220823286005F10800B860404600F08AFCA5F844A07E
:20061C006968C5F84CA02868A96400F07DFC286869680FF000FDE24D05F1100738460FF028
:20063C009BF8306805F130086421BBFBF0F080B24143491E6960DB4842463B4600F060FCCC
:20065C00DFF87C93286051462422082305F10800C9F80400404600F05BFCA5F840A069682A
:20067C00C5F848A02868696400F04EFC286869680FF0D1FCDF48D34D0FF06EF83068DD4B89
:20069C0005F134075946BBFBF0F03A4680B24143491ECD48696000F033FC754928602422B2
:2006BC00082305F1080008615146384600F030FCA5F844A06968C5F84CA02868A96400F0D3
:2006DC0023FC286869680FF0A6FCC04D05F1100738460FF041F83068C74A5946BBFBF0F02F
:2006FC003B4680B24143491EB948696000F008FCDFF8E0822860C04805F108012422082349
:20071C00C8F80C10514600F003FCBC48C5F844A0A5F840A0B04FC5F848A00FF01DF83068E9
:20073C00B64B47F23055594607F13006B1FBF0F080B2324605FB00F1491EA848796000F0CA
:20075C00DFFBDFF89CB207F10801242238600823CBF800103046514600F0DAFBA7F840A050
:20077C00C7F848A0284678640CF02AFE9D4D05F10C00C9F80800281D0FF07EFB16E0C046DA
:20079C005BD3000091F200005188011031810110C5AB001000000303F5AB0000341A00204B
:2007BC00C4190100FBFF0000AC05002001262E720CF006FE8C4D05F10C00C9F80C00281DC0
:2007DC000FF05AFB2E720CF0DBFE2949874D05F10800486105F118000EF016FF85F82EA0DB
:2007FC0085F82DA06E764FF4E1302E76804BEE61CF4F2863CD4AAB622A496A6207F108038E
:20081C00CC4D0B614FF4FA42EA81CEA72A8297E8030008F0ADFDCDA20CCA06F003FFD0A259
:20083C000CCA06F03CF80CF0A9FBC0B2A87105280ADA5F46386800688047A87939680828FA
:20085C0002DD48688047A879298A49F6B02268718A4233DB49F2B82088421DDB48F6482013
:20087C00884217DB48F2502088420FDB02E0C0464418002047F230508842A4BF85F800A0DB
:20089C00022705DA30461AE08C1A002002272F70042217E0032012E00422104610E0C04692
:2008BC00FFFF000054210020E41A002003000100682100203C1B00202FCE000005200422FF
:2008DC0028700227C5F8D8A06420C5F8E8009623C5F8E430C5F8F060C821C5F80011FA2174
:2008FC00C5F8FC10C5F808714FF49673C5F818314FF4AF70C5F814010321C5F820114FF402
:20091C00C873C5F830314FF4E171C5F82C114FF4FA70C5F838214FF41673C5F8480140F20C
:20093C002620C5F844010521C5F850116430C5F860310621C5F85C014FF42F73C5F86811D1
:20095C0064300721C5F878314FF44873C5F874016430C5F8801100F1640BC5F890314FF426
:20097C006171C5F88C010820C5F898014FF47A73C5F8A8110920C5F8A4B10BF16401C5F8C2
:20099C00B001BF48C5F8C0315346C5F8BC115BB1142B09D0590834BF0770027005E0C04666
:2009BC00441C00200700010006705B1C401C152BEDDB6B78012B23D023BBC14821E0C04652
:2009DC00181E0020941B0020DBDA0000981C00200B000100B8160020EC1C00203BDF000011
:2009FC00842D0020F42000200C210020541E002017E30000A81B0020C81C0020FC1C0020DE
:200A1C00BA4828632E7105F128000CF0A7F80EF049FD88F8037088F804A088F805A0D8F885
:200A3C000C000068804704F1480604F1400504F10B070F9604F12C02109504F1340311979A
:200A5C0004F10D01139204F109061293E51D671C1496B7480D91E21C1595631D1697B54E85
:200A7C001892DFF8EC92DFF8E4A2DFF8E8821793103006F1180135463746B74A1991E91C1B
:200A9C003B462B4D1B91B91C1C9116466860591C1D91511C1E91B11C2091A548406800217C
:200ABC004FF040424FF0FF3300F036FA071CF4D0002004900DF12A0104AA05A80DF004FCAC
:200ADC0000287BD1BDF814C00126BCF1100F70D197489DF82A10007888426AD1049D28884D
:200AFC004FF6FF71814264D02B78913B3CD01F3B5FD16878162818BF002205D130460EF0C8
:200B1C0037F8B748324605608948436912B39BB94FF6FD70B949BA4A00900023102004F089
:200B3C0091FF83494B69C2B2A2B905E0D56F0000E8210020300C00207D4843F002030026E9
:200B5C00436136E00000000000409F40000000000000594029790835284600F0E1F928E0E8
:200B7C00000000000070C7406B780E3B02D09B1E1CD01EE0A88842F20301814219D1A9681B
:200B9C000D78B5B9491C0DF122000A68496802600DF1220541602878AE490DF1220200F0CD
:200BBC00FD002870102004F04DFF02E008200BF0A9FC049810B10EB10FF0C1F9F80FFFF49B
:200BDC006CAF5B48806800F0AFF900287FF465AF57488568284600F0ABF9854208BF0025CB
:200BFC0002D085680DF0B6F9002DEAD0504928884969401E00F06981C01E00F06281001F84
:200C1C0000F05181083800F02781103803D0203800F042815CE16868427806788778C1787B
:200C3C0041F60F0306EB0226001DF61A00F0EA80B61E00F09F8045F6EF72B61A40F041816E
:200C5C000B2F00F23E81DFE807F08977675D53473D31271D1006022940F0338100880D996C
:200C7C000880CDF80080206D81E0042940F0298100680F990860CDF80080E06C77E0C04630
:200C9C003C210020042940F01C81006810990860CDF80080606C6AE0022940F01281008877
:200CBC0011990880CDF80080E06B60E0042940F00881006812990860CDF80080A06B56E02F
:200CDC000000803F042940F0FC80006813990860CDF80080206B4AE0022940F0F280008895
:200CFC0014990880CDF80080A06A40E0DBF91E3F022940F0E680008815990880CDF800803F
:200D1C00606A34E0012940F0DC80007816990870CDF80080206A2AE0012940F0D280017886
:200D3C0027463970CDF80080E06939461FE0C046AC05002030120020022940F0C280008817
:200D5C0017990880CDF80080A06910E0F599000059810000B958000080170020022940F076
:200D7C00B080008818990880CDF8008060690E9A35236BE0002F35D07F1E27D07F1E1AD0BE
:200D9C007F1E0DD07F1E40F09C80042940F099800068199908605248CDF80090C0692AE0BA
:200DBC00012940F08E8000781B9908704C48CDF8009040691FE0012940F0838000781C99F0
:200DDC0008704748CDF80090006914E0012978D100781D9908704248CDF80090C0680AE034
:200DFC00B02D002001296CD101783D480170CDF800903B4980681A9A152327E035C7000054
:200E1C000DF60000BFB17F1E0BD07F1E59D1012957D100781E9908703248CDF800A00069C3
:200E3C0012E002294DD10088209908802D48CDF800A0C06808E0012943D10178294801700F
:200E5C00CDF800A0274980681F9A0B2309F032FA37E0C04695B40010880832D322480768C9
:200E7C00002F2ED07888397908373A4600F064F80746162F03D0042F01D00DF079FE1B482C
:200E9C004669F7B936F0020646611AD1184A19494FF6FD70012310E06A68ABF1B10001214C
:200EBC0002F05EFA0DE0ABF1A80008A905F0C4FE0023BDF82020094807490090102004F0C6
:200EDC00C1FD68680DF046F802E0A87807F07CFC28460DF03FF874E619E3000040E20100A1
:200EFC003012002080170020B02D0020AC0500200DF6000035C70000DFF800F0A1B60110C1
:200F1C00DFF800F0FDB10110DFF800F0E5C00110DFF800F0C1BF0110DFF800F0F99B0110EE
:200F3C00DFF800F089840110DFF800F04FBF0110DFF800F019BD0110DFF800F0DDFE00106A
:200F5C002DE9F047DFF894A0DFF89480012400254FF002091126E8B20EF0AAFC071C37D0FF
:200F7C00B87A012834D197F90900AAF11401113004FA00F0C2430A604A681043486097F9D1
:200F9C00090004FA00F0C0B20EF000FA07F1100000210DF02BFC0146812909D1B86918B1D2
:200FBC0000210DF023FC0146812908BF87F80A9081290DD008F2991297F90910137808F5AA
:200FDC00827006FA01F11943117000210FF003F86D1C032DBFD3BDE8F087C0461C1004403C
:040FFC00E8220020C7
:20100000B41200001810000095C80000FDB301106DC00110FDAE011099B50110000000006B
:08102000000000002D0000009B
:20102800B01200003C100000B1C00110A9BF011067C0011069B80110000000000000000035
:041048003000000074
:20104C00B012000060100000BDC00110CDB30110D9BD01106DB3011000000000000000005B
:04106C00310000004F
:20107000000000003822002004000000000000000000000020000000E8C9011030000000D0
:2010900028100000402200200400000000000000000000000C000000D8CA011018000000AB
:2010B0004C1000004822002004000000000000000000000024000000F0CA0110180000002F
:2010D00000000000502200200400000000000000000000001000000018CA01102C0000003B
:2010F0000010000060220020040000000000000000000000200000006CCA0110240000009F
:20111000FFFFFFFF682200200400000000000000000000002800000090CA0110240000005E
:20113000FFFFFFFF702200200400000000000000000000001400000008CB011018000000DD
:20115000FFFFFFFF7822002004000000000000000000000058000000B4C9011034000000AB
:20117000FFFFFFFF802200200400000000000000000000001000000020CB01101800000079
:20119000FFFFFFFF882200200400000000000000000000001C000000B4CA011024000000A6
:2011B000FFFFFFFF902200200400000000000000000000003800000044CA011028000000CE
:2011D000FFFFFFFF982200200400000000000000000000005400000078C901103C00000043
:0811F00001000000C819010014
:0411F80001000000F2
:0411FC0000000E00E1
:0412000000000F00DB
:0412040032000000B4
:0412080001000000E1
:04120C002421002079
:0412100000020000D8
:0412140000000000D6
:0412180001C90110F7
:04121C0000000000CE
:0412200000000000CA
:0412240008000000BE
:0412280000002200A0
:04122C00C81E0020B8
:0412300000000000BA
:0412340000000000B6
:0412380008000000AA
:04123C00B4200020BA
:0412400000000000AA
:0412440000000000A6
:04124800080000009A
:04124C00000000009E
:04125000000000009A
:041254000000000096
:041258000000000092
:04125C00010000008D
:04126000901F0020BB
:041264000600000080
:041268000100000081
:04126C00401D002001
:04127000000000007A
:041274000000000076
:041278000002000070
:04127C00000000006E
:02128000290043
:02128200010069
:02128400250043
:02128600300036
:02128800310033
:02128A002D0035
:02128C0001005F
:01128E00015E
:081290000300000048190100F1
:0812980000000000000000004E
:0412A0000000010049
:0412A4000000030043
:0412A80013C401105A
:0412AC003DF8000009
:0412B000B812000070
:0412B400B81200006C
:0412B8000000000032
:0412BC0000220020EC
:0412C00057FA0000D9
:0412C4002000000006
:0412C800B018010059
:0412CC005C170100AA
:0412D00029C101101F
:0412D40041000100D4
:0412D80043000100CE
:0412DC00A1C7011095
:0412E000A3C701108F
:0412E4000000000006
:0412E8009914010054
:0412EC0000150100E8
:0412F00018150100CC
:0412F400E8140100F9
:0212F8000200F2
:0212FA000900E9
:0212FC000100EF
:0212FE000000EE
:0113000001EB
:04130400E5F9000007
:04130800CDDE000036
:04130C0051EE00009E
:041310007DE200007A
:0413140005DF0000F1
:04131800E1CF000021
:04131C00F1A3000039
:041320008FFC00003E
:04132400C5C400003C
:0413280015C70110D4
:04132C0025C70110C0
:201330002DE9F04FD14C04F118012046ADF1340D0BF0F2FB002604F1A40A4FF6FF7066709D
:201350000121208250460CF085FCCE4802210CF081FCD04804210CF07DFC04F144080420DD
:2013700010223146A070404609F07CFE04F1540910224846314609F075FE04F11C073E6000
:2013900004F10A052E7007206072DFF804B3E67102222672594610200346CDF8008004F0B0
:2013B00057FB102003225946CDF80090034604F04FFB0422102059460097134604F048FBDF
:2013D0004FF0080A4FF003094FF0010B05F12A00079005F17900089005F11E00099005F1B5
:2013F0005A000A9024350B9517E06078A28FE18FB4F84050B4F8423006280ED1ADF80A204A
:20141000ADF80C10ADF80E509E48ADF810300EF0F6FD584602A909F055FAA069B34A31462E
:201430004FF0FF33FFF77EFD071CF6D0059606A80DF11A0105AA0CF04DFF002840F0BC81E3
:20145000BDF818102078102940F0B2819DF81A10884240F0AD81059D29884FF6FF728A42AF
:2014700000F09B812B78A23B00F07E812E3B40F09F81A978B046002900F03A81891E00F0A6
:201490000B81491E012940F2D580891E00F09980491E6ED0491E5BD0083900F05581891E03
:2014B00040F0588194F83A10A8880529ADF8080046D074488DF812B00EF0A1FD94F83A00B7
:2014D00001281ED004281CD003280DD002280BD00598C188ADF80A100189ADF80C10418906
:2014F000ADF80E10818927E0A18FE08FADF80A10B4F84020ADF80C00B4F84210ADF80E201C
:201510001AE0A08FE9888842D8BF081CADF80A002989E08F8842D8BF081CADF80C006989A4
:20153000B4F840008842D8BF081CADF80E00A989B4F84200884200DC0846ADF8100001E0CD
:201550008DF81260A849102002AA04F081FA01E150480EF054FD6B78002B40F0FB80E88856
:2015700060822889A0826889E08246480EF0DCFAF0E0AA88B349102004F06AFA0798414645
:20159000062209F06FFD6682A682E682A87920733C480EF034FD3F480EF031FDD8464FF6B9
:2015B000FF70237920824BB9A879082814BF04200520607058460EF0E7FACBE084F80190F8
:2015D000C8E06B787BBB291D0A6807980260898881800623637068892082E8896082288ADB
:2015F000A082688A94F83A10E082E8780129E07218BF02290BD1994910201F2204F028FA6C
:201610004FF47A7180B241431E480CF03FFB68890423009090490193EA7810202D1D2B46D8
:2016300004F016FA99E06878312840F08A80E67004202AE06B78002B40F08380A878E1895B
:201650006278032814D0E078257921B9012814BF2671E67005E0054303D081480CF016FB02
:201670006278072AE4D106200FE0C046F0080020062A09D0E578002D08BF84F801906CD0C4
:20169000022002E0B80900200720607065E0C04655F20000DC0900206B78002B51D1EB7834
:2016B000617893B902291DD007291BD0062902D12079012816D1032914D069480EF034FA2A
:2016D00080B958460EF060FA0CE00DF027F80246A07960490090089843460190102004F04B
:2016F000B7F968706D78002D2BD133E0070000806B7833BB5B48564900900222102003466A
:2017100004F0A6F958484A46514900901020034604F09EF9ED1C296809980160A9888180FA
:20173000207884F801B00CF0F9FF02465B460A9D6079484900901020019504F089F9C0B2A8
:2017500058B184F801A008E0AA8840491020052304F07EF9B8F1010F2AD1256A45B3296821
:2017700031B36078884723E06879132820D12889012808D1607B022805D13E480EF03FFC71
:201790000CF0DAFD14E035491020052204F060F981B238480CF07AFA0AE06888C00B07D3AE
:2017B000324804222A4900901346102004F050F9059808B10EF0C9FB2579E07879082ED320
:2017D00055EA00032BD0204600787DB9E279217A8DF808200B9D8DF809102B680DF10A0123
:2017F0000B60AA888A8003E0051601108DF80890627A8DF81020A17A8DF811100CF08EFF2B
:201810001149024602AB102004F022F938B1256A84F801A01DB1296809B150468847B80857
:2018300003D31349304609F04DF8F808FFF4F5AD607B401E3FF4D9AD401E7FF4EEAD0CF0C3
:201850007BFDEAE5D9CA000059440110C11701103D770000094501100D83000085F60000D9
:201870009409002034090020440900200C0900202A090020DC0900202DE9F04F0F46CD4C81
:201890000168E16241688068ADF11C0DE060C548A1608047C448E16A0160A168DFF810A3D4
:2018B0004160E168DFF804938160CE49002FA346C1606FD03D68E8788DF80C0028798DF894
:2018D0000D0003A80EF0E6FEA86808B1C6490160E86808B1C5490160C54C2878207068788C
:2018F000BE686070A878B268A0703178A2607368E1702E696360EA6926627968E2620868F7
:20191000E06068696062A8697B68A062286A9E68206395F8240084F834001EB900200DF07E
:201930008FFD00E066617868C06818B900200DF087FD00E0A0617868006918B900200DF0D2
:201950007FFD00E0E0617868406818B900200DF077FD00E0206128692062F86881680E68BD
:2019700006B9D24ED0494FF001084E60C66881F8018036B900200DF063FD4D462E68F8684C
:2019900001E04D462E6000685446FB68A0615868E06107E000200DF053FD4D462E684FF012
:2019B00001085446361DC7493668621C04F114035020B04710B1286880688047DBF80800A7
:2019D0008047C24E002781463B46BF487770694620610422337038460CF094F80098B0F587
:2019F000801F0CD020B90CF0F9FF05F09FFD08E00BF082FA0DF0DAFF0420708001E00CF0D8
:201A1000EDFF3846BA4EA0602B68B760986980477060AF4880F800803946418014200EF0A1
:201A3000BBF8FF211422A0620EF0F3FAE01CFF2102220EF0EEFA14200EF0AEF8A54F386016
:201A50003868002114220EF0E4FA002000F052F940460BF04BFFA0480188FF2906D10221EA
:201A700001807822001D00210EF0D3FA03200EF00DFE04200EF006FE05200EF0FFFD06209B
:201A90000EF0F8FD07200AF0E7FC944E0820307006F124000EF0EAFD0AF09CFE06F1360ACA
:201AB00005200A2152460DF0CDFB38B10020C0F10901401C0AF8011B0A28F8DB307810214D
:201AD00007F010F82B68864909200DF10E025E68087001AB10200021B047A06AE1690A26A8
:201AF0000A309DF80E20761E00F8012BF9D1891EE161DBF80C104846884704F120002B687A
:201B1000626A059040461E69DFF8D88104F120034146B04710B1286880688047B8460DF086
:201B300055F85FEA000903D007F00CFF4FF0FF39002643E00298216910F8062CA0F10C075F
:201B5000032A03D1002939D0884737E0A16A9DF810C00A223046491E11F8013F9C4506D0E3
:201B7000521E00F10100F7D14FF0FF0A01E05FFA80FA2868BAF1FF0F00F108001CD0387950
:201B90000CF048F9B979012904D0022904BF0299887001E002990870029950460DF098FA93
:201BB0000CE0C04641490010F8440020C4220020F01F0020C8150020006880472868C36910
:201BD00004A902AA0DF10F0098470028B2D0D8F800007700C35B6BB9761CF6B20A2EF8DB38
:201BF0002BE0C046AC060100E5E8000055F60000901E00200A2E20DADBF808008047D8F887
:201C10000010002231F807A0CA53DBF80C108847354850F826202670514630469047064606
:201C3000FF202070DBF808008047D8F800107A5A16437E52DBF80C1088470CF0C7FF074699
:201C5000B9451AD007B9294FE069B84238BF071CDBF80800804781462868016A206A88473A
:201C7000626A28681F49059B521C6262C6683846B047DBF80C1048468847A7682968606966
:201C90001431AFB9D8F800000A270026835B33B10969606988472968D8F8000014317F1E51
:201CB00006F10206F2D107E02022002063F50000096988472968143109684FF0FF308847EC
:201CD0002DE7C046E5ED0000CDF60000AC220020A8220020D02D0020F0180020BC1000203C
:201CF000E22D00205DDE0000E41601008EC2F528642D00202DE9F84FDFF8BC13DFF8BC2398
:201D1000DFF8BC5308700821002010600D23DFF8B40340F23732017043808280DFF8A8038B
:201D30000560AC7EDFF8A4030470FF2CE97E417008BFFF292A7F82706B7FC370AE7F067184
:201D5000ED7F457115D1FF2A08BFFF2B11D1FF2E08BFFF2D0DD1DFF878130A7802704B7858
:201D700043708A788270CB78C3700A79027149794171DFF860130278DFF85C83DFF85C938C
:201D9000DFF85C730A70FF2543784B7082788A70C378CB7002790A714079487188F80050D7
:201DB00088F8015088F8025088F8035088F8045088F805500020CB490880D9F83440CA49E0
:201DD000607808702278C9493A70A0780870A2681079C74A411E1170E078C649C64A08704A
:201DF000E068106008B90DF02BFB2069C34E306008B90DF025FB3068DFF804A301688847E1
:201E1000326852F8041F50468847BE48BE49CAF82000CAF824106069BC49086008B90DF06D
:201E30000FFBA069BA49086008B90DF009FBE069B849086008B90DF003FBDFF8DCB2B74C7C
:201E50009BF804000DF0A8FE0028206075D09BF80500B34E0DF0A0FE002830606DD09BF88F
:201E70000600DFF8C0A20DF097FE0028CAF8000063D09BF807000DF08FFEAB4900280860BC
:201E90005BD039789BF80000891C484380B20DF083FEA649002888604FD03878002862D0BB
:201EB000BBF80210484380B20DF076FEA04A0028506042D038780DF06FFE9E4900280860BA
:201ED0003BD0387840000DF067FE9B490028086033D03878182148430DF05EFE974A106000
:201EF00058B3387840010DF057FE9549086020B3387800010DF050FE92490860E8B13878E3
:201F100000010DF049FE90490860B0B13878302148430DF041FE8D4A106070B18C48397815
:201F3000007848430DF038FE8A4A106028B138780DF032FE8849086018B9BDE8F14F05F07D
:201F5000EBBC4FF0000B09E00DF0F6FD0021418081600180022303710BF1010B39785FFAB8
:201F70008BF08842F0D32268694F0120107121680D732068457321688D732068C57321684A
:201F90000D7400212068457400202268D172A0222168487103212068C2800172072022684B
:201FB00050720021206881722821206801224182C2760020216848770022206880F85E20BC
:201FD0000121226811770120216881F85D0001223068027131680D733068457331688D730D
:201FF0003068C57331680D7400213068457400203268D172002231684871306882724FF435
:2020100020703168C88008818A7401213368D974DAF800201573DAF800104D73DAF80020A0
:202030009573DAF80010CD73DAF8002015740022DAF800104D740121DAF80030DA72002393
:20205000DAF800201171DAF800104B71DAF80010C88008818B720520DAF800209374DAF8BE
:2020700000103E4AC874106880473968054608688047396851F8042F00209047D9F80C1019
:202090001C4B0A881878364902430A802846354A136898470C2134480EF0E4FA40460EF009
:2020B000DDFA0EF0D7FABDE8F44F034800784FF4005106F017BD00BF6E4F0020044F002052
:2020D000B63F0050604E0020084F00202C4E0020E81200503C4E0020344E0020DC19010040
:2020F0007B4F00200C4F00206D4F00206B4F0020724F00206C4F0020F04E0020F44E002039
:202110007C4B0020A9FB0000C9FB0000F84E0020FC4E0020B42D0020F4210020104F0020DB
:20213000144F0020184F00201C4F0020702D0020684E0020004F0020B82D0020804E002005
:20215000844E0020884E00208C4E0020904E0020A7220020BC2D0020C02D0020D01500208B
:20217000544F0020D4150020F84D00202DE9F84FC04CA178FF2904BF00200DF061F9A07822
:202190000DF0CEFB044604F1680504F190062968086810B10021E1830CE0A87B002804BFF1
:2021B000A97E002906D13078002801BF207F0128608CE0832189E08B4118491C6181204626
:2021D0000EF044FA01281EBFAB480178012904D121890020491CE08361814FF6FF77A87EED
:2021F00001280DD1AA8B618920890EF02BFA38B1218960894A1C93B298421BD0A88B0FE0CF
:202210003078012816D17288618920890EF01AFA80B1218960894A1C93B298420AD070883C
:2022300092B2904206D03818608180B20EF006FA3F18E78304F5967999F8040020B1208969
:202250000021401CE183608104F12E07A87E012811D12189A88B4B1C9BB298420BD1608129
:202270000EF0ECF98046B988288C01FB0808204609F02AFA01E0B7F80480B4F81EC02268F9
:202290007E4ED2F80CE00CF1010000FB08F340F6C41000FB03F18E44C2F80CE03668DFF8D2
:2022B000E0E13678BEF80080764AB609032E11D1D67BF60748BF4FF000080BD408F101085A
:2022D0001FFA88F6012E12BF668AB9F8066006F2DC5600E0668A5E434FF4C87AB6FBFAF68F
:2022F000761C6661AEF80080A3614FF0180894F806A084F820C008FB0AFADFF88CC1DCF85F
:2023100000E023680EF1080656F80AB0C3F810B094F806A008FB0AFACDF800A0D3F80CB08D
:20233000D4F814A0ABEB0A0ADDF800B046F80BA094F806A008FB0AFA56F80A609E600EF107
:202350000C06A37908FB03F30EF10C0EF65C06F0F00646F002060EF803604FF0000ADCF82B
:2023700000E0A6790EF1020308FB06F623F806A0464BA6791B68760103F1140AD4F814B03E
:202390005AF806A00AEB4B0A03F1140B4BF806A0AD7E022D0BD1A5796D0103F1140697F890
:2023B00000B056F805A000FB0BAA46F805A0BD88D27BA779D60736D508FB07F70EF1080233
:2023D000D659A6F5A86A0EF1080646F807A0A77908FB07F7D2592768511A3961BA6003F131
:2023F0001402A1794901575807F5F667575003F11401A27952018958C9F800106843244A62
:20241000A179156B03EB41162968401AA0F51670F0612049A07903EB40100B78012B14D122
:202430000121C17214E003F114027F01D1592A464243A1F5E661A2F516729142DED30821F1
:2024500020460EF0F7F8012011E0916A4A78C272A179DCF8000008FB01F28118226851605E
:2024700007200D490870204608F036FE0020BDE8F28F00BF684E0020784F0020084F00208C
:20249000D82D00205C4D0020804E0020844E0020DC190100734F00206F4F00202DE9F84F4B
:2024B0000C46E00788B00BD50DF056FB28B100218160B348006800B1804784F001005CE105
:2024D000A0070FD500210023069105910491039302910191009101223C200EF0A7F884F07F
:2024F00002004AE11D256007A64EA74F40F18A80002107918B46A5488178FF2904BF002056
:202510000CF09EFF386890F8A0000DF009FA80463868C07A98F82691022818BF032808F53A
:20253000907A06D106F10D000EF07CF808B906F1070B514648460EF071F888B33868807A09
:20255000002818BF012804D1314650460EF062F804E05246494630460EF058F8FF2834D00F
:2025700005FB00F906EB090506225146E81D0DF0BDF816F80900396840F00209E81D07904E
:202590000622887E00F0010088F8260105F1010A386800F1140108F590700DF0A7F814E031
:2025B000514648460EF02EF878B15246494630460EF02CF8FF2808D006F10D0145434819ED
:2025D0000EF030F808B949F0020908F12C004B46017806914289120905920122B8F8221078
:2025F0000491C0880799029140080390CDF804B0CDF800A0002098F806100EF017F884F0BB
:202610000400BAE020060FD500210023069105910491039302910191009101223B200EF034
:2026300005F884F08000A8E0E0044BD5F11D06F10D000DF0E3FF3868017A012918BF0429D3
:2026500031D1C17A02291EBF0329817E01292AD1817E00F1140230460DF0D8FFFF2811D07D
:202670004543354405F10D000DF0DCFF50B9E91D05F10D000DF0C2FF38680622E91D14308C
:202690000DF034F83868C07A022818BF03280AD106F10D000DF0C6FF28B938680622F11DA3
:2026B0000C300DF023F83A4842683A4800784FF480510AF007FE10B18E2008F0D7FB84F4CC
:2026D00080505AE0A00505D50DF0E0FA324901200860FEE7600504D507F0CDFC84F480604B
:2026F0004BE0600405D5812008F0C0FB84F4804043E0A10440D5294D286810B100200CF015
:202710009FFE274E4FF0FF3028600DF073FF3168244D51F8202F684690472349234B486A7F
:202730008A6A009001920293C86A0268086A0392ADF810000A6B1178002904BF50680028BB
:2027500005D19068002804BFD068002806D02970506868609168A960D068E86029463568D3
:20277000134A2E6813486B46B0471349086003F0D3FB84F4005000E0002009B0BDE8F08F29
:20279000204F0020AC450020104F0020684E0020784E00206E4F0020FC002043044F00209F
:2027B000F04E002068450020901E002059FB00002C4D0020782C0020EC4E0020BB482DE9EC
:2027D000F84F0025BA4CB849056094F8E200002800F06581012800F02F81B64E02283CD0A2
:2027F000032840F05C8151F8250CD4F8B8100029A0F5C060C4F8D400B8BF49420028B8BF74
:202810004042814226DA4FF08057D7F8A4014568B4F8BC0030214FF47F420823009030463E
:20283000A847D7F8A4014568B4F8C00004214FF4F802122300903046A847D7F8A401B4F860
:20285000D070456820214FF440620A2330460097A847012584F8D8501CE151F8258C0DF06E
:2028700015FA2F4600B901273946934F38680028FCD0B146012609F10409D9F82CA03E608E
:2028900009B10DF009FACAF30720C4F8BC000DF0FDF9AA4600B9B2463B68002BFCD0D9F813
:2028B00000B0BAF1000F3E6001D00DF0F5F9CBF38440C4F8C0000DF0E9F9AA4600B9B246C6
:2028D0003B68002BFCD0D9F81C90BAF1000F3E6001D00DF0E1F9C9F38120C4F8D000B8F53B
:2028F000C061C4F8B81000F09C8094F8D80068B9C4F8D410D4F8C000C4F8C800D4F8BC70EA
:20291000C4F8C470D4F8D030C4F8CC30D4F8D400D4F8BC30002854BF02226FF0010204F125
:20293000C8010F6800EB40008018421000EB927207EBA2000860D4F8C810C4F8C4300029CA
:202950001CDD1E293CDDD4F8CC0030B93429B4BF15391E21C4F8C81025E02A29BABFD4F8FF
:20297000C8000B381E20C4F8C800D4F8C4003F28B4BF401C3F20C4F8C4001FE0D4F8CC003E
:20299000032812D011F10B0FC6BFD4F8C8000B30301CC4F8C800D4F8C4000028C4BF401E41
:2029B000051CC4F8C450032508E011F1150FC6BFD4F8C8001530301CC4F8C800C4F8CC50DA
:2029D0004FF08057D7F8A401B4F8C43030214FF47F424568374800930823A847D7F8A4011B
:2029F00004214FF400321123456832480096A847B4F8C860D7F8A40104214FF4F80212236E
:202A100045682C480096A847D7F8A40120214FF440620A23B4F8CC60456826480096A847C1
:202A300001E084F8D85040F2FF50404502D8801C40452FD2082030E051F8251C1F4F4BF292
:202A5000F5204843060A3868C0F3814001280CD11B480068006880470AF0B2FE0DF022F9E0
:202A70003111C010484306EBE03694F8E50030B91448006820F07F403618760801E084F88C
:202A9000E5501148310C0660012741600F4D8760287808B90B2000E0052084F8E40003F005
:202AB000ABF8BDE8F88FC0462D400C402C500C40B414002000A00C4000800C40B43F0050CD
:202AD000EC010010102009403C600C406D1801002DE9F84FB34D696884B0019121B905B07F
:202AF000BDE8F04F0DF082BD0978DFF8BC82AF4EDFF8BC92DFF8BCA201291CBF022904295C
:202B100046F2A81741F64C5B05D0402918BF802900F096803CE10DF067F90028FAD0019807
:202B3000007804F0BBF90090446814B900200CF087FC9AF8010000285CD000F043F90CF0AE
:202B5000EFFE02900168009801914F6808F0E0FF022825D000990A78012ADBD196490A6863
:202B7000137A19F80310317018B90DF03BFD5844A0602069C17E01F0EF01C1762069C17EA9
:202B900041F08001C1762069C17E01F0F00141F00201C1762269B96888484118D1614BE0F5
:202BB00001980178802911D10820854930700A78012A03D09AF80100022801DB38690CE02C
:202BD000D8F828003A690178D1720DE07C49072030700A783869012A02D10121C17203E0BC
:202BF000D8F828104A78C2720298817901988AF80210C8E0009800288CD00199009A007896
:202C1000914205D101281CBF00200CF019FC15E0012840F0BD80684801680A7A19F802008B
:202C300030700DF0DFFC3918A0680DF0D7FC18B90DF0D8FC5844A0600120A8700098A2E052
:202C50009AF8010000287AD000F0BCF80CF068FE04462068029047689AF802000CF060FE58
:202C700003900DF0C7F810F0070F3DD0A87804F015F90190416801980091029908F048FF72
:202C9000022831D001990A78012A2AD14A490A68137A19F80310317028B90DF0A3FC83441C
:202CB0000098C0F808B000980069C17E01F0EF01C17600980069C17E41F08001C1760098E3
:202CD0000069C17E01F0F00141F00201C176009AB9683A4841181069C16101210198A970EA
:202CF00051E000200CF0ACFB0398A04225D0029833490278802A12D10820307009780129CE
:202D100003D09AF80100022803DB38690121C17210E0D8F828003A690178D1720AE00720E7
:202D300030700978386901290EBF0122D8F828104A78C272A0798AF80200029823E00DF072
:202D500059F810F0070F29D0A87804F0A7F804462078D4F80480012820D117490868027AB8
:202D700019F8021031700DF03DFC3918D8F808000DF034FC20B90DF035FC5844C8F8080088
:202D90000120A870204605B0BDE8F04F05F0C6BF05B0BDE8F04F00200CF052BB05B0BDE855
:202DB000F08F00BF702D0020DC1901006F4F0020289A0110684E0020104F0020F0D8FFFF46
:202DD000734F00202DE9FE4FB24C617811B900200CF036FB0DF006FC4FF00008074607F620
:202DF000C417C246AC4DDFF8B49228E050460CF097FD06467079F0B12968B07901F808000B
:202E1000394608F101005FFA80F830460DF0E2FB30680178402902BF06F1820001780129B1
:202E300002BF41887289914205D1B169C088411830460AF02DFE0AF101005FFA80FA99F89E
:202E500000008245D2DB6178884505D000200CF0F7FA82200DF0BAFB6078012840F0F18070
:202E7000002701E07F1CFFB299F80000874280F2E28038460CF054FD064670790028F1D0D7
:202E90002968B0790A7890421CBF00200CF0D8FAB079FDE0286810F809000CF041FD006802
:202EB0004268DAF808109068814204BF3E4609F1010900F0D480D6E0286890F800B0012283
:202ED0004FF4C0710FE0636803F5AD76835C01FB03F901FB0BFE36F809C036F80E60B44531
:202EF00038BF9B46521CFBB29A42ECDB4FF6FF700DF068FB064658460CF012FD684900680A
:202F1000D0F804A00868D94630F8192060684FF4C07300F10E0103FB09F3C85AB2EBD00F6F
:202F300052D2720840F6C4104243009200275D4A0190029217E058460CF0F2FC01680A7865
:202F5000802A03D1DAF81030009A5A610978402908D1029980790A6802EB4011009800F5E8
:202F7000A060C8617F1C47452EDA2868C05D8345F8D001464FF4C073594363685A1803F51E
:202F9000AD73D289595A53088B4202D2521A9045E8DA0CF0C5FC01684A68019B9168DAF8B5
:202FB00008207008A1F6C41103FB00200DF016FB0028C0D03A48006830F81910491C20F859
:202FD0001910286810F807B0296808780CF0A8FC0026006847684FF4C079464551DA2868B9
:202FF000805D0CF09DFC0068296842688B5D606809FB03F3034403F18201087830B1588902
:20301000B1F802C0401C80B2604508DA887B01280ED15889098A401C80B2884208DB6EB345
:20303000B968906801F5C241A8310DF0D7FA28B3761CF6B2D1E700200CF002FA82200DF043
:20305000C5FA617828680DF0B9FA286800780CF067FC00260068D0F804A04FF00109771C4B
:20307000C145FFF617AFF6B2002E1CBFF8B200287FF422AF286890F800B037E7296811F838
:2030900006B007490A6800205B4622F813005846BDE8FE8F684E0020004F00207B4F0020BB
:2030B000B82D0020844E00202DE9FC47DFF8B8A20F460546F80B80F00881A64EDFF888820E
:2030D000B80F80F0BA80B80880F0AE803809C0F02F819B480178090980F0A180007830F0D9
:2030F0007F0040F09C80684606F08CFB012803D10098002800F0938092480078002840F060
:203110008E8001240025E8B20CF0D8FB48B1837A3BB1847290F9090004FA00F0C0B20AF01A
:203130007DFD6D1C032DEED345464FF0030905F1AC0085F810900CF032FF844A002188460C
:2031500010681160824952F8080C05F1340042F8088C42460CF031FF3068006B8047AA68C5
:20317000A969801A000BC0F1FF328A422CBF01444FF0FF31A961287F20B1E868A969B1EBBB
:20319000C02F1ED90BF0F4FE414600B12146081C14D0714840F60901018041464180427B26
:2031B00064F303024273027B61F30302027341600CF09AFC418811F4406FFBD02C774146FE
:2031D000A9616649086820F0020040F400700860634A42F8049C41F23006966014605023CB
:2031F000936014604FF4CA6696601460022042F80C4C44460C600AF035FF112005F0D2FCAF
:20321000287818B9686838300CF0E3FE687F18B16C7705200AF026FF524868612C7408F046
:20323000A5FF27F0080783E004F0EEFB40467430006808B927F002077AE00CF0B8FE34467B
:203250008146606D0068014604208847C8B1287CB8B14046083006689EB12068EC68006BE0
:203270008047801BE860010BE960A14202D209194908E96040F6C41088422CBFB1F5FA7FEE
:20329000E86048460DF096F90AF0ACFC90B1A8696FF4807100224FF0007304462846A04701
:2032B00040466C300068002808BF47F0020701D008F05CFF686900214FF0806304460A4673
:2032D0002846A04727F0005732E00CF070FE51460E684EB306F1280106C90A234FF0E04511
:2032F0000B40154008BF002B1ED106F1280191E8300006F1280393E8060006F12803AA43C2
:20331000A14383E806000DF055F9B16871B1002D08BF002C0AD03069B6F93C10B2682B46A9
:2033300016462246B04701E00DF044F927F4804727B15046394650300CF053FEBDE8FC87E3
:20335000DA2D002081240020E82200201410044035BF00008C0100103C2D00200000046061
:203370000C4104401D870000682300202DE9FC41A0F2013714468846022F40F233819B4E18
:203390009C493F1F0F2F04D9143F4CD0BF1E1CD011E0DFE817F0D000CA000E01FB00C20062
:2033B000BA002701B000A800100010009E0090008000750066002D2880F21481B8F1020F04
:2033D00040F010818849238808E1B8F1010F40F00981F078012800F00581324620781179A3
:2033F000107189B9002800F0FD805078012800F0B680042800F0B380062800F0B080052884
:2034100000F0AD80BDE8FC812078002840F0EA805078032800F0B080072800F0AD80052877
:2034300040F0E080A8E0B8F1010F40F0DB802078012840F0D78006F1EC000CF075FB002861
:2034500040F0D0803446002004F13A0107F03AFA002840F0C78004F1C8000CF0D0FDBDE81D
:20347000FC81B8F1020F40F0BD8020880A28C0F2B980B0F5486F00F3B5800E46B61C17E032
:20349000B8F1020F40F0AE802088B0F5FA7F80F2A9800E460CE0B8F1020F40F0A3802088AE
:2034B0000628C0F29F80B0F5486F00F39B803E363080BDE8FC81B8F1020F40F093802088A8
:2034D0000628C0F28F80B0F5486F00F38B803C36EEE7B8F1010F40F085802078062880F226
:2034F0008180454E0EE0B8F1010F7BD12078042878DA0A3606E0B8F1010F73D12078082834
:2035100070DA09363070BDE8FC81B8F1010F69D12078042866DA0836F4E7B8F1010F61D155
:20353000207804285EDCF61DECE7B8F1020F59D120880E36BCE7B8F1010F53D13079012875
:2035500050D032462078D178D07069B9002849D05078012803D0042818BF052842D1012017
:203570000CF012FBBDE8FC81207800283AD15078022818BF052835D110780BF0CFF81C499A
:203590000246102002F064FABDE8FC8106F1830500211F22284607F065FD2146424628462C
:2035B00006F0BCFA44463078B4710BF0B7F8002311E006F1640500211F22284607F052FDC4
:2035D00021464246284606F0A9FA4446307874710BF0A4F801230094084901950246102020
:2035F00002F036FABDE8FC8179E10000F008002099450110300900202A090020094501100B
:203610002DE9FC418E488F4A04788F488F4B90490D2C6FD8DFE814F012010E000E000E000A
:203630000E000A010A018E000A01C900C900E700E700EE00106041F204478648864DB0F838
:2036500002C08649BC451FBFB0F81AE0BE45B0F83280B8454FF4A0561ED181480068D0F8CD
:2036700000C09CF8040003280CF1080E0BD1DEF80E0000281CBFBEF81800002803D01F8079
:20369000784911608AE0022C1CBF1E800D46156000208CF8040081E0BCF1000FA3F800C0EF
:2036B00041D0BCF1010743D0B7F1010C3BD040F2FE37BCEB07071ED0A7F1040CBCF1010FF2
:2036D00020D94FF47F77BCEB070C1DD04FF44067BCEB07070FD0BF1E012F0CD93F1F0AD059
:2036F0007B1E012B0ED940F2F937DB1B012B1AD91B1F09D09AE0022C01D115604EE01E80C9
:203710000D46FAE7584DF8E7584B1C68257A012D05D141F20243438043834386F0E74680B0
:2037300046834686ECE700200BF08AFE832081E08F207FE04E498978FF290CD01060182018
:203750004C4C41432068851C40F204466C5A1C80A41B012C484B71D94FF47F76A41B0FD097
:203770004FF44066A41B032C84BF641F012C0BD9A41E012C62D940F2FD36A41B08D103E081
:20379000801C41F201444452136004F087FB05E000200BF055FE85200CF018FFBDE8FC4199
:2037B00036480078012105F09DB940F204424888188090421CBF41F2084290423ED041F675
:2037D0000402904211D12E4C2E482F4B00680025CDE9004502222D4C256855F8086FB04748
:2037F0002B4908802AE04888188000200BF028FE85201FE04888188002280DD940F2044276
:20381000801A1BD040F6FC72801A05D0083815D04FF47F72801AE8D1887B801CC2B2B52A62
:20383000A8BF662088730020488007E000200BF007FE8420BDE8F6410CF0C8BEBDE8F38186
:203850006F4F0020204F00207FFF0000504F0020CC4C0020204A0020B1540110615A01100A
:20387000F44B002059550110755B0110104F0020684E0020804E0020313901106E4F00209E
:2038900002000080EC4E002011E10000F04E0020424F00202DE9F04F8246DAF80070DAF80A
:2038B00004600C465FEA0208ADF11C0D14BF00214FF0FF31DFF8409248460CF0B2F80028C0
:2038D00018BF0B2040F0158100258F488C4905708A48FC6052460CF070FB317B27200CF0AE
:2038F0006EFBB8F1010F07D0657002200AF09CFD06200AF099FD01E00120607020780128EC
:2039100040F2AA80801E012868D9801E012833D9801E012800F2DE800CF049FB83464FF001
:20393000805000F5EE77D0F8DC01A378466A009321782846062908BF0120019001200290E8
:20395000A068228AE1686368B047814658460CF031FEB9F1000F40F0BF80B8F1000F02D056
:203970000BF094FE02E050460AF018FC002800F0A3803868806A2AE00CF019FB83464FF03D
:20399000805000F5EE77D0F8DC01012306680093A168A27860682478AC46042C08BF9C46D1
:2039B0006346B047814658460CF004FEB9F1000F40F09280B8F1000F02D00BF067FE02E02D
:2039D00050460AF0EBFB002876D03868406880474C49C1F8B0510D6081467DE00CF0E7FA27
:2039F00083464FF0805000F5EE77D0F8DC01E38A86690093E0680190208B0290A078039030
:203A1000207D04900121059122782846022A08BF081CE1786268A368B047814658460CF008
:203A3000C9FDB9F1000F57D1B8F1000F02D00BF02DFE02E050460AF0B1FB00283CD038682D
:203A5000006A80475FEA000946D1E078A168E28A236907F001F8BFE70CF0A9FA83464FF026
:203A7000805000F5EE76D0F8DC01E38AC7680093E0680190208B0290A0780390207D29466C
:203A9000049001200590257805B9014608466268A368E178B847814658460CF08BFDB9F11C
:203AB000000F19D1B8F1000F02D00BF0EFFD02E050460AF073FB08B914201AE0306840697C
:203AD00080475FEA000907D1306802692169E078904781E74FF0FF39B8F1010F05D002209A
:203AF0000AF0C0FA06200AF0BDFA03480CF071FA484607B0BDE8F08FE0190020181A0020A5
:203B10009DEA000050450240E02D00202DE9F04385B011F8017B0446082F04F1FD0004F19F
:203B3000FC0804F1760504F5A076844A844BDFF8149213D0092F21D00F2F2FD0112F01BF8F
:203B5000287801286878102840F0D5800A78327648787076012184F83D11EBE00025521CD5
:203B70004E5D5F5D3E434E55575D3E4046556D1C082DF5DB204607F095FF74E00024571C73
:203B90000D5D1E5D35430D553A5D15400555641C082CF5DB022088F80000CBE098F80100AE
:203BB000820704D410F0110F57D01A2266E008784A7800EB02203080CA78887800EB02207D
:203BD00070804A79087900EB0220B080CA79887900EB0220F080087A30724A7A887A02EBCC
:203BF00000227281C87A0A7B00EB0220B0818A7B487B00EB0220F0810A7CC87B00EB02207F
:203C100030828A7C487C00EB022070820A7DC87C00EB0220B082487D897D00EB0120F082C6
:203C3000494801788A0658BF1A2212D504F5A670049071890391307A029021890191F0887F
:203C50000090B38872883188204607F05BFCE0B11E2298F80100410710D40F2088F81500D0
:203C700020460CF0A3FC002864D199F8000005B0BDE8F0434FF4804104F034BF204605B0B2
:203C9000BDE8F0430F210CF08DBC7088A882B188E9820221F0882883297400206882A18EE5
:203CB000A88AC91DE981618EB0EB510F02BFE88AA18E884202BF288BE18EB0EB111F18D0C6
:203CD0002878012804BF68780F2805D0687918B10F21A972FE2127E0FC2120460CF05EFC68
:203CF000F0880090B38872883188A0790CF052FC20E0102118E0491E20460CF047FC032FF4
:203D100018D1A878042818BF0D2813D16E78142E18BF0E2E0ED12F7820460CF033FC012FEC
:203D300006BFAE72FD213146204605B0BDE8F0430CF034BC05B0BDE8F08300BFEC4D002035
:203D5000942D00206E4F0020144E002010B50B7884074CBF43F0020303F0FD0304064CBFF5
:203D700043F0800303F07F0304074CBF43F0080303F0F70384064CBF43F0200303F0DF0307
:203D900010F0AA0F0B7003D0107840F00C0003E018B9107800F0F300107010BD2DE9F8438B
:203DB0000D4600272878022814461E4667D1696808784978DDF8208000EB012080B25FEAAB
:203DD00008021CBFB0F5285F0B205BD14FF42851401A08D0401E21D0401E2FD0401E25D07E
:203DF000401E31D04BE0DDF82490E8680CF013F980B2A0EB08024A45BCBFA0EB08001FFACB
:203E100080F909EB0800162806DAA6F800904A46E86800EB08010DE00D2732E0E8680088F2
:203E3000022131802070000A60702AE0062030800622E96820460BF059FC22E00120308052
:203E5000E9680A7822701CE0E868B0B1082131800288227003881B0A63704188A170428823
:203E7000120AE270818821718288120A6271C188A171C088000AE07103E0308001E0378007
:203E900001273846BDE8F2832DE9F0470F46814638780024022890461D466DD17868089EEE
:203EB00001784078DFF8D8A001EB002189B24FF42852891A06D0491E29D0491E4ED0491EA8
:203ED00039D059E0F8680CF0A6F880B2B04204D3A919162903DB0D244FE007244DE0FB68A1
:203EF0002A46414698190BF001FCAD19F868ADB2C5F11602002140190CF08BF8DAF80000F4
:203F100000281CBF0268002A37D0002123E08EBB022DE0D198F8000098F80110FA6800EB28
:203F300001201080DAF8000000281CBF0268002A23D001210FE0EEB9062DCCD1F868062254
:203F500041460BF0D3FBDAF8000000281CBF0268002A12D00321484690470EE056B9012D02
:203F7000B9D198F80000002813BF0128F9680870802402E00B2400E001242046BDE8F087DF
:203F9000C82D00207CB5894D144602460026A2F58062182A1AD8DFE812F0FE00F800F100D0
:203FB000E900E200DC00D500D0001900C500BE00B700AE00A3001900190080006F00680078
:203FD00054004C00420039002C0024002D2880F28580022940F0828021880AF0C5F8064691
:203FF000E1E0012940F0DE80002C00F0DB801135A6E0102940F0D680002C00F0D380284659
:204010005030102221460BF071FBCCE0012940F0C980002C00F0C68029468D1D90E0262987
:2040300040F0C080002C00F0BD8005F160002622E8E7012940F0B680002C00F0B3806D1DD1
:204050007EE0602900D13CB9012940F0AB80002C00F0A8800D3573E005F1860021466022E0
:204070000BF044FB012068739DE0012940F09A8020780CF083FA96E0012940F0938020787D
:20409000022800F38F800C3528702078022814BF301C01200CF06EFA85E0072940F08280DE
:2040B000611C684606220BF0F5F920786946324604F0A6FF04460A2C10DA0CF057FA38B9B4
:2040D000204602F08DFC0AF095FD08F083FB6AE02A46012002F12C05285564E0022662E0C3
:2040F00001295FD1A87B21780028A9735BD12078012858D1E9E7012954D12478072C51DB26
:20411000102C4FDC0B3537E001294BD124780A2C48DA093530E0012944D12478022C41DA25
:20413000083529E000293DD10CF020FA10B90BF072FBC8E701240F351EE0012932D10A3529
:20415000247819E001292DD12478022C2ADAED1D12E0102926D12B4603F1400051E7012991
:2041700020D12478022C1DDA2D1D05E0012919D12478042C16DCED1C2C7014E0012911D1D7
:204190002478022C0EDAAD1CF6E702290AD120881435288007E0012904D12478022CD8BFD1
:2041B0006D1CE9DD182630467CBDC046BC1000202DE9FE4F05467B48002400680094C00967
:2041D00005D37948007810B920200AF01BF8012D40F0E280DFF80092D9F8DC00012840F079
:2041F000D8800220C9F8DC000BF0D8F901200AF009F85FEA000805D00120C9F8DC000BF0D1
:20421000D9F9CBE00BF0E9FEA34602906748684DC0F800B0A86A016801208847012804D17F
:20423000584607F0ABFC012000906248624FC0F800B0386811200BF047FD00B101241020A8
:204250000BF042FD08B144F002040F200BF03CFD08B144F004040B200BF036FD20B128680F
:20427000564E016B308888470A200BF02DFD20B12868534E016B308888475248012606602C
:204290002868816944F0200088474F4806600BF015FD00F001010191400814D2286A81683A
:2042B0004A4888478246BAF1040FF7D0BAF1010F04D1286A426845480321904744490868EF
:2042D00020F003000860584600F088F82B683868986B8047019801280CD0BAF1010F04D11A
:2042F000286A42683948314690473949086840F0030008602F4806602868416920468847CA
:204310000B200BF0E1FC20B128682C4BC16A188888470A200BF0D8FC20B12868284BC16A20
:2043300018888847274806600322C9F8DC20264BC3F800B02868416B204688470128F9D107
:204350003868042009F05EFF0446184806603868144800688009FBD30098012802D130465E
:2043700007F00CFC0BF098FC082009F04BFF07460298C9F8DC600CF0F5F81648008807F08A
:2043900033F90BF017F957EA040018BF4FF0FF3804E06FF0040801E06FF001084046BDE881
:2043B000FE8FC046141009409C1500200C400940B8010010000222432C200940C8140100E5
:2043D000C41401002820086080010443004003402422084068180100B41400202DE9F84FA5
:2043F000DFF804B20746ABF13500DFF8F0810068800880F0E28075480068006880477E49DD
:204410000831D1F8009000254FEA29715FEA995201F101010AD2C0F13E0210F10A0F4FEABA
:20443000E202D8BF08229142B8BF111C684BD3F87C21C2F30462162AA8BF203A1B68C3F3E0
:204450000443162BA8BF203B9A465218162A05DA12F10A0FB8BF6FF0090200E015225D4BDD
:204470005D4E02F01F0141F4F8511980316811F0030F18BF0125C90828BF45F002050FB1FB
:2044900045F00405434693F90710411A052904DA9979A94208BF99886FD0DFF844E10F28E4
:2044B000A0F10F0829DB08EB0011A1F1F0084FEA28210091072984BF07210091062988BFFD
:2044D00006215EF821600424774604EB81043C594FEA950CA41BEE0804F0FF0124BFC4F3C3
:2044F000072631446F08AE0824BFC4F3074631446E0828BF01EB146104E000214FEA950CE4
:204510006F080091009C5EF824E05FEA5C060EF0FF0424BFCEF3072634447E0824BFCEF36E
:20453000074634446E0828BF04EB1E64009E89B2A8EB06267143803104EB1124AAEB02011F
:204550000029D8BF0121342209F0FF074A4391B24FF6FF727943B1FBF4F18A4238BF111C51
:20457000802889B2998005DA10F1800FB8BF6FF07F0000E07F20D8719D711A4800681F2983
:2045900018604FF0000008D340F2FF128A4206D24908401C8A42FBD301E01F219980134FAF
:2045B0000F39090940EAC10047EA0001CBF8FB1F0026CBF8FF6FBDE8F88F0D490D4F4346D9
:2045D00008200F609B1D1870BDE8F88FEC0100103C1100506E620840242208409C2D00209F
:2045F0009C130050082009403500094000E7A48030100940FDFDA400AC3F00502DE9F04FFB
:20461000044675488A46016894461F46BAF1000FADF13C0D4DD0BCF1000F4AD09AF80020C5
:2046300001209040014244D0BCF80000B0F5C15F32D1DCF81430DCF818206848DCF81C10D2
:204650004FF0030E0DF128080B93DFF894B10C9200680D91C0F3036958F8046FCEB10021EC
:20467000351F05200B4655F8042FB2F1FF3F10D0934506D0401E01F1040103F10103F2D161
:2046900007E0052B05DA705820F4702040EA09407050BEF1010EDFD1C4F804A0C4F808C023
:2046B0000BF085FC4F4D8046287820B140460BF081FF00208DE002F05BFB4B49086840F091
:2046D0000200086007A80BF017FA002605F1D00007AA4649099609F0AFF8454905F58270C0
:2046F00007AA09F0A9F807A80BF0C6F9FF2105F1340007AB3F4A0891192108F0E7FF3E4A38
:2047100005F150001A2107AB08F0E0FF3B49324605F18800134608F05FF93949324605F16C
:20473000AC00134608F058F9364A05F12000042133460AF0D3F90E2004F016FD05F1740082
:204750000BF094F805F16C000BF090F82E74072085F898012E77AE616E770523AE602B49BB
:20477000EB602A786961501C2870274B1E7040460BF020FFB1464FB92548B0E88C1069467F
:20479000A1E88C100DC86F4681E80D0038682060398A6182012060747B6813B940F6C4136D
:2047B0000646E3601B48A06126746061F86800B1A061B86800B160615822494604F12000D9
:2047D00006F050FC04F1380049460AF057F820466C600FB0BDE8F08FD42108405413005079
:2047F0000200F844E822002000200940F5F500005186000035BF000099BD000061EF00007D
:2048100071F30000B5CC0000DA2D00201D870000F01701000FA500002DE9F04F05468048B4
:20483000066800680F461C469246C4F399018900ADF12C0D0A010021803206F013FCDFF898
:20485000C891A9F1880002466E48016830469047A3088046610801979F1C21F00101F819C8
:20487000009506EB80000390091DCDF808A07818434506EB800206EB870B3844049206EBEB
:2048900080000690C4F39C004FEA800000F1080007EB400000EB070206EB82020A9224F0A2
:2048B000030202F1080200EB020506EB85053A44059506EB82050A4407953A4406EB82020C
:2048D000089206EB80020992084406EB800A384406EB800518BF6FF0010040F08F8009F1F7
:2048F0006800024641463046904700233CB10199264611F8010B761E40EA0303F9D1002B40
:2049100008BF01207AD000263CB10299234611F8010B5B1E40EA0606F9D1002E08BF022099
:204930006CD001995846C84703980299C847009881680498C8473548049A59468146284684
:20495000C847012803D14FEA88042E590EB1032054E0BE0028460021324606F083FB039904
:20497000049A2846C847012801D12F590FB1042044E0274F274C069859463A46A047079855
:2049900003993A46A0470699089827460A46B84709980899069AB8470A9806991E4C224615
:2049B000B84728460021282206F05CFB1B4809990A9A81462846C847203428462246014664
:2049D000C847079950460A46B84705980021324606F048FB5FFA88F45046002C0CBF01223F
:2049F0005FFA88F200216B5C445CA34218BF052004D1491C521EC9B2F5D100200BB0BDE800
:204A1000F08FC0468C4F0020B9DB0010C9DE001050200020F9E00010FC150100C9E6001061
:204A3000884F00202DE9F0410446804DA178A869ADF1180D891F00F0F280C91E00F0DD80E6
:204A5000491E5FD0491E48D0C91E3CD0481E40F0E980287A697AB8B96878002831D0A08818
:204A70000BF07CFD071C00F0DD80A07A40080FD3787968B1E168890A0AD2B91D01AA04F0C7
:204A9000BFFA0A2804D10321A0880BF063FDC9E0287B022802D1A07A0009F4D3A088797952
:204AB00004F1080201F070F9A869002800F0BA804368002B00F0B68000210A46A0889847B6
:204AD000B0E00521E0E7002800F0AC804368002B00F0A88062780221F0E70BF045F80028E3
:204AF00000F0A080A86950B1076847B1206900906189227B637BE01C3C46A04792E06089DF
:204B10000121C2E767784FF00008002F66D1A179490863D3EF69002F60D101A841460E2275
:204B30000BF077FAA0880BF019FD071C7AD0606940B97879B91D06228DF80A0001A80AF070
:204B5000D5FD19E06669307C062206F111018DF80A0001A80AF0CAFD07F10C00B91D0622D3
:204B70000AF0C4FDB81D062206F111010AF0BEFD307C40F002007871A079C00839BF38795E
:204B900000F0FD00387940F002003871A079000939BF387900F0DF00387940F02000387148
:204BB000A1799DF81120C1F3800010438DF81100080905D39DF8110040F008008DF811008B
:204BD00001A8214600F020FA28B92878022103F089FF404627E0A8694FF0150810B3436824
:204BF00003B3A088627801219847B8F1000F19D0A86943680321424660E7E078211D0022E4
:204C100004F0FEF90A280DDA410001EB800004F10C0225300421C0B202F088FD02E0A08863
:204C300007F052FF012006B0BDE8F081BC1000202DE9FE4F0E468246307AC10693461F4615
:204C50004FF000090CD558460BF080FC030000F0E8800A223146504698475FEA00094DD123
:204C700030780C9D0D9CDDF8388002281AD170680178407801EB002189B24FF42052891ADF
:204C9000012910D9891E3AD0491E14D0FD397AD0491E00F08180491E6DD0491E73D0491E68
:204CB00000F09580ABE0002C2AD1F068017829800278416887E0002C22D101202880F168E8
:204CD0000A783A7000217089401C80B20BF03AFC298860B10278921C511829804189797010
:204CF0004289120ABA7041680278F81C6CE0091D298004220021781C0BF08BF993E0002C48
:204D100066D1F0680688042129803E70320A7A700DF1020130460BF015FC040021D0D4F880
:204D30000C80BDF802204FF6FF766B4631460BF005FC40B9237862683C4802210BF0FAFB2D
:204D500008B9ADF8006098F8000002280BD1D8F804100222381D0AF0C9FC2888801C2880D7
:204D700001E0ADF80060BDF80000B870BDF80010090AF97057E0002C2AD1F068016850466A
:204D90000AF072FE02E01CBBF0680088022129803870000A787046E0F0680BF03CF980B2BA
:204DB000A042B8BF4FF007093DDB844208BF002205D008EB04028242B4BF4246021B2A8020
:204DD00092B2F068011938460AF090FC2BE014B14FF00B0927E0F0680721298002783A7092
:204DF00043787B704188B9704288120AFA7001793971C2887A71C088000AB87113E0584656
:204E10000BF094FB5FEA00090BD00F980290CDF8048000942B463A4631465046C8478146E1
:204E300001E04FF00E094846BDE8FE8F481601002DE9F04F0746880FADF1140DC0F0CC8018
:204E5000674C201D006841688E68CD68486800B18047DFF89081002E08BF002D0CD0414681
:204E700008680028FCD00020086006B1B04705B1A8475D4809F094FC5C480AF035FE5C493F
:204E900040F60A0CA1F800C0002048800A7B60F303020A7348604A7B4FF0010969F3030204
:204EB0004A73BB687D7C58801A888346A2F60202CAB141F21E06921B15D041F6E676921B86
:204ED000012A20D85A7E012D60F382025A7606D01A8B22F47C7242F434721A8313E01A8B62
:204EF00060F30912F9E75A7C012D60F382025A7405D01A8A22F47C7242F4347202E01A8ACC
:204F100060F309121A82D7F808A078746246554600E035466E6816B133889A42F9D16960AF
:204F30006B7B60F303036B73E66E3EB1F3681B88D61F9E421AD0921F9A4217D03E8CBEB197
:204F5000786207F12002508097F82C3060F3030387F82C3097F82D3069F3030387F82D3034
:204F70004A604A7B60F303024A7301E0C4F808B02048036882680192C168406B009310225F
:204F900020F0784040F0805003901B480291694604F0C4FDD8F800000028FBD01748606169
:204FB000607FC8F800B070B915480068006801464846884701280CD0687B69F30300687376
:204FD000104F676105E008F0A1FA0028FBD00AF0FCFF50460AF088FD05B0BDE8F08FC04646
:204FF000E82200201C1004400100070601010E043C2D00204C13005018000021B93000008B
:20501000E0010010DDC100002DE9F04F734CDFF8C8A1E56988468146ADF1140D002D4CD1B1
:20503000B9F1000F5ED0B8F1000F5BD009F0ECFC06460A2E267422DAD8F81470002F3DD00B
:20505000700010216A4600EB86002330C0B20AF0F9F890B950460778FF21102268460AF076
:205070006BFA50B93FB999F80600494600F001000BF058FA01E00120A074E5691DE004F100
:20509000E60B0A2700265846FF2106220AF054FA88B97F1E0BF10E0B06F10106F3D1607CF9
:2050B000002804BF0A2020741CD094F83660304601F096FCE569267400E0267C0A2E11DAA3
:2050D000002D4DD0AA68002A3ED12A69002A2FD16A690ABBEA683AB9A07B08B109F078F854
:2050F0000AF0A1F8012074E07000102100EB86002430C0B202F01AFBE769217CFA68480022
:2051100000EB8100103225300421C0B202F00EFBE1690020C8605BE07000102100EB86000B
:205130002330C0B202F002FBE169002048614FE070001C2100EB86002230C0B202F0F6FAA5
:20515000E1690020086143E070001C2100EB86002130C0B202F0EAFAE1690020886037E029
:2051700070000E214A4600EB86002030C0B202F0DDFA207C07F0E2FD6846FF2110220AF088
:2051900048FF207C10216A467030C0B202F0CEFA207C0101A1EB400109190E20E63119F88C
:2051B000012B401E01F8012BF9D1D8F814206AB15046007840B9107C02F11101002300F09C
:2051D00001000BF0ABF901E00120A074C4F81C80002005B0BDE8F08F5A4F0020BC10002003
:2051F0002DE9FC4F83F0004301E02DE9FC4F1F03FF0847EAD2574FEA42284FEA43095FEA52
:20521000595906D147EA080A1CBF00210020BDE8FC8F57F000575FF4E06E1EF1FF0EF145D5
:2052300005D14FF00000190D0905BDE8FC8F002B05D55FF0000AD8F100086AEB07070C0344
:20525000E40844EAD0544FEA40254FEA4106760D08D144EA050A19BF00210020191C101CCF
:20527000BDE8FC8F44F00054764504D10020090D0905BDE8FC8F002904D55FF0000A6D4258
:205290006AEB0404B6EB090E08D5A2463C465746AA464546D046CEF1000E4E46BEF1360F1F
:2052B0005CBF4FF0000B23E0BEF1000F04BF4FF0000B1AE0CEF1390ABAF120092EBF08FAEC
:2052D00009FB07FA0AFB4BEA080BDEF1200A07FA0AFA38BFBA4647FA0EF72DBF28FA0EF81D
:2052F000AEF1200E4AFA0EF8D04415EB08057C4154EA050A02BF00210020BDE8FC8F002CFE
:2053100058BF4FF0000A06D55FF0010A5FF0000E6D426EEB0404A6F101066D006441FAD5FC
:2053300015F4806E11D005F480794BEA090B15F5806554F1000428BF761C0BD205F400794A
:205350005BEA090B08BF25F4006525F4E0656D0044EB0404B61CDEBF00210020BDE8FC8FBD
:205370005FF4E06E1EF1FF0E76450AD34FF0000013F00043FF21C900C91D09051943BDE865
:20539000FC8F270547EA1530210B41EA065141EACA71BDE8FC8F70472DE9F04FADF11C0DB9
:2053B0000190049300280392109D0291119C059500F0BC80081C00F0B980101C00F0B680A6
:2053D000181C00F0B380281C00F0B080002C00F0B280206A002800F0A9805A4D676A281D2C
:2053F0000068002F00F0A280A16A0BF093F840B2071C08BF6FF0020700F094802078628899
:20541000216A84F82C7000EB80001218143290B288474B49086030B9284640680BF076F889
:205430004FF0FF377EE00846B4F802B06688277894F800900568204607F01EFB2078AB44CA
:20545000C01C8010CBF800002078B919491901F1040AC01C8010CAF80000207806EB470340
:20547000591901F10808C01C8010C8F80000217809EB49094B469A19521902F10C09C91C01
:205490008910C9F800102178D8198019401900F11005C91C88100199286022780BF10400D7
:2054B00004F03CFB227802990AF1040004F036FB2278039908F1040004F030FB2378204605
:2054D00051464246FFF7A8F9071C14D100955846514642464B460BF015F880462278049817
:2054F00009F1040104F01AFB22780598291D04F015FB4FFA88F7124821786288006801EB1A
:2055100081015218002105F0ADFD0D4E606A0146306888470B4840680AF0F8FFF8B29928A5
:2055300008BF002784F82C70384606E01CB16FF0010084F82C006FF0010007B0BDE8F08FE1
:20555000884F0020482000202DE9F04FADF1240D079001F00DFC5F48007809F099FB5E4DB0
:205570000024012806D90C3804D0401E0ED0401E09D006E00AF006F8022804BF01210C1C4F
:2055900006D0696805E005211F2401E0032107246960524A1068C0F38150012806D152F82B
:2055B0000C0C0127020E07FA02F004430AF094FA05F1440AFF2253464018401E471C28602A
:2055D0007F1E03F8012BFBD1079A1268002602F0FF03FE2B1DD0DDF81CC0964633460EF0DC
:2055F000FF07FF2F0ED0B84205D3B94203D80122BA40144201D0022069E016430EF0FF02DA
:205610000AF802305CF804EF5B1C0EF0FF07FE2FE7D1092003F0A8FD07980121A86005F11F
:20563000280009F02BF900274FF0010BB9462846804600F198050BFA07F0044216D1064271
:2056500004BF07F0FF0141F4C04104D01AF80700079951F82010224801F058FEF8B24FF0AA
:20567000FF3109F039FBC5F8009001E004202860D8F800007F1C2D1D8742DCD904A80AF00A
:20569000FBF9184C184A2078102104AB059008F10C0008F01BF868460AF02EFACDF80C90F2
:2056B0006A4660681149029008F1640008F0C4F80F4951F80D0C20F4F85040F4005041F892
:2056D0000D0C0C4FC1F8FFBF4846C7F800B009B0BDE8F08FE12D0020A0130020B43F0050B1
:2056F000007FC7677C19010055F30000DDD400000D3009400800094061480178002900D16B
:2057100070472DE9F843491E032984B004D9891F012940F2B180A9E05A4CDFF86C9120680D
:20573000DFF8688103685A4E03F10805062205F1080102A809F0DAFF0622A91C684609F04E
:20575000D5FF2878C1091D2700F00F02032AC0F3801537D16079C0F3800081421ED12169F1
:20577000062202A809F094FC00287AD0694628460AF054FF002874D0314668460AF04AFF0E
:20579000FF286ED04743D8F80000807AF519002818BF02280AD0012818BF032861D1F25D83
:2057B000691C48460AF0AAFE10285AD06B46EA1D294648460AF09EFE06226946E81D09F0A2
:2057D00095FF4EE000F00F00052855D16079C0F38000814245D12169062202A809F058FC17
:2057F00000283ED0694628460AF018FF002838D0314668460AF00EFFFF2832D04743D8F856
:205810000000807AF519002818BF01280AD0022818BF032825D1F25D691C48460AF06EFE84
:2058300010281ED040F2024008F024F86B46EA1D294648460AF05EFE06226946E81D09F0CA
:2058500055FF1448144A41F20441418041834186124801801249134811600121007803F0D7
:2058700041F921680A680020107105E0002009F0E7FD86200AF0AAFE05B0BDE8F08300BF8C
:205890006F4F0020F44B0020CC470020104F0020AC450020204A0020204F0020504F002020
:2058B000595501106E4F00202DE9F84F8B460AAF664E9BF80050DBF80400BC8892469846ED
:2058D00031462A463F88009009F060FA4FF0000940B9022F00F3AF80C7F10200A04200F304
:2058F000A0807FE000982A46B11C09F04FFA40B9022F00F3A080C7F10200A04200F3918025
:2059100070E00098311D2A4609F040FA40B9022F80F29180C7F10100A04200F3828061E020
:20593000009806F114012A4609F030FA38B9022F80F28180C7F10100A04272DC52E00098D8
:2059500006F124012A4609F021FA30B9022F72DCC7F10200A04264DC44E0009806F134016B
:205970002A4609F013FA30B9022F64DCC7F10200A04256DC36E0009806F144012A4609F026
:2059900005FA30B9042F56DCC7F10400A04248DC28E0009806F154012A4609F0F7F930B9BA
:2059B000042F48DCC7F10400A0423ADC1AE0009806F164012A4609F0E9F930B9022F3ADC63
:2059D000C7F10400A0422CDC0CE0009806F174012A4609F0DBF938B9042F2CDCC7F10400FC
:2059F000A0421EDC84B21CE0009806F184012A4609F0CCF930B9042F1DDCC7F10400A04294
:205A10000DDD0EE0009894362A46314609F0BEF9A0B9022F0FDCC7F10200A04201DC82B283
:205A300000E02246A8F80020DBF80C105046C91904F074F807E04FF0070904E048464FF0A0
:205A50000A09A8F800004846BDE8F88FF41101000FB42DE9F04F09AF8046ADF1240D0AF064
:205A700005FA391D30F0010021F0030101F1040101D102F068FB05911420ADF810000024CA
:205A90000294FF258DF812507E6806960AF02EFD06460AF0EBF9DFF854A130F0010015D0B2
:205AB00009F00AFC5146224684460C2031F80C7F4FB14B681B689E4204D0401E02F10102F0
:205AD000F4D100E0D5B2604609F058FE404608F095FA0146FF2904D02846032205AB05F00D
:205AF00009FF0AF003FD08F02FFEA3460746CDF800B00AF0BBF930F001006DD0002F6BD04E
:205B10003B4802683B480023214604F069FA04460AF0E8FCDDF8008001264FF6F87905467F
:205B30002D1909E0B8F1000F58D040460AF00DFA54E00A4644E01C46786859464FF00052A5
:205B50002346FBF7EFF9002832D007A80DF11D0101AA06F037FD00BB9DF81C000C2813DA9B
:205B70009DF81C100AF10C02880000EBC100135A53B1994508D0019A0AF060F900281CBFFF
:205B9000DDF804805E4613D10199684608F002FA78684FF000510AF0A1FCB4F1FF3FCBD053
:205BB000002CC9D00AF09EFC2B1A01D09C42C2D209F090FB009D09F07FFB083745B12A46BB
:205BD00052F80C1C0029B4D1396842F80C1C3D6009F0D4FD002EA5D002F0B5FA05980068E2
:205BF00009B0BDE8F04F04B07047C0461C160020C4190100404B4C002DE9F843614C5A4DDB
:205C10005A4EDFF870815E4F94F8E4100846401E0B2864D8DFE800F07B2C43062343062386
:205C300043067664042907D001220A2945F8212C14BF0220032004E0202045F8210C012086
:205C5000024684F8E200002045F8390C0827C5F8FF7FC5F8F37F45F8392CBDE8F883052963
:205C700014BF09200620002784F8E400376075E094F8E170383D0120002FC5F81B0004BF42
:205C90000620002102D00021F160032084F8E400032045F8010C3160306880085ED294F80C
:205CB000E4103348012703290ED00068456800216022052300914046A84794F8E4000628AF
:205CD00014BF0A200720CFE700684568002160220523022000904046A8470420C4E7FEE71F
:205CF0002548264F0026012506600E203D6002F059FF022008F0B6F984F8E45084F8E360B3
:205D1000BDE8F883002038600C25786024E04FF08059D9F8A0010168202088472C3D0F20F4
:205D300045F8010C41F61D56C5F80360D9F8A401466800214FF4C072072302254046009519
:205D5000B047D9F8A401C66800214FF4C07207234046B0470120386084F8E45004F1780085
:205D70000AF01BF9BDE8F88339400C4038600C40A401001000A00C402C500C4004800C4003
:205D900034600C40B41400202DE9F04F88468246ADF1AC0D29920AF0E1FB5C4CE67894F8C6
:205DB0000BB0A57A94F80C90071C00F0AB8068460021A4220AF02DF92801279A55498DF8D1
:205DD000046005F0030300F4807605F00405ADF800A0B9F1020F01EA020143EA01024C4BB7
:205DF0008DF8A0B046EA020100F4C06603EA010246EA020045EA00054FF00000279508BF59
:205E100001208DF837000AF065FB412809DB207B00280CBF002008209DF8991008438DF80A
:205E30009900607B002804BF00208DF8380017D001208DF8380004F1860120220DF139005C
:205E500009F054FC0DF1590004F1A601202209F04DFC0DF1790004F1C601202209F046FCC2
:205E7000A07940B18DF8260004F1500110220DF1270009F03BFC66793EB104F16000B91D97
:205E90000622054609F004F968B92079002804BF00208DF8050015D08DF8050004F1400195
:205EB0000DF106000BE08DF805600DF1060005F11601102209F01AFC0DF11600A91D10229B
:205ED00009F014FCE07930B1B8F1000F03D0279941F002012791002100B10121A7789DF890
:205EF0009900002F41EA00018DF899100CBF002004209DF89910084329998DF8990068464A
:205F10000AF0E4FA2BB0BDE8F08FC046BC100020FBF9FFFFFCFEFFFF70B5484C484B2568E5
:205F3000186855F8183F00224FF0FF3198474548454A416B454C8868454D41791170002681
:205F50000AF0C0FA43480AF0B9FA0AF0B3FA4248026800215171A02301680722CB804A726B
:205F7000032103681972002201684A7700230268D3760021036883F85C10012201680A7755
:205F90000123026882F85D300021006880F85E100EE06068F1B24FF4C07251434218537965
:205FB000012B04D1F0B209F0BBFC0AF07FFA761C2978F0B28842ECD30AF074FA2748284A64
:205FD0000178284C117007F073FC2748D02130220023017042708370C370037143718371A3
:205FF000C3710AF05BFA2149214B00200870002220491A700120204B08701A701F49204B2A
:2060100008701A701B201F491F4B0A701A804FF4A4721E491E4B08801A80FB201D491E4A19
:20603000088040F648001D491080FB230B8020800AF030FA1A490020087070BDF04E002061
:20605000EC4E0020DC190100714F0020684E00207B4F0020CC470020104F00206D4F0020B2
:206070007A4F00204E4F0020942D0020734F0020744F0020754F0020764F0020774F002015
:20609000784F0020794F0020524F0020444F0020464F0020484F00204A4F00204C4F0020CD
:2060B0006F4F00205A480178042900D870472DE9F84F891F2FD0491E012900F29E80DFF89F
:2060D00054A19AF80200FF2825D009F029FC83460BF16C0778680AF0D9F9804698F80400AF
:2060F000032818D1D8F80800047814F0030404D17868BDE8F24F0AF0C5B94578032C00F12D
:2061100002090BF20F160BD035B1387820B93D2171700120307078E03F490A78012A74D027
:206130009BF8941059B32D1FEDB24B462A46214658460AF0A3F940B93D207070012131708C
:206150003648BDE8F24F0AF095B935480168884700904FF4C0709BF80620DAF804104243A7
:206170008818002180F839110BF59A7001688079490805F071FE2B4900980A6890470020F6
:20619000032CC8F8080016D0274841690878820707D5C0074CBF03200020401919F8000095
:2061B00000E08120387223469AF802002A46494600F094F918E099F80000192803D21B4A27
:2061D000115C8D4205D0B070072158460AF0E6F907E00F480178082903D049465846FDF703
:2061F00095FC484606F0D0FD78680AF04BF941465846BDE8F44F0AF039B9002009F020F964
:20621000BDE8F24F86200AF0E1B9BDE8F18F00BF6F4F0020684E0020794F0020AC450020BD
:20623000D0150020D4150020DC190100141A01002DE9FF4104466668A7680D4609F0B7FE9D
:206250003178012903D10AF0B5F900208EE0012131700AF0AFF9287870706878B07068689C
:206270007060A868B060E868F06028693061287D3075687D7075A87DB075A869B061287F35
:206290003077687F7077A87F4FF0000843461D4686F82851B07786F82951C6F82080336315
:2062B00075627563B562B56386F82C5086F82D50786802F059FF204603F0CAFC204603F059
:2062D00013FD60B9386808F023FE786802F06AFC09F06DFE35700AF06DF92C4645E06846E6
:2062F00009F0CAFB0094387B224A0190B9686B4606F17C0007F0EAF9684609F0FDFB00943A
:206310001D4938696A46029006F1980007F094FAB07830B906F1CC00294608F0AFFA1748CD
:206330003061707830B906F1E800294608F0A6FA1348F060684609F0B4FD01958DF8005097
:206350001049029406F582700A226B4606F044FBB969FA6906F13C0009F05AFB0A4A06F1EE
:2063700068000421234608F0B9FB20460090BDE8FF81C0463D6600003DC2000041FF000068
:2063900039FF000029D0000039FC0000F0B5514C20780D46E90BADF11C0DC90372D1A808E0
:2063B00060D2E069216A6A080ED2E80828BF85F0040580F08C80680904D304F0D7FC85F020
:2063D000100584E0002083E0868861B904F11600414A00904FF6FF71022301200AF042F834
:2063F0000146216221B304A800900027019702230293FF220392E28A30460DF11203FEF79A
:2064100017FC58B99DF813009DF81220216A12EB002204D04989304606F076FF216AE28AB1
:2064300008463B464FF6FF710AF088F801462162A069002918BF85F001051AD168B1436851
:206450005BB1E0698088012100229847A069E7694368B88803210022984708F0E3FF85F0F4
:20647000010534E000200146FEF7CEFD18B185F00205012102E0022185F00205207802F059
:2064900031FB24E003F064FF071C1ED038780126B03811D0401E02D01F3808D011E03879B4
:2064B00078B97888F9883A8906F02EFF0AE03846FEF7B8FA064604E0397907F10800FAF752
:2064D00035FD16B1384608F0F3FD85F40045A8B207B0F0BDBC100020421601002DE9FC4733
:2064F00006460C4615469A46C0B209F019FA8146F0B209F021FB0646494F3079DFF82481AE
:20651000012802D0022843D082E0BAF1020F0AD100207080308002223271B06806F034FC75
:206530000020B06037E0308871882A1891420BDA00207080308002223271B06806F024FCA4
:206550000020B0608B2061E0B3682A462146184409F0CCF830882D183580ADB27288954222
:2065700056D199F87410802917BF81297F2198F80000091A49B200915346B168B878D2B261
:2065900009F06CFF002070803080022232713FE0BAF1020F3CD1042DB8BF8C2036DB20781B
:2065B0006178001D40EA01201F49708083B20A789A4238BF8A2029D381B2A94238BF8B2042
:2065D00024D380B209F046FFB060F0B12A46214609F08CF87288954211D199F874108029CE
:2065F00017BF81297F2198F80000091A49B200910223B168B878D2B209F030FF08E0308872
:206610002D1835800121317102E0812004F02EFC24B12046BDE8F64706F0B6BBBDE8F38768
:20663000684E0020704F00206B4F00202DE9F84F8046D8F808603068D8F80450076CDFF85A
:2066500030B14764AB6B6A6C286C17F4F06F1946A0EB020934D1F8091ED2780974D3B1B19F
:2066700096F821205846801D845C601E814294BF1C1C641E4046214608F022F8A86B001BA5
:20669000A86361D105F19800012109F0AAFC4046494608F0C3FA57E00029F8D0404608F0EE
:2066B0000FF895F82D10A86311B900284CD101E00020A86305F19800012109F092FC43E079
:2066D000F80A20D24FF0000A544602E0AB6B5B1EAB6393B14046012107F0F2FF306844683C
:2066F00014F00F04C0F804A0F0D0286B401E2863686B401E6863A86BE8B905F1980001217B
:2067100009F06FFC13E0306844680022202904F00F044260CCBF4FF0200A9A4640465146C9
:2067300007F0CEFFCAF120008145C8BF81464946404608F073FAEC77404606F04BFB726A1B
:2067500012B1404621469047B8090FD3A96A69B10F46404607F0CBFFA86238B996F820206D
:206770005946895C4046C91906F04EFABDE8F88F841501002DE9FC4705466E68D5F808804A
:2067900037780FB1B76B1FB14FF0FF30BDE8FC8731630024F477171C74631BD006F13C099E
