:2000000000400020FDEF000001C9011001C9011001C9011001C9011001C9011001C9011072
:1C00200001C9011001C9011001C9011001C9011001C9011001C901103FC9011089
:20003C002DE9F04FE04CE088ADF1140D11F0A8F8DFA696E80C0008F0F9FEDFA797E80C004C
:20005C0007F025FF02F0FCF9DDA20CCA08F0EEFEDDA20CCA06F0D5F90EF0ACFE208140F6B1
:20007C00B8306081E08811F08BF896E80C0008F0DDFED7A20CCA07F00AFF02F0E1F9D6A2BF
:20009C000CCA08F0D3FED6A20CCA06F0BAF90EF091FEA081E08811F073F896E80C0008F0AA
:2000BC00C5FE97E80C0007F0F2FE02F0C9F9CEA595E80C0008F0BAFECDA20CCA06F0A1F9BA
:2000DC0095E80C0006F09DF90EF074FEA070E08811F056F896E80C0008F0A8FE97E80C0005
:2000FC0007F0D5FE02F0ACF9DAA20CCA08F09EFE95E80C0006F085F995E80C0006F081F9A7
:20011C000EF058FE6778D54D394605EB4102A189A2F88210D24A4FFA80F8B4F808A0B4F889
:20013C000AB094F9029084F80380480017800FF0ABFEDA490CF054FDD9490BF013FD0FF0A8
:20015C006BFED8A20CCA08F071FE0AF09DFD0EF031FE7E0005F1D004AB19A3F89C0005F169
:20017C00B60222F806B0A4F1680124F806A0BC4C019102F11A01029105F1680101F80790F1
:20019C0004F1A800049005F1750909F8078001F10D08B3F89C0010F045FE0FF03DFEC3A2E6
:2001BC000CCA8A46834608F041FE0EF003FE09F12709ADF80000BFA2CDF80C900CCA514680
:2001DC00584608F033FE8246E86B89460FF024FE0B4602464946504608F028FE0EF0EAFD70
:2001FC0076196F1D823604210222387033464FF4F0400EF097FD4FF4F040052102226B4633
:20021C000EF090FDEC896879B44907F17D0B08700C2C40F0FF81686CDDF80890DDF810A03E
:20023C00AF4E0D27401CC5F8EC000024686439F8021B3AF8020B484310F043FA9FA20CCA10
:20025C0008F0F4FD0EF076FF16F8011B7F1E00FB0144ECD1204610F0E5FD9A490BF082FCBE
:20027C00994C21460CF0BCFC98490BF07BFC0FF0D3FD0AF009FD0EF05DFF9949039A0D2733
:20029C008146002011F8013B32F8026B7F1E06FB0300F7D110F0C6FD21460CF0A1FC8C497E
:2002BC000BF060FC0FF0B8FD0AF0EEFC0EF042FF0746E86C4844E864A96CC919A9646B6D9F
:2002DC002A6D1B185218C5F8F0303846C5F8F42010F0A8FD7F490BF045FC7F490CF080FCB9
:2002FC000FF09AFD0AF0D0FC0EF064FDC2B2AA72002085F808210146019A1256461CF0B283
:20031C0052180C2811B2F7DB4FF00C0A91FBFAF010F0D7F90AF0B8FC0EF04CFD41B264297E
:20033C00D9BF0024201C1920002485F8091128722146A5F806412046029A32F811204E1C09
:20035C00F1B280180C29F7DB10F06CFDD2490BF009FC0FF061FD0AF097FC0EF0EBFE28645E
:20037C00A5F804010EF096FC85F80B010EF088F95A4E85F80A01002F3ED04FF47A7000FB92
:20039C0009F010F04FFD8146384610F04BFD014648460BF0E7FB0FF051FF4FF6FF718142F6
:2003BC0028BF80B22AD201E08C22002024E0C046182D4454FB2109400000000000806640EB
:2003DC00000000000070B740000000000094E1400000000000004E400000000000E07540C2
:2003FC000000000000C0774000000000000034400000000000002E404FF6FF70A5F8000136
:20041C000EF082FAA5F802010EF064F9C5F8F8000CF09CF8EF890146C5F8FC10381C21D039
:20043C002246204618F90010401CC0B2891887420AB2F7DCB7B192FBF7F010F042F90AF0D9
:20045C0023FC0EF0B7FC41B27E29B4BF201C2020687208E00000000000003E403C1100207A
:20047C004A110020214685F80C112746002F39D15946088B039B0880188B98F90C101880FE
:20049C00049A88F80010108B029B1080188B019A188092F90C00107031E0C046DB0F4940D3
:2004BC000000704252B81E85EB512440CDCCCCCCCCCC0C403BDF4F8D976EA23F2D431CEBB9
:2004DC00E2361A3F00803B450000C843000061450060EA46008089450000B443BC0D002020
:2004FC006D23002008F807400198C4557B002BF803400399CC52049AD4520298C4527F1C8D
:20051C000D2FB3DB95F80B21287995F806317270401C287195F80A117371B5F80471A97138
:20053C0095F90911AF8205F1EC06042241F611003346E97105210EF0F5FB4FF4F0400221F3
:20055C00012206F11D030EF0EDFB4FF4F0400621042206F108030EF0E5FB4FF4F040072124
:20057C000422331D0EF0DEFB05F580734FF4F0400B2102220EF0D6FB05F581734FF4F04032
:20059C00082102220EF0CEFB4FF4F0400921042206F10C030EF0C6FB4FF4F0400A210422DF
:2005BC0006F110030EF0BEFB4FF4F0405146012206F120030EF0B6FB287A192805D0687ACE
:2005DC00202808BF05F1090301D005F108034FF4F040032101220EF0A5FB06F1180341F67B
:2005FC000F00012102220EF09DFB06F11E0341F60F00214601220EF095FB06F11F0341F62E
:20061C000F00042101220EF08DFBE87810B1012808BFEC7028790A282DDB2A8AD5F8EC30FC
:20063C00686B9100C5F81031401C01EBC201C5F814014919194FC1F81801298AD5F8F4202F
:20065C00880000EBC1004019C0F81C21298AD5F8F020880000EBC1004019C0F82021686B13
:20067C000024401C87428CBF68636C630DF0B2FEEC642C71AC640A480146C0880F46401CF4
:20069C00C8807878401CC0B20D28A8BF012005B04870BDE8F08FC0460000404180D3D8FF39
:2006BC008C2200202DE9F04F0446B4480D461646ADF5FE7D5B1E011DADF1600D9095F21E12
:2006DC008F94D1F800C0929316F1140FCDF854C24FF01801CDF850C292FBF1F19391BCBFEB
:2006FC00002193910C466246A6EB04161946A6EBC406183E8D18A4EB0104969612D406464D
:20071C006D1CE8465036002C44BFBEA003C803D456F824000FF0D5FF6D1EA8E8030004F1F9
:20073C000104F0D19598002828D405460DF5A07B00266D1C929FB3A090E80003002F17D456
:20075C00DDF83CA206EBC7007F1C0DEB0004BAE8030094E80C0008F069FB0B4602464946CA
:20077C00404605F04EFE083C894680467F1EEED16D1EABE8000306F10806DBD19598919041
:20079C0048E0B9F1000F42DD9199DDF848C2939A7A4F0DEBC1030CEB0100CB4603F5A4736A
:2007BC00C4008A188C93083407EB820000F1500A61440DEBC1065AF8040F0FF082FF083616
:2007DC0086E803008FA003C8929F8D90002F8E9115D4DDF83C820DEB04057F1CB8E803003B
:2007FC0095E80C0008F022FB0B4602468E998D9805F007FE083D8E917F1E8D90EED18C9A5D
:20081C00BBF1010B03C204F108048C92D3D1919848449190C5000DEB050404F5A07494E857
:20083C000003002828DD083C07460DF5F07BBDA20CCA4946404608F0F9FA0EF0BBFA0FF087
:20085C0040FFBAA20CCA8A46064608F0EFFA0B4602464946404605F0CFFD0EF0ABFA4BF8B9
:20087C00040B94E803005346324605F0CAFD083C894680467F1EDAD1969F494640463A4616
:20089C0009F0ECFAABA20CCA8846814608F0CEFA08F042FCA9A20CCA08F0C8FA0B4602463B
:2008BC004146484605F0A8FD884681460EF082FA8D900FF006FF0B4602464146484605F09A
:2008DC009BFD0FF2882A89468046002F14DC391C0BD09CA20CCA49460BF003FF84BF0020CA
:2008FC008E9071D802208E9020E091980DEB8000D0F8DC01C01516E091983C460DEB8003FE
:20091C0003F5F0738D9F53F8040CC4F11802C4F1170440FA02F101FA02F2801A43F8040C39
:20093C007A188D92204100288E904DDD9198002400280EDD77A951F8047F24B93FB1C7F148
:20095C008077012402E06FF07F42D71B0F60401EF1D1969F8D98002F00F101008D901ADD4D
:20097C007F1E0DD07F1E16D191980DEB800101F5F07151F8040C6FF39F500AE0003401009B
:20099C0091980DEB800101F5F07151F8040C6FF3DF5041F8040C8E98022815D19AE8030054
:2009BC004B46424605F028FD8946804664B19AE80300969A09F052FA0B4602464946404696
:2009DC0005F01AFD894680460EA20CCA494640460BF044FE3FD0969F40467A4209F03EFACB
:2009FC008046919851A20CCA0DEB800440460BF078FE894604F5F07484BF8B46464624D8E8
:200A1C0004E0C046000000000000000045A20CCA404608F00BFA0EF0CDF90FF052FE43A298
:200A3C000CCA8B46064608F001FA0B4602464946404605F0E1FC0EF0BDF91837083544F8B8
:200A5C00040B91989697401C9190594630460EF0B1F9206039E0919895990026401E8142A4
:200A7C000CDC919F95980DEB870101F5EE713F1A51F804097F1E40EA0606F9D176B9959898
:200A9C004FF001090DEB800000F5EE70016800297FF477AE001F09F10109F7E79199969F9C
:200ABC000DEB8100083D183F00F5F070491E9697001F919106E09199183F083D001F9697E3
:200ADC00491E919101680029F5D09AE803003A4609F0C4F982469198894600281ED4074638
:200AFC000DEBC7040DEB870804F5A07408F5F0787F1C58F804090FF0E4FD4B46524608F025
:200B1C0095F908A284E803000CCA4946504608F08DF9083C894682467F1EEAD1919C002C0D
:200B3C0050D417E0000000000000703E0000000000007041000000000000C03F0000000020
:200B5C0000002040000000000000E03F000000000000F03FA5EBC40528A8E70005EB0008C3
:200B7C00949E3DA090E8000C002ECDF830A221D4DFF8EC90DDF844A2354600266D1C09F1DA
:200B9C001009AAEB040AB24514DBF20002EB090003C850ABD219D2180CCA08F047F90246BE
:200BBC008C980B46594605F02CFC761C8B466D1E8C90E8D1DDF830A2641EA7F10807A8E8C5
:200BDC00000CCDD5919F24A090E80C00002F10D40DEBC7047F1CA03494E80003194610465A
:200BFC004B46424605F00DFC083C7F1E02460B46F2D18E9900290CBF191C83F00041DDF8AC
:200C1C0040C2104628AF8CE8030097E8030005F0F3FB024691980B4600280DDD0DF1A80A29
:200C3C000746BAE8000310464B46424605F0E9FB7F1E02460B46F4D18E9909B183F00043CC
:200C5C0090988D9F08307FB080E80C0018B007F00700BDE8F08FC046000000000000000059
:200C7C00003401002DE9F84FC04CA178FF2904BF002010F02DFCA07810F0ACFE044604F16C
:200C9C00680504F190062968086810B10021E1830CE0A87B002804BFA97E002906D1307830
:200CBC00002801BF207F0128608CE0832189E08B4118491C6181204600F06CF901281EBFA3
:200CDC00AB480178012904D121890020491CE08361814FF6FF77A87E01280DD1AA8B618912
:200CFC00208900F05BF938B1218960894A1C93B298421BD0A88B0FE03078012816D172882B
:200D1C006189208900F04AF980B1218960894A1C93B298420AD0708892B2904206D038189A
:200D3C00608180B200F03EF93F18E78304F5967999F8040020B120890021401CE1836081C3
:200D5C0004F12E07A87E012811D12189A88B4B1C9BB298420BD1608100F024F98046B988E0
:200D7C00288C01FB080820460CF0FAF901E0B7F80480B4F81EC022687E4ED2F80CE00CF19B
:200D9C00010000FB08F340F6C41000FB03F18E44C2F80CE03668DFF8E0E13678BEF80080B5
:200DBC00764AB609032E11D1D67BF60748BF4FF000080BD408F101081FFA88F6012E12BF71
:200DDC00668AB9F8066006F2DC5600E0668A5E434FF4C87AB6FBFAF6761C6661AEF80080B0
:200DFC00A3614FF0180894F806A084F820C008FB0AFADFF88CC1DCF800E023680EF108066F
:200E1C0056F80AB0C3F810B094F806A008FB0AFACDF800A0D3F80CB0D4F814A0ABEB0A0AE4
:200E3C00DDF800B046F80BA094F806A008FB0AFA56F80A609E600EF10C06A37908FB03F313
:200E5C000EF10C0EF65C06F0F00646F002060EF803604FF0000ADCF800E0A6790EF1020358
:200E7C0008FB06F623F806A0464BA6791B68760103F1140AD4F814B05AF806A00AEB4B0A08
:200E9C0003F1140B4BF806A0AD7E022D0BD1A5796D0103F1140697F800B056F805A000FB3D
:200EBC000BAA46F805A0BD88D27BA779D60736D508FB07F70EF10802D659A6F5A86A0EF1FF
:200EDC00080646F807A0A77908FB07F7D2592768511A3961BA6003F11402A17949015758EC
:200EFC0007F5F667575003F11401A27952018958C9F800106843244AA179156B03EB4116B5
:200F1C002968401AA0F51670F0612049A07903EB40100B78012B14D10121C17214E003F1CD
:200F3C0014027F01D1592A464243A1F5E661A2F516729142DED30821204600F037F8012091
:200F5C0011E0916A4A78C272A179DCF8000008FB01F281182268516007200D490870204680
:200F7C000BF0B8FE0020BDE8F28F00BF684E0020784F0020084F00201C2F00205C4D002037
:200F9C00804E0020844E00209C3D0100734F00206F4F0020DFF800F035440110DFF800F0A3
:200FBC0069860010DFF800F091860010DFF800F0A985001008B5094B581820300078FF28B3
:200FDC000AD001228A40D968114205D00449091D096851F82010884708BDC046881F002007
:040FFC00403C010074
:20100000B412000018100000A1E40000FDB301106DC00110FDAE011099B501100000000043
:08102000000000002D0000009B
:20102800B01200003C100000B1C00110A9BF011067C0011069B80110000000000000000035
:041048003000000074
:20104C00B012000060100000BDC00110CDB30110D9BD01106DB3011000000000000000005B
:04106C00310000004F
:2010700000000000B423002004000000000000000000000020000000E8C901103000000053
:2010900028100000BC2300200400000000000000000000000C000000D8CA0110180000002E
:2010B0004C100000C423002004000000000000000000000024000000F0CA011018000000B2
:2010D00000000000CC2300200400000000000000000000001000000018CA01102C000000BE
:2010F00000100000DC230020040000000000000000000000200000006CCA01102400000022
:20111000FFFFFFFFE42300200400000000000000000000002800000090CA011024000000E1
:20113000FFFFFFFFEC2300200400000000000000000000001400000008CB01101800000060
:20115000FFFFFFFFF423002004000000000000000000000058000000B4C90110340000002E
:20117000FFFFFFFFFC2300200400000000000000000000001000000020CB011018000000FC
:20119000FFFFFFFF042400200400000000000000000000001C000000B4CA01102400000028
:2011B000FFFFFFFF0C2400200400000000000000000000003800000044CA01102800000050
:2011D000FFFFFFFF142400200400000000000000000000005400000078C901103C000000C5
:0811F00001000000903D010028
:0411F80001000000F2
:0411FC0000000E00E1
:0412000000000F00DB
:0412040032000000B4
:0412080001000000E1
:04120C00D8220020C4
:0412100000020000D8
:0412140000000000D6
:0412180001C90110F7
:04121C0000000000CE
:0412200000000000CA
:0412240008000000BE
:0412280000002200A0
:04122C003C20002042
:0412300000000000BA
:0412340000000000B6
:0412380008000000AA
:04123C004C22002020
:0412400000000000AA
:0412440000000000A6
:04124800080000009A
:04124C00000000009E
:04125000000000009A
:041254000000000096
:041258000000000092
:04125C00010000008D
:041260000421002045
:041264000600000080
:041268000100000081
:04126C00F01E002050
:04127000000000007A
:041274000000000076
:041278000002000070
:04127C00000000006E
:02128000290043
:02128200010069
:02128400250043
:02128600300036
:02128800310033
:02128A002D0035
:02128C0001005F
:01128E00015E
:0812900003000000083D01000D
:0812980000000000000000004E
:0412A0000000010049
:0412A4000000030043
:0412A80013C401105A
:0412AC00D518010050
:0412B000B812000070
:0412B400B81200006C
:0412B8000000000032
:0412BC008823002063
:0412C000EF1A010020
:0412C4002000000006
:0412C800543C010091
:0412CC00C03A010023
:0412D00029C101101F
:0412D4005D21010097
:0412D8005F21010091
:0412DC00A1C7011095
:0412E000A3C701108F
:0412E4000000000006
:0412E800FD370100CD
:0412EC006438010061
:0412F0007C38010045
:0412F4004C38010071
:0212F8000200F2
:0212FA000900E9
:0212FC000100EF
:0212FE000000EE
:0113000001EB
:041304007D1A01004D
:04130800DDFE000006
:04130C00AD0E010021
:041310008D02010049
:0413140015FF0000C1
:0413180019EE0000CA
:04131C00E5BE00002A
:04132000671D010044
:0413240079E000006C
:0413280015C70110D4
:04132C0025C70110C0
:201330002DE9F04FD64C211D2046ADF19C0D0DF0A1FA04F120050021284611F04DFAD14E93
:2013500010201F220623A560314605F0BFFB5020ADF820000025ADF81E504FF47A7A8DF88F
:201370002F500221ADF824500DF11E02ADF826A04FF44870ADF8220040F2063002F02CFFD2
:201390004FF44270132104F13D0202F025FF40F20730112104F12C0202F01EFF4FF4447006
:2013B00001210DF12F0202F017FF40F21130022108AA02F011FF40F2123002210DF12202C1
:2013D00002F00AFF40F21330022109AA02F004FF4FF4457002210DF1260202F0FDFE04F19F
:2013F00050002A461523A8490090102005F06EFB314610200622A02305F068FB3146102045
:201410000722A02305F062FB314610200122782305F05CFB314610200822A02305F056FBF3
:20143000314610200922A02305F050FB0CAC01208DF8325029468DF8300003468DF83100C4
:201450004FF480628DF83410904D00941F4610208DF83370294605F039FB0DF1310029462A
:20147000009040F202423B46102005F02FFB0DF13200294640F203423B460090102005F03A
:2014900025FB0DF13300294640F206423B460090102005F01BFB0DA829464FF483623B46E9
:2014B0000090102005F012FB794910204FF0FF3205F00CFB1020774B00907749774A019365
:2014D000092305F003FB76494FF0FF32102005F0FDFA744D2878800010F0FEFD01467248B5
:2014F00004464161002900F098804FF6FF700DF0D3FC2878800010F0EFFD0146A1610029C1
:2015100000F08B804FF6FF700DF0C6FC2878800010F0E2FD0146E16100297ED04FF6FF709A
:201530000DF0BAFC2878800010F0D6FD01462162002972D04FF6FF700DF0AEFC2878800045
:2015500010F0CAFD01466162002966D04FF6FF700DF0A2FC2878800010F0BEFD0146A162D7
:2015700000295AD04FF6FF700DF096FC2878800010F0B2FD0146216300294ED04FF6FF7030
:201590000DF08AFC2878800010F0A6FD0146A163002942D04FF6FF700DF07EFC2878800024
:2015B00010F09AFD0146E163002936D04FF6FF700DF072FC2878800010F08EFD01466164F4
:2015D00059B34FF6FF700DF067FC2878800010F083FD0146E16401B34FF6FF700DF05CFCF2
:2015F0002878800010F078FD01462165A9B14FF6FF700DF051FC2878800010F06DFD014650
:20161000616551B14FF6FF700DF046FC274B04F15800352110220FF07BF92878800010F025
:201630005BFD04F15802014687480F920029C16055D04FF6FF700DF02FFC2878800010F0D1
:201650004BFD014680480029016148D04FF6FF700DF022FC2878800010F03EFD01467A484D
:20167000002941613BD04FF6FF700DF015FC2878800010F031FD01467348816179B317E06D
:20169000D0080020550101008DC80000094E0000B10D0100F03C0100210901001C190020D3
:2016B0009D100100694F002008020020603501004FF6FF700DF0F0FB2878800010F00CFD0F
:2016D00001466148C16151B14FF6FF700DF0E4FB5D485E4B1521102220300FF019F928789F
:2016F000800010F0F9FC584A01462032584822920029C16047D04FF6FF700DF0CDFB28785C
:20171000800010F0E9FC01465148002901613AD04FF6FF700DF0C0FB2878800010F0DCFC7B
:2017300001464B48416171B34FF6FF700DF0B4FB2878800010F0D0FC01464548816111B333
:201750004FF6FF700DF0A8FB2878800010F0C4FC01463F48C161B1B14FF6FF700DF09CFBAB
:201770002878800010F0B8FC01463948416251B14FF6FF700DF090FB3548364B1921102272
:2017900028300FF0C5F8344D31496F78287828311C91AFB93C490C3169620EF0C7FF05F1EE
:2017B000480702460020009005F15806019705F12003029629490393AB78102005F086F966
:2017D000314A27491020183205F080F92E4800780EF0ACFF23490246102005F077F92A48D4
:2017F00000780EF0A3FF20490246102005F06EF91E49102005F06AF91D4D0120287009F079
:20181000F7FA1C49002007F07BF81B4900200DF0F7FE00200DF0FCF9022028700DF074FD28
:20183000174E164A174806F10801116006F11401016006F1200010F07BF90120377886F8BD
:2018500028002FBB22E0C04640140020183B0100840F002080360100B0050020D7F100008F
:201870002D1301005188011031810110C5AB0010692400200000030391C900009C21002000
:20189000A41E0020C80D0020D00800200FF0BEFB0320E54E287006F1140738460FF0AEFF87
:2018B000DFF88893D9F8000006F1340B4FF4FA713B465A46BAFBF0F080B24143491EDC487A
:2018D000716010F085FFDFF89C8306F10801C8F80C107168306010F077FF00212422082360
:2018F000584610F06DFF00273A46F7647368A6F844200420B364DC4E287006F1140B58463E
:201910000FF07CFFD9F8000006F1340751465B463A46BAFBF0F080B24143491ED3487160E4
:2019300010F056FF002124220823306006F10800C8F81000384610F043FF00200746A6F886
:2019500044007168F7643068B16410F03DFF7168306810F0F3FB0520C54E287006F1140BD1
:2019700058460FF04BFFD9F8000006F1340740F2DC51BAFBF0F05B463A4680B24143491E3B
:20199000BC48716010F024FFBB4930602422082306F1080008600021384610F011FF0620FE
:2019B0002870C8480027B7643B46A6F844303A46F264B24E0FF022FFD9F80000C14B06F1D0
:2019D00034074FF4C871BAFBF0F03A4680B24143491EAB48716010F0FBFEAA4A06F108015D
:2019F00030600823116138460021242210F0E8FE00200746A6F844007168F7643068B164AF
:201A100010F0E2FE7168306810F098FB07202870AD489D4E0FF0F2FED9F8000006F1340741
:201A30004FF49651BAFBF0F080B24143491E71609648A54B3A4610F0CBFE06F10801914AF7
:201A500030600823384651610021242210F0B8FE00207168A6F844000746B1643068F7643E
:201A700010F0B2FE7168306810F068FB082028709648874E0FF0C2FED9F80000934B06F1FA
:201A900030076421BAFBF0F03A4680B24143491E8048716010F09CFEDFF8FCB106F1080191
:201AB000242230600823CBF820103846002110F087FE00200746A6F840007168B764306827
:201AD000716410F081FE7168306810F037FB0920724E287006F1100738460FF08FFED9F895
:201AF0000000BAFBF0F006F130093B4647F2305A80B24A460AFB00F1491E6948716010F02C
:201B100067FE684930602422082306F1080008600021484610F054FE0A2028700027776472
:201B30003B46A6F840303846B0640DF08DFB5E4E06F10C00CBF82400301D10F009FA0B20DE
:201B50002870012030720DF07FFB584E06F10C00CBF82800301D10F0FBF90C2028700120E9
:201B700030720DF051FC524E06F10800C8F8140006F118000FF08EFD4FF001094F46777692
:201B90000D202870002386F82E304A4632761946C6F81C904FF4E13786F82D10474D37632C
:201BB0004B46AB70434AB2624349716210F016F9002188F80010032228700F46C8F8207047
:201BD0003B46C8F81C30C849AA7005F10C00206105F110068E6084200EF09DFB08F1280164
:201BF0008422C8F8040009F0CDFC08200EF093FB0646C8F8186038463071FF270A2077711A
:201C10000EF089FBD8F81410306008688047D8F81000006880471B4805F11C060778C8F8AE
:201C3000086097B906E0C0469C1B00208C3D0100152101000646306904210068A9708047C6
:201C5000706900688047484630701D4805210027A970002F3CD00C2F3AD0790834BF02215C
:201C7000042136E0AC190020F41B00202BD000004C1C002019210100F8220020A41C00202D
:201C90001D2101008C220020FC1C002021210100AC1D002025210100541E0020001E0020AC
:201CB00029210100D42E0020A8220020C0220020C81F002097DD0000C9850000B8210020F9
:201CD0006D230020B81C0020101D0020BC1D0020494601707F1C401C0D2FBADB814E092149
:201CF000C6F81411C6F878110027C6F818713B46C6F81C313A46C6F820214FF4A070C6F820
:201D100010019621C6F82C116427C6F824910223C6F828710AF16408C6F83031C822C6F848
:201D300034214FF46171C6F87C11FA27C6F838714FF49673C6F840314FF4AF72C6F8442154
:201D500040F22620C6F840800321C6F83C110427C6F8487100F16409C6F868914FF4E17300
:201D7000C6F850310522C6F854214FF4C871C6F84C114FF4FA77C6F858710623C6F8603170
:201D90004FF41672C6F864210146C6F85C110727C6F86C7109F16403C6F8743103F1C8006A
:201DB000C6F880014FF42F71C6F870110CF018FB0F2786F80971002286F80821336DC6F84E
:201DD000F430706DC6F8F000B6F84010A6F804111346A6F806310CF063FF86F80B010CF081
:201DF00055FC86F80A014FF6FF7AA6F800A10CF091FDA6F802010CF073FCC6F8F8000AF0B6
:201E1000ABFBC6F8FC00707886F80C710EF0D8FDA6A30020A6F8820093E8030008F03AFF64
:201E30000CF0CEFFA6F8D080A6F89C0086F86870F378DFF8808286F8757040F6B8305F46E1
:201E5000A6F8B6001BB1012B04BF0021F17042F6E941062639834FF4F073AE704FF0490B40
:201E70000121788307F1300239700826BB8309F1C80087F807B007F1400122F8020B761E0A
:201E900021F8020BF9D105F11800F862386A01210068B9718047786A00688047B86A006822
:201EB000804705F11401BD4A2878D16001283CD1C04E31880027D8F80C00ADF8101002227F
:201ED0000DF135038DF8357009214068A970844604A958460097E047012888F8050024D131
:201EF00004E0C0463C110020840F00207188D8F80C00ADF82A1040688DF8367002220DF11F
:201F100036033946009706468DF82B1058460DF12A01B04788F80500012088F8030088F8EF
:201F3000047042F6E066A8F806600A20A8700BF0ABFC04F10D0600206870A71C109604F157
:201F50004803119304F14002129204F10B000E9704F1340613900D21149604F12C0315938C
:201F700004F109021692E01DA970661C1790631D1896E21C1993B448BD4FDFF8E4A2DFF856
:201F9000E492DFF8E482DFF8E4B21A9200F1200106461B9133463246311D1D91D91CBB4E70
:201FB0001E91911C1F913346411C32462091F11C219107F11000A860991C2391511C2491AC
:201FD000311D2591AA48406800214FF040424FF0FF3310F0F1FB071CF4D0002006900DF179
:201FF0002E0106AA07A80EF07DF900286CD1BDF81CC00126BCF1100F61D19D489DF82E10FC
:20201000007888425BD1069D28884FF6FF71814255D02B78913B29D01F3B50D16878162851
:2020300018BF002205D130460EF0B0FD3246CBF800508F4843699AB163B94FF6FD70BC4974
:20205000BC4A00900023102004F040FD88494B69C2B22AB9864843F00203002643612EE09C
:2020700029790835284610F0A3FB28E06B780E3B02D09B1E20D022E0A88842F20301814289
:202090001DD1A9680D78D5B9491C04A80A684968026004AD41602878B64904AA00F0FD00FC
:2020B0002870102004F012FD09E0C04600000000000000009021002008200CF003F80698C8
:2020D00010B10EB10FF0CAFFF80FFFF47BAF6848806810F069FB00287FF474AF6448856831
:2020F000284610F05DFB854208BF002502D085680DF03EFF002DEAD05D4928884969401E11
:2021100000F08E81C01E00F08781001F00F07581083800F05381103840F0858168684278C9
:2021300006788778C17841F60F0306EB0226001DF61A00F00181B61E00F0AA8045F6EF724E
:20215000B61A40F069810C2F00F26681DFE807F0927E70665C52483E34281B1107C0012920
:2021700040F05A8100780E990870CDF80080206D89E0022940F05081008810990880CDF8C8
:202190000080606D7FE0042940F04681006811990860CDF80080E06C75E0C046F0220020C7
:2021B000042940F03981006812990860CDF80080606C68E0FC330100022940F02D81008863
:2021D00013990880CDF80080E06B5CE0042940F02381006814990860CDF80080A06B52E0EF
:2021F000042940F01981006815990860CDF80080206B48E0022940F00F81008816990880B8
:20221000CDF80080A06A3EE0022940F00581008817990880CDF80080606A34E0012940F023
:20223000FB80007818990870CDF80080206A2AE0012940F0F180017827463970CDF80080FA
:20225000E06939461FE0C046840F0020022940F0E380008819990880CDF80080A06912E02E
:20227000219B0000458F000051620000F42E0020D0080020022940F0CF8000881A99088064
:20229000CDF8008060690F9A352394E040140020002F41D07F1E34D07F1E27D07F1E1AD03B
:2022B0007F1E0DD07F1E40F0B780042940F0B48000681B9908606448CDF80090406A34E0BC
:2022D000022940F0A98000881D9908805E48CDF80090C06929E0012940F09E8000781E99D0
:2022F00008705948CDF8009080691EE0012940F0938000781F9908705348CDF800904069CB
:2023100013E0012940F088800078209908704E48CDF80090006908E001297DD101784A48F0
:202330000170CDF800904849C0681C9A192342E0E9E200008D160100002F31D07F1E25D0C9
:202350007F1E19D07F1E0BD07F1E65D1012963D10078219908703848CDF800A0C06928E07E
:20237000012959D10078239908703348CDF800A080691EE095B4001001294DD100782499B0
:2023900008702D48CDF800A0406912E0022943D10088259908802848CDF800A0006908E00D
:2023B000012939D1017824480170CDF800A02249C068229A152309F0B5FC2DE088082BD352
:2023D000DBF8007047B37888397908373A4610F0E3F90746162F03D0042F01D00EF0D6FB2B
:2023F00016484669C7B936F00206466114D1144A14494FF6FD7001230AE040F226200AA9E0
:20241000E83005F017FF0023BDF82820094808490090102004F05AFB68680DF0A9FD02E069
:20243000A8780BF0C5FD28460DF0A2FD4FE6C0465903010040E2010040140020D00800207E
:202450008D160100E9E20000840F00202DE9F04F0746C84821F000440E460FF2D82BADF14D
:202470005C0DA04213DDC448A04203DD38460CF0A7FC48B1002000909BE80C0031463846F9
:2024900004F014FF0E46074631463846A1E2BB48A04205DC38460B46024603F0B3FF98E210
:2024B000B748B146AFA50FF2C42AA04280F2C880B448A04251DCB448A04200F36F81B34A6E
:2024D000C1F30A502315000502AEA3F21648251A3C460227AD18294620460CF071FC0EF013
:2024F000F6F80B460246294620460CC603F08AFF92A20CCA06F0A0FC04460D467F1EEAD191
:2025100006A880E830000325044694E803009BE80C000AF0A9F81DD002A808A942462B4609
:20253000FEF7C6F8B9F1000F014606D408A890E800030AAF97E80C001CE208A890E8000366
:202550000AAF97E80C00494289F0004983F0004310460EE2083C6D1ED7E78D48A04238DA88
:202570008C48A04200F01A81B9F1000F75A277A416DC0CCA384603F04AFF94E80C000D46C2
:20259000064603F044FF894680464B4642462946304603F037FF94E80C0003F038FF15E046
:2025B0000CCA384603F02EFF94E80C000D46064603F028FF894680464B46424629463046C3
:2025D00003F020FF94E80C0003F01CFF02460B46D8E17148A04200F0E180B9F1000F5DA24D
:2025F0005EA416DC0CCA384603F011FF94E80C000D46064603F00BFF894680464B464246AE
:202610002946304603F0FEFE94E80C0003F0FFFE8CE00CCA384603F0F5FE94E80C000D46DD
:20263000064603F0EFFE894680464B4642462946304603F0E7FE94E80C0003F0E3FE5AE05D
:20265000D449C4F31300814200F0A880D248A04236DAB9F1000FD4A2D5A417DC0CCA49469C
:20267000384603F0D4FE94E80C000D46064603F0CEFE80468946424630464B46294603F09B
:20269000C1FE94E80C0003F0C2FE16E00CCA4946384603F0B7FE94E80C000D46064603F095
:2026B000B1FE80468946424630464B46294603F0A9FE94E80C0003F0A5FE02460B467BE11B
:2026D000B9F1000F1ADC95E80C004946384603F09EFE9AE80C000C46054603F098FE80469C
:2026F0008946424628464B46214603F08BFE9AE80C0003F08CFE02460B4664E195E80C001F
:202710004946384603F07EFE9AE80C000C46054603F078FE80468946424628464B46214616
:2027300003F070FE9AE80C0003F06CFE02460B4634E1C04600000000000000000000000089
:202750000000704100004054FB2119403163621A61B4F03D0000307F7CD91240CA9493A76F
:20277000910EE93D00004054FB21F93F3163621A61B4D03DFC21E93F0000503E0000F07F28
:202790007A6A0F403C461C40FB21394100006041BCFD1540FB2119407CD912408EA20CCAB1
:2027B0004946384606F048FB0FF2342898E80C0003F02DFE98E80C0003F024FE0D918146B6
:2027D0000C9088460CF0FCFA0E9095E80C004146484606F031FB0B4602463146384603F0AE
:2027F00011FE15909AE80C008B464146484606F023FB13901598139A14910B46594603F008
:2028100001FE80460D984B4689460146184695E80C0006F011FB0B4602463146384603F02D
:20283000F1FD10910F900D990C989AE80C0006F003FB0B46024610990F9803F0E3FD241599
:202850004800A4EB5050102840F387800D990C9865A20CCA06F0F0FA8A46054610990F980D
:2028700053462A4603F0CEFD8B4615900D990C985FA20CCA06F0E0FA0E460746159A109921
:202890000F985B4603F0BEFD53462A4603F0BAFD0B4602463146384603F0B4FD1390149105
:2028B0001598149B139A594603F0ACFD8046894615981099119002460F98CDF848B05B46EB
:2028D00003F0A0FD53462A4603F09CFD0B4602463146384603F096FD024611980B465946CE
:2028F00003F090FD4800A4EB5054322C35DB0D9C0C9D41A20CCA2146284606F09DFA82462A
:202910001598894659464B46524603F07BFD80463BA2CDF854800CCA8B462846214606F04A
:202930008BFA0C460546129911985B46424603F069FD4B46524603F065FD0B460246214611
:20295000284603F05FFD0B461493024613925946404603F057FD89468046159859464B46E7
:20297000424603F04FFD149B139A03F04BFD0B460E99024611F0030104D0491E0ED0491E24
:202990001AD020E0012000904946404604F08EFC1FE0C046FB2109007CD902404946404623
:2029B00004F0E8FD15E0C04600004054FB2109403163621A61B4E03D012000904946404632
:2029D00004F074FC03E04946404604F0D3FD81F0004117B0BDE8F08F83C8C96D305FE43FF7
:2029F00000000000000038430000601A61B4D03D7370032E8A19A33B0000002E8A19A33B6C
:202A1000C14920259A837B392DE9F04F0F46CD4C0168E16241688068ADF11C0DE060C54872
:202A3000A1608047C448E16A0160A168DFF810A34160E168DFF804938160CE49002FA3460B
:202A5000C1606FD03D68E8788DF80C0028798DF80D0003A80FF09CFEA86808B1C6490160C0
:202A7000E86808B1C5490160C54C287820706878BE686070A878B268A0703178A2607368E7
:202A9000E1702E696360EA6926627968E2620868E06068696062A8697B68A062286A9E68AA
:202AB000206395F8240084F834001EB900200EF015FD00E066617868C06818B900200EF07D
:202AD0000DFD00E0A0617868006918B900200EF005FD00E0E0617868406818B900200EF029
:202AF000FDFC00E0206128692062F86881680E6806B9D24ED0494FF001084E60C66881F805
:202B1000018036B900200EF0E9FC4D462E68F86801E04D462E6000685446FB68A061586881
:202B3000E06107E000200EF0D9FC4D462E684FF001085446361DC7493668621C04F11403D4
:202B50005020B04710B1286880688047DBF808008047C24E002781463B46BF487770694640
:202B700020610422337038460CF09CFF0098B0F5801F0CD020B90DF039FF06F059F808E0F1
:202B90000CF0B2F80EF05EFF0420708001E00DF02DFF3846BA4EA0602B68B760986980470E
:202BB0007060AF4880F800803946418014200FF057F8FF211422A0620FF0B8FAE01CFF215F
:202BD00002220FF0B3FA14200FF04AF8A54F38603868002114220FF0A9FA002000F052F920
:202BF00040460CF0FDFDA0480188FF2906D1022101807822001D00210FF098FA03200FF0AA
:202C1000C3FD04200FF0BCFD05200FF0B5FD06200FF0AEFD07200BF0F9F9944E08203070A4
:202C300006F124000FF0A0FD0BF0AEFB06F1360A05200A2152460EF053FB38B10020C0F104
:202C50000901401C0AF8011B0A28F8DB3078102107F02CFC2B68864909200DF10E025E6884
:202C7000087001AB10200021B047A06AE1690A260A309DF80E20761E00F8012BF9D1891E2E
:202C9000E161DBF80C104846884704F120002B68626A059040461E69DFF8D88104F1200338
:202CB0004146B04710B1286880688047B8460DF0A9FF5FEA000903D008F078FB4FF0FF39DC
:202CD000002643E00298216910F8062CA0F10C07032A03D1002939D0884737E0A16A9DF8E0
:202CF00010C00A223046491E11F8013F9C4506D0521E00F10100F7D14FF0FF0A01E05FFA3F
:202D100080FA2868BAF1FF0F00F108001CD038790DF034F8B979012904D0022904BF029968
:202D3000887001E002990870029950460EF00EFA0CE0C04641490010F844002048240020EC
:202D500064210020D8170020006880472868C36904A902AA0DF10F0098470028B2D0D8F805
:202D700000007700C35B6BB9761CF6B20A2EF8DB2BE0C046F0270100C9080100D51601005E
:202D9000042000200A2E20DADBF808008047D8F80010002231F807A0CA53DBF80C1088475E
:202DB000354850F8262026705146304690470646FF202070DBF808008047D8F800107A5A2D
:202DD00016437E52DBF80C1088470DF01BFF0746B9451AD007B9294FE069B84238BF071C1B
:202DF000DBF80800804781462868016A206A8847626A28681F49059B521C6262C6683846C4
:202E1000B047DBF80C1048468847A768296860691431AFB9D8F800000A270026835B33B160
:202E30000969606988472968D8F8000014317F1E06F10206F2D107E09C230020D70C0100C9
:202E5000096988472968143109684FF0FF3088472DE7C0461D0E0100351701002C2400209A
:202E700028240020142F0020581A0020CC120020262F0020C5FD0000483A01008EC2F528BC
:202E9000B42E00202DE9F84FDFF8BC13DFF8BC23DFF8BC5308700821002010600D23DFF849
:202EB000B40340F23732017043808280DFF8A8030560AC7EDFF8A4030470FF2CE97E417034
:202ED00008BFFF292A7F82706B7FC370AE7F0671ED7F457115D1FF2A08BFFF2B11D1FF2E66
:202EF00008BFFF2D0DD1DFF878130A7802704B7843708A788270CB78C3700A790271497903
:202F10004171DFF860130278DFF85C83DFF85C93DFF85C730A70FF2543784B7082788A7001
:202F3000C378CB7002790A714079487188F8005088F8015088F8025088F8035088F8045089
:202F500088F805500020CB490880D9F83440CA49607808702278C9493A70A0780870A26838
:202F70001079C74A411E1170E078C649C64A0870E068106008B90EF0B1FA2069C34E30608C
:202F900008B90EF0ABFA3068DFF804A301688847326852F8041F50468847BE48BE49CAF834
:202FB0002000CAF824106069BC49086008B90EF095FAA069BA49086008B90EF08FFAE06962
:202FD000B849086008B90EF089FADFF8DCB2B74C9BF804000EF044FE0028206075D09BF877
:202FF0000500B34E0EF03CFE002830606DD09BF80600DFF8C0A20EF033FE0028CAF80000A3
:2030100063D09BF807000EF02BFEAB49002808605BD039789BF80000891C484380B20EF059
:203030001FFEA649002888604FD03878002862D0BBF80210484380B20EF012FEA04A002899
:20305000506042D038780EF00BFE9E49002808603BD0387840000EF003FE9B490028086002
:2030700033D03878182148430EF0FAFD974A106058B3387840010EF0F3FD9549086020B380
:20309000387800010EF0ECFD92490860E8B1387800010EF0E5FD90490860B0B13878302178
:2030B00048430EF0DDFD8D4A106070B18C483978007848430EF0D4FD8A4A106028B1387811
:2030D0000EF0CEFD8849086018B9BDE8F14F06F0A3B84FF0000B09E00EF08AFD002141803D
:2030F00081600180022303710BF1010B39785FFA8BF08842F0D32268694F0120107121683E
:203110000D732068457321688D732068C57321680D7400212068457400202268D172A0227B
:203130002168487103212068C2800172072022685072002120688172282120680122418216
:20315000C2760020216848770022206880F85E200121226811770120216881F85D00012248
:203170003068027131680D733068457331688D733068C57331680D740021306845740020B6
:203190003268D172002231684871306882724FF420703168C88008818A7401213368D974FD
:2031B000DAF800201573DAF800104D73DAF800209573DAF80010CD73DAF80020157400222A
:2031D000DAF800104D740121DAF80030DA720023DAF800201171DAF800104B71DAF80010B5
:2031F000C88008818B720520DAF800209374DAF800103E4AC8741068804739680546086892
:203210008047396851F8042F00209047D9F80C101C4B0A881878364902430A802846354A12
:20323000136898470C2134480FF09AFA40460FF093FA0FF08DFABDE8F44F034800784FF462
:20325000005107F033B900BF6E4F0020044F0020B63F0050604E0020084F00202C4E0020F7
:20327000E81200503C4E0020344E00209C3D01007B4F00200C4F00206D4F00206B4F0020B3
:20329000724F00206C4F0020F04E0020F44E00207C4B0020711C0100911C0100F84E002019
:2032B000FC4E0020F82E00207C230020104F0020144F0020184F00201C4F0020C02E00206D
:2032D000684E0020004F0020FC2E0020804E0020844E0020884E00208C4E0020904E002081
:2032F0006C240020002F0020042F0020E0170020544F0020E4170020F84D00202DE9F84FB5
:203310000C46E00788B00BD50EF082FC28B100218160B348006800B1804784F001005CE168
:20333000A0070FD500210023069105910491039302910191009101223C200FF005FA84F0AF
:2033500002004AE11D256007A64EA74F40F18A80002107918B46A5488178FF2904BF0020E7
:203370000EF0BCF8386890F8A0000EF039FB80463868C07A98F82691022818BF032808F581
:20339000907A06D106F10D000FF0DAF908B906F1070B514648460FF0CFF988B33868807ADB
:2033B000002818BF012804D1314650460FF0C0F904E05246494630460FF0B6F9FF2834D0E1
:2033D00005FB00F906EB090506225146E81D0EF0D9F916F80900396840F00209E81D0790C2
:2033F0000622887E00F0010088F8260105F1010A386800F1140108F590700EF0C3F914E0A5
:20341000514648460FF08CF978B15246494630460FF08AF9FF2808D006F10D0145434819BE
:203430000FF08EF908B949F0020908F12C004B46017806914289120905920122B8F82210A9
:203450000491C0880799029140080390CDF804B0CDF800A0002098F806100FF075F984F0EC
:203470000400BAE020060FD500210023069105910491039302910191009101223B200FF0C5
:2034900063F984F08000A8E0E0044BD5F11D06F10D000FF041F93868017A012918BF0429AC
:2034B00031D1C17A02291EBF0329817E01292AD1817E00F1140230460FF036F9FF2811D0B5
:2034D0004543354405F10D000FF03AF950B9E91D05F10D000FF020F938680622E91D14306A
:2034F0000EF050F93868C07A022818BF03280AD106F10D000FF024F928B938680622F11DBD
:203510000C300EF03FF93A4842683A4800784FF480510BF0F3FD10B18E2009F06FFA84F4BB
:2035300080505AE0A00505D50EF01CFC324901200860FEE7600504D506F0C1FB84F48060AB
:203550004BE0600405D5812009F058FA84F4804043E0A10440D5294D286810B100200DF00D
:20357000BDFF274E4FF0FF3028600FF0D1F83168244D51F8202F684690472349234B486A99
:203590008A6A009001920293C86A0268086A0392ADF810000A6B1178002904BF506800284D
:2035B00005D19068002804BFD068002806D02970506868609168A960D068E8602946356865
:2035D000134A2E6813486B46B0471349086003F0E1FC84F4005000E0002009B0BDE8F08FAC
:2035F000204F0020AC450020104F0020684E0020784E00206E4F0020FC002043044F002031
:20361000F04E00206845002004200020111C01002C4D0020C82D0020EC4E0020BB482DE9DC
:20363000F84F0025BA4CB849056094F8E200002800F06581012800F02F81B64E02283CD033
:20365000032840F05C8151F8250CD4F8B8100029A0F5C060C4F8D400B8BF49420028B8BF05
:203670004042814226DA4FF08057D7F8A4014568B4F8BC0030214FF47F42082300903046D0
:20369000A847D7F8A4014568B4F8C00004214FF4F802122300903046A847D7F8A401B4F8F2
:2036B000D070456820214FF440620A2330460097A847012584F8D8501CE151F8258C0EF0FF
:2036D00051FB2F4600B901273946934F38680028FCD0B146012609F10409D9F82CA03E60E3
:2036F00009B10EF045FBCAF30720C4F8BC000EF039FBAA4600B9B2463B68002BFCD0D9F828
:2037100000B0BAF1000F3E6001D00EF031FBCBF38440C4F8C0000EF025FBAA4600B9B246D9
:203730003B68002BFCD0D9F81C90BAF1000F3E6001D00EF01DFBC9F38120C4F8D000B8F58D
:20375000C061C4F8B81000F09C8094F8D80068B9C4F8D410D4F8C000C4F8C800D4F8BC707B
:20377000C4F8C470D4F8D030C4F8CC30D4F8D400D4F8BC30002854BF02226FF0010204F1B7
:20379000C8010F6800EB40008018421000EB927207EBA2000860D4F8C810C4F8C43000295C
:2037B0001CDD1E293CDDD4F8CC0030B93429B4BF15391E21C4F8C81025E02A29BABFD4F891
:2037D000C8000B381E20C4F8C800D4F8C4003F28B4BF401C3F20C4F8C4001FE0D4F8CC00D0
:2037F000032812D011F10B0FC6BFD4F8C8000B30301CC4F8C800D4F8C4000028C4BF401ED3
:20381000051CC4F8C450032508E011F1150FC6BFD4F8C8001530301CC4F8C800C4F8CC506B
:203830004FF08057D7F8A401B4F8C43030214FF47F424568374800930823A847D7F8A401AC
:2038500004214FF400321123456832480096A847B4F8C860D7F8A40104214FF4F8021223FF
:2038700045682C480096A847D7F8A40120214FF440620A23B4F8CC60456826480096A84753
:2038900001E084F8D85040F2FF50404502D8801C40452FD2082030E051F8251C1F4F4BF224
:2038B000F5204843060A3868C0F3814001280CD11B480068006880470BF0DEFE0EF05EFA07
:2038D0003111C010484306EBE03694F8E50030B91448006820F07F403618760801E084F81E
:2038F000E5501148310C0660012741600F4D8760287808B90B2000E0052084F8E40003F097
:20391000B9F9BDE8F88FC0462D400C402C500C40C416002000A00C4000800C40B43F00503D
:20393000EC010010102009403C600C400D3C01002DE9F84FB34D696884B0019121B905B04C
:20395000BDE8F04F0EF0E0BE0978DFF8BC82AF4EDFF8BC92DFF8BCA201291CBF022904298D
:2039700046F2A81741F64C5B05D0402918BF802900F096803CE10EF09DFA0028FAD0019861
:20399000007804F085FD0090446814B900200DF0A5FD9AF8010000285CD000F043F90EF050
:2039B0001FF802900168009801914F6809F094FD022825D000990A78012ADBD196490A6818
:2039D000137A19F80310317018B90EF099FE5844A0602069C17E01F0EF01C1762069C17EDB
:2039F00041F08001C1762069C17E01F0F00141F00201C1762269B96888484118D1614BE087
:203A100001980178802911D10820854930700A78012A03D09AF80100022801DB38690CE0BD
:203A3000D8F828003A690178D1720DE07C49072030700A783869012A02D10121C17203E04D
:203A5000D8F828104A78C2720298817901988AF80210C8E0009800288CD00199009A007827
:203A7000914205D101281CBF00200DF037FD15E0012840F0BD80684801680A7A19F80200FD
:203A900030700EF03DFE3918A0680EF035FE18B90EF036FE5844A0600120A8700098A2E0C1
:203AB0009AF8010000287AD000F0BCF80DF098FF04462068029047689AF802000DF090FF86
:203AD00003900EF0FDF910F0070F3DD0A87804F0DFFC0190416801980091029909F0FCFC4D
:203AF000022831D001990A78012A2AD14A490A68137A19F80310317028B90EF001FE83444D
:203B10000098C0F808B000980069C17E01F0EF01C17600980069C17E41F08001C176009874
:203B30000069C17E01F0F00141F00201C176009AB9683A4841181069C16101210198A9707B
:203B500051E000200DF0CAFC0398A04225D0029833490278802A12D108203070097801293F
:203B700003D09AF80100022803DB38690121C17210E0D8F828003A690178D1720AE0072079
:203B900030700978386901290EBF0122D8F828104A78C272A0798AF80200029823E00EF003
:203BB0008FF910F0070F29D0A87804F071FC04462078D4F80480012820D117490868027A45
:203BD00019F8021031700EF09BFD3918D8F808000EF092FD20B90EF093FD5844C8F80800FA
:203BF0000120A870204605B0BDE8F04F06F07CBD05B0BDE8F04F00200DF070BC05B0BDE812
:203C1000F08F00BFC02E00209C3D01006F4F0020289A0110684E0020104F0020F0D8FFFFA2
:203C3000734F00202DE9FE4FB24C617811B900200DF054FC0EF064FD4FF00008074607F631
:203C5000C417C246AC4DDFF8B49228E050460DF0C7FE06467079F0B12968B07901F808006A
:203C7000394608F101005FFA80F830460EF040FD30680178402902BF06F1820001780129E2
:203C900002BF41887289914205D1B169C088411830460BF095FE0AF101005FFA80FA99F8C7
:203CB00000008245D2DB6178884505D000200DF015FC82200EF018FD6078012840F0F18080
:203CD000002701E07F1CFFB299F80000874280F2E28038460DF084FE064670790028F1D037
:203CF0002968B0790A7890421CBF00200DF0F6FBB079FDE0286810F809000DF071FE006842
:203D10004268DAF808109068814204BF3E4609F1010900F0D480D6E0286890F800B0012214
:203D30004FF4C0710FE0636803F5AD76835C01FB03F901FB0BFE36F809C036F80E60B445C2
:203D500038BF9B46521CFBB29A42ECDB4FF6FF700EF0C6FC064658460DF042FE6849006809
:203D7000D0F804A00868D94630F8192060684FF4C07300F10E0103FB09F3C85AB2EBD00F01
:203D900052D2720840F6C4104243009200275D4A0190029217E058460DF022FE01680A78C4
:203DB000802A03D1DAF81030009A5A610978402908D1029980790A6802EB4011009800F57A
:203DD000A060C8617F1C47452EDA2868C05D8345F8D001464FF4C073594363685A1803F5B0
:203DF000AD73D289595A53088B4202D2521A9045E8DA0DF0F5FD01684A68019B9168DAF815
:203E100008207008A1F6C41103FB00200EF074FC0028C0D03A48006830F81910491C20F88A
:203E30001910286810F807B0296808780DF0D8FD0026006847684FF4C079464551DA286818
:203E5000805D0DF0CDFD0068296842688B5D606809FB03F3034403F18201087830B1588961
:203E7000B1F802C0401C80B2604508DA887B01280ED15889098A401C80B2884208DB6EB3D7
:203E9000B968906801F5C241A8310EF035FC28B3761CF6B2D1E700200DF020FB82200EF053
:203EB00023FC617828680EF017FC286800780DF097FD00260068D0F804A04FF00109771CEA
:203ED000C145FFF617AFF6B2002E1CBFF8B200287FF422AF286890F800B037E7296811F8CA
:203EF00006B007490A6800205B4622F813005846BDE8FE8F684E0020004F00207B4F00204D
:203F1000FC2E0020844E00202DE9FC47DFF8C4A20F460546F80B80F00A81A74EDFF88C8247
:203F3000B80F80F0BC80B80880F0B0803809C0F031819C480178090980F0A380007830F061
:203F50007F0040F09E80684607F040F9012803D10098002800F0958093480078002840F039
:203F7000908001240025E8B20DF0F4FC48B1837A3BB1847290F9090004FA00F0C0B20BF08B
:203F90001DFE6D1C032DEED345464FF0030905F1AC0085F810900EF08BF8854A00218846A8
:203FB00010681160834952F8080C05F1340042F8088C42460EF08CF83068006B8047AA6800
:203FD000A969801A000BC0F1FF328A422CBF01444FF0FF31A961287F20B1E868A969B1EB4D
:203FF000C02F20D97548006810F0010018D074480068000A14D3734840F6090101804146A3
:204010004180427B64F303024273027B61F30302027341600DF0BCFD418811F4406FFBD017
:204030002C774146A9616849086820F0020040F400700860654A42F8049C41F23006966015
:2040500014605023936014604FF4CA6696601460022042F80C4C44460C600BF0F1FF11205F
:2040700006F0E4FA287818B9686838300EF03CF8687F18B16C7705200BF0E2FF5448686188
:204090002C7409F0F1FD27F0080783E005F03CF940467430006808B927F002077AE00EF00B
:2040B0000FF834468146606D0068014604208847C8B1287CB8B14046083006689EB12068B0
:2040D000EC68006B8047801BE860010BE960A14202D209194908E96040F6C41088422CBFE0
:2040F000B1F5FA7FE86048460EF0F2FA0BF04AFD90B1A8696FF4807100224FF000730446CB
:204110002846A04740466C300068002808BF47F0020701D009F0A8FD686900214FF08063FE
:2041300004460A462846A04727F0005732E00DF0C7FF51460E684EB306F1280106C90A2313
:204150004FF0E0450B40154008BF002B1ED106F1280191E8300006F1280393E8060006F107
:204170002803AA43A14383E806000EF0B1FAB16871B1002D08BF002C0AD03069B6F93C1050
:20419000B2682B4616462246B04701E00EF0A0FA27F4804727B15046394650300DF0ACFF59
:2041B000BDE8FC871E2F0020112600207824002014100440CDD900008C01001040210840F3
:2041D000000004408C2E0020000004600C410440ADA10000F82400202DE9FC41A0F2013715
:2041F00014468846022F40F234819C4E9D499E4A3F1F0F2F04D9143F4CD0BF1E1CD011E015
:20421000DFE817F0D000CA000E01FB00C200BA002701B000A800100010009E009000810051
:20423000740066002D2880F21481B8F1020F40F010818949238808E1B8F1010F40F00981E4
:20425000F078012800F00581324620781179107189B9002800F0FD805078012800F0B6803E
:20427000042800F0B380062800F0B080052800F0AD80BDE8FC812078002840F0EA80507803
:20429000032800F0B080072800F0AD80052840F0E080A8E0B8F1010F40F0DB80207801282D
:2042B00040F0D78006F1F0000DF092FC002840F0D0803446002004F13E0108F091F90028D5
:2042D00040F0C78004F1CC000DF028FFBDE8FC81B8F1020F40F0BD8020880A28C0F2B98064
:2042F000B0F5486F00F3B5800E4619E0B8F1020F40F0AF802088B0F5FA7F80F2AA800E460E
:204310003080BDE8FC81B8F1020F40F0A28020880628C0F29E80B0F5486F00F39A80164644
:20433000B61CEDE7B8F1020F40F0938020880628C0F28F80B0F5486F00F38B801646DFE7B7
:20435000B8F1010F40F085802078062880F28180464E0EE0B8F1010F7BD12078042878DA89
:204370000A3606E0B8F1010F73D12078082870DA09363070BDE8FC81B8F1010F69D120786C
:20439000042866DA0836F4E7B8F1010F61D1207804285EDCF61DECE7B8F1020F59D120882D
:2043B0001036ADE7B8F1010F53D13079012850D032462078D178D07069B9002849D0507880
:2043D000012803D0042818BF052842D101200DF037FCBDE8FC81207800283AD1507802285E
:2043F00018BF052835D110780CF0A0F91C490246102002F06BFBBDE8FC8106F1870500218B
:204410001F22284608F033FC21464246284607F0B9F844463078B4710CF088F9002311E0C9
:2044300006F1680500211F22284608F020FC21464246284607F0A6F84446307874710CF01F
:2044500075F9012300940A4901950246102002F03DFBBDE8FC81C04655010100B005002047
:2044700099450110F4050020F0050020EE050020094501102DE9FC418E488F4A04788F4848
:204490008F4B90490D2C6FD8DFE814F012010E000E000E000E000A010A018E000A01C9004B
:2044B000C900E700E700EE00106041F204478648864DB0F802C08649BC451FBFB0F81AE01E
:2044D000BE45B0F83280B8454FF4A0561ED181480068D0F800C09CF8040003280CF1080EBB
:2044F0000BD1DEF80E0000281CBFBEF81800002803D01F80784911608AE0022C1CBF1E803E
:204510000D46156000208CF8040081E0BCF1000FA3F800C041D0BCF1010743D0B7F1010C15
:204530003BD040F2FE37BCEB07071ED0A7F1040CBCF1010F20D94FF47F77BCEB070C1DD018
:204550004FF44067BCEB07070FD0BF1E012F0CD93F1F0AD07B1E012B0ED940F2F937DB1B9F
:20457000012B1AD91B1F09D09AE0022C01D115604EE01E800D46FAE7584DF8E7584B1C685F
:20459000257A012D05D141F20243438043834386F0E7468046834686ECE700200CF09EFFE0
:2045B000832081E08F207FE04E498978FF290CD0106018204C4C41432068851C40F20446D4
:2045D0006C5A1C80A41B012C484B71D94FF47F76A41B0FD04FF44066A41B032C84BF641F2D
:2045F000012C0BD9A41E012C62D940F2FD36A41B08D103E0801C41F201444452136005F07E
:2046100057F805E000200CF069FF85200EF06CF8BDE8FC4136480078012105F047BF40F2A4
:2046300004424888188090421CBF41F2084290423ED041F60402904211D12E4C2E482F4B57
:2046500000680025CDE9004502222D4C256855F8086FB0472B4908802AE04888188000204F
:204670000CF03CFF85201FE04888188002280DD940F20442801A1BD040F6FC72801A05D0C7
:20469000083815D04FF47F72801AE8D1887B801CC2B2B52AA8BF662088730020488007E0B5
:2046B00000200CF01BFF8420BDE8F6410EF01CB8BDE8F3816F4F0020204F0020912001002A
:2046D000504F0020CC4C0020204A0020B1540110615A0110F44B002059550110755B011068
:2046F000104F0020684E0020804E0020313901106E4F002002000080EC4E0020ED00010045
:20471000F04E0020424F00202DE9F04F8246DAF80070DAF804600C465FEA0208ADF11C0D79
:2047300014BF00214FF0FF31DFF8409248460DF0C4F9002818BF0B2040F0158100258F4829
:204750008C4905708A48FC6052460DF0C1FC317B27200DF0BFFCB8F1010F07D0657002204D
:204770000BF052FE06200BF04FFE01E0012060702078012840F2AA80801E012868D9801EDB
:20479000012833D9801E012800F2DE800DF098FC83464FF0805000F5EE77D0F8DC01A3783A
:2047B000466A009321782846062908BF0120019001200290A068228AE1686368B0478146BE
:2047D00058460DF085FFB9F1000F40F0BF80B8F1000F02D00CF09AFF02E050460BF0CCFC28
:2047F000002800F0A3803868806A2AE00DF068FC83464FF0805000F5EE77D0F8DC0101237E
:2048100006680093A168A27860682478AC46042C08BF9C466346B047814658460DF058FFDC
:20483000B9F1000F40F09280B8F1000F02D00CF06DFF02E050460BF09FFC002876D038685F
:20485000406880474C49C1F8B0510D6081467DE00DF036FC83464FF0805000F5EE77D0F8D0
:20487000DC01E38A86690093E0680190208B0290A0780390207D04900121059122782846AA
:20489000022A08BF081CE1786268A368B047814658460DF01DFFB9F1000F57D1B8F1000FB5
:2048B00002D00CF033FF02E050460BF065FC00283CD03868006A80475FEA000946D1E0784E
:2048D000A168E28A236907F055FFBFE70DF0F8FB83464FF0805000F5EE76D0F8DC01E38AA3
:2048F000C7680093E0680190208B0290A0780390207D2946049001200590257805B901462D
:2049100008466268A368E178B847814658460DF0DFFEB9F1000F19D1B8F1000F02D00CF0A4
:20493000F5FE02E050460BF027FC08B914201AE03068406980475FEA000907D130680269BA
:204950002169E078904781E74FF0FF39B8F1010F05D002200BF074FB06200BF071FB0348BD
:204970000DF0C2FB484607B0BDE8F08F481B0020801B0020AD0A010050450240242F0020C4
:204990002DE9F04385B011F8017B0446082F04F1FD0004F1FC0804F1760504F5A076844A4B
:2049B000844BDFF8149213D0092F21D00F2F2FD0112F01BF287801286878102840F0D580EC
:2049D0000A78327648787076012184F83D11EBE00025521C4E5D5F5D3E434E55575D3E40F0
:2049F00046556D1C082DF5DB204608F03FFD74E00024571C0D5D1E5D35430D553A5D15404E
:204A10000555641C082CF5DB022088F80000CBE098F80100820704D410F0110F57D01A22E6
:204A300066E008784A7800EB02203080CA78887800EB022070804A79087900EB0220B08061
:204A5000CA79887900EB0220F080087A30724A7A887A02EB00227281C87A0A7B00EB0220C5
:204A7000B0818A7B487B00EB0220F0810A7CC87B00EB022030828A7C487C00EB022070825E
:204A90000A7DC87C00EB0220B082487D897D00EB0120F082494801788A0658BF1A2212D5DF
:204AB00004F5A670049071890391307A029021890191F0880090B38872883188204608F0E9
:204AD00073FAE0B11E2298F80100410710D40F2088F8150020460DF0F7FD002864D199F8C2
:204AF000000005B0BDE8F0434FF4804105F0DEBC204605B0BDE8F0430F210DF0E1BD7088D0
:204B1000A882B188E9820221F0882883297400206882A18EA88AC91DE981618EB0EB510F2F
:204B300002BFE88AA18E884202BF288BE18EB0EB111F18D02878012804BF68780F2805D02B
:204B5000687918B10F21A972FE2127E0FC2120460DF0B2FDF0880090B38872883188A079EC
:204B70000DF0A6FD20E0102118E0491E20460DF09BFD032F18D1A878042818BF0D2813D1A3
:204B90006E78142E18BF0E2E0ED12F7820460DF087FD012F06BFAE72FD213146204605B098
:204BB000BDE8F0430DF088BD05B0BDE8F08300BFEC4D0020E42E00206E4F0020144E002055
:204BD00010B50B7884074CBF43F0020303F0FD0304064CBF43F0800303F07F0304074CBF66
:204BF00043F0080303F0F70384064CBF43F0200303F0DF0310F0AA0F0B7003D0107840F0FB
:204C10000C0003E018B9107800F0F300107010BD2DE9F8430D4600272878022814461E46B9
:204C300067D1696808784978DDF8208000EB012080B25FEA08021CBFB0F5285F0B205BD1B6
:204C50004FF42851401A08D0401E21D0401E2FD0401E25D0401E31D04BE0DDF82490E868F4
:204C70000DF066FA80B2A0EB08024A45BCBFA0EB08001FFA80F909EB0800162806DAA6F819
:204C900000904A46E86800EB08010DE00D2732E0E8680088022131802070000A60702AE04D
:204CB000062030800622E96820460CF06BFD22E001203080E9680A7822701CE0E868B0B1E6
:204CD000082131800288227003881B0A63704188A1704288120AE270818821718288120A78
:204CF0006271C188A171C088000AE07103E0308001E0378001273846BDE8F2832DE9F0479B
:204D10000F46814638780024022890461D466DD17868089E01784078DFF8D8A001EB0021DF
:204D300089B24FF42852891A06D0491E29D0491E4ED0491E39D059E0F8680DF0F9F980B2E3
:204D5000B04204D3A919162903DB0D244FE007244DE0FB682A46414698190CF013FDAD1906
:204D7000F868ADB2C5F11602002140190DF0DEF9DAF8000000281CBF0268002A37D00021B7
:204D900023E08EBB022DE0D198F8000098F80110FA6800EB01201080DAF8000000281CBFD3
:204DB0000268002A23D001210FE0EEB9062DCCD1F868062241460CF0E5FCDAF800000028EE
:204DD0001CBF0268002A12D00321484690470EE056B9012DB9D198F80000002813BF012881
:204DF000F9680870802402E00B2400E001242046BDE8F0870C2F00207CB5894D144602468A
:204E10000026A2F58062182A1AD8DFE812F0FE00F800F100E900E200DC00D500D00019009A
:204E3000C500BE00B700AE00A3001900190080006F00680054004C00420039002C002400E3
:204E50002D2880F28580022940F0828021880BF079F90646E1E0012940F0DE80002C00F022
:204E7000DB801135A6E0102940F0D680002C00F0D38028465030102221460CF083FCCCE01F
:204E9000012940F0C980002C00F0C68029468D1D90E0262940F0C080002C00F0BD8005F166
:204EB00060002622E8E7012940F0B680002C00F0B3806D1D7EE0602900D13CB9012940F0FB
:204ED000AB80002C00F0A8800D3573E005F18600214660220CF056FC012068739DE0012968
:204EF00040F09A8020780DF0D7FB96E0012940F093802078022800F38F800C3528702078D9
:204F1000022814BF301C01200DF0C2FB85E0072940F08280611C684606220CF009FB2078AB
:204F30006946324605F006FE04460A2C10DA0DF0ABFB38B9204603F04BF80BF077FE09F03E
:204F500023FA6AE02A46012002F12C05285564E0022662E001295FD1A87B21780028A973A0
:204F70005BD12078012858D1E9E7012954D12478072C51DB102C4FDC0B3537E001294BD1ED
:204F900024780A2C48DA093530E0012944D12478022C41DA083529E000293DD10DF074FBB2
:204FB00010B90CF084FCC8E701240F351EE0012932D10A35247819E001292DD12478022C93
:204FD0002ADAED1D12E0102926D12B4603F1400051E7012920D12478022C1DDA2D1D05E0A9
:204FF000012919D12478042C16DCED1C2C7014E0012911D12478022C0EDAAD1CF6E70229A7
:205010000AD120881435288007E0012904D12478022CD8BF6D1CE9DD182630467CBDC04683
:20503000CC1200202DE9FE4F05467B48002400680094C00905D37948007810B920200BF0F3
:20505000CFF8012D40F0E280DFF80092D9F8DC00012840F0D8800220C9F8DC000CF0DEFA5F
:2050700001200BF0BDF85FEA000805D00120C9F8DC000CF0DFFACBE00DF03AF8A346029041
:205090006748684DC0F800B0A86A016801208847012804D1584608F055FA0120009062488B
:2050B000624FC0F800B0386811200CF079FE00B1012410200CF074FE08B144F002040F20ED
:2050D0000CF06EFE08B144F004040B200CF068FE20B12868564E016B308888470A200CF0B8
:2050F0005FFE20B12868534E016B308888475248012606602868816944F0200088474F48F3
:2051100006600CF047FE00F001010191400814D2286A81684A4888478246BAF1040FF7D0FD
:20513000BAF1010F04D1286A42684548032190474449086820F003000860584600F088F885
:205150002B683868986B8047019801280CD0BAF1010F04D1286A4268394831469047394987
:20517000086840F0030008602F48066028684169204688470B200CF013FE20B128682C4BB8
:20519000C16A188888470A200CF00AFE20B12868284BC16A18888847274806600322C9F80E
:2051B000DC20264BC3F800B02868416B204688470128F9D1386804200BF012F80446184830
:2051D00006603868144800688009FBD30098012802D1304608F0B6F90CF0CAFD08200AF008
:2051F000FFFF07460298C9F8DC600DF049FA1648008807F04BFF0CF01DFA57EA040018BF27
:205210004FF0FF3804E06FF0040801E06FF001084046BDE8FE8FC04614100940AC17002062
:205230000C400940B8010010000222432C2009402C380100283801002820086080010443C6
:205250000040034024220840083C0100C41600202DE9F84FDFF804B20746ABF13500DFF80F
:20527000F0810068800880F0E28075480068006880477E490831D1F8009000254FEA297146
:205290005FEA995201F101010AD2C0F13E0210F10A0F4FEAE202D8BF08229142B8BF111C9A
:2052B000684BD3F87C21C2F30462162AA8BF203A1B68C3F30443162BA8BF203B9A465218DA
:2052D000162A05DA12F10A0FB8BF6FF0090200E015225D4B5D4E02F01F0141F4F85119800F
:2052F000316811F0030F18BF0125C90828BF45F002050FB145F00405434693F90710411A7C
:20531000052904DA9979A94208BF99886FD0DFF844E10F28A0F10F0829DB08EB0011A1F1D8
:20533000F0084FEA28210091072984BF07210091062988BF06215EF821600424774604EBDE
:2053500081043C594FEA950CA41BEE0804F0FF0124BFC4F3072631446F08AE0824BFC4F39D
:20537000074631446E0828BF01EB146104E000214FEA950C6F080091009C5EF824E05FEA77
:205390005C060EF0FF0424BFCEF3072634447E0824BFCEF3074634446E0828BF04EB1E6494
:2053B000009E89B2A8EB06267143803104EB1124AAEB02010029D8BF0121342209F0FF07ED
:2053D0004A4391B24FF6FF727943B1FBF4F18A4238BF111C802889B2998005DA10F1800F8F
:2053F000B8BF6FF07F0000E07F20D8719D711A4800681F2918604FF0000008D340F2FF128B
:205410008A4206D24908401C8A42FBD301E01F219980134F0F39090940EAC10047EA00017E
:20543000CBF8FB1F0026CBF8FF6FBDE8F88F0D490D4F434608200F609B1D1870BDE8F88FBE
:20545000EC0100103C1100506E62084024220840EC2E00209C1300500820094035000940D4
:2054700000E7A48030100940FDFDA400AC3F00502DE9F04F044675488A46016894461F46DB
:20549000BAF1000FADF13C0D4DD0BCF1000F4AD09AF8002001209040014244D0BCF80000BA
:2054B000B0F5C15F32D1DCF81430DCF818206848DCF81C104FF0030E0DF128080B93DFF84D
:2054D00094B10C9200680D91C0F3036958F8046FCEB10021351F05200B4655F8042FB2F164
:2054F000FF3F10D0934506D0401E01F1040103F10103F2D107E0052B05DA705820F470205E
:2055100040EA09407050BEF1010EDFD1C4F804A0C4F808C00CF0D4FD4F4D8046287820B156
:2055300040460DF0D5F800208DE002F01BFF4B49086840F00200086007A80CF031FB0026D7
:2055500005F1D00007AA464909960AF0EFF8454905F5827007AA0AF0E9F807A80CF0D8FA32
:20557000FF2105F1340007AB3F4A0891192109F0EBFF3E4A05F150001A2107AB09F0E4FF49
:205590003B49324605F18800134609F0D3F83949324605F1AC00134609F0CCF8364A05F13C
:2055B0002000042133460BF0A1FA0E2005F068FA05F174000CF0A6F905F16C000CF0A2F904
:2055D0002E74072085F898012E77AE616E770523AE602B49EB602A786961501C2870274B6C
:2055F0001E7040460DF074F8B1464FB92548B0E88C106946A1E88C100DC86F4681E80D00AA
:2056100038682060398A6182012060747B6813B940F6C4130646E3601B48A06126746061B5
:20563000F86800B1A061B86800B160615822494604F1200007F01BFB04F1380049460BF0D4
:205650000FF920466C600FB0BDE8F08FD4210840541300500200F8447824002000200940C6
:205670007516010015A00000CDD90000C9D70000FD0F01000D1401005DEA00001E2F0020B0
:20569000ADA10000783B01003BA600002DE9F04F05468048066800680F461C469246C4F393
:2056B00099018900ADF12C0D0A010021803207F0DEFADFF8C891A9F1880002466E4801687A
:2056D00030469047A3088046610801979F1C21F00101F819009506EB80000390091DCDF898
:2056F00008A07818434506EB800206EB870B3844049206EB80000690C4F39C004FEA8000BF
:2057100000F1080007EB400000EB070206EB82020A9224F0030202F1080200EB020506EB50
:2057300085053A44059506EB82050A4407953A4406EB8202089206EB80020992084406EB7D
:20575000800A384406EB800518BF6FF0010040F08F8009F1680002464146304690470023A6
:205770003CB10199264611F8010B761E40EA0303F9D1002B08BF01207AD000263CB1029978
:20579000234611F8010B5B1E40EA0606F9D1002E08BF02206CD001995846C8470398029932
:2057B000C847009881680498C8473548049A594681462846C847012803D14FEA88042E5957
:2057D0000EB1032054E0BE0028460021324607F04EFA0399049A2846C847012801D12F5965
:2057F0000FB1042044E0274F274C069859463A46A047079803993A46A047069908982746B6
:205810000A46B84709980899069AB8470A9806991E4C2246B84728460021282207F027FA45
:205830001B4809990A9A81462846C8472034284622460146C847079950460A46B8470598C9
:205850000021324607F013FA5FFA88F45046002C0CBF01225FFA88F200216B5C445CA342D6
:2058700018BF052004D1491C521EC9B2F5D100200BB0BDE8F08FC0468C4F0020B9DB00108D
:20589000C9DE0010E8210020F9E0001020390100C9E60010884F00202DE9F0410446804DC1
:2058B000A178A869ADF1180D891F00F0F280C91E00F0DD80491E5FD0491E48D0C91E3CD0A5
:2058D000481E40F0E980287A697AB8B96878002831D0A0880CF0D0FE071C00F0DD80A07A3E
:2058F00040080FD3787968B1E168890A0AD2B91D01AA05F01FF90A2804D10321A0880CF0CF
:20591000B7FEC9E0287B022802D1A07A0009F4D3A088797904F1080201F074FAA8690028DE
:2059300000F0BA804368002B00F0B68000210A46A0889847B0E00521E0E7002800F0AC80F8
:205950004368002B00F0A88062780221F0E70CF067F9002800F0A080A86950B1076847B168
:20597000206900906189227B637BE01C3C46A04792E060890121C2E767784FF00008002FB9
:2059900066D1A179490863D3EF69002F60D101A841460E220CF0CAFBA0880CF06DFE071C94
:2059B0007AD0606940B97879B91D06228DF80A0001A80BF0E7FE19E06669307C062206F131
:2059D00011018DF80A0001A80BF0DCFE07F10C00B91D06220BF0D6FEB81D062206F11101C1
:2059F0000BF0D0FE307C40F002007871A079C00839BF387900F0FD00387940F00200387104
:205A1000A079000939BF387900F0DF00387940F020003871A1799DF81120C1F380001043CB
:205A30008DF81100080905D39DF8110040F008008DF8110001A8214600F028FA28B92878C0
:205A5000022104F033FD404627E0A8694FF0150810B3436803B3A088627801219847B8F125
:205A7000000F19D0A86943680321424660E7E078211D002205F05EF80A280DDA410001EB26
:205A9000800004F10C0225300421C0B203F0CEFA02E0A08808F0C6FE012006B0BDE8F08119
:205AB000CC1200202DE9FE4F0E468246307AC10693461F464FF000090CD558460CF0D4FD16
:205AD000030000F0E8800A223146504698475FEA00094DD130780C9D0D9CDDF83880022822
:205AF0001AD170680178407801EB002189B24FF42052891A012910D9891E3AD0491E14D0F3
:205B1000FD397AD0491E00F08180491E6DD0491E73D0491E00F09580ABE0002C2AD1F068D9
:205B3000017829800278416887E0002C22D101202880F1680A783A7000217089401C80B294
:205B50000CF08EFD298860B10278921C51182980418979704289120ABA7041680278F81CB7
:205B70006CE0091D298004220021781C0CF0DEFA93E0002C66D1F0680688042129803E7013
:205B9000320A7A700DF1020130460CF069FD040021D0D4F80C80BDF802204FF6FF766B4667
:205BB00031460CF059FD40B9237862683C4802210CF04EFD08B9ADF8006098F80000022840
:205BD0000BD1D8F804100222381D0BF0DBFD2888801C288001E0ADF80060BDF80000B870F2
:205BF000BDF80010090AF97057E0002C2AD1F068016850460BF084FF02E01CBBF068008888
:205C1000022129803870000A787046E0F0680CF08FFA80B2A042B8BF4FF007093DDB844253
:205C300008BF002205D008EB04028242B4BF4246021B2A8092B2F068011938460BF0A2FD49
:205C50002BE014B14FF00B0927E0F0680721298002783A7043787B704188B9704288120A3F
:205C7000FA7001793971C2887A71C088000AB87113E058460CF0E8FC5FEA00090BD00F9891
:205C90000290CDF8048000942B463A4631465046C847814601E04FF00E094846BDE8FE8FBA
:205CB000AC3901002DE9F04F0746880FADF1140DC0F0D4806B4E301D006841688D68CC68B2
:205CD000486800B18047B046674E002D08BF002C0BD030680028FCD00020306005B1A84705
:205CF00004B1A04761480AF063FD0024A6F11C015F4ACC615F480A6040F60A0CA0F800C092
:205D10004480017B64F303010173A646C0F804E0417B4FF0010A6AF303014173BA687B7CA8
:205D300054801188B146A1F60201C9B141F21E05491B15D041F6E675491B012920D8517E55
:205D5000012B64F38201517606D0118B21F47C7141F43471118313E0118B64F30911F9E7A4
:205D7000517C012B64F38201517405D0118A21F47C7141F4347102E0118A64F309111182AE
:205D9000D7F808B07C7461465D4600E035466E6816B132889142F9D168606A7B64F30302DA
:205DB0006A73D8F86C603EB1F2681288CB1F93421BD0891F914218D03E8CC6B1C7F824E066
:205DD00007F120014C8097F82C2064F3030287F82C2097F82D206AF3030287F82D20416021
:205DF000417B64F30301417301E0C8F808402248036882680192C168406B0093102220F0E4
:205E1000784040F0805003901C480291694605F0B9FBD9F800000028FBD01948C8F81400DF
:205E300098F81D00C9F8004078B916480068006801465046884701280DD0687B6AF3030050
:205E50006873114FC8F8147005E009F0BDFA0028FBD00CF045F958460BF09AFE05B0BDE866
:205E7000F08FC046782400201C1004400100070601010E048C2E00204C130050180000217D
:205E9000193F0000E0010010D9DC00002DE9F04F754CDFF8D0A1E56988468146ADF1140DF4
:205EB000002D52D1B9F1000F00F09A80B8F1000F00F096800AF0B0FD06460A2E267426DA3C
:205ED000D8F81470002F41D0700010216A4600EB86002330C0B20BF003FAB0B91020ADF168
:205EF000010111F8012FFF2A02D1401EF9D10CE05046007838B999F80600494600F0010031
:205F10000CF09EFB01E00120A074E5691DE004F1E60B0A2700265846FF2106220BF04CFB16
:205F300088B97F1E0BF10E0B06F10106F3D1607C002804BF0A20207452D094F8366030465D
:205F500002F046F8E569267400E0267C0A2E47DA002D35D170000E214A4600EB860020301B
:205F7000C0B203F063F8207C08F0BCFD6846FF2110220CF0DBF8207C10216A467030C0B2A6
:205F900003F054F8217C0E220801A0EB410000194946E6300BF0F6FBD8F814206AB15046B1
:205FB000007840B9107C02F11101002300F001000CF042FB01E00120A074C4F81C804CE0E8
:205FD000AA68002A3ED12A69002A2FD16A690ABBEA683AB9A07B08B10AF0E8F80BF071F9B9
:205FF00001203BE07000102100EB86002430C0B203F01CF8E769217CFA68480000EB810073
:20601000103225300421C0B203F010F8E1690020C86022E07000102100EB86002330C0B2DC
:2060300003F004F8E1690020486116E070001C2100EB86002230C0B202F0F8FFE169002023
:2060500008610AE070001C2100EB86002130C0B202F0ECFFE16900208860002005B0BDE853
:20607000F08FC0465A4F0020CC1200202DE9FE4F714C606A4068014668468847207922793A
:20609000BDF80010401C04EB4202C0B208281186B9BF20714FF0000A4FF0000A84F804A0A8
:2060B000A06A4068014604F1080088476179208904EB4101A1F840006079401CC0B20828A7
:2060D000B4BF607184F805A0FF23082720461D462E3030F8022F018A7F1E1A44294493B242
:2060F0008DB2F6D141F27071D810ED109942D8BF94F8018002DD01276770B84640F6C4112B
:20611000814202DA01276770B846A1F19602824206DB40F25233834203DDA382184601E044
:206130001046A08240F2EE23AB4202DD02276770B846A94202DA02276770B846AA4205DB39
:206150006433AB4203DDE3821D4601E01546E582A0F252300F2190FBF1F086B22682678ADF
:20617000B4F80AB0B4F80C90012F12D158460BF00DF80190029148460AF0A9FA2CA20CCABD
:2061900002F05AFE02460B460198029906F0AFFA1DD90FB9062E15DA58460AF098FA01909D
:2061B0008B4648460AF093FA21A20CCA02F044FE024601980B46594606F056FA12D2062EED
:2061D0000ADB0FE001276782A4F80CB00AE0B9F1000F05D1062E03DAA4F812A0574601E01C
:2061F000012767820F20A5F25231B8F1000F91FBF0F081B261810BD1012F09D0E079282274
:20621000484300B2C0EB801090FBF2F0E08101E0A4F80EA0E06A0268A08B1346424698475E
:206230000649C87884F802A0401CC870BDE8FE8F666666666666E63F541E0020B8210020C7
:206250002DE9F84F8B460AAF6D4E9BF80050DBF80400BC889246984631462A463F8800909A
:206270000AF0B0FD4FF0000940B9022F00F3BC80C7F10200A04200F3AD808DE000982A4695
:20629000B11C0AF09FFD40B9022F00F3AD80C7F10200A04200F39E807EE00098311D2A46E0
:2062B0000AF090FD40B9022F80F29E80C7F10100A04200F38F806FE0009806F114012A468D
:2062D0000AF080FD38B9022F80F28E80C7F10100A0427FDC60E0009806F124012A460AF041
:2062F00071FD30B9022F7FDCC7F10200A04271DC52E0009806F134012A460AF063FD30B919
:20631000022F71DCC7F10200A04263DC44E0009806F144012A460AF055FD30B9042F63DC05
:20633000C7F10400A04255DC36E0009806F154012A460AF047FD30B9042F55DCC7F10400CD
:20635000A04247DC28E0009806F164012A460AF039FD30B9022F47DCC7F10400A04239DC9C
:206370001AE0009806F174012A460AF02BFD30B9042F39DCC7F10400A0422BDC0CE0009823
:2063900006F184012A460AF01DFD38B9042F2BDCC7F10400A0421DDC84B21BE00098B11D94
:2063B0002A460AF00FFD30B9022F1DDAC7F10100A0420DDD0EE0009894362A4631460AF090
:2063D00001FDA0B9022F0FDCC7F10200A04201DC82B200E02246A8F80020DBF80C10504600
:2063F000C91905F0CFF807E04FF0070904E048464FF00A09A8F800004846BDE8F88FC04695
:20641000583501002DE9FC4F83F0004301E02DE9FC4F1F03FF0847EAD2574FEA42284FEA26
:2064300043095FEA595906D147EA080A1CBF00210020BDE8FC8F57F000575FF4E06E1EF151
:20645000FF0EF14505D14FF00000190D0905BDE8FC8F002B05D55FF0000AD8F100086AEBEC
:2064700007070C03E40844EAD0544FEA40254FEA4106760D08D144EA050A19BF00210020E1
:20649000191C101CBDE8FC8F44F00054764504D10020090D0905BDE8FC8F002904D55FF07E
:2064B000000A6D426AEB0404B6EB090E08D5A2463C465746AA464546D046CEF1000E4E4628
:2064D000BEF1360F5CBF4FF0000B23E0BEF1000F04BF4FF0000B1AE0CEF1390ABAF12009B5
:2064F0002EBF08FA09FB07FA0AFB4BEA080BDEF1200A07FA0AFA38BFBA4647FA0EF72DBF24
:2065100028FA0EF8AEF1200E4AFA0EF8D04415EB08057C4154EA050A02BF00210020BDE85A
:20653000FC8F002C58BF4FF0000A06D55FF0010A5FF0000E6D426EEB0404A6F101066D0087
:206550006441FAD515F4806E11D005F480794BEA090B15F5806554F1000428BF761C0BD216
:2065700005F400795BEA090B08BF25F4006525F4E0656D0044EB0404B61CDEBF0021002049
:20659000BDE8FC8F5FF4E06E1EF1FF0E76450AD34FF0000013F00043FF21C900C91D090504
:2065B0001943BDE8FC8F270547EA1530210B41EA065141EACA71BDE8FC8F70472DE9F04F4D
:2065D000ADF11C0D0190049300280392109D0291119C059500F0BC80081C00F0B980101CD3
:2065F00000F0B680181C00F0B380281C00F0B080002C00F0B280206A002800F0A9805A4DEA
:20661000676A281D0068002F00F0A280A16A0CF00FF840B2071C08BF6FF0020700F0948055
:2066300020786288216A84F82C7000EB80001218143290B288474B49086030B9284640683E
:206650000BF0F2FF4FF0FF377EE00846B4F802B06688277894F800900568204608F0BAF899
:206670002078AB44C01C8010CBF800002078B919491901F1040AC01C8010CAF800002078C2
:2066900006EB4703591901F10808C01C8010C8F80000217809EB49094B469A19521902F18E
:2066B0000C09C91C8910C9F800102178D8198019401900F11005C91C8810019928602278AB
:2066D0000BF1040004F05EFF227802990AF1040004F058FF2278039908F1040004F052FF62
:2066F0002378204651464246FEF7D0FF071C14D100955846514642464B460BF091FF80466A
:206710002278049809F1040104F03CFF22780598291D04F037FF4FFA88F7124821786288B9
:20673000006801EB81015218002106F0A0FA0D4E606A0146306888470B4840680BF074FF1C
:20675000F8B2992808BF002784F82C70384606E01CB16FF0010084F82C006FF0010007B068
:20677000BDE8F08F884F0020E02100202DE9F04FADF1240D079001F0F5FD5F4800780AF016
:20679000A3FA5E4D0024012806D90C3804D0401E0ED0401E09D006E00AF034FF022804BFEA
